:020000040800F2
:100000000000052099050008B91E0008BB1E000865
:10001000BD1E0008BF1E0008C11E00080000000031
:10002000000000000000000000000000F170000867
:10003000C31E00080000000081710008196A000852
:10004000E9050008E9050008E9050008E9050008D8
:10005000E9050008E9050008E9050008E9050008C8
:10006000E9050008E9050008E9050008E9050008B8
:10007000E9050008E9050008E9050008E9050008A8
:10008000E9050008E9050008E9050008E905000898
:10009000E9050008E9050008E9050008E905000888
:1000A000E9050008E9050008E9050008E905000878
:1000B000E9050008E9050008E9050008E905000868
:1000C000E9050008E9050008E9050008E905000858
:1000D000E9050008E9050008E9050008E905000848
:1000E000E9050008E9050008E9050008E905000838
:1000F000E9050008E9050008E9050008E905000828
:10010000E9050008E9050008E9050008E905000817
:10011000E9050008E9050008C51E0008E905000812
:10012000E9050008E9050008E9050008E9050008F7
:10013000E9050008E9050008E9050008E9050008E7
:10014000E9050008E9050008E9050008E9050008D7
:10015000E9050008E9050008E9050008E9050008C7
:10016000E9050008E9050008E9050008E9050008B7
:10017000E9050008E9050008E9050008000000009D
:10018000E9050008E9050008E9050008E905000897
:10019000E9050008E9050008E9050008E905000887
:1001A000D11E0008E9050008DD1E0008E905000869
:0401B000E91E00083C
:1001C00010B5054C237833B9044B13B10448AFF391
:1001D00000800123237010BD4001002000000000BA
:1001E0005CED010808B5034B1BB103490348AFF3AD
:1001F000008008BD00000000440100205CED010803
:1002000001F0FF01102A2BDB10F0070F08D010F8C7
:10021000013B013A8B422DD010F0070F42B3F6D1CB
:10022000F0B441EA012141EA014122F007047FF0E4
:1002300000070023F0E80256083C85EA010586EA3B
:10024000010685FA47F5A3FA87F586FA47F6A5FA77
:1002500087F68EB9EED1F0BC01F0FF0102F0070283
:1002600032B110F8013B013A83EA010313B1F8D12E
:100270000020704701387047002D06BF354603380F
:10028000073815F0010F07D1013015F4807F02BF48
:10029000013015F4C03F0130F0BC0138704700BF99
:1002A00053B94AB9002908BF00281CBF4FF0FF31DD
:1002B0004FF0FF3000F06EB9ADF1080C6DE904CEDF
:1002C00000F006F8DDF804E0DDE9022304B0704731
:1002D0002DE9F047089D04468C46002B40F08380B2
:1002E0008A42174647D9B2FA82F242B1C2F12000DF
:1002F00024FA00F09140974040EA010C94404FEA04
:100300001748230CBCFBF8F61FFA87FE08FB16C142
:1003100043EA014306FB0EF1994209D9FB1806F1A5
:10032000FF3080F01981994240F21681023E3B4431
:100330005B1AA4B2B3FBF8F008FB103344EA0344A1
:1003400000FB0EFEA64509D93C1900F1FF3380F0F1
:100350000581A64540F2028102383C4440EA06404D
:10036000A4EB0E0400261DB1D4400023C5E90043D0
:100370003146BDE8F08702B9FFDEB2FA82F2002A08
:1003800050D1CB1B4FEA174E1FFA87F80126B3FB5B
:10039000FEFC210C0EFB1C3341EA034108FB0CF36D
:1003A0008B4207D979180CF1FF3002D28B4200F250
:1003B000E9808446C91AA3B2B1FBFEF00EFB10110E
:1003C00043EA014408FB00F8A04507D93C1900F1B5
:1003D000FF3302D2A04500F2D9801846A4EB0804EE
:1003E00040EA0C40BFE78B4209D9002D00F0B180F4
:1003F0000026C5E9000130463146BDE8F087B3FA72
:1004000083F6002E4AD18B4202D3824200F2B8809A
:10041000841A61EB030101208C46002DA8D0C5E9A8
:10042000004CA5E7C2F1200320FA03F6974001FA39
:1004300002F04FEA174ED9403043030CB1FBFEF6F1
:100440001FFA87F80EFB161143EA014306FB08F179
:10045000994204FA02F409D9FB1806F1FF3C80F036
:100460008D80994240F28A80023E3B445B1A81B201
:10047000B3FBFEF00EFB103341EA034100FB08F32F
:100480008B4207D9791800F1FF3C73D28B4271D9A6
:1004900002383944CB1A40EA064678E7C6F1200C08
:1004A00003FA06F422FA0CF31C4320FA0CF701FAC3
:1004B00006F34FEA144E21FA0CF11F433B0CB1FB3B
:1004C000FEF91FFA84F80EFB191143EA014109FBFA
:1004D00008FA8A4502FA06F200FA06F308D961180A
:1004E00009F1FF3048D28A4546D9A9F102092144D1
:1004F000A1EB0A01BFB2B1FBFEF00EFB101147EAFF
:10050000014700FB08F8B84507D9E71900F1FF31AA
:100510002ED2B8452CD90238274440EA0940A7EB2F
:100520000807A0FB02894F45C64649461AD317D093
:100530005DB1B3EB0E0267EB010707FA0CFCF2406A
:100540004CEA0202F740C5E9002700263146BDE823
:10055000F0872E4628460BE70646E9E61846FDE6F4
:100560004345E5D2B8EB020E69EB04010138DFE741
:100570000846D2E760468DE78146B9E7664675E7EB
:1005800030464AE7ACF1020C394413E702383C44E8
:1005900024E700BF704700BFDFF834D0002103E03C
:1005A0000C4B5B58435004310B480C4B42189A4299
:1005B000F6D30B4A02E0002342F8043B094B9A426F
:1005C000F9D303F025FA1DF099FB00F06DFF704799
:1005D00000000520742B02080000002040010020CC
:1005E0004001002068D60020FEE700F0E7BD00F0E3
:1005F00055BE0021084602F073BD002002F0AABDDE
:100600004068704741607047054A136843F0807343
:100610001360044A136843F001031360704700BF7E
:10062000FCED00E0001000E0511A01EB5301B1FBBA
:10063000F3F07047014B1868704700BF041000E0EA
:10064000704710B50C2104461DF0DFFA204610BD9E
:10065000036810B51B69044631B19847A268636806
:100660009B1A1844606010BD9847A060FBE7704774
:100670007047000008B5FFF7BCFF024B00221A606C
:1006800008BD00BF5C01002070B50D46FFF7B5FF47
:100690000B4A937856781178D370C4B213F00100E6
:1006A0009670517014700AD016F0010007D011F046
:1006B000010004D0E3075ABF01202870002070BD5C
:1006C0005C01002010B5042104461DF09EFA20466E
:1006D00010BD704710B5042104461DF096FA20465F
:1006E00010BD000008B54FF4F0714FF4487003F0EE
:1006F000DBF8074B10B901221A7008BD1B78002BDC
:10070000FBD1044B044A054824211DF0ADFA00BF7B
:10071000600100200CEE01081FEE010849EE0108FF
:100720007FB50B4B1C780E4615465CB101A803F053
:10073000F9F89DF8043043B1BDF806303360BDF8D8
:100740000A302B60204604B070BD1C46FAE700BF9B
:100750006001002010B1012809D07047084B0948FA
:100760001A68B2FA82F25209402104F073B9044BBC
:1007700005485A68B2FA82F252091021F5E700BF23
:100780006401002000180240000C024010B1012852
:1007900009D07047084B09481A68003A18BF01226F
:1007A000402104F057B9044B05485A68003A18BF75
:1007B00001221021F5E700BF64010020001802406B
:1007C000000C024010B1012804D0704703484021BA
:1007D00004F045B902481021FAE700BF00180240B2
:1007E000000C024008B530B1012809D00020431E9A
:1007F0005842584108BD0448402104F025F9F6E765
:1008000002481021F9E700BF00180240000C024026
:1008100070B5084D00240126E0B2FFF7E3FF18B1E0
:100820002B68012B18BF2E600134052C05F104053F
:10083000F2D170BD64010020012380F8741080F8AB
:10084000753070470020704700207047836B0BB1F4
:100850000846184770474FF6FF70704740680368B6
:100860009B69184770477047014B1868704700BF75
:10087000740100207047000038B50446094DFFF7A9
:10088000C7FF204600F08CFD002384F84A3028463C
:10089000FFF7BAFE012384F86C30034B25616361D6
:1008A00038BD00BF800100207C01002003680446A1
:1008B00007B59B6F9847236820461B6F984700F049
:1008C00017FA236820469B6E98470021064800913E
:1008D0002923152203F0A7FE00F00AFA2368204618
:1008E0009B6E9847F8E700BFF8D3002010B5044688
:1008F00009F030FD23682046D3F8A030BDE8104051
:10090000184700F04CBD00F063BD00F063BD00F07F
:1009100035BD00F03BBD00F05FBD0000024B002282
:100920001A7008F009BF00BF1400002010B504467B
:1009300008F00EFF94F84B3013B1024B01221A70ED
:1009400010BD00BF1400002008F0BCBE10B57C2113
:1009500004461DF05AF9204610BD90F877301BB1BF
:10096000406803681B6818471846704730B590F810
:10097000341090F87440104B8C421A780DD05AB94C
:100980000E4A0F490F4814880F4D0C8001881180C2
:100990002980048001221A7030BD002AFCD0094849
:1009A000074A01881180054A074D14882C80118060
:1009B00004800022EFE700BFD4D00020D0D0002078
:1009C000D6D00020D2D00020D8D0002010B50C4CBA
:1009D000216031B90B4B0C4A0C484FF425711DF0C6
:1009E00043F9C0E90F12003A0949436418BF0122D4
:1009F0000A70003B074A18BF0123137010BD00BFE7
:100A000074010020C4EE0108FCEE01084AEF010861
:100A1000DAD00020DBD00020012807B50AD84B78B7
:100A200000930B7808481522002103F0FCFD03B069
:100A30005DF804FB01910B5C009339220346002111
:100A4000014803F001FEF2E7F8D3002037B50B4A66
:100A50000B4C02231525137055700192442200920D
:100A600000213922204603F0EFFD002100913523BB
:100A70002A46204603F0D7FD03B030BD8C0100208C
:100A8000F8D3002007B50190FFF7E0FF019803B00D
:100A90005DF804EB00F082BC07B5074B03EB800068
:100AA0002A2301900093392204230021034803F0F4
:100AB000CBFD03B05DF804FB04000020F8D3002058
:100AC00070B5154D04460020FFF744FE2A6892F8E1
:100AD0006630013382F8663000F0FEF80F4B28686C
:100AE0001A781B7880F84A2023B10D4D2B7803F03B
:100AF000FF0623B1BDE870400020FFF747BE09F0B4
:100B000029FC084B30461E60FFF7C6FF204603F065
:100B10007AFD01232B7070BDDCD000201400002072
:100B20008E01002078010020304B314A70B5054617
:100B30001868304C013018602F4B03281E682ADCDF
:100B4000D4F804144FF4C87303FB006321F00801C8
:100B5000C4F8041493620CBFE823C8230233274966
:100B60001B0443F4F1730B61254B4B61A3F5F07348
:100B70005360244BD36201234B62FFF78DFF1D4A64
:100B8000D2F8043443F008032846C2F80434BDE820
:100B9000704003F038BDD4F804341B4923F0080337
:100BA000C4F80434154B9662196101F101115961C1
:100BB000164951601349D16201225A620020FFF7A1
:100BC0006BFFD4F8043443F00803C4F80434002065
:100BD000FFF7DCFD0E4B00221A700E4B186820B197
:100BE0000368BDE87040DB69184770BD78010020DC
:100BF00084680140006C01407401002000680140DD
:100C0000E301CA0093018006E201CA000300CA00A2
:100C10008E010020DCD0002008B5044B0146186886
:100C200001B1012109F0B0FB012008BDDCD000209A
:100C3000054B064800225A609A60054A1A60054B27
:100C40000360FFF717BD00BF800100207C0100207A
:100C5000D0ED0108F8ED0108012108B50022084691
:100C600005F069FF0A4B186028B90A4B0A4A272188
:100C70000A481CF0F9FF00220421012005F0FAFFC8
:100C8000074B186018B9074B034A2B21F0E708BD42
:100C9000940100205CF00108A5F00108D4F00108DF
:100CA0009001002036F10108024B4FF0FF31186827
:100CB00005F08CBF94010020014B186805F0B2BF0D
:100CC00094010020024B0021186805F07FBF00BF8F
:100CD00094010020FFF7F0BF034804490068002397
:100CE0001A4606F003B800BF90010020180000204B
:100CF00013B5084C00231A4601A9206806F026F80F
:100D000020684FF0FF33002201A906F01FF802B05F
:100D100010BD00BF9001002003685B6C18470120E4
:100D2000704703689B6A184782B0002301930D4BFC
:100D30001A6B42F400021A631A6B02F40002019269
:100D4000019A1A6942F400021A611A6922F4000237
:100D50001A61054B054A1A61054B4FF080629A6093
:100D600002B0704700380240C0D400207D0D00085A
:100D700000E100E040F2EF3070470000024B1B68DA
:100D8000586803685B691847DCD0002008B50B2859
:100D90000BD8DFE800F01206100A0A0A0A08080851
:100DA0000808012008BD0520FCE7054B054A064858
:100DB00065211CF059FF0020F4E70220F2E700BF94
:100DC00078F1010893F10108DFF1010808B50A285C
:100DD00009D8DFE800F010060E0808080806060625
:100DE0000600012008BD054B054A064886211CF077
:100DF0003BFF0020F6E70220F4E700BF78F101088E
:100E00003FF20108DFF101082DE9F84391F81D8058
:100E10000C464046FFF7BAFFA77F05463846FFF766
:100E2000B5FF06463846FFF7D1FFA18A628B504BCB
:100E3000521A1A649A61228B521A1A61E28A586312
:100E400042EA01425A6421696268D963DA60D4F8DF
:100E500000C094F81C90BCF1800F4FEA09629E46D6
:100E60003AD014D8BCF1200F45EA020072D0BCF190
:100E7000400F6FD0BCF1040F2AD03D4B2A4342F4FF
:100E80000032B845DA6152D140F201221EE0BCF5D1
:100E9000807F07D0BCF5007FEFD142F4003242F0F2
:100EA000090203E042F4003242F00A02DA61E0682B
:100EB0000202440102F4780204F47C44C00022439C
:100EC000C0B202431A625E6259612A4A1A604CE05B
:100ED00040F40030D861F6E7A0682A4342F40032BB
:100EE000041DDC62DA6102785E62596142B1012A56
:100EF0001FD0214B214A22484FF488711CF0B4FEC8
:100F00004288D969501E21F47F4222F0100242EA41
:100F10000022DA610124164BDA6942F02002DA611C
:100F2000DA699206FCD410229A60002CCDD1154AC1
:100F3000CCE74288D969501E21F47F4222F010028A
:100F400042EA0022B9F1FF0442F0100218BF012466
:100F5000DA61E0E7074B40F40030CEF81C00CEF831
:100F60002460CEF81410CEF80030BDE8F88300BF3E
:100F700000B00240010202008CF20108A6F2010852
:100F8000DFF1010801020100F8B58E7F0C46304602
:100F9000FFF71CFFA78AE18A628B1E4B2569586305
:100FA00041EA0741D21B5964DD631A6421680829AC
:100FB00018D19A611A615862217F174A42EA016288
:100FC000DA61E1680A02480102F4780200F47C4028
:100FD000C9000243C9B20A431A62104A5D61DD606A
:100FE0001A60F8BD0022D8611A61E1681EB99963E0
:100FF000084B0B4AF4E70A02480102F4780200F4B5
:101000007C40C900C9B202430A43217F42EA01621F
:101010009A63EDE700B002400900010001020200FE
:1010200001020300054B0360054B4FF08062C3F8DB
:101030008820BFF34F8FBFF36F8F7047F0F2010826
:1010400000E100E010B50446FFF7ECFF20464FF446
:1010500042611CF0DAFD204610BD000070B5044668
:1010600025460A4B0C30002660602672667245F8F1
:10107000203B6022294609F0BFFA04F54263EE6086
:101080002035AB42FBD1204670BD00BFF0F2010815
:10109000012070470C2070470C2303FB010008302F
:1010A00070470C2303FB0100083070470120704794
:1010B00043F21C10704743F21C1303FB010008307D
:1010C000704743F21C1303FB0100083070470120F6
:1010D00070471020704700EB01100830704700EB9C
:1010E000011008307047084601F02EB810B5034BC8
:1010F0000360044607F040FE204610BDA8F3010837
:1011000010B50446FFF7F2FF204614211CF07DFDC8
:10111000204610BD10B5034B0360044607F02CFEBB
:10112000204610BD74F3010810B50446FFF7F2FF26
:10113000204643F224111CF068FD204610BD00003B
:1011400010B5034B0360044607F016FE204610BDA1
:1011500040F3010810B50446FFF7F2FF20461821BE
:101160001CF053FD204610BD10B5094B036004462A
:1011700000F545501030FFF7B9FF04F12C00FFF7E0
:10118000C9FF04F11400FFF7DBFF204610BD00BFCC
:10119000DCF3010808B50248FFF7E6FF08BD00BF11
:1011A0009C01002010B50446FFF7DEFF20464FF4F7
:1011B0004B511CF02AFD204610BD00002DE9F341E3
:1011C00000F004FF054600F005FF00240146234619
:1011D0002846224600940FF043FA244B244A254D1A
:1011E0001A60204601F08AFB23480FF07BF92B7828
:1011F000BFF35B8FDB0733D428461CF008FD78B3C0
:101200001E4C1F4F1F4B236007F1180604F11400FA
:1012100004F12C086060C4F80880E760266107F0DC
:10122000ADFD194B6361404607F0A8FD174BE36223
:10123000384607F0A3FD164B3B6007F1140001F0A0
:10124000D9FB224607F11401304601F0C9FB3046B4
:1012500000F07AFF28461CF0E6FC0E481CF022FD48
:101260000D4802B0BDE8F041FFF706BB58D10020A1
:10127000FC400020980100201C0000209C01002060
:10128000EC320020DCF3010840F3010874F301089C
:10129000A8F3010895110008804000200148FFF7DD
:1012A00005BB00BF8040002070B5244C244E254B68
:1012B000254D23603046FFF7D1FE284612F054FA40
:1012C000224B00224FF48071C3E912122049DC60E6
:1012D000C3E919124FF080715967012183F8781022
:1012E0001C491D4C0B601D491A854FF45070088035
:1012F0004FF4F071C3E90422C3E90622C3E90822CE
:10130000C3E90E22C3E91022C3E91422C3E916225D
:1013100083F82A20DA621A861A6683F86C201A6724
:10132000C3E9016521800E4C83F8342022700D4CF6
:101330000D4A20800D481A60018070BD5C34002089
:1013400060340020B4EE01080041002080400020FD
:1013500001000001DCD00020D2D00020D0D000203D
:10136000D4D00020D6D0002098EF0108D8D000209B
:101370000148FFF757BE00BF60340020024B9022A7
:1013800083F85A23704700BF00E100E0024B4FF0A2
:1013900080629A60704700BF00E100E070477047CC
:1013A00038B5044608F0E1F92368DD6D0CF034F837
:1013B00001462046A8472368D3F8805000231A46E8
:1013C0004FF040412046A847012384F84A3038BDF9
:1013D00008F07EB908F0D7BA044B4FF08062C3F82A
:1013E0008820BFF34F8FBFF36F8F704700E100E09D
:1013F0000149002006F0E8BF190C000808B5642078
:1014000005F08DFBFBE7000030B595B01022002100
:1014100009A81CF0B5FC1422002102A81CF0B0FCA5
:1014200000241F4B00941A6C42F080521A641B6C0B
:1014300003F080530093009B1A4B01941A6842F406
:1014400040421A601B6803F4404301930122019B50
:101450004FF48033CDE9072302254FF480030821A0
:10146000CDE90D534FF4B473CDE90F1304200623D7
:10147000CDE9120307A8119504F09EFE04F0EEF8E2
:101480000F23CDE9023504944FF480534FF4A05458
:10149000052102A8CDE9054304F062FC15B030BD7A
:1014A00000380240007000402DE98048B9B002F0D9
:1014B000BDFAFFF7A9FF142200212BA800241CF07D
:1014C0005FFCC94B02941A6BC84842F010021A63C1
:1014D0001A6B02F010020292029A03941A6B42F005
:1014E00002021A631A6B02F002020392039A049436
:1014F0001A6B42F040021A631A6B02F04002049227
:10150000049A05941A6B42F008021A631A6B02F0EF
:1015100008020592059A06941A6B42F480721A63C7
:101520001A6B02F480720692069A07941A6B42F0C4
:1015300020021A631A6B02F020020792079A08949D
:101540001A6B42F480621A631A6B02F4806208928A
:10155000089A09941A6B42F080021A631A6B02F01F
:1015600080020992099A0A941A6B42F004021A63E3
:101570001A6B02F004020A920A9A0B941A6B42F454
:1015800000721A631B6B03F400730B930122082192
:101590000B9B03F05FFA96482246102103F05AFA9B
:1015A00094482246402103F055FA22469248802171
:1015B00003F050FA112608238C482BA901274FF07D
:1015C0000208CDE92B364FF0100BCDE92D4403F086
:1015D000B3F887482D942BA9CDE92BB7CDF8B88067
:1015E00003F0AAF8402383482BA98025CDE92B37A7
:1015F000CDE92D4803F0A0F82BA903237E482E93B4
:10160000CDE92B562D9403F097F87C487C4E7D4B0A
:10161000036002F0B1FA7C4BC6E90A44C6E90C4407
:101620003046C6E90034C6E9024402F0B9FB394647
:10163000304602F06DFC294622466F48734E03F097
:1016400009FA142002F01EFA29463A466A4803F0C5
:1016500001FA0A2002F016FA2422214615A81CF0ED
:101660008FFB182221460FA81CF08AFB342221464A
:101670002BA81CF085FB2C2221461EA81CF080FB09
:10168000634B0E940425C6E900340CA97D23304633
:10169000C6E90257CDE90C3802F002FD15A9304623
:1016A000CDE91574CDE91744CDE91944CDE91B44C2
:1016B0001D9402F01FFF1C222123CDE90F230F21CF
:1016C0001923CDE9111330460FA9CDE9134402F0D7
:1016D000D4FE2946304602F0BFFE42F21071304679
:1016E00003F013F82146304602F077FC4FF4807087
:1016F0004FF40073CDE92B034FF4806A4FF400637D
:101700004FF48052CDE92DA34FF40053CDE92F23A0
:101710004FF480494FF480334FF4003CCDE93193CE
:101720004FF48023CDE933C34FF4002E4FF0807384
:101730002BA93046CDE935E3CDF8DC8002F058FE28
:10174000C8231EA93046CDE9203BCDE92245CDE98D
:101750001E44CDE92484CDE92644289702F0D6FD25
:101760002146304602F0C1FD2A482B490462C0E9F7
:10177000001440232021C0E904134FF4C071C0E9D4
:101780000614072103234FF48052CDE92C152E9126
:101790002BA9CDE92F38C0E90929C0E90245CDF8C8
:1017A000AC80CDF8C48004F0BDFE02F067F802F012
:1017B00017F8342221461EA8184D1CF0E1FA184AE9
:1017C000AC86C5E90024CA234FF4F172C5E9093299
:1017D000CB2140F2E3122846C5E90B12C5E90244C9
:1017E000C5E904471EE000BF00380240002802405F
:1017F000000C024000180240001C0240F0D3002000
:10180000C0D400200030024000B00240F8D30020D5
:10181000006C014000D50020400100A014D400203D
:1018200000680140C5E90678C5F8208085F8364093
:1018300003F0DEFDFF21C8234FF4F072CDE923143D
:1018400005204FF04041CDE92601CDE928321EA9FF
:10185000CDE9212828462246CDE91F341E94CDF833
:1018600094A0ADF8A8408DF8AA4003F08DFE2A6838
:10187000936923F001039361304602F0A1FE3946DB
:10188000404601F06FF92823152221463046009486
:1018900002F0C9FE2BA93046CDE92B44CDE92D44F9
:1018A000CDE92F44CDE93144CDE93344359402F0FC
:1018B0009FFD4FF448712246284603F093FE2A68A4
:1018C0001E4893691E4D1F4E3B4393611E4B04629D
:1018D000C0E900371B23C0E9043AC0E9027BC0E934
:1018E000064403F0D3FF01F041FE01F075FD01F065
:1018F000EBFC164B2C622846C5E90063C5E902449F
:10190000C5E90494C5E9064403F08EFA284603F0BD
:1019100033FBFEF76AFE05F08DF80D4A0D482146AF
:1019200005F0B4F80C4B0D4A186021460C4805F040
:10193000ADF80C4B186005F08FF8FEE734D50020A9
:101940009CD3002000540040001000A0801A060024
:1019500028F40108FD13000898D3002004F40108BE
:10196000EF050008BCD400200268034B9A4201D165
:1019700002F076B8704700BF0010004070470000CA
:1019800082B00E4B00220092596C41F480415964A0
:10199000596C01F48041009100990192196C41F059
:1019A000805119641B6C03F080530193019B0F213C
:1019B0006FF0010002B002F08BB800BF00380240A7
:1019C0000268094B9A4282B00BD100230193074B66
:1019D0001A6B42F480521A631B6B03F48053019319
:1019E000019B02B0704700BF003002400038024047
:1019F00007B50F4B02689A4216D10022A3F5F043B7
:101A00000192196B41F4000119631B6B03F400038D
:101A1000019305215A20019B02F05AF85A2003B085
:101A20005DF804EB02F086B803B05DF804FB00BF7C
:101A300000B0024010B5044688B01422002103A86B
:101A40001CF09EF92268184B9A422AD103F54C43A8
:101A5000002401945A6C154842F000625A645A6C92
:101A600002F000620192019A02941A6B42F4007231
:101A70001A631B6B03F4007302930422029B02237C
:101A8000CDE9032303A90D230793CDE9054402F013
:101A900053FE5C202246052102F01AF85C2002F079
:101AA00049F808B010BD00BF006C0140002402409E
:101AB00030B5044689B01422002103A81CF060F957
:101AC00022681A4B9A422FD1194C1A4800250195C9
:101AD000236B43F002032363236B03F002030193A0
:101AE000019B4FF440721223CDE90323012103230C
:101AF000CDE90513042303A9079302F01DFE029507
:101B0000236C43F400132364236C03F40013029347
:101B1000029B236A43F400132362236A23F4001315
:101B20002362642001F0AEFF09B030BD00540040D4
:101B3000003802400004024008B502680A4B9A428D
:101B400010D10A4A0A48136C23F4001313644FF4AB
:101B5000807102F0D7FEBDE8084005484FF40071DF
:101B600002F0D0BE08BD00BF005400400038024063
:101B70000004024010B5044690B03C22002101A8A8
:101B80001CF0FEF82268134B9A4221D108230193DE
:101B90004FF4B47305930024062301A808930B9413
:101BA00004F0A8F908B1FFF7E9FE0B4B00945A6C5A
:101BB00042F080625A645B6C03F0806300935820AB
:101BC00000220521009B01F083FF582001F0B2FFA5
:101BD00010B010BD0068014000380240F0B5044666
:101BE00089B01422002103A81CF0CAF82268244BF3
:101BF0009A4243D1234B2448002400949A6B42F02C
:101C000002029A639A6B02F002020092009A019417
:101C10001A6B42F002021A631A6B02F0020201927E
:101C2000019A02941A6B42F020021A631B6B05940E
:101C300003F02003029302260325029B0A27402378
:101C400003A9CDE90336CDE9065702F075FD4FF43F
:101C50009863CDE903360D48092303A90793CDE91D
:101C6000054502F069FD4FF440730848079703A942
:101C7000CDE90336CDE9054502F05EFD09B0F0BDC2
:101C8000001000A00038024000040240001402408E
:101C900008B50268094B9A420FD1094A0948936B6B
:101CA00023F002039363402102F02CFEBDE80840BC
:101CB00005484FF4F86102F025BE08BD001000A0F1
:101CC000003802400004024000140240F0B5314BDD
:101CD0001C6887B0002C5BD101221A602E4B009447
:101CE0009A6B2E4842F001029A639B6B039403F0B7
:101CF00001030093022703260C25009B01A94FF640
:101D00008373CDE90137CDE9046502F015FD48F292
:101D100033132348059501A9CDE90137CDE90346E1
:101D200002F00AFD4CF203731E48059501A9CDE9A6
:101D30000137CDE9034602F0FFFC40F2FF631A4889
:101D4000059501A9CDE90137CDE9034602F0F4FC80
:101D50004FF63F031548059501A9CDE90137CDE9B7
:101D6000034602F0E9FC4FF47F431148059501A9B1
:101D7000CDE90137CDE9034602F0DEFC0D230D4825
:101D8000059501A9CDE90137CDE9034602F0D4FC60
:101D900007B0F0BD7C410020003802400010024036
:101DA00000180240000C02400020024000140240D3
:101DB000001C02400008024008B5174B1A6852BBCD
:101DC00001221A60154A1648936B23F001039363AE
:101DD0004FF6837102F096FD124848F2331102F07B
:101DE00091FD11484CF2037102F08CFD0F4840F256
:101DF000FF6102F087FD0E484FF63F0102F082FDC1
:101E00000C484FF47F4102F07DFDBDE808400A48D0
:101E10000D2102F077BD08BD784100200038024056
:101E20000010024000180240000C02400020024056
:101E300000140240001C02400008024030B5014678
:101E400089B00022362001F043FE362001F072FEF8
:101E50000025154B02951A6C144C42F010021A64BE
:101E60001B6C03F01003029301A903A8029B04F06A
:101E700023F804F011F80E4B236040F2E733E360DF
:101E800040000C4BB0FBF3F0013860602046256148
:101E9000A56004F0E5FC20B9204604F09BFB09B0E6
:101EA00030BD0120FBE700BF0038024080D5002094
:101EB0000010004040420F007047FEE7FEE7FEE7DB
:101EC000FEE77047014804F0C3BB00BF80D5002087
:101ED000014803F0FCBA00BF14D40020014801F00F
:101EE0008DBF00BFC0D40020014802F08CB900BFF4
:101EF000F8D300200120704708B51BF0E7FE162339
:101F000003604FF0FF3008BD08B51BF0DFFE16235D
:101F10000360FEE770B50E4614460025A54201DBBE
:101F2000204670BDAFF3008070550135F6E770B5FF
:101F30000E4614460025A54201DB204670BD705DAB
:101F4000AFF300800135F6E74FF0FF3070474FF4F4
:101F500000534B60002070470120704700207047FD
:101F600008B50A4B1968024609B909491960186889
:101F7000694602448A4206D91BF0A8FE0C2303607E
:101F80004FF0FF3008BD1A60FCE700BF8041002021
:101F900068D60020704710B5042104461BF035FEBA
:101FA000204610BD012908B506D0022908D059B92C
:101FB00000F0F0FC006808BD00F0ECFC4068FAE7B7
:101FC00000F0E8FC8068F6E70020F4E7004870477E
:101FD00060F401080120704713B5002451B1036873
:101FE00001948DF8034001AA9C680DF10303A047FA
:101FF00002B010BD0846FBE74089704780897047F2
:102000008088704783798088184480B27047C0798F
:1020100000F07F007047C079C0097047704710B565
:10202000082104461BF0F1FD204610BD704700F565
:1020300096730868496803C37047704770474160EA
:10204000704770470123037270477047704710B4A0
:10205000C26841685410034601EB6200D20748BFD2
:102060000A599B685DF8044B48BFD358184743682A
:102070002BB183682BB9C06800F001007047184687
:1020800070470120704710B50C2104461BF0BDFDC0
:10209000204610BD10B5102104461BF0B6FD2046A9
:1020A00010BD10B54FF4AC7104461BF0AEFD2046D8
:1020B00010BD10B50BF0B0F90368BDE810401B6B04
:1020C000184710B50446D0F83C0158B10368DB68E6
:1020D000984738B1D4F83C0103689B6898470023BF
:1020E000C4F83C3110BD0000F8B5044617460E4652
:1020F0000BF0FAF9104B0025C4E954760F4E1C6022
:10210000C4E952550E4B306823600E4BC4E950357C
:10211000036829469B68C4E94E559847284600F055
:10212000EDFB336893F876200AB1D86C00B9986853
:1021300013F04DF82046F8BD48D10020DCD0002037
:10214000C4F70108ACF70108064BC0F8483100237A
:10215000C0F84C3100F5A073C0F84401C0F83C3120
:10216000704700BFA92200082DE9F84F0746906884
:10217000DDF828A0994603681B6A884614469847EC
:1021800043F21B13984205D8414B424AA3214248CF
:102190001BF06AFD606803681B6A98470F2803D824
:1021A0003E4B3C4AA421F2E7E06803681B6A98476B
:1021B0000B2803D83A4B374AA521E8E70BF02CF956
:1021C0000BF078F9D9F8000010B10368DB68984784
:1021D000D9F8000010B103681B689847386810B13F
:1021E00003685B699847D8F8000010B103685B6822
:1021F0009847386810B103681B689847D8F8000002
:1022000010B103689B689847E068036800215B6A27
:1022100098474FF0000B234B03600546C0F804B00D
:1022200080F808B0A068036859465B6A984706467C
:1022300000F00CFC6068036859465B6A98473146B9
:10224000044600F0E9FBC9F80050C8F800403E60C1
:10225000E4B1231DCAF800303368C4F808A0304642
:10226000DB68F4639847236820461B689847294633
:1022700030460CF0DEFD2B6828461B6998472B681A
:1022800028465B6998472046BDE8F88F2346E1E77A
:1022900084F4010812F5010816F601085DF601083C
:1022A00000F7010808F8010807B5D0F85431009389
:1022B000D0F85021044B00F59C710448FFF754FFFF
:1022C00003B05DF804FB00BF3CD1002038D10020F2
:1022D000006A7047406A704770478B8880690A6857
:1022E000DB0A50F823001044704710B5C2B1137BCD
:1022F000B3B1547BD27A240204F4E0641443C2697B
:1023000098B202EB840213888B4202D192F9020048
:1023100010BD05D8013880B204320028F3D1F7E7A8
:102320000020F5E710B5282104461BF06EFC20467E
:1023300010BD000030B589B00446BDF85050069578
:10234000BDF84C5005959DF8405004959DF83C50C3
:1023500003959DF8385002959DF8345001959DF8ED
:10236000305000950CF0D8F8064B2360119BA36108
:10237000129BE361159B2362169B6362204609B0A2
:1023800030BD00BF2CF801080020704781807047E5
:10239000C180704701817047418170477047704725
:1023A00070477047704710B4C4880368121B848854
:1023B0001B6D091B12B25DF8044B09B218474FF6AA
:1023C000FF7383814FF0FF3303621368C3611060B2
:1023D00070477047704770477047704790F82520E6
:1023E0001AB190F8242002B1186070477047704706
:1023F00010B543F21C1104461BF007FC204610BD2B
:1024000070B503680446DB6A154698472368294679
:1024100020461B6BBDE87040184770B504461D464A
:10242000BDF91060FFF7ECFF2368294620465B6B7F
:1024300098472368314620469B6BBDE8704018479B
:10244000094A02604FF4807100228184FF21C0E9B3
:102450000122C0E90322C0E90522C0E9072280F871
:1024600026108262704700BFC40F020870B5FF22B9
:10247000134E0272134A0260326892F876100023FB
:10248000C0E903330446436009B1D06C00B99068D9
:1024900003685B6A98473368B0FA80F5D86C6D09B9
:1024A00028B103685B6A9847002808BF01252DB949
:1024B000054B064A06482C211BF0D6FB204670BD72
:1024C000DCD00020DC0B02087CF80108DAF80108F7
:1024D00013F901082DE9F04F044687B0274600257F
:1024E0000CF02AFB6E4BE56347F8403B04F16C09A6
:1024F0003846FFF7A5FF4846FFF7A2FF4FF4807369
:10250000A4F8BC30674BC4F89830674BC4F8C030AF
:102510004FF6FF7304F1D406A4F8C4304FF47F03E0
:10252000C4F8CC3004F5EC78C4E92755C4E9295542
:10253000C4E92B55C4E92D55C4F8C850A4F8D050AF
:10254000304606F0C1FC04F5097A404608F004FA6A
:102550005046FFF78BFF554BC4F8243204F50F703B
:10256000C4F8385242F6E06109F038FA4FF4F072DC
:10257000009229462A4638464FF44873FFF74DFF2C
:102580004FF07F42A2664FF4F072009229462A462D
:1025900048464FF44873FFF740FF04F1980B4FF0A3
:1025A000FF33C4F894305846B7224FF49A71FFF7BE
:1025B00027FF4FF07F423C4BC4F8C82004A958467F
:1025C000A4F8CC500493ADF8145009F054F83046F8
:1025D0004FF489724FF49A71FFF712FF2223009390
:1025E0002A4629463046542306F050FC64222B46E6
:1025F00029463046009506F055FD30464FF07F41A4
:1026000006F0CEFB2946304606F0D0FB264B04935D
:1026100004A901233046ADF8143006F0E6FB04A906
:102620003046ADF8105006F00BFE30463C2106F067
:10263000E7FB6B232D2200934046502340F23721C5
:10264000FFF7EBFE4FF4A063C4E98233C4F8103205
:102650004FF43453C4F81832154BC4F8383251468D
:102660004046C4F81C52C4F8145208F0F7FC201D70
:102670003946039006F0E6FE0398494606F0E2FE6E
:102680000398594606F0DEFE0398314606F0DAFE5E
:102690000398414606F0D6FE204607B0BDE8F08F0D
:1026A00080F901081C0F02087CF40108BC0B020829
:1026B0001313D4FF7047000030B5154D2C78BFF3CD
:1026C0005B8F14F001048DB01ED128461BF09FFAD9
:1026D000D0B13F2307930F4B06930F4B0F49104880
:1026E00008940122CDE904430423CDE90132CDE968
:1026F00009440A2303940094FFF71CFE28461BF0AC
:1027000092FA08481BF0CEFA05480DB030BD00BF64
:10271000844100202C2B0208ACF90108601D0090B8
:1027200088410020B52600087047000030B5154DDF
:102730002C78BFF35B8F14F001048DB01FD12846B5
:102740001BF065FAD8B13F2307930F4B06930F4B4D
:1027500005930123CDE9034302930423CDE900430C
:1027600014230B490B4808941A46CDE90944FFF796
:10277000E1FD28461BF057FA07481BF093FA05487D
:102780000DB030BDB0410020302B0208B0F9010877
:10279000701D0090B44100202927000870470000F8
:1027A00030B5154D2C78BFF35B8F14F001048DB05C
:1027B0001ED128461BF02BFAD0B13F2307930F4BB5
:1027C00006930F4B0F49104808940122CDE90443AA
:1027D0000423CDE90132CDE9094428230394009470
:1027E000FFF7A8FD28461BF01EFA08481BF05AFA0E
:1027F00005480DB030BD00BFDC410020482B020869
:10280000B4F90108881E0090E04100209D270008CF
:1028100000207047002070470EB403B503AB0021C1
:1028200053F8042B01930BF095FC02B05DF804EB18
:1028300003B070470CB407B504AB53F8042B0193F5
:102840000BF088FC03B05DF804EB02B070470000A9
:10285000C36B10B5044673B3038E2BB9184B194ADA
:10286000BF2119481BF000FAC38D00EB43035B8BBB
:102870000BB30DF06FF8238E012B03D8134B144AC2
:10288000C421EEE7E28D531C9BB2092B194688BF89
:10289000A3F10A0104EB410140F63F10498B81424C
:1028A00009D10A2B04EB420228BF002304EB4303A7
:1028B000508B588351832046BDE810400CF02EBF4A
:1028C000B8F90108C1F901086CFA0108B6FA010863
:1028D000C4FA01080CF0DCBE10B586B002AC84E886
:1028E00006001A460AAB05930193099B0093214603
:1028F000089B0AF036F906B010BD000038B518BBC9
:10290000124B13481B681349B3B11A689C681A44E8
:1029100002605A681A440A601C440F4B00221A8055
:1029200000F038F8054600F033F80C4B1C600C4BF7
:102930001D600C4B188007E00B4B03600B4B0B60CA
:102940000B4B1C68002CE8D138BD00BF08420020AA
:102950000C42002010420020144200204CD10020E4
:1029600054D1002050D10020A01E0090981E00904D
:10297000C01E0090044B1B6853F82100034B1B68DA
:1029800003EB4000704700BF104200200C420020C3
:1029900002207047004870471842002010B5FFF72A
:1029A000C5FE044C2060FFF7FBFE6060FFF784FE6D
:1029B000A06010BD18420020704710B54FF4AC71F4
:1029C00004461BF022F9204610BD10B50446D0F88D
:1029D000540100F012F82046BDE810400AF016BC81
:1029E00010B50446FFF780FB014B2360204610BD65
:1029F000A0FB01080022026070477047704704384E
:102A00007047704710B5102104461BF0FEF82046B1
:102A100010BDA0F10400F5E710B500228260044A61
:102A2000C16002F1080420320460426010BD00BFA2
:102A3000DCFB010870477047FFF7D9BC10B543F2C3
:102A40001C1104461BF0E1F8204610BD10B50446E9
:102A5000FFF740FD014B2360204610BD0CFC010830
:102A600070470020704710B5044600F07DFBA82198
:102A7000E0B200F093FB80B210BD000013B500245B
:102A80000221C0B28DF8074000F088FB8DF80700E6
:102A90009DF8073003F00F038DF807309DF80730DD
:102AA000022B88BF8DF80740044B9DF807209DF846
:102AB00007005A7000229A7002B010BD2642002012
:102AC00073B5154C1546A37862789A420E461FD905
:102AD00003B3012B14BF0021092104230DEB0302D2
:102AE000C0B200F077FB9DF804309DF805201B0272
:102AF00003F47063134333809DF806309DF807207C
:102B00001B0203F4706313432B80A3780133A3707B
:102B100002B070BD0321E0E7264200200122A4217B
:102B2000C0B200F023BB0022A421C0B200F01EBB43
:102B3000FFF7F9BF7047000010B4094B1A789042B4
:102B40000AD05978884207D00AB129B9012298548D
:102B50005DF8044B00F008BB5DF8044B704700BF04
:102B60002442002038B504460D460020CB49FDF72D
:102B700053FFCB490320FDF74FFFCA490020FDF763
:102B80004BFFC9490220FDF747FFC6490020FDF76A
:102B900043FFC6490020FDF73FFF0A2000F030FB4D
:102BA000C3490020FDF738FFC2490020FDF734FF7C
:102BB0000A2000F025FBC0490020FDF72DFFBF498A
:102BC0000020FDF729FFBE490020FDF725FFBD4984
:102BD0000020FDF721FFBC490020FDF71DFFBB4988
:102BE0000020FDF719FFAD490020FDF715FFB8499A
:102BF0000020FDF711FFB7490020FDF70DFFB64992
:102C00000020FDF709FFB5490020FDF705FFB44995
:102C10000020FDF701FFB3490020FDF7FDFEB2499A
:102C20000020FDF7F9FEB1490020FDF7F5FEA549AA
:102C30000020FDF7F1FE99490020FDF7EDFEAC49BB
:102C40000220FDF7E9FEAB490020FDF7E5FEAA49A9
:102C50000020FDF7E1FEA9490020FDF7DDFEA849AF
:102C60000020FDF7D9FEA7490020FDF7D5FEA649B3
:102C70000020FDF7D1FE97490020FDF7CDFEA349C6
:102C80000020FDF7C9FE95490020FDF7C5FEA049CB
:102C90000020FDF7C1FE9F490020FDF7BDFE9E49C3
:102CA0000220FDF7B9FE7F490020FDF7B5FE9B49E4
:102CB0000620FDF7B1FE9A490020FDF7ADFE9949C7
:102CC0000E20FDF7A9FE98490020FDF7A5FE9749C3
:102CD0000E20FDF7A1FE96490020FDF79DFE9549C7
:102CE0000A20FDF799FE94490020FDF795FE9349CF
:102CF0000020FDF791FE6B490020FDF78DFE904905
:102D00000A20FDF789FE8F490020FDF785FE8E49D8
:102D10000F20FDF781FE82490020FDF77DFE8B49E3
:102D20000F20FDF779FE80490020FDF775FE8849E8
:102D30000A20FDF771FE7E490020FDF76DFE8549F2
:102D40000F20FDF769FE7C490020FDF765FE8249F2
:102D50000F20FDF761FE81490020FDF75DFE8049EF
:102D60000A20FDF759FE7F490020FDF755FE7E49F8
:102D70000A20FDF751FE4B490020FDF74DFE7B492F
:102D80000A20FDF749FE6F490020FDF745FE78490E
:102D90000F20FDF741FE62490020FDF73DFE754919
:102DA0000F20FDF739FE60490020FDF735FE72491E
:102DB0000A20FDF731FE5E490020FDF72DFE6F4928
:102DC0000F20FDF729FE5C490020FDF725FE6C4928
:102DD0000F20FDF721FE3F490020FDF71DFE694948
:102DE0000020FDF719FE68490020FDF715FE674930
:102DF0000020FDF711FE66490020FDF70DFE654934
:102E00000020FDF709FE25490020FDF705FE624977
:102E10000320FDF701FE21490020FDF7FDFD1F49BC
:102E20000020FDF7F9FD5D491020FDF7F5FD1B4978
:102E30000020FDF7F1FD5A491020FDF7EDFD0020BF
:102E40005849FDF7E9FD782000F0DAF9002C00F090
:102E5000C980022C03D154490020FDF7DDFD012D6E
:102E60000BD152490020FDF7D7FD51490420FDF751
:102E7000D3FD50490420FDF7CFFD4F490020FDF759
:102E8000CBFD4E490020FDF7C7FD4D490020FDF761
:102E9000C3FD4C490020FDF7BFFD95E038FC01085B
:102EA0009EFC01084EFC010824FD010864FC010899
:102EB0007AFC010890FC010896FC010898FC0108C6
:102EC0009AFC01089CFC01083AFC01083CFC010842
:102ED0003EFC010840FC010842FC010844FC0108DA
:102EE00046FC010848FC01084AFC01084CFC0108AA
:102EF000A2FD010850FC010852FC010854FC010825
:102F000056FC010858FC01085AFC01085CFC010849
:102F10005EFC010860FC0108A5FD0108A8FD010890
:102F200062FC0108AFFD010866FC0108BEFD010856
:102F300068FC0108A2FC01086AFC010888FC010881
:102F4000ADFC01086CFC0108B8FC0108C8FC0108D4
:102F5000D8FC0108E3FC0108F3FC01086EFC010841
:102F600003FD010870FC01080EFD010819FD0108B0
:102F700027FD010837FD010847FD010852FD010842
:102F800062FD01088AFC01088CFC01088EFC010826
:102F900092FC010894FC010872FD010880FD010803
:102FA00091FD010872FC010874FC010878FC01081D
:102FB00076FD01087BFD01087CFC01087EFC010810
:102FC00080FC010882FC010808490020FDF724FD6F
:102FD00007490020FDF720FD06490020FDF71CFDF4
:102FE000002038BD0449204637E700BF84FC0108B3
:102FF00038FC010886FC010876FC010870B52E4DEE
:1030000088B0284602F06AF90446002851D12B4ABC
:103010002B4B2C4E0190C5E900234FF48043C5E9AA
:103020000200C5E90430C5E906002862336B43F0AD
:1030300002033363336B059003F002030193019B9A
:103040004FF480711223CDE9031302200423CDE94C
:10305000060303A91C4801F06FFB4FF400731A48E4
:10306000039303A901F068FB0294336C43F400134B
:103070003364336C03F400130293029B336A43F40A
:1030800000133362336A23F40013336222460521AE
:103090001F2000F01DFD1F2000F04CFD22460521E1
:1030A000202000F015FD202000F044FD284601F00E
:1030B000BBFE08B070BD00BF2C4200200054004091
:1030C000801A0600003802400004024008B5034898
:1030D00001F052FFBDE80840FFF790BF2C420020EE
:1030E00010B586B0194B002400941A6B42F001020F
:1030F0001A631B6B03F001030093009B69B9012362
:10310000CDE9013102230493114B039153F82000C0
:1031100001A901F011FB06B010BD0129FBD102236A
:1031200004934FF488130293094B019153F8200044
:10313000039401A901F000FB22460F21062000F0B4
:10314000C7FC062000F0F6FCE5E700BF00380240AF
:103150004800002008B5034B012153F8200001F07E
:1031600073FC08BD48000020FFF748BF7FB501236E
:103170008DF817206422CDE901320DF1170200927B
:103180000A460146044801F011FF08B1FFF79EFF0F
:1031900007B05DF804FB00BF2C4200207FB5002380
:1031A0000A468DF817304FF47A710123CDE90131C9
:1031B0000DF1170100910146054801F087FF08B1A4
:1031C000FFF784FF9DF8170007B05DF804FB00BF10
:1031D0002C4200201FB54FF47A74CDE901340092DF
:1031E00001230A460146054801F070FF044608B174
:1031F000FFF76CFFA0B204B010BD00BF2C4200204E
:1032000000F040BC00B595B04FF480720C924FF0C6
:103210008071052206920F9100220121CDE903124F
:10322000CDE90D22CDE911220B92139200921022CA
:1032300002924FF4800203460191059206A96A4664
:10324000044802F0CEFB003818BF012015B05DF82D
:1032500004FB00BFC8D5002000B595B04FF48073C3
:103260000C93062306931748002341F2883206A9DF
:10327000CDE90D33CDE911330F930B93139302F086
:103280006CFBE0B90223CDE9003301221023CDE924
:1032900002324FF480010523CDE905134FF080730E
:1032A00004900F93074841F288336A4606A902F05A
:1032B00098FB003818BF012015B05DF804FB012011
:1032C000FAE700BFC8D5002000B591B04FF4807375
:1032D0000893EB2302934FF4406309934FF4005398
:1032E00005934FF040720023CDE90A320A2207927B
:1032F00002A96A4606480F93CDE90D33019302F007
:10330000C0FB003818BF012011B05DF804FB00BFFE
:10331000C8D5002070B588B02C4B2D4800240094EF
:103320009A6B42F002029A639A6B02F002020092D8
:10333000009A9A6942F002029A619A6922F00202A6
:103340009A6101941A6B42F002021A631A6B02F03E
:1033500002020192019A02941A6B42F020021A634F
:103360001B6B03F0200302934022029B0223CDE952
:10337000032301210323CDE905130A2603A9092507
:10338000079601F0D9F94FF4806303A9114803931C
:103390000594079501F0D0F94FF4407303A90D4847
:1033A0000393079601F0C8F9C02303A909480393C2
:1033B000079501F0C1F922460F215B2000F088FB40
:1033C0005B2000F0B7FB08B070BD00BF00380240C2
:1033D0000004024000140240F0B5484C484B236002
:1033E00091B0204602F0A6FA054610B1012011B0B6
:1033F000F0BD01462046FFF78DFF01261023C4E9EA
:103400000166E3604FF0807797FAA7F3B3FA83F38E
:10341000013B236120464FF48063C4E90535C4E9CC
:10342000075502F033FA0028E0D1CDE90900CDE9D3
:103430000D004FF4807566230B9007900F9041F2BA
:10344000883202A920460895029302F086FA08B154
:103450000420CCE7992341F2883202A92046029346
:1034600002F07BFA0028F3D141F28830FFF7CAFE60
:103470000028EDD1CDE90900CDE90C60CDE90E00C1
:103480008523079041F2883202A9204608950293CD
:103490000B9702F062FA0028DAD141F288320DF17E
:1034A0000701204602F0CCFB0028D1D1FFF7D4FE63
:1034B0000028CDD181230293F02292FAA2F29DF846
:1034C00007300A21B2FA82F201FA02F203F00F0386
:1034D000134302A941F2883220468DF8073002F0EA
:1034E0003CFA0028B4D141F288320DF107012046A0
:1034F00002F04AFB00283FF47AAFA9E7C8D50020C4
:10350000001000A008B55B2000F022FB1448402109
:1035100001F0F8F913484FF4806101F0F3F9114814
:103520004FF4807101F0EEF90E484FF4007101F094
:10353000E9F90C48802101F0E5F90A48402101F041
:10354000E1F9094B9A6942F002029A619A6922F004
:1035500002029A619A6B22F002029A6308BD00BFD0
:1035600000040240001402400038024038B5084D03
:10357000084B2B60284602F0DDF9044628B90146C5
:103580002846FFF7BFFF204638BD0124FBE700BFF8
:10359000C8D50020001000A02DE9F743214C224D92
:1035A00001264FF000081027214681464FF6FF7292
:1035B0002846C4E90067C4E90268CDF8048002F037
:1035C000DFFF304600F05EFA022321464FF6FF721D
:1035D0002846C4E90037C4E9026802F0D1FF03239A
:1035E000C4E90037214608234FF6FF722846C4E994
:1035F000023802F0C5FF4FF40C7301930423C4E9B1
:1036000000372146019BA6604FF6FF722846E36013
:1036100002F0B6FF4946284603B0BDE8F04302F089
:10362000C6BF00BF804200206C43002070B5064634
:103630008EB0002800F0BD805F4B6048604C0025D4
:1036400000959A6B42F001029A639A6B02F00102B4
:103650000092009A01951A6B42F480021A631A6B69
:1036600002F480020192019A02951A6B42F0040260
:103670001A631A6B02F004020292029A03951A6B03
:1036800042F008021A631A6B02F008020392039ACE
:1036900004951A6B42F010021A631A6B02F01002C2
:1036A0000492049A05951A6B42F020021A631A6B71
:1036B00002F020020592059A06951A6B42F040022C
:1036C0001A631A6B02F040020692069A07951A6B6B
:1036D00042F080021A631A6B02F080020792079A86
:1036E00008951A6B42F480721A631B6B03F48073A3
:1036F00008930222089B0C920123CDE90A2309A911
:103700000C220D92099301F017F84CF203732D4827
:10371000099309A901F010F84FF683732A48099319
:1037200009A901F009F84FF63F032848099309A9B0
:1037300001F002F848F233132548099309A900F073
:10374000FBFF4FF60C732348099309A900F0F4FF1F
:1037500040F2FF632048099309A900F0EDFF8022A1
:103760004FF40073C4E902234FF480614FF4805397
:10377000C4E904134FF48043C4E906354FF4003321
:10378000C4E908350323C4E90A352563134B3463C0
:10379000204623606560A66300F094FA204600F09E
:1037A00011FA38202A46052100F092F9382000F05D
:1037B000C1F90EB070BD00BF0038024000080240E1
:1037C000AC420020000C02400010024000140240F5
:1037D00000180240001C0240002002401064024019
:1037E00038B5194C194D1A4B2360072102230422C6
:1037F000C5E90031C5E90221C5E90433AB61E260E6
:1038000040232022C4E9042300214FF4C073C4E9FB
:1038100006314FF400604FF48053C4E9080320469A
:10382000C4E90111A162FFF701FF2946204602F019
:1038300079FE084C003818BF0120207040F2695012
:10384000FFF7AAFE207838BD6C430020904200208C
:10385000400100A04C00002008B548B1382000F01D
:1038600077F90448044B0360BDE8084000F02ABA29
:1038700008BD00BF0C4300201064024038B5074C5F
:10388000074B2360204602F06DFE064D014618B935
:1038900028702046FFF7E0FF287838BD6C430020F1
:1038A000400100A04D0000202DE9F843194DDFF83C
:1038B00070802B68044698F800000F4698476B68A4
:1038C00054209847C0B211284646A9460BD06B68D1
:1038D00070209847C0B27023112888F8003005D0B6
:1038E0000320BDE8F883542388F800300A4B0B4DC1
:1038F0003078C5F80090BC4234BF01210C2119700A
:10390000D9F8083098472B683078DB689847002052
:10391000E7E700BF20000020B8430020B4430020A8
:10392000A04300202DE9F04F344C354D236885B07D
:1039300006461B6928789847A1463070019558B112
:10394000DFF8C8802F4F06F1020B03AD02A94FF03C
:10395000000A3378534503D8002005B0BDE8F08F46
:10396000D9F8003001985B69007800912A469847A1
:10397000254B00991B7813F0080F1FBF0A88288871
:1039800008802A809A0741BF0A88C2F5477203322D
:103990000A805B0748BF2B88D8F8002031F8020B5B
:1039A00042BFC3F5EF7301332B8093B290428CBFBB
:1039B000C31A1B1A9BB235F8022B00933B689CB2CA
:1039C0009A4288BF141B009B98BFA41AA4B21C443F
:1039D000C446052CC8BFC8F80000DCF80030C8BFDA
:1039E0003A60BE462BF8023BDEF80030ABF80230FE
:1039F00008F1040804370AF1010AAAE7B4430020D9
:103A0000A0430020AC430020B8430020A443002082
:103A1000054BD3F8882042F47002C3F888204FF099
:103A200000629A60704700BF00ED00E008B50B4BE4
:103A30001A6842F400721A601A6842F480621A60CE
:103A40001A6842F480721A60032000F02FF80020F8
:103A5000FEF7F4F9FDF794FF002008BD003C02409A
:103A6000034A044B11681B780B441360704700BF76
:103A700014D6002054000020014B1868704700BF86
:103A800014D6002038B50446FFF7F6FF631C1CBFB0
:103A9000054B1B78054618BFE418FFF7EDFF431BE5
:103AA000A342FAD338BD00BF540000200749CA68BA
:103AB00022F4E0620302120403F4E063120C1343E5
:103AC00043F0BF6343F40033CB60704700ED00E088
:103AD000164B30B5DC68C4F30224C4F10705231D7E
:103AE000042D28BF0425062B4FF0FF338CBF033C69
:103AF000002403FA05F521EA0501A34022EA0302A6
:103B0000A140002841EA0203ACBF00F16040084A2E
:103B10004FEA0313B8BF00F00F00DBB2AABF00F5F5
:103B20006140135480F8003330BD00BF00ED00E069
:103B300014ED00E0002808DB4209012300F01F001B
:103B400003FA00F0014B43F82200704700E100E067
:103B500000280DDB4309012200F01F0002FA00F0EB
:103B60002033044A42F82300BFF34F8FBFF36F8F17
:103B7000704700BF00E100E010B5044650B1437942
:103B800003F0FF0213B90271FDF71AFF01236371FD
:103B9000002010BD0120FCE7036810B5084C024668
:103BA000D9B210391820B1FBF0F0205CD06523F4B5
:103BB0007F7020F003005F2988BF0430906510BD3E
:103BC000E5FD010870B50446FFF756FF0546002CD9
:103BD00073D0022384F835302268002384F834300F
:103BE000136823F00103136021680B68D8072FD4F2
:103BF0000B68334DA0691D40D4E901231343E268EB
:103C000013432269134362691343E2690343134375
:103C1000226A1343626A042A43EA050302BFD4E915
:103C20000B5635432B430B604B69042A23F00703E3
:103C300043EA020333D1A26AE56A13437DB390B924
:103C4000012A21D032F0020229D1EA0127D51EE053
:103C5000FFF712FF401B0528C6D920236365032008
:103C600084F8350070BDB0F5005F14D1032A16D872
:103C700001A050F822F000BF8F3C00084B3C000828
:103C80008F3C0008893C0008B5F1C07F07D1402374
:103C900063650120E4E7022AF9D9032AD5D04B61F4
:103CA0002046FFF779FFE26D3F23934083600020B9
:103CB0000123606584F83530D4E70120D2E700BFE6
:103CC0003F8010F038B5054620B390F83530022B10
:103CD000DCB21DD003681A6822F0010200241A60C9
:103CE00021221C605C609C60DC601C615A61FFF7F3
:103CF00053FFEA6D3F239340C5E90F44C5E91144E2
:103D0000C5E9134483606C6585F8344085F8354017
:103D1000204638BD0124FBE770B50446866DFFF7E9
:103D2000ABFE94F83530022B054606D08023636540
:103D3000002384F83430012070BD23681A6822F013
:103D400016021A605A6922F080025A61226C0AB97E
:103D5000A26C1AB11A6822F008021A601A6822F0DE
:103D600001021A6023681B6813F001030AD1E16D98
:103D70003F228A40B260012284F8352084F8343032
:103D80001846D9E7FFF778FE401B0528EAD920231B
:103D900063650320002384F8350084F83430CBE7D2
:103DA00010B5044630B390F8393003F0FF021BB968
:103DB00080F83820FDF71CFE22686168022384F831
:103DC0003930136823F440330B431360536BA168FD
:103DD00023F007030B435363136CE16823F47F5311
:103DE00023F03F030B43136400200123E06384F8B6
:103DF000393010BD0120FCE770477047036870B58B
:103E00005E681D68F207044614D5E90512D51A68E4
:103E100022F480721A60C26B42F00102C263012276
:103E20009A60042380F83930002380F838304369E1
:103E300003B19847B20616D5AB0414D523681A68A7
:103E400022F400521A6020229A60E36B43F00203CE
:103E5000E363042384F83930002384F8383063693D
:103E60000BB120469847300716D5290514D523688D
:103E70001A6822F400621A6008229A60E36B43F029
:103E80000403E363042384F83930002384F83830D2
:103E900063690BB12046984772070BD56B0509D5AE
:103EA00023681A6822F480621A6004229A6020460D
:103EB000FFF7A2FFB00714D5A90512D523681A6829
:103EC00022F400721A6002229A60E36BE36301231A
:103ED00084F83930002384F8383023690BB1204648
:103EE0009847F20613D5EB0411D523681A6822F41B
:103EF00080521A6010229A60E36BE363012384F816
:103F00003930002384F838302046FFF776FF70BD43
:103F1000F0B590F83830012B4FF002032BD001227E
:103F200080F8393080F8382000EB0113D3E90742DC
:103F30005D6A184F44EA0242093C012C9CBF05F01F
:103F40007F431A434FEA0116036888BF42EA0562BD
:103F500099B9596A39400A435A62012C82699A61B7
:103F600003D8426A22F07F429A62012380F83930F6
:103F7000002380F838301846F0BDD96939400A432B
:103F8000DA618219012C92691A619CBF25F07F4584
:103F90001D62EAE7F0FFFC002DE9F04107460D46FF
:103FA00014461E46FFF768FD80463A68536FDB07EC
:103FB0000AD544EA0623069C43EA044444EA8514ED
:103FC000D4660020BDE8F081FFF756FDA0EB0800A5
:103FD000B0F57A7FE9D90320F4E7037C012B5DD0AB
:103FE00003680022C3F8C420C3F8C820CA0748BF2A
:103FF000D3F8C420816142BF6FEA12426FEA0242E5
:10400000C3F8C4208A0742BFD3F8C42042F4F81290
:10401000C3F8C4204A0742BFD3F8C82042F00102C7
:10402000C3F8C8200A0742BFD3F8C82042F00202F2
:10403000C3F8C820CA0642BFD3F8C82042F00C0219
:10404000C3F8C8208A0642BFD3F8C82042F0100245
:10405000C3F8C8204A0642BFD3F8C82042F0200265
:10406000C3F8C8200A0642BFD3F8C82042F0400275
:10407000C3F8C820CA0542BFD3F8C82042F0800266
:10408000C3F8C8208A0542BFD3F8C82042F4F852CA
:10409000C3F8C820002303741846704702207047F5
:1040A00073B50D460446002800F0A780437C0BB989
:1040B000FDF7C0FC03236374002300932368D3F847
:1040C000302442F08072C3F83024D3F8303403F047
:1040D00080730093009BFFF7CFFC06462268D2F85E
:1040E0000C34D90478D5D2F8303423F45E3323F479
:1040F000FE73C2F83034D5E90003DB0243EA8003E3
:10410000A868D2F8301443EA00430B43C2F83034B5
:1041100000230193D2F8303443F00103C2F8303465
:10412000D2F8303403F001030193019BFFF7A4FCA4
:1041300006462368D3F80C24D20557D5D3F8A0201F
:104140006168286842F00602C3F8A020D3F89420E2
:1041500022F00302C3F89420D3F894200A4342F0DB
:104160000102C3F89420D3F8A420E16822F00302EE
:10417000C3F8A420D3F8A4200A43C3F8A4209A6863
:10418000A16822F0FF029A609A680A439A606A68FE
:10419000012A38BF01221146194A4A43A96801F091
:1041A00003018A404FF4FA514143B2FBF1F2D3F8D4
:1041B000181421F03F01C3F81814D3F81814002084
:1041C0000A43C3F81824C3F8C400C3F8C800012385
:1041D0006061A061637407E0FFF74EFC801BB0F5DF
:1041E0007A7F7FF67BAF032002B070BDFFF744FCFF
:1041F000801BB0F57A7F9CD9F5E70120F4E700BF7A
:1042000000093D0070470368D3F80C24D10710B5AE
:10421000044608D5D3F80824D20704D50122C3F8F0
:104220001024FCF74DFC2368D3F80C24910709D522
:10423000D3F80824920705D50222C3F8102420469B
:10424000FCF772FCA369002B4ED02168D1F8BC208A
:10425000D1F8C430D1F8C0001A40D1F8C83091B2BA
:10426000034019B1616941F00101616112F4F81F65
:104270001EBF626942F002026261D80742BF6269F2
:1042800042F004026261990742BF626942F008028B
:10429000626113F00C0F1EBF626942F0100262618E
:1042A000DA0642BF626942F020026261980642BFAC
:1042B000626942F040026261590642BF626942F09F
:1042C000800262611A0642BF626942F480726261D2
:1042D00013F4F85F1EBF636943F40073636163699D
:1042E00013B12046FFF78EFF10BD037C012B0BD0CE
:1042F00003681A6B22F003021A631A6B11431963E5
:1043000000230374184670470220704730B5037CC1
:10431000012B6AD003680C685A6B42F001025A63A1
:10432000D3F8002422F00102C3F80024D3F80024BB
:1043300042F00102C3F80024DA6822F00302DA60D6
:10434000DA682243DA605A6922F007025A61D1E939
:1043500006522A434D695C692A4322435A611A690D
:104360004D6822F00F021A611C692C431C61D3F8BE
:10437000004424F00E04C3F80044D3F800248C68F1
:1043800042EA4502C3F800245A6E120C12045A661F
:104390005A6E22435A66D3F8002422F0F002C3F882
:1043A0000024D1E903252A434D6AD3F800442A4367
:1043B0000D6A896A2A432243C3F800249A6E22F0C8
:1043C00001029A669A6E0A439A66D3F8082442F06C
:1043D0000102C3F80824D3F8082442F00202C3F80B
:1043E000082400230374184630BD0220FCE70000B7
:1043F00030B5037C012B2AD00268164B946E234003
:104400009366D1E900352B438D68946E2B43CD68BC
:104410002B430D692B434D692B438D692B43CD698C
:104420002B430D6A2B434D6A2B438D6A2B43CD6A78
:10443000096B2B4323439366936E23F00203936629
:10444000936E0B43936600230374184630BD02201D
:10445000FCE700BFFF80F0FE037C012B0BD003685C
:10446000DA6A22F01F02DA62DA6A1143D9620023A3
:104470000374184670470220704730B5037C012B47
:1044800035D0D1E900240368944238BF1446D3F8EC
:10449000982002F0FC22C3F89820D3F8982042EA32
:1044A00004422243C3F89820D3F89C2002F400422F
:1044B000C3F89C20D1E90225120642EA05420D69A3
:1044C000D3F89C4049692A432243C3F89C20D3F87F
:1044D000A42022F47F42C3F8A420D3F8A42042EA07
:1044E0000122C3F8A42000230374184630BD022023
:1044F000FCE7000030B5037C012B5CD003680C683E
:104500009A688D6822F47F429A609A6842EA04228F
:104510009A609A6F4C6892B29A679A6F42EA044224
:104520009A679C6F254A14409C679C6F2C439C673C
:10453000DC6FCD681440DC67DC6F2C43DC67D3F89C
:1045400080400D691440C3F88040D3F880402C436C
:10455000C3F88040D3F884404D691440C3F88440C8
:10456000D3F884402C43C3F88440D3F8844024F02B
:104570008074C3F88440D3F884408D692C43C3F819
:104580008440D3F88840CD69096A1440C3F8884054
:10459000D3F888402C43C3F88840D3F88C4022409D
:1045A000C3F88C20D3F88C200A43C3F88C20002356
:1045B0000374184630BD0220FCE700BF0000FFFF77
:1045C000037C012B82B01CD0026800230093516849
:1045D00041F001015160516801F001010091009921
:1045E0000193D2F8041441F00801C2F80414D2F87F
:1045F0000424037402F008020192019A184602B0E2
:1046000070470220FBE7037C012B1FBF0268D2F832
:10461000043443F00403C2F804341DBF00230374C0
:1046200018460220704737B5057C012D044609D095
:1046300001250574069D0095FFF7AEFC0023237449
:1046400003B030BD0220FBE72DE9F84F1C46037C88
:10465000012BDDE90A9806460F46154653D0012383
:104660000374FFF709FA83463268536F13F0010AA7
:104670001AD0032C21464FF0000028BF03218842A6
:104680001ED1231AC2F8709040441BBB013445EA86
:1046900087112502ADB224020D4304F47F042C439C
:1046A000D4661846337409E0FFF7E6F9A0EB0B0077
:1046B000B0F57A7FD8D986F810A00320BDE8F88F2E
:1046C00018F8003001304FEAC00C03FA0CF349EA45
:1046D0000309D4E7042B4FF0000C9E46614628BF27
:1046E0004FF0040E10F801804FEAC109013108FAB9
:1046F00009F88E454CEA080CF4D1C2F870C0A3EB5F
:104700000E037044C1E70220D8E7037C012B10D0D0
:104710000368D3F81C2422F0C062C3F81C24D3F829
:104720001C2442EA4161C3F81C1400230374184698
:1047300070470220704700002DE9F74FDFF8C09165
:104740006D4A00230D6801249C4004EA050CAC432B
:1047500040F0B9804D6805F003044FEA4308032692
:10476000671E06FA08F6012F6FEA060634D8876836
:1047700007EA060ECF6807FA08F747EA0E078760D0
:10478000476827EA0C0EC5F300179F4047EA0E075B
:104790004760C76807EA060E8F6807FA08F747EA16
:1047A0000E07022CC76019D14FEAD30A00EB8A0A20
:1047B00003F0070BDAF820704FEA8B0B4FF00F0E67
:1047C0000EFA0BFE27EA0E0E0F6907FA0BF747EAFF
:1047D0000E07CAF8207001E0032CDAD1076804FA4A
:1047E00008F43E40264315F4403F06606BD04FF07E
:1047F000000ACDF804A0D9F84460404C46F4804645
:10480000C9F84460D9F8446006F480460196019ED8
:1048100023F0030606F1804606F59C3603F0030EEE
:10482000D6F808804FEA8E0E0F2707FA0EF7A0423F
:1048300028EA07074ED004F58064A0424CD004F566
:104840008064A0424AD004F58064A04248D004F5B8
:104850008064A04246D004F58064A04244D004F5B0
:104860008064A04242D004F58064A04240D004F5A8
:104870008064A0423ED004F58064A0420CBF0924AD
:104880000A2404FA0EF43C43B46014686FEA0C0680
:10489000EF0354BF34404CEA040414605468AF037F
:1048A00054BF34404CEA040454609468EF0254BF8F
:1048B00034404CEA04049460D468AD0254BF3440E0
:1048C0004CEA0404D4600133102B7FF43BAF03B0F7
:1048D000BDE8F08F5446D4E70124D2E70224D0E7A4
:1048E0000324CEE70424CCE70524CAE70624C8E75E
:1048F0000724C6E70824C4E7003C0140000002404A
:10490000003802402DE9F04F4A4CDFF83091DFF8D3
:1049100030A1DFF830B10022012303FA02FE3EEAA3
:1049200001030EEA01076ED122F0030505F180456F
:1049300005F59C35404BD5F8088002F0030C4FEA92
:104940008C0C0F2606FA0CF6984206EA08085FD08F
:1049500003F5806398425DD003F5806398425BD095
:1049600003F58063984259D003F58063984257D08D
:10497000484557D0504557D0584557D003F5805338
:10498000984255D003F5806398420CBF09230A234F
:1049900003FA0CF3434513D1236823EA070323608A
:1049A000636823EA07036360A36823EA0703A3603D
:1049B000E36823EA0707E760AB6823EA0606AE6010
:1049C00005680326530006FA03F325EA030505608C
:1049D00022FA06F500EB850502F0070C2E6A4FEA75
:1049E0008C0C0F2707FA0CF726EA07072F62C56819
:1049F00025EA0305C560456825EA0E05456085681A
:104A000025EA030383600132102A85D1BDE8F08FC7
:104A10000023BDE70123BBE70223B9E70323B7E780
:104A20000423B5E70523B3E70623B1E70723AFE780
:104A30000823ADE7003C01400000024000140240A2
:104A400000180240001C02400369194214BF0120F3
:104A5000002070470AB1816170470904FBE7436990
:104A600001EA030221EA030141EA02418161704740
:104A700001684B6913F480634FF0000210D06FF4AB
:104A800080634B612023026380F83D3080F83E2034
:104A9000036C80F83C2043F004030364012070475A
:104AA000184670472DE9F04104460F4616469846D1
:104AB0002568686927EA000080B2B8B16B695A05B9
:104AC00016D52B6843F400732B606FF480636B6121
:104AD00020220023236384F83D2084F83E30226C9A
:104AE00042F00402226484F83C300120BDE8F081E9
:104AF000731CDED0FEF7C0FFA0EB0800B04201D867
:104B0000002ED5D100232022236384F83D2084F891
:104B10003E30226C42F02002E4E770B504460D46B8
:104B2000164623685B695B0701D5002070BD2046EF
:104B3000FFF79EFFA8B96A1CF3D0FEF79DFF801B0C
:104B4000A84201D8002DECD100232022236384F851
:104B50003D2084F83E30226C84F83C3042F0200244
:104B600022640120E2E770B504460D46164621682E
:104B70004B6913F0400301D0002010E04A69D206CF
:104B80000ED56FF010024A612022236384F83D2085
:104B900084F83E30226C226484F83C30012070BDE1
:104BA000FEF76AFF801BA84201D8002DDFD1002349
:104BB0002022236384F83D2084F83E30226C42F0AA
:104BC0002002E8E72DE9F84606460F4691461D46C5
:104BD0004FEA114A3368BAF1010F0CBF5C699C6956
:104BE00027EA0404A4B2B4FA84F46409A14501D00C
:104BF000002017E06A1CEED0FEF73EFF089BC01AAB
:104C0000A84201D8002DE5D100232022336386F885
:104C10003D2086F83E30326C86F83C3042F020026F
:104C200032640120BDE8F88670B504460D4616468C
:104C300023685B691B0601D5002070BD2046FFF785
:104C400017FFA8B96A1CF3D0FEF716FF801BA84215
:104C500001D8002DECD100232022236384F83D20CD
:104C600084F83E30226C84F83C3042F0200222640A
:104C70000120E2E72DE9F0431546026885B0DDE941
:104C80000C789946136843F4807313600E463B46D4
:104C9000CDF8008000224FF001110446FFF792FF8B
:104CA000236838B11B68DB0502D54FF40073236419
:104CB00003200AE006F0FE061E61194943463A4603
:104CC0002046FFF7EFFE18B1012005B0BDE8F083E4
:104CD000236803905A6903929B69039342463946BD
:104CE0002046039BFFF7A0FF40B1236C042B01BFBC
:104CF0002268136843F400731360E5E7B9F1010F0C
:104D0000236802D1EDB21D61DFE72A0A1A61394634
:104D100042462046FFF788FF0028E6D12368F1E7E6
:104D2000020001002DE9FF479A46036815461A68FC
:104D300042F480621A601A68DDE90C7842F48072ED
:104D40001A600E463B46CDF8008000224FF001115C
:104D50000446FFF737FF236848B11B68DB0502D51F
:104D60004FF400732364032004B0BDE8F0875FFABA
:104D700086F906F0FE061E612A4943463A46204659
:104D8000FFF790FE08B10120EEE7236803905A690F
:104D900003929B690393424639462046039BFFF7E3
:104DA00043FF40B1236C042B01BF2268136843F416
:104DB00000731360E7E7BAF1010F23681AD1EDB26F
:104DC0001D61424639462046FFF72EFF0028E9D1F3
:104DD0002268136843F4807313604FF00111024698
:104DE000CDF800803B462046FFF7ECFE226860B11C
:104DF0001368B3E72A0A1A61394642462046FFF78C
:104E000013FF0028CED12368D9E749F001031361CD
:104E1000044943463A462046FFF744FE003818BF8F
:104E20000120A1E70200010070B5044608B9012085
:104E300070BD90F83D3003F0FF021BB980F83C20B4
:104E4000FCF736FE242384F83D3023681A6822F0EC
:104E500001021A601A6842F400421A601A6822F4C9
:104E600000421A6001F018F83F4A6368934294BF09
:104E70003E4A3F4A90428CBF00220122002AD6D1EE
:104E800021683C4E4A68B0FBF6F622F03F023243FE
:104E90004A60354A0D6A934284BF4FF4967272435A
:104EA00025F03F0591BF721C4FF47A76B2FBF6F203
:104EB00001322A430A62CD69421E2B4825F44F4530
:104EC000834225F0FF0532D85B00B2FBF3F340F6D6
:104ED000FC720133134242D0C3F30B032B43CB616B
:104EE000D4E907300A68034322F0C00213430B6081
:104EF0008A68D4E9030322F40342034322F0FF0249
:104F000013438B60D4E90530CA68034322F0FF02E3
:104F10001343CB600B6843F001030B600020202398
:104F2000206484F83D30206384F83E0080E7A06868
:104F300050B903EB4303B2FBF3F30133C3F30B03A9
:104F40007BB143F40043C9E719204343B2FBF3F3B9
:104F50000133C3F30B0323B143F44043BEE70423FF
:104F6000BCE70123BAE700BFA08601007F841E00D2
:104F7000FF083D0040420F0010B5044698B102689A
:104F8000242380F83D30136823F001031360FCF7FD
:104F9000D3FD0020206484F83C0084F83D002063A9
:104FA00084F83E0010BD0120FCE700002DE9F74326
:104FB000044699460C9E0F469046FEF75DFD94F818
:104FC0003D30202B054603D0022003B0BDE8F0831E
:104FD00000903C49192301222046FFF7F3FD0028E9
:104FE000F2D194F83C30012BEED02068012384F8F4
:104FF0003C300368D9075EBF036843F001030360D8
:10500000036823F400630360212384F83D304023C8
:1050100084F83E30002323640A9B6362BDF82C3081
:105020006385638D2385284BE362CDE900654B469C
:10503000424639462046FFF71DFE00282AD00120AF
:10504000C3E7FFF7F1FD40B1236C042B01BF2268D9
:10505000136843F400731360F1E7636A27681A4624
:1050600012F8011B39616262628D218D013A92B2A0
:1050700062857A69481E80B2520720850AD548B1F8
:105080005A783A6102336362638D013B02399BB205
:1050900021856385238D2A4631462046002BD0D1B9
:1050A000FFF73BFD0028CFD12268136843F400735B
:1050B0001360202384F83D3084F83C0084F83E00DF
:1050C00083E700BF020010000000FFFF2DE9F0435E
:1050D000044687B09946109F0D469046FEF7CCFCDB
:1050E00094F83D30202B064604D00225284607B010
:1050F000BDE8F08300907649192301222046FFF78E
:1051000061FD0028F1D194F83C30012BEDD02068EE
:10511000012384F83C300368DB075EBF036843F07B
:1051200001030360036823F400630360222384F80F
:105130003D30402384F83E30002323640E9B63629D
:10514000BDF83C306385638D2385624BE36229465D
:10515000CDE900764B4642462046FFF7E3FD054683
:1051600008B10125C2E7228D2368B2B902905A69BD
:1051700002929A690292029A1A6842F400721A60C4
:10518000DFF85481238D002B2CD1202284F83D2080
:1051900084F83C3084F83E30A8E7012A0AD11A6826
:1051A00022F480621A6003905A6903929A6903920A
:1051B000039AE1E7022A0ED11A6822F480621A608B
:1051C0001A6842F400621A6004905A6904929B695A
:1051D0000493049BD4E705905A6905929B69059353
:1051E000059BCDE7032B56D8012B15D13246394606
:1051F0002046FFF7B8FC0028B3D123681A69636A18
:105200001A70636A01336362238D013B2385638DCA
:10521000013B9BB26385B5E7022B00963B464FF0FE
:1052200000024146204619D1FFF7CCFC002898D156
:1052300023681A6842F400721A601A69636A1A7065
:10524000626A531C6362238D013B2385638D013B9E
:105250009BB2638523681B695370D2E7FFF7B2FCEA
:1052600000287FF47EAF23681A6822F480621A60F7
:105270001A69636A1A70636A009601336362238D48
:10528000013B2385638D013B9BB2638502463B4610
:1052900041462046C8E7324639462046FFF763FCC0
:1052A00000287FF45EAF23681A69636A1A70626A25
:1052B000531C6362238D013B2385638D013B9BB2AD
:1052C00063852368596949077FF55CAFC3E700BF71
:1052D000020010000000FFFF0400010090F83D00F4
:1052E00070472DE9F043D20104684F68E568D1F8B2
:1052F00000C0D1F818908432A3180CF10106586848
:1053000000F470405860E068C5F30B45C0F30B40F3
:1053100030443D4440EA05405860E068CD68C0F341
:105320000A000544986800F470409860E668886850
:10533000C6F30A060130304440EA05409860186917
:105340000E6920F0070018614FF0000E1E619D6984
:1053500091F8320091F83180C3F818E091F830509C
:1053600045EA096545EA082545EA00459D61586911
:1053700020F0FF00586148695861D86920F4E06066
:1053800020F00700D861D1E907500543DD61986A34
:10539000486AC3F828E098621EB3012E23D0B01EDD
:1053A000022822D9072E0CBF02200120DD6A05F059
:1053B000E025DD628D6AC96AA7EB0C074543784397
:1053C000033040EA0540D862186B20F4FF6020F0FB
:1053D000070018631963A35843F00103A350BDE805
:1053E000F0830420E2E70320E0E70220DEE700008C
:1053F00038B50446002863D090F8A13003F0FF02CE
:105400001BB980F8A020FCF7B5FB022384F8A1307B
:1054100023689A6922F070429A61D4E9012002431C
:10542000E06899690243206902430A439A619A68D5
:10543000244960690A409A609A6842EA0042A06979
:1054400002439A60DA68E0690A40DA60DA6842EAA0
:105450000042206A0243DA601A69606A0A401A61EF
:105460001A6942EA0042A06A02431A615A6911406D
:1054700059615A69E16A42EA0142216B0A435A6161
:10548000D96A94F8360094F8355001F07F41D9621A
:10549000D96A94F834200A4342EA052242EA0042DB
:1054A000DA625A6B42F006025A639A6942F00102CC
:1054B0009A6100200123C4F8A40084F8A13038BD0B
:1054C0000120FCE700F800F0704770477047036860
:1054D00070B59E6B5D6B7207044614D5690712D5D3
:1054E0005A6B22F004025A630422DA63D0F8A43023
:1054F00043F00103C0F8A430002380F8A12080F815
:10550000A030FFF7E1FFB20716D5AB0714D523682B
:105510005A6B22F002025A630222DA63D4F8A430F2
:105520001343C4F8A430042384F8A130002384F882
:10553000A0302046FFF7C8FFF00710D5E9070ED5C9
:1055400023685A6B22F001025A630122DA630023B6
:1055500084F8A12084F8A0302046FFF7B6FF320778
:1055600011D52B070FD523685A6B22F008025A6316
:105570000822DA63012384F8A130002384F8A030E4
:105580002046FFF7A3FF70BD2DE9F04190F8A03051
:10559000012B06460F4694464FF002001FD04FF0F5
:1055A000010886F8A08086F8A10034240D4604FB8B
:1055B00002640FCD38340FC40FCD0FC40FCD0FC40C
:1055C0002B682360304662463946FFF78AFE33680F
:1055D0000020C3F8248086F8A18086F8A000BDE8EA
:1055E000F081000030B590F8A030012B4FF002039D
:1055F0002CD0342404FB020480F8A130A46C3CB30A
:10560000012C27D0A51E9D4202D9072C18BF0123CB
:105610000468D201843222444B43D46A24F0FF54FC
:1056200024F4F814D4620C4C656A45F001056562F7
:10563000D56A45EA0343D362636A43F001036362B8
:10564000012380F8A130002380F8A030184630BD37
:105650000423DDE70323DBE70068014037B50023BF
:105660000193184B184D1A6C42F080521A641B6C4F
:1056700003F080530193019B144B01221A60FEF743
:10568000FBF904466B68DA030BD5114B0E4D012272
:105690001A60FEF7F1F904466B689B030AD50020F7
:1056A00006E0FEF7E9F9001BB0F57A7FEAD903209E
:1056B00003B030BDFEF7E0F9001BB0F57A7FEBD9FF
:1056C000F5E700BF003802400070004040000E4285
:1056D00044000E422DE9F0474E6A3EB1B2F1406FF0
:1056E0001FBF8B6A046803F1FF332361D1F818A050
:1056F000D1E9077CBAF1000F4ED04B690568D1F8AB
:105700000080486B46EA0A0AD1E90B494FEA834E0A
:105710004AEA020ABCF1000F26D08B680E69EB61E1
:105720004CEA0A0CA7B148EA0703234343EA0903FA
:105730000343C8683343034343EA0E0343EA0C03BD
:10574000B2F1406F6B6101D04B68AB61BDE8F0878F
:1057500048EA040343EA09030343334343EA0E03DD
:1057600043EA0C036B61F1E767B148EA070323439F
:1057700043EA09030343C868034343EA0E0343EAC9
:105780000A03DDE748EA040343EA0903034343EA63
:105790000E0343EA0A03E5E7BCF1000F28D00468D2
:1057A0008B68E36146EA0C034E690869D1F834C09E
:1057B00043EA0205B604D1E90B8387B1384340EAD6
:1057C00008000343C86843EA0C03034333432B43F5
:1057D000B2F1406F6361B9D04B68A361B6E740EAAC
:1057E0000800034343EA0C0333432B436361ADE7F3
:1057F000AFB1CC6A006846EA0703134323430C6B3E
:1058000023434C6B2343CC6823434C69B2F1406F74
:1058100043EA8443436199D04B68836196E7002E45
:1058200094D0CB6A006833430E6B1A4332434E6BFD
:105830004B69324342EA8342426187E72DE9F041F6
:10584000DDF8188004460E4615461F462268936808
:10585000334214BF01230023AB4201D1002012E0E8
:10586000B8F1FF3FF3D0FEF707F9C01B404502D85F
:10587000B8F1000FEAD1042384F84130636C43F09F
:10588000010363640120BDE8F081000030B585B0FC
:105890000446FEF7F1F80346002C47D094F8412067
:1058A00002F0FF014AB9039084F840102046FCF74B
:1058B00095F941F28832039BA2642068A1680268CE
:1058C000013922F4F85242EA01220260A26C0092ED
:1058D000202100222046FFF7B1FF10BBE569E368F5
:1058E00022682B43256A11682B43656821F07F41AC
:1058F00043EA056321F0D0010B431360D4E905317D
:105900000B432169556843EA0143094929400B4388
:105910005360136843F0010313600123606484F84B
:105920004130002384F8403005B030BD0120FBE752
:10593000FEF8E0FF10B5044668B10268136823F072
:1059400001031360FCF7A4F90020606484F84100AF
:1059500084F8400010BD0120FCE72DE9F043044627
:1059600085B017468946FEF787F894F84020012A4B
:10597000034634D0012284F8402094F84120012AC3
:105980005FFA82F84FF0020627D10022626403908A
:1059900084F84160009720212046FFF74FFF05461D
:1059A000A0B9024649462046FFF794FED9F82420C4
:1059B000039B4AB90097424631462046FFF73EFF17
:1059C000054618B92368DE6084F84180002384F816
:1059D0004030284605B0BDE8F0833546F6E702259D
:1059E000F7E72DE9FF41044615461E468846FEF7B7
:1059F00043F894F84020012A034640D0012284F85D
:105A0000402094F84120012AD7B236D14221002209
:105A10006264039084F84110009620212046FFF72D
:105A20000DFF20BB21682A688A626A684A62AA68F8
:105A3000CA620A68286922F44002024342F48002E2
:105A40000A60EA68C8F8282041464FF00062204604
:105A5000FFF740FE039B00963A4608212046FFF7D9
:105A6000EDFE20B923680822DA6084F84170002333
:105A700084F8403004B0BDE8F0810220F7E702204E
:105A8000F8E7F7B5044616460F46FDF7F5FF94F81C
:105A90004020012A034632D0012284F8402094F8A5
:105AA0004120012A29D100228221626484F8411018
:105AB000A16C009120462021FFF7C0FE0546B0B939
:105AC00023687268186820F008001043082A1860DC
:105AD00007D132681A631022DA601A6842F4801221
