:020000040800F2
:1000000000000520550C00088D2A00088F2A0008E2
:10001000912A0008932A0008952A00080000000091
:10002000000000000000000000000000C1B1010855
:10003000972A00080000000051B20108C5AA010873
:10004000A50C0008A50C0008A50C0008A50C0008CC
:10005000A50C0008A50C0008A50C0008A50C0008BC
:10006000A50C0008A50C0008A50C0008A50C0008AC
:10007000A50C0008A50C0008A50C0008A50C00089C
:10008000A50C0008A50C0008A50C0008A50C00088C
:10009000A50C0008A50C0008A50C0008A50C00087C
:1000A000A50C0008A50C0008A50C0008A50C00086C
:1000B000A50C0008A50C0008A50C0008A50C00085C
:1000C000A50C0008A50C0008A50C0008A50C00084C
:1000D000A50C0008A50C0008A50C0008A50C00083C
:1000E000A50C0008A50C0008A50C0008A50C00082C
:1000F000A50C0008A50C0008A50C0008A50C00081C
:10010000A50C0008A50C0008A50C0008A50C00080B
:10011000A50C0008A50C0008992A0008A50C0008E9
:10012000A50C0008A50C0008A50C0008A50C0008EB
:10013000A50C0008A50C0008A50C0008A50C0008DB
:10014000A52A0008B12A0008A50C0008A50C000883
:10015000A50C0008A50C0008A50C0008A50C0008BB
:10016000A50C0008A50C0008A50C0008A50C0008AB
:10017000A50C0008A50C0008A50C00080000000054
:10018000A50C0008A50C0008A50C0008A50C00088B
:10019000A50C0008A50C0008A50C0008A50C00087B
:1001A000B52A0008A50C0008C12A0008A50C000803
:0401B000CD2A00084C
:1001C00010B5054C237833B9044B13B10448AFF391
:1001D00000800123237010BD640100200000000096
:1001E000BC2E030808B5034B1BB103490348AFF30A
:1001F000008008BD0000000068010020BC2E03083C
:1002000001F0FF01102A2BDB10F0070F08D010F8C7
:10021000013B013A8B422DD010F0070F42B3F6D1CB
:10022000F0B441EA012141EA014122F007047FF0E4
:1002300000070023F0E80256083C85EA010586EA3B
:10024000010685FA47F5A3FA87F586FA47F6A5FA77
:1002500087F68EB9EED1F0BC01F0FF0102F0070283
:1002600032B110F8013B013A83EA010313B1F8D12E
:100270000020704701387047002D06BF354603380F
:10028000073815F0010F07D1013015F4807F02BF48
:10029000013015F4C03F0130F0BC0138704700BF99
:1002A00070B54FF0FF0C4CF4E06C1CEA11541DBF0C
:1002B0001CEA135594EA0C0F95EA0C0F00F0DEF8D7
:1002C0002C4481EA030621EA4C5123EA4C5350EABC
:1002D000013518BF52EA033541F4801143F480130D
:1002E00038D0A0FB02CE4FF00005E1FB02E506F09E
:1002F0000042E0FB03E54FF00006E1FB03569CF0F3
:10030000000F18BF4EF0010EA4F1FF04B6F5007FF8
:1003100064F5407404D25FEA4E0E6D4146EB06066A
:1003200042EAC62141EA55514FEAC52040EA5E50F3
:100330004FEACE2EB4F1FD0C88BFBCF5E06F1ED89D
:10034000BEF1004F08BF5FEA500E50F1000041EBD4
:10035000045170BD06F0004646EA010140EA020081
:1003600081EA0301B4EB5C04C2BFD4EB0C0541EAA3
:10037000045170BD41F480114FF0000E013C00F3B8
:10038000AB8014F1360FDEBF002001F0004170BDDC
:10039000C4F10004203C35DA0C341BDC04F11404F5
:1003A000C4F1200500FA05F320FA04F001FA05F281
:1003B00040EA020001F0004221F0004110EBD3704E
:1003C00021FA04F642EB06015EEA430E08BF20EA7A
:1003D000D37070BDC4F10C04C4F1200500FA04F31D
:1003E00020FA05F001FA04F240EA020001F00041AF
:1003F00010EBD37041F100015EEA430E08BF20EA22
:10040000D37070BDC4F1200500FA05F24EEA020E69
:1004100020FA04F301FA05F243EA020321FA04F098
:1004200001F0004121FA04F220EA020000EBD3704F
:100430005EEA430E08BF20EAD37070BD94F0000F4F
:100440000FD101F00046400041EB010111F4801F83
:1004500008BF013CF7D041EA060195F0000F18BF34
:10046000704703F00046520043EB030313F4801F70
:1004700008BF013DF7D043EA0603704794EA0C0F2A
:100480000CEA135518BF95EA0C0F0CD050EA410640
:1004900018BF52EA4306D1D181EA030101F00041BD
:1004A0004FF0000070BD50EA410606BF10461946E5
:1004B00052EA430619D094EA0C0F02D150EA0136F1
:1004C00013D195EA0C0F05D152EA03361CBF104632
:1004D00019460AD181EA030101F0004141F0FE41D1
:1004E00041F470014FF0000070BD41F0FE4141F455
:1004F000780170BD81F0004102E000BF83F000434D
:1005000030B54FEA41044FEA430594EA050F08BFAE
:1005100090EA020F1FBF54EA000C55EA020C7FEA72
:10052000645C7FEA655C00F0E2804FEA5454D4EBEF
:100530005555B8BF6D420CDD2C4480EA020281EAB9
:10054000030382EA000083EA010180EA020281EAF1
:100550000303362D88BF30BD11F0004F4FEA013143
:100560004FF4801C4CEA113102D0404261EB410152
:1005700013F0004F4FEA03334CEA133302D05242D8
:1005800063EB430394EA050F00F0A780A4F1010494
:10059000D5F1200E0DDB02FA0EFC22FA05F28018CE
:1005A00041F1000103FA0EF2801843FA05F35941B4
:1005B0000EE0A5F120050EF1200E012A03FA0EFC33
:1005C00028BF4CF0020C43FA05F3C01851EBE3715D
:1005D00001F0004507D54FF0000EDCF1000C7EEB7A
:1005E00000006EEB0101B1F5801F1BD3B1F5001FB8
:1005F0000CD349085FEA30004FEA3C0C04F10104D7
:100600004FEA445212F5800F80F09A80BCF1004FFF
:1006100008BF5FEA500C50F1000041EB045141EA81
:10062000050130BD5FEA4C0C404141EB0101013C4A
:1006300028BFB1F5801FE9D291F0000F04BF014639
:100640000020B1FA81F308BF2033A3F10B03B3F10B
:1006500020020CDA0C3208DD02F1140CC2F10C029B
:1006600001FA0CF021FA02F10CE002F11402D8BFF9
:10067000C2F1200C01FA02F120FA0CFCDCBF41EAC5
:100680000C019040E41AA2BF01EB0451294330BD94
:100690006FEA04041F3C1CDA0C340EDC04F1140471
:1006A000C4F1200220FA04F001FA02F340EA030048
:1006B00021FA04F345EA030130BDC4F10C04C4F18E
:1006C000200220FA02F001FA04F340EA030029466E
:1006D00030BD21FA04F0294630BD94F0000F83F4B8
:1006E000801306BF81F480110134013D4EE77FEA9B
:1006F000645C18BF7FEA655C29D094EA050F08BFE7
:1007000090EA020F05D054EA000C04BF19461046C7
:1007100030BD91EA030F1EBF0021002030BD5FEA0B
:10072000545C05D14000494128BF41F0004130BD33
:1007300014F580043CBF01F5801130BD01F0004587
:1007400045F0FE4141F470014FF0000030BD7FEAFA
:10075000645C1ABF194610467FEA655C1CBF0B46F5
:10076000024650EA013406BF52EA033591EA030F0C
:1007700041F4002130BD00BF90F0000F04BF002104
:10078000704730B54FF4806404F132044FF0000537
:100790004FF0000150E700BF90F0000F04BF0021B0
:1007A000704730B54FF4806404F1320410F0004516
:1007B00048BF40424FF000013EE700BF42004FEA11
:1007C000E2014FEA31014FEA02701FBF12F07F438E
:1007D00093F07F4F81F06051704732F07F4208BF45
:1007E000704793F07F4F04BF41F40021704730B54C
:1007F0004FF4607401F0004521F000411CE700BF98
:1008000050EA010208BF704730B54FF000050AE01A
:1008100050EA010208BF704730B511F0004502D51B
:10082000404261EB41014FF4806404F132045FEA1D
:10083000915C3FF4D8AE4FF003025FEADC0C18BFC6
:1008400003325FEADC0C18BF033202EBDC02C2F1B8
:10085000200300FA03FC20FA02F001FA03FE40EA4A
:100860000E0021FA02F11444BDE600BF4FEA410236
:1008700012F5001215D211D56FF47873B3EB6252F2
:1008800012D94FEAC12343F0004343EA505311F019
:10089000004F23FA02F018BF404270474FF00000AB
:1008A000704750EA013005D111F0004008BF6FF0E9
:1008B000004070474FF00000704700BF4FEA410210
:1008C000B2F1E04324BFB3F5001CDCF1FE5C0DD9AE
:1008D00001F0004C4FEAC0024CEA5070B2F1004FF8
:1008E00040EB830008BF20F00100704711F0804FFB
:1008F00021D113F13872BCBF01F00040704741F4C0
:1009000080114FEA5252C2F11802C2F1200C10FAC3
:100910000CF320FA02F018BF40F001004FEAC123A7
:100920004FEAD32303FA0CFC40EA0C0023FA02F34B
:100930004FEA4303CCE77FEA625307D150EA013321
:100940001EBF4FF0FE4040F44000704701F00040F1
:1009500040F0FE4040F40000704700BF53B94AB970
:10096000002908BF00281CBF4FF0FF314FF0FF30B7
:1009700000F06EB9ADF1080C6DE904CE00F006F898
:10098000DDF804E0DDE9022304B070472DE9F0470B
:10099000089D04468C46002B40F083808A4217460F
:1009A00047D9B2FA82F242B1C2F1200024FA00F033
:1009B0009140974040EA010C94404FEA1748230CBD
:1009C000BCFBF8F61FFA87FE08FB16C143EA014399
:1009D00006FB0EF1994209D9FB1806F1FF3080F0B1
:1009E0001981994240F21681023E3B445B1AA4B23F
:1009F000B3FBF8F008FB103344EA034400FB0EFE9F
:100A0000A64509D93C1900F1FF3380F00581A645C0
:100A100040F2028102383C4440EA0640A4EB0E0456
:100A200000261DB1D4400023C5E900433146BDE88E
:100A3000F08702B9FFDEB2FA82F2002A50D1CB1B56
:100A40004FEA174E1FFA87F80126B3FBFEFC210C74
:100A50000EFB1C3341EA034108FB0CF38B4207D920
:100A600079180CF1FF3002D28B4200F2E980844603
:100A7000C91AA3B2B1FBFEF00EFB101143EA014408
:100A800008FB00F8A04507D93C1900F1FF3302D25A
:100A9000A04500F2D9801846A4EB080440EA0C40B7
:100AA000BFE78B4209D9002D00F0B1800026C5E9CF
:100AB000000130463146BDE8F087B3FA83F6002ED8
:100AC0004AD18B4202D3824200F2B880841A61EB91
:100AD000030101208C46002DA8D0C5E9004CA5E7F4
:100AE000C2F1200320FA03F6974001FA02F04FEA20
:100AF000174ED9403043030CB1FBFEF61FFA87F8BE
:100B00000EFB161143EA014306FB08F1994204FA71
:100B100002F409D9FB1806F1FF3C80F08D80994260
:100B200040F28A80023E3B445B1A81B2B3FBFEF086
:100B30000EFB103341EA034100FB08F38B4207D957
:100B4000791800F1FF3C73D28B4271D902383944D5
:100B5000CB1A40EA064678E7C6F1200C03FA06F401
:100B600022FA0CF31C4320FA0CF701FA06F34FEAC1
:100B7000144E21FA0CF11F433B0CB1FBFEF91FFA96
:100B800084F80EFB191143EA014109FB08FA8A4572
:100B900002FA06F200FA06F308D9611809F1FF30EB
:100BA00048D28A4546D9A9F102092144A1EB0A019C
:100BB000BFB2B1FBFEF00EFB101147EA014700FB8C
:100BC00008F8B84507D9E71900F1FF312ED2B8452A
:100BD0002CD90238274440EA0940A7EB0807A0FBBC
:100BE00002894F45C64649461AD317D05DB1B3EBCB
:100BF0000E0267EB010707FA0CFCF2404CEA020216
:100C0000F740C5E9002700263146BDE8F0872E46AB
:100C100028460BE70646E9E61846FDE64345E5D2D9
:100C2000B8EB020E69EB04010138DFE70846D2E7B2
:100C300060468DE78146B9E7664675E730464AE784
:100C4000ACF1020C394413E702383C4424E700BFFE
:100C5000704700BFDFF834D0002103E00C4B5B5835
:100C6000435004310B480C4B42189A42F6D30B4ABE
:100C700002E0002342F8043B094B9A42F9D316F0F4
:100C80007FFC31F077F901F093F9704700000520FF
:100C9000E8770308000000206401002064010020C0
:100CA00024220120FEE700F0EFBD00F05DBE002130
:100CB000084615F0CDBF002016F004B84068704714
:100CC00041607047054A136843F080731360044A1B
:100CD000136843F001031360704700BFFCED00E0B0
:100CE000001000E0511A01EB5301B1FBF3F0704723
:100CF000014B1868704700BF041000E0704710B542
:100D00000C21044630F0C7FF204610BD036810B523
:100D10001B69044631B19847A26863689B1A18445E
:100D2000606010BD9847A060FBE770477047000007
:100D300008B5FFF7BCFF024B00221A6008BD00BFD8
:100D40008001002070B50D46FFF7B5FF0B4A937880
:100D500056781178D370C4B213F0010096705170B8
:100D600014700AD016F0010007D011F0010004D071
:100D7000E3075ABF01202870002070BD80010020C9
:100D800010B50421044630F086FF204610BD7047A0
:100D900010B50421044630F07EFF204610BD00004F
:100DA00008B54FF4F0714FF4487016F035FB074B5F
:100DB00010B901221A7008BD1B78002BFBD1044B1F
:100DC000044A0548242130F095FF00BF840100202B
:100DD000602F0308732F03089D2F03087FB50B4B6B
:100DE0001C780E4615465CB101A816F053FB9DF821
:100DF000043043B1BDF806303360BDF80A302B60D3
:100E0000204604B070BD1C46FAE700BF84010020F4
:100E100010B1012809D07047084B09481A68B2FA86
:100E200082F25209402117F06BBE044B05485A6804
:100E3000B2FA82F252091021F5E700BF88010020C2
:100E400000180240000C024010B1012809D0704780
:100E5000084B09481A68003A18BF0122402117F0D0
:100E60004FBE044B05485A68003A18BF01221021B2
:100E7000F5E700BF8801002000180240000C024086
:100E800010B1012804D070470348402117F03DBE3F
:100E900002481021FAE700BF00180240000C02408F
:100EA00008B530B1012809D00020431E58425841EE
:100EB00008BD0448402117F01DFEF6E70248102146
:100EC000F9E700BF00180240000C024070B5084D61
:100ED00000240126E0B2FFF7E3FF18B12B68012BD5
:100EE00018BF2E600134052C05F10405F2D170BD48
:100EF00088010020012380F8741080F87530704755
:100F00000020704700207047836B0BB108461847DC
:100F100070474FF6FF707047406803689B69184739
:100F200070477047014B1868704700BF9801002058
:100F30007047000038B50446094DFFF7C7FF20464B
:100F400000F094FD002384F84A302846FFF7BAFEEB
:100F5000012384F86C30034B2561636138BD00BF09
:100F6000A4010020A00100200368044607B59B6F80
:100F70009847236820461B6F984700F017FA2368AC
:100F800020469B6E98470021064800912923152290
:100F900017F09FFB00F00AFA236820469B6E9847E3
:100FA000F8E700BF841F012010B504461CF0D2FFF3
:100FB00023682046D3F8A030BDE81040184700F061
:100FC00054BD00F06BBD00F06BBD00F03DBD00F006
:100FD00043BD00F067BD0000024B00221A701CF0F8
:100FE000ABB900BF1400002010B504461CF0B0F9E6
:100FF00094F84B3013B1024B01221A7010BD00BFA0
:10100000140000201CF05EB910B57C21044630F0BD
:1010100042FE204610BD90F877301BB1406803684F
:101020001B6818471846704730B590F8341090F890
:101030007440104B8C421A780DD05AB90E4A0F49A1
:101040000F4814880F4D0C8001881180298004807E
:1010500001221A7030BD002AFCD00948074A0188D5
:101060001180054A074D14882C80118004800022CD
:10107000EFE700BF3C170120381701203E17012081
:101080003A1701204017012010B50C4C216031B9EE
:101090000B4B0C4A0C484FF4257130F02BFEC0E985
:1010A0000F12003A0949436418BF01220A70003B3D
:1010B000074A18BF0123137010BD00BF980100201C
:1010C000143003084C3003089A30030842170120FB
:1010D00043170120012807B50AD84B7800930B78F5
:1010E00008481522002117F0F4FA03B05DF804FB5C
:1010F00001910B5C0093392203460021014817F04F
:10110000F9FAF2E7841F012037B50B4A0B4C022392
:101110001525137055700192442200920021392246
:10112000204617F0E7FA0021009135232A46204691
:1011300017F0CFFA03B030BDB0010020841F0120AA
:1011400007B50190FFF7E0FF019803B05DF804EBED
:1011500000F08ABC07B5074B03EB80002A230190FF
:101160000093392204230021034817F0C3FA03B087
:101170005DF804FB04000020841F012070B5154DAC
:1011800004460020FFF744FE2A6892F866300133D7
:1011900082F8663000F0FEF80F4B28681A781B784A
:1011A00080F84A2023B10D4D2B7803F0FF0623B1C0
:1011B000BDE870400020FFF747BE1CF0CBFE084B97
:1011C00030461E60FFF7C6FF204617F072FA012373
:1011D0002B7070BD4417012014000020B2010020C4
:1011E0009C010020304B314A70B505461868304CE0
:1011F000013018602F4B03281E682ADCD4F8041431
:101200004FF4C87303FB006321F00801C4F8041411
:1012100093620CBFE823C823023327491B0443F41D
:10122000F1730B61254B4B61A3F5F0735360244BB5
:10123000D36201234B62FFF78DFF1D4AD2F80434BD
:1012400043F008032846C2F80434BDE8704017F0A4
:1012500030BAD4F804341B4923F00803C4F804342A
:10126000154B9662196101F10111596116495160DE
:101270001349D16201225A620020FFF76BFFD4F8B4
:10128000043443F00803C4F804340020FFF7DCFD05
:101290000E4B00221A700E4B186820B10368BDE88F
:1012A0007040DB69184770BD9C01002084680140D4
:1012B000006C01409801002000680140E301CA0071
:1012C00093018006E201CA000300CA00B2010020B7
:1012D0004417012008B5044B0146186801B10121EB
:1012E0001CF052FE012008BD44170120054B0648A2
:1012F00000225A609A60054A1A60054B0360FFF7A6
:1013000017BD00BFA4010020A0010020242F030866
:101310004C2F0308012108B50022084619F074FC7F
:101320000A4B186028B90A4B0A4A27210A4830F0AC
:10133000E1FC00220421012019F004FD074B186094
:1013400018B9074B034A2B21F0E708BDB80100206C
:10135000AC310308F531030824320308B40100203E
:1013600082320308024B4FF0FF31186819F096BC27
:10137000B8010020014B186819F0BCBCB80100206E
:10138000024B0021186819F089BC00BFB801002089
:10139000FFF7F0BF03480449006800231A4619F01C
:1013A0000DBD00BFB40100201800002013B5084C8B
:1013B00000231A4601A9206819F030FD20684FF07B
:1013C000FF33002201A919F029FD02B010BD00BFB2
:1013D000B401002019F0FABB03685B6C18470120C8
:1013E000704703689B6A184782B0002301930D4B36
:1013F0001A6B42F400021A631A6B02F400020192A3
:10140000019A1A6942F400021A611A6922F4000270
:101410001A61054B054A1A61054B4FF080629A60CC
:1014200002B0704700380240742001203D140008CB
:1014300000E100E040F2EF3070470000024B1B6813
:10144000586803685B6918474417012008B50B28E2
:101450000BD8DFE800F01206100A0A0A0A0808088A
:101460000808012008BD0520FCE7054B054A064891
:10147000652130F03FFC0020F4E70220F2E700BFD6
:10148000C4320308DF3203082B33030808B50A28E7
:1014900009D8DFE800F010060E080808080606065E
:1014A0000600012008BD054B054A0648862130F09C
:1014B00021FC0020F6E70220F4E700BFC432030855
:1014C000873303082B3303082DE9F84391F81D8077
:1014D0000C464046FFF7BAFFA77F05463846FFF7A0
:1014E000B5FF06463846FFF7D1FFA18A628B534B02
:1014F000521A1A649A61228B521A1A61E28A58634C
:1015000042EA01425A6421696268D963DA60D4F818
:1015100000C094F81C90BCF1800F4FEA09629E460F
:101520003BD015D8BCF1200F45EA020079D0BCF1C0
:10153000400F76D0BCF1040F2BD0404B2A4342F42D
:101540000032B845DA6114BF3D4A40F201221EE084
:10155000BCF5807F07D0BCF5007FEED142F40032AD
:1015600042F0090203E042F4003242F00A02DA617A
:10157000E0680202440102F4780204F47C44C000F2
:101580002243C0B202431A622E4A5E6259611A6057
:1015900043E040F40030D861F6E7A0682A4342F403
:1015A0000032041DDC62DA6102785E62596142B188
:1015B000012A1CD0244B254A25484FF4887130F06D
:1015C00099FB4288D969501E21F47F4222F0100213
:1015D00042EA0022DA610125184CE36943F0200356
:1015E000E361E3699B0613D5FFF7F4FEF9E7428850
:1015F000D969501E21F47F4222F0100242EA0022F3
:10160000B9F1FF0542F0100218BF0125DA61E3E7E6
:101610001023A3601DB10B4B2360BDE8F883084B7A
:10162000FAE7084B40F40030CEF81C00CEF82460F6
:10163000CEF81410CEF80030EFE700BF00B0024043
:101640000102010001020200D4330308EE33030853
:101650002B330308F8B58E7F0C463046FFF716FF94
:10166000A78AE18A628B1E4B2569586341EA0741CC
:10167000D21B5964DD631A642168082918D19A6164
:101680001A615862217F174A42EA0162DA61E16811
:101690000A02480102F4780200F47C40C9000243C7
:1016A000C9B20A431A62104A5D61DD601A60F8BD72
:1016B0000022D8611A61E1681EB99963084B0B4A90
:1016C000F4E70A02480102F4780200F47C40C90001
:1016D000C9B202430A43217F42EA01629A63EDE7FD
:1016E00000B00240090001000102020001020300F3
:1016F000054B0360054B4FF08062C3F88820BFF3B1
:101700004F8FBFF36F8F70473834030800E100E05C
:1017100010B50446FFF7ECFF20464FF4426130F06D
:10172000BAFA204610BD000070B5044625460A4BA3
:101730000C30002660602672667245F8203B6022FD
:1017400029461CF059FD04F54263EE602035AB429A
:10175000FBD1204670BD00BF38340308012070471C
:101760000C2070470C2303FB0100083070470C234A
:1017700003FB0100083070470120704747F2D85042
:10178000704747F2D85303FB01000830704747F217
:10179000D85303FB01000830704701207047102028
:1017A000704700EB01100830704700EB0110083063
:1017B0007047084601F01ABB10B5034B036004469E
:1017C0001BF094FB204610BDF034030810B504460E
:1017D000FFF7F2FF2046142130F05DFA204610BDDD
:1017E00010B5034B036004461BF080FB204610BD80
:1017F000BC34030810B50446FFF7F2FF204647F259
:10180000E05130F048FA204610BD000010B5034BFF
:10181000036004461BF06AFB204610BD88340308B1
:1018200010B50446FFF7F2FF2046182130F033FAD6
:10183000204610BD10B5094B0360044600F5EC408E
:101840000C30FFF7B9FF04F12C00FFF7C9FF04F1DA
:101850001400FFF7DBFF204610BD00BF243503084E
:1018600008B50248FFF7E6FF08BD00BFC001002031
:1018700010B50446FFF7DEFF204647F27C7130F0DA
:101880000AFA204610BD00002DE9F34101F0F0F9FD
:10189000054601F0F1F90024014623462846224678
:1018A000009422F023FF244B244A254D1A60204641
:1018B00014F04CFC234822F05BFE2B78BFF35B8FC7
:1018C000DB0733D4284630F0E8F978B31E4C1F4FBD
:1018D0001F4B236007F1180604F1140004F12C08D3
:1018E0006060C4F80880E76026611BF001FB194BBB
:1018F000636140461BF0FCFA174BE36238461BF06D
:10190000F7FA164B3B6007F1140014F0A9FC2246CD
:1019100007F11401304614F099FC304601F066FAE4
:10192000284630F0C6F90E4830F002FA0D4802B0F1
:10193000BDE8F041FFF7FEBAC0170120DC850020AA
:10194000BC0100201C000020C0010020CC7700203A
:101950002435030888340308BC340308F034030832
:1019600061180008608500200148FFF7FDBA00BF3C
:101970006085002070B5244C244E254B254D2360F6
:101980003046FFF7D1FE284625F034FF224B0022D7
:101990004FF48071C3E912122049DC60C3E91912C7
:1019A0004FF080715967012183F878101C491D4C54
:1019B0000B601D491A854FF4507008804FF4F07188
:1019C000C3E90422C3E90622C3E90822C3E90E22BF
:1019D000C3E91022C3E91422C3E9162283F82A209E
:1019E000DA621A861A6683F86C201A67C3E9016501
:1019F00021800E4C83F8342022700D4C0D4A20803B
:101A00000D481A60018070BD3C79002040790020AB
:101A100004300308E08500206085002001000001FB
:101A2000441701203A170120381701203C170120E4
:101A30003E170120E8300308401701200148FFF756
:101A400057BE00BF40790020024B902283F85A23F2
:101A5000704700BF00E100E0024B4FF080629A60E7
:101A6000704700BF00E100E07047704738B504469A
:101A70001BF07BFC2368DD6D1FF06AFD01462046EC
:101A8000A8472368D3F8805000231A464FF04041FE
:101A90002046A847012384F84A3038BD1BF018BC03
:101AA0001BF071BD044B4FF08062C3F88820BFF378
:101AB0004F8FBFF36F8F704700E100E0A0F5977084
:101AC00057289ABF014B185C002070473035030837
:101AD00010B50B4C8AB000230F22CDE90523CDE9C8
:101AE0000033CDE902330493694601232046CDE952
:101AF000073315F00FFE204615F094FE0AB010BD16
:101B000048200120000000002DE9F84FC24BC34CD3
:101B100018680022214619F0B9FF2268116840F2C6
:101B20008223994210D1907FD37F03EB0020FEF7F0
:101B300033FEB5A3D3E90023FEF7B2FBFEF796FE12
:101B4000B74B1860BDE8F88FB1F5407F06D1B54BB3
:101B5000127F01211960B44B1A70F3E7A1F5967357
:101B6000132B35D8B14BB24C012018600846FFF753
:101B7000A5FF54F820305D1C13F0010344F82050F9
:101B8000AC4C08D105B204EB05151E460133102BF1
:101B900005F8016BFAD111F0010F02F11B0302F1FC
:101BA000230209D100B204EB001013F8011F00F862
:101BB000011B9A42F9D1C5E71021082511FB0050FD
:101BC000204413F8011F00F8011B9342F9D1B9E733
:101BD000652925D1954B01211960974B117F19700B
:101BE000517F937F03EB01234FF6FF71B3FBF1F3BA
:101BF000924903EB83030B80D17F92F8203003EBF3
:101C000001238F490B808F4B92F82110197092F8A5
:101C1000221092F823308C4A03EB0123138091E7C2
:101C2000662925D1894B01211960537F917F07EEE9
:101C3000903A874BF8EE677AC3ED007AD37F03EBD7
:101C4000012307EE903A834B92F82010F8EEE77AE2
:101C5000C3ED007A804B1970804B92F821101970F7
:101C60007F4B92F82210197092F823207D4B73E776
:101C7000A1F5AF73132B60D86C4B7B4C7B4E0120CE
:101C800018600846FFF71AFF54F820305D1C13F067
:101C9000010F44F82050764C4FEA80050ED16319AD
:101CA00000271F6003B2C3EBC30306EBC3034FF06F
:101CB0000E0CBCF1010C43F8047BFAD111F0010FBA
:101CC000DFED6C6A02F11B031BD100B2C0EBC00058
:101CD00006EBC00023322C4413F8011F94ED007A68
:101CE00001EB810107EE901AF8EEE77A934267EE76
:101CF000A67AE0EC017A77EE277AC4ED007AEBD190
:101D000020E73821202711FB0070304421322C4479
:101D100013F8011F94ED007A01EB810107EE901A90
:101D2000F8EEE77A934267EEA67AE0EC017A77EE76
:101D3000277AC4ED007AEBD104E7A1F5BE73092B35
:101D400027D83A4B012018600846FFF7B7FE4A4BE8
:101D500003EB80030021196000B24849C0EBC000CA
:101D600002F11B0401EB8000223214F8011F93EDF5
:101D7000007A07EE901AF8EE677AF4EEC77AF1EE81
:101D800010FAC8BFC3ED007A9442E0EC017AECD1BE
:101D9000D8E6B1F5C87F29D12C4BDFF8F4A0384D37
:101DA000384F0FF26C09D9E900890121196002F15D
:101DB0001B0402F11F0B002614F8010FFEF7ECFCC8
:101DC00042464B46FEF76CFA3B463246FEF768FA4F
:101DD000FEF774FD4AF8040B237907EE903AF8EE0B
:101DE000677A5C45E5EC017AE6D1ABE6B1F5C97FEF
:101DF00050D1164B01211960234B517F1970927FEE
:101E0000224BA9E6AFF30080764F1E166A4DB33F12
:101E100090D1BE500000293F7C210120301D0120BF
:101E2000F81D0120281D0120FC1D01201C1A012085
:101E30005C1D0120201A0120C11A01202C1D012047
:101E4000581D0120241D0120CC1D0120001E012051
:101E5000C81D0120C01D0120C01A0120041E012040
:101E6000201F0120251D0120981D0120C41A0120DA
:101E7000F81C01200000803BD01D0120081E01201D
:101E8000041A012000007040001A0120F41C0120F7
:101E9000881D012040F2911399427FF453AE054B07
:101EA00001211960044B117F1970517F927F597085
:101EB0009A7047E6001E0120211F012030B587B02F
:101EC00000230121CDE9033102934FF44073024610
:101ED00000930748074B074D054C694615F0D0FCA9
:101EE0002968204615F01CFD0028F9D107B030BD47
:101EF00048200120C41D0120014900201AF014BB14
:101F0000D512000808B5642018F072FEFBE7000047
:101F100030B595B01022002109A830F071F81422D4
:101F2000002102A830F06CF800241F4B00941A6CBA
:101F300042F080521A641B6C03F080530093009BA4
:101F40001A4B01941A6842F440421A601B6803F469
:101F5000404301930122019B4FF48033CDE90723D5
:101F600002254FF480030821CDE90D534FF4B473DB
:101F7000CDE90F1304200623CDE9120307A811951C
:101F800018F070F917F0C0FB0F23CDE90235049467
:101F90004FF480534FF4A054052102A8CDE9054326
:101FA00017F034FF15B030BD00380240007000401B
:101FB0002DE98048B9B015F0F1FAFFF7A9FF142216
:101FC00000212BA8002430F01BF8C94B02941A6B97
:101FD000C84842F010021A631A6B02F01002029213
:101FE000029A03941A6B42F002021A631A6B02F00F
:101FF00002020392039A04941A6B42F040021A639D
:102000001A6B02F040020492049A05941A6B42F093
:1020100008021A631A6B02F008020592059A0694E8
:102020001A6B42F480721A631A6B02F48072069281
:10203000069A07941A6B42F020021A631A6B02F098
:1020400020020792079A08941A6B42F480621A637E
:102050001A6B02F480620892089A09941A6B42F093
:1020600080021A631A6B02F080020992099A0A949C
:102070001A6B42F004021A631A6B02F004020A920D
:102080000A9A0B941A6B42F400721A631B6B03F4E6
:1020900000730B93012208210B9B16F031FD96482B
:1020A0002246102116F02CFD94482246402116F0BD
:1020B00027FD22469248802116F022FD1126082392
:1020C0008C482BA901274FF00208CDE92B364FF0A1
:1020D0001009CDE92D4416F085FB87482D942BA9D6
:1020E000CDE92B97CDF8B88016F07CFB40238348D0
:1020F0002BA98025CDE92B37CDE92D4816F072FBB1
:102100002BA903237E482E93CDE92B562D9416F050
:1021100069FB7C487C4E7D4B036015F083FD7C4B56
:10212000C6E90A44C6E90C443046C6E90034C6E9AB
:10213000024415F08BFE3946304615F03FFF294624
:1021400022466F48734E16F0DBFC142015F052FA4D
:1021500029463A466A4816F0D3FC0A2015F04AFA96
:102160002422214615A82FF04BFF182221460FA844
:102170002FF046FF342221462BA82FF041FF2C22BE
:1021800021461EA82FF03CFF634B0E940425C6E9A0
:1021900000340CA97D233046C6E90257CDE90C383E
:1021A00015F0D4FF15A93046CDE91574CDE91744D3
:1021B000CDE91944CDE91B441D9416F0F1F91C2218
:1021C0002123CDE90F230F211923CDE91113304627
:1021D0000FA9CDE9134416F0A6F92946304616F0AA
:1021E00091F942F21071304616F0E5FA2146304678
:1021F00015F049FF4FF480704FF40073CDE92B03C5
:102200004FF4806B4FF400634FF48052CDE92DB34F
:102210004FF40053CDE92F234FF4804A4FF480331D
:102220004FF4003CCDE931A34FF48023CDE933C313
:102230004FF4002E4FF080732BA93046CDE935E3E3
:10224000CDF8DC8016F02AF9C8231EA93046CDE966
:102250002039CDE92245CDE91E44CDE92484CDE9DC
:102260002644289716F0A8F82146304616F093F831
:102270002A482B490462C0E9001440232021C0E908
:1022800004134FF4C071C0E90614072103234FF46F
:102290008052CDE92C152E912BA9CDE92F38C0E91C
:1022A000092AC0E90245CDF8AC80CDF8C48018F009
:1022B0008FF915F09BF815F04BF8342221461EA833
:1022C000184D2FF09DFE184AAC86C5E90024CA239C
:1022D0004FF4F172C5E90932CB2140F2E3122846EE
:1022E000C5E90B12C5E90244C5E904471EE000BF79
:1022F0000038024000280240000C02400018024052
:10230000001C02407C1F012074200120003002408C
:1023100000B00240841F0120006C0140B420012065
:10232000400100A0A01F012000680140C5E9067817
:10233000C5F8208085F8364017F0B0F8FF21C82393
:102340004FF4F072CDE9231405204FF04041CDE960
:102350002601CDE928321EA9CDE9212828462246AA
:10236000CDE91F341E94CDF894B0ADF8A8408DF897
:10237000AA4017F05FF92A68936923F0010393617B
:10238000304616F073F93946404614F0A3F9282375
:10239000152221463046009416F09BF92BA93046B1
:1023A000CDE92B44CDE92D44CDE92F44CDE931448D
:1023B000CDE93344359416F071F84FF44871224654
:1023C000284617F065F92A6826489369264D274E56
:1023D0003B439361264B0462C0E900371B23C0E9ED
:1023E000043BC0E90279C0E9064417F0A5FA14F0ED
:1023F00075FE14F0A9FD14F01FFD1E4B2C6228463B
:10240000C5E90063C5E90244C5E904A4C5E9064479
:1024100016F060FD284616F005FE1748174B84613C
:102420008483C0E90039C0E90244C0E9044415F0DE
:10243000F5F8FEF738FCFFF74BFB00F0BBFB18F09C
:102440004FFB0F4A0F48214618F076FB0E4B0F4A00
:10245000186021460E4818F06FFB0E4B186018F0FC
:1024600051FBFEE7E8200120281F01200054004016
:10247000001000A0801A06004820012000680040DB
:10248000C8350308051F0008241F0120A4350308D0
:10249000AB0C0008702001200268034B9A4201D166
:1024A00015F096B8704700BF00100040704700005C
:1024B00082B00E4B00220092596C41F48041596465
:1024C000596C01F48041009100990192196C41F01E
:1024D000805119641B6C03F080530193019B0F2101
:1024E0006FF0010002B015F049BB00BF0038024098
:1024F00010B5044688B01422002103A82FF080FDF7
:102500002268224B9A423ED103F5E833002400941E
:102510001A6C1F4842F080621A641A6C02F08062E2
:102520000092009A01941A6C42F000721A641A6CBC
:1025300002F000720192019A02941A6B42F00202B8
:102540001A631B6B059403F00203029342F220020C
:10255000029B0223CDE9032303210923CDE90613BE
:1025600003A916F03FF922460521402015F006FB8D
:10257000402015F035FB41202246052115F0FEFADA
:10258000412015F02DFB08B010BD00BF00680040D1
:10259000000402400268094B9A4282B00BD100232A
:1025A0000193074B1A6B42F480521A631B6B03F4BE
:1025B00080530193019B02B0704700BF003002407E
:1025C0000038024007B50F4B02689A4216D100222C
:1025D000A3F5F0430192196B41F4000119631B6BE1
:1025E00003F40003019305215A20019B15F0C6FA5C
:1025F0005A2003B05DF804EB15F0F2BA03B05DF8B1
:1026000004FB00BF00B0024010B5044688B014229D
:10261000002103A82FF0F4FC2268184B9A422AD11B
:1026200003F54C43002401945A6C154842F00062B3
:102630005A645A6C02F000620192019A02941A6B79
:1026400042F400721A631B6B03F4007302930422BA
:10265000029B0223CDE9032303A90D230793CDE9B0
:10266000054416F0BFF85C202246052115F086FAD5
:102670005C2015F0B5FA08B010BD00BF006C014039
:102680000024024030B5044689B01422002103A87A
:102690002FF0B6FC22681A4B9A422FD1194C1A48D7
:1026A00000250195236B43F002032363236B03F0A2
:1026B00002030193019B4FF440721223CDE90323DF
:1026C00001210323CDE90513042303A9079316F081
:1026D00089F80295236C43F400132364236C03F4FC
:1026E00000130293029B236A43F400132362236ABC
:1026F00023F400132362642014F07CFF09B030BD82
:1027000000540040003802400004024008B502684E
:102710000A4B9A4210D10A4A0A48136C23F4001358
:1027200013644FF4807116F043F9BDE80840054882
:102730004FF4007116F03CB908BD00BF00540040D2
:10274000003802400004024010B5044690B03C221C
:10275000002101A82FF054FC2268134B9A4221D18A
:10276000082301934FF4B47305930024062301A8B2
:1027700008930B9417F014FC08B1FFF797FE0B4B6E
:1027800000945A6C42F080625A645B6C03F0806380
:102790000093582000220521009B15F0EFF95820E6
:1027A00015F01EFA10B010BD00680140003802405C
:1027B000F0B5044689B01422002103A82FF020FCB4
:1027C0002268244B9A4243D1234B2448002400948E
:1027D0009A6B42F002029A639A6B02F00202009234
:1027E000009A01941A6B42F002021A631A6B02F00B
:1027F00002020192019A02941A6B42F020021A63BB
:102800001B6B059403F02003029302260325029B11
:102810000A27402303A9CDE90336CDE9065715F071
:10282000E1FF4FF49863CDE903360D48092303A96E
:102830000793CDE9054515F0D5FF4FF440730848DF
:10284000079703A9CDE90336CDE9054515F0CAFF81
:1028500009B0F0BD001000A00038024000040240A2
:102860000014024008B50268094B9A420FD1094A88
:102870000948936B23F002039363402116F098F804
:10288000BDE8084005484FF4F86116F091B808BD5E
:10289000001000A000380240000402400014024072
:1028A000F0B5314B1C6887B0002C5BD101221A6057
:1028B0002E4B00949A6B2E4842F001029A639B6B58
:1028C000039403F001030093022703260C25009BC9
:1028D00001A94FF68373CDE90137CDE9046515F001
:1028E00081FF48F233132348059501A9CDE901374B
:1028F000CDE9034615F076FF4CF203731E480595AB
:1029000001A9CDE90137CDE9034615F06BFF40F28F
:10291000FF631A48059501A9CDE90137CDE90346C2
:1029200015F060FF4FF63F031548059501A9CDE965
:102930000137CDE9034615F055FF4FF47F431148A9
:10294000059501A9CDE90137CDE9034615F04AFF08
:102950000D230D48059501A9CDE90137CDE90346C1
:1029600015F040FF07B0F0BD5C8600200038024043
:102970000010024000180240000C024000200240FB
:1029800000140240001C02400008024008B5174B2A
:102990001A6852BB01221A60154A1648936B23F03D
:1029A000010393634FF6837116F002F8124848F260
:1029B000331115F0FDFF11484CF2037115F0F8FFCB
:1029C0000F4840F2FF6115F0F3FF0E484FF63F014C
:1029D00015F0EEFF0C484FF47F4115F0E9FFBDE81C
:1029E00008400A480D2115F0E3BF08BD58860020B5
:1029F000003802400010024000180240000C024063
:102A00000020024000140240001C02400008024066
:102A100030B5014689B00022362015F0AFF83620D7
:102A200015F0DEF80025154B02951A6C144C42F097
:102A300010021A641B6C03F01003029301A903A88F
:102A4000029B17F08FFA17F07DFA0E4B236040F2CD
:102A5000E733E36040000C4BB0FBF3F001386060FB
:102A600020462561A56017F051FF20B9204617F0D8
:102A700007FE09B030BD0120FBE700BF003802406F
:102A8000342101200010004040420F007047FEE753
:102A9000FEE7FEE7FEE77047014817F02FBE00BFD4
:102AA00034210120014814F059BF00BF4820012003
:102AB000FFF7F8BF014816F060BD00BFA01F01205E
:102AC000014815F0F1B900BF74200120014815F04C
:102AD000F0BB00BF841F01200120704708B52FF014
:102AE0003BF9162303604FF0FF3008BD08B52FF007
:102AF00033F916230360FEE770B50E461446002531
:102B0000A54201DB204670BDAFF300807055013552
:102B1000F6E770B50E4614460025A54201DB2046B7
:102B200070BD705DAFF300800135F6E74FF0FF3008
:102B300070474FF400534B600020704701207047EE
:102B40000020704708B50A4B1968024609B90949BF
:102B500019601868694602448A4206D92FF0FCF8C9
:102B60000C2303604FF0FF3008BD1A60FCE700BF84
:102B70006086002028220120034B00221A70034B9C
:102B800001221A60FEE700BFC21A0120201D0120A9
:102B900007B5074D0324286819F02BF908B1FEF793
:102BA000B3FF68468DF80040FFF788F9F3E700BFF0
:102BB0007C21012037B5002224210A2018F078FD5D
:102BC0000D4B1860012018F08DFE0C4B0C4918605D
:102BD000002405252346CDE900548022094819F038
:102BE00039FBCDE90054084908482346802219F0F2
:102BF00031FB03B030BD00BF7C21012080210120CA
:102C0000EC350308792B0008F5350308912B0008F3
:102C1000704708B5072921D8DFE801F00404080C43
:102C20001014181C13F0E0FA006808BD13F0DCFA69
:102C30004068FAE713F0D8FA8068F6E713F0D4FAA0
:102C4000C068F2E713F0D0FA0069EEE713F0CCFAAF
:102C50004069EAE713F0C8FA8069E6E70020E4E794
:102C600010B5042104462FF016F8204610BD0000D0
:102C700000487047143603080120704713B500243C
:102C800051B1036801948DF8034001AA9C680DF1CD
:102C90000303A04702B010BD0846FBE74089704718
:102CA000808970478088704783798088184480B213
:102CB0007047C07900F07F007047C079C009704745
:102CC000704710B5082104462EF0E5FF204610BDE0
:102CD000704700F596730868496803C370477047EA
:102CE0007047416070477047012303727047704717
:102CF000704710B4C26841685410034601EB62008B
:102D0000D20748BF0A599B685DF8044B48BFD358A7
:102D1000184743682BB183682BB9C06800F00100E5
:102D20007047184670470120704710B50C210446C3
:102D30002EF0B1FF204610BD10B5102104462EF034
:102D4000AAFF204610BD10B54FF4AC7104462EF01A
:102D5000A2FF204610BD10B51EF0FAFB0368BDE8C7
:102D600010401B6B184710B50446D0F83C0158B111
:102D70000368DB68984738B1D4F83C0103689B6866
:102D800098470023C4F83C3110BD0000F8B5044654
:102D900017460E461EF0FCFB104B0025C4E9547686
:102DA0000F4E1C60C4E952550E4B306823600E4B29
:102DB000C4E95035036829469B68C4E94E559847D5
:102DC000284613F0C3F9336893F876200AB1D86C1B
:102DD00000B9986826F041FA2046F8BDB0170120E6
:102DE00044170120903F0308783F0308064BC0F8C2
:102DF00048310023C0F84C3100F5A073C0F84401FD
:102E0000C0F83C31704700BF15300008064BC0F8D1
:102E100048310023C0F84C3100F5A073C0F84401DC
:102E2000C0F83C31704700BF79310008064BC0F84C
:102E300048310023C0F84C3100F5A073C0F84401BC
:102E4000C0F83C31704700BFE1320008064BC0F8C3
:102E500048310023C0F84C3100F5A073C0F844019C
:102E6000C0F83C31704700BF49340008064BC0F839
:102E700048310023C0F84C3100F5A073C0F844017C
:102E8000C0F83C31704700BFB1350008064BC0F8B0
:102E900048310023C0F84C3100F5A073C0F844015C
:102EA000C0F83C31704700BF19370008064BC0F826
:102EB00048310023C0F84C3100F5A073C0F844013C
:102EC000C0F83C31704700BF8138000803685B6A76
:102ED000184700002DE9F84F07469068DDF828A054
:102EE000994603681B6A88461446984743F2A363D1
:102EF000984205D8414B424AA32142482EF0FAFE9F
:102F0000606803681B6A98470F2803D83E4B3C4A09
:102F1000A421F2E7E06803681B6A98470B2803D8EE
:102F20003A4B374AA521E8E71EF012FB1EF016FBCC
:102F3000D9F8000010B10368DB689847D9F80000A1
:102F400010B103681B689847386810B103685B6963
:102F50009847D8F8000010B103685B689847386854
:102F600010B103681B689847D8F8000010B10368D7
:102F70009B689847E0680021FFF7A8FF4FF0000B1F
:102F8000234B03600546C0F804B080F808B0A06881
:102F9000036859465B6A9847064613F0E3F9606890
:102FA000036859465B6A98473146044613F06AF94C
:102FB000C9F80050C8F800403E60E4B1231DCAF8CB
:102FC00000303368C4F808A03046DB68F4639847E3
:102FD000236820461B689847294630461FF09DFF0E
:102FE0002B6828461B6998472B6828465B699847D9
:102FF0002046BDE8F88F2346E1E700BF38360308D6
:10300000C6360308CA37030811380308B438030862
:10301000D43F030807B5D0F854310093D0F85021BD
:10302000044B00F59C710448FFF754FF03B05DF8B2
:1030300004FB00BFA4170120A01701202DE9F84FC1
:1030400007469068DDF828A0994603681B6A884601
:1030500014469847972805D8414B424AA321424835
:103060002EF048FE606803681B6A98470F2803D853
:103070003E4B3C4AA421F2E7E06803681B6A98478C
:103080000B2803D83A4B374AA521E8E71EF060FA2F
:103090001EF064FAD9F8000010B10368DB689847A5
:1030A000D9F8000010B103681B689847386810B160
:1030B00003685B699847D8F8000010B103685B6843
:1030C0009847386810B103681B689847D8F8000023
:1030D00010B103689B689847E0680021FFF7F6FE8F
:1030E0004FF0000B234B03600546C0F804B080F896
:1030F00008B0A068036859465B6A9847064613F013
:1031000063F96068036859465B6A9847314604462C
:1031100013F040F9C9F80050C8F800403E60E4B12F
:10312000231DCAF800303368C4F808A03046DB68B5
:10313000F4639847236820461B6898472946304621
:103140001FF0EBFE2B6828461B6998472B68284622
:103150005B6998472046BDE8F88F2346E1E700BF4A
:103160003836030857390308CA37030811380308EB
:10317000B4380308D43F030807B5D0F8543100939E
:10318000D0F85021044B00F59C710448FFF756FF1E
:1031900003B05DF804FB00BFA4170120A0170120B5
:1031A0002DE9F84F07469068DDF828A09946036896
:1031B0001B6A88461446984744F60323984205D86C
:1031C000414B424AA32142482EF094FD60680368B7
:1031D0001B6A98470F2803D83E4B3C4AA421F2E7CC
:1031E000E06803681B6A98470B2803D83A4B374AB4
:1031F000A521E8E71EF0ACF91EF0B0F9D9F80000FF
:1032000010B10368DB689847D9F8000010B1036873
:103210001B689847386810B103685B699847D8F80D
:10322000000010B103685B689847386810B1036804
:103230001B689847D8F8000010B103689B6898474E
:10324000E0680021FFF742FE4FF0000B234B0360C4
:103250000546C0F804B080F808B0A0680368594675
:103260005B6A9847064613F0E1F8606803685946C0
:103270005B6A98473146044613F0BEF8C9F800501F
:10328000C8F800403E60E4B1231DCAF8003033683E
:10329000C4F808A03046DB68F463984723682046EA
:1032A0001B689847294630461FF037FE2B68284692
:1032B0001B6998472B6828465B6998472046BDE8FC
:1032C000F88F2346E1E700BF383603085B3A03086E
:1032D000CA37030811380308B4380308D43F030879
:1032E00007B5D0F854310093D0F85021044B00F5C5
:1032F0009C710448FFF754FF03B05DF804FB00BF66
:10330000A4170120A01701202DE9F84F0746906867
:10331000DDF828A0994603681B6A8846144698473A
:1033200047F2D753984205D8414B424AA32142481D
:103330002EF0E0FC606803681B6A98470F2803D8EA
:103340003E4B3C4AA421F2E7E06803681B6A9847B9
:103350000B2803D83A4B374AA521E8E71EF0F8F8C6
:103360001EF0FCF8D9F8000010B10368DB6898473C
:10337000D9F8000010B103681B689847386810B18D
:1033800003685B699847D8F8000010B103685B6870
:103390009847386810B103681B689847D8F8000050
:1033A00010B103689B689847E0680021FFF78EFD25
:1033B0004FF0000B234B03600546C0F804B080F8C3
:1033C00008B0A068036859465B6A9847064613F040
:1033D0005FF86068036859465B6A9847314604465F
:1033E00013F03CF8C9F80050C8F800403E60E4B162
:1033F000231DCAF800303368C4F808A03046DB68E3
:10340000F4639847236820461B689847294630464E
:103410001FF083FD2B6828461B6998472B682846B8
:103420005B6998472046BDE8F88F2346E1E700BF77
:10343000383603085F3B0308CA370308113803080E
:10344000B4380308D43F030807B5D0F854310093CB
:10345000D0F85021044B00F59C710448FFF754FF4D
:1034600003B05DF804FB00BFA4170120A0170120E2
:103470002DE9F84F07469068DDF828A099460368C3
:103480001B6A88461446984747F2D753984205D896
:10349000414B424AA32142482EF02CFC606803684D
:1034A0001B6A98470F2803D83E4B3C4AA421F2E7F9
:1034B000E06803681B6A98470B2803D83A4B374AE1
:1034C000A521E8E71EF044F81EF048F8D9F80000FE
:1034D00010B10368DB689847D9F8000010B10368A1
:1034E0001B689847386810B103685B699847D8F83B
:1034F000000010B103685B689847386810B1036832
:103500001B689847D8F8000010B103689B6898477B
:10351000E0680021FFF7DAFC4FF0000B234B03605B
:103520000546C0F804B080F808B0A06803685946A2
:103530005B6A9847064612F0DDFF606803685946EB
:103540005B6A98473146044612F0BAFFC9F800504A
:10355000C8F800403E60E4B1231DCAF8003033686B
:10356000C4F808A03046DB68F46398472368204617
:103570001B689847294630461FF0CFFC2B68284629
:103580001B6998472B6828465B6998472046BDE829
:10359000F88F2346E1E700BF38360308633C030891
:1035A000CA37030811380308B4380308D43F0308A6
:1035B00007B5D0F854310093D0F85021044B00F5F2
:1035C0009C710448FFF754FF03B05DF804FB00BF93
:1035D000A4170120A01701202DE9F84F0746906895
:1035E000DDF828A0994603681B6A88461446984768
:1035F00045F2D353984205D8414B424AA321424851
:103600002EF078FB606803681B6A98470F2803D880
:103610003E4B3C4AA421F2E7E06803681B6A9847E6
:103620000B2803D83A4B374AA521E8E71DF090FF55
:103630001DF094FFD9F8000010B10368DB689847CB
:10364000D9F8000010B103681B689847386810B1BA
:1036500003685B699847D8F8000010B103685B689D
:103660009847386810B103681B689847D8F800007D
:1036700010B103689B689847E0680021FFF726FCBB
:103680004FF0000B234B03600546C0F804B080F8F0
:1036900008B0A068036859465B6A9847064612F06E
:1036A0005BFF6068036859465B6A98473146044689
:1036B00012F038FFC9F80050C8F800403E60E4B18D
:1036C000231DCAF800303368C4F808A03046DB6810
:1036D000F4639847236820461B689847294630467C
:1036E0001FF01BFC2B6828461B6998472B6828464F
:1036F0005B6998472046BDE8F88F2346E1E700BFA5
:1037000038360308673D0308CA3703081138030831
:10371000B4380308D43F030807B5D0F854310093F8
:10372000D0F85021044B00F59C710448FFF754FF7A
:1037300003B05DF804FB00BFA4170120A01701200F
:103740002DE9F84F07469068DDF828A099460368F0
:103750001B6A88461446984744F2B753984205D8E6
:10376000414B424AA32142482EF0C4FA60680368E4
:103770001B6A98470F2803D83E4B3C4AA421F2E726
:10378000E06803681B6A98470B2803D83A4B374A0E
:10379000A521E8E71DF0DCFE1DF0E0FED9F80000F1
:1037A00010B10368DB689847D9F8000010B10368CE
:1037B0001B689847386810B103685B699847D8F868
:1037C000000010B103685B689847386810B103685F
:1037D0001B689847D8F8000010B103689B689847A9
:1037E000E0680021FFF772FB4FF0000B234B0360F2
:1037F0000546C0F804B080F808B0A06803685946D0
:103800005B6A9847064612F0D9FE6068036859461D
:103810005B6A98473146044612F0B6FEC9F800507C
:10382000C8F800403E60E4B1231DCAF80030336898
:10383000C4F808A03046DB68F46398472368204644
:103840001B689847294630461FF067FB2B682846BF
:103850001B6998472B6828465B6998472046BDE856
:10386000F88F2346E1E700BF383603086B3E0308B4
:10387000CA37030811380308B4380308D43F0308D3
:1038800007B5D0F854310093D0F85021044B00F51F
:103890009C710448FFF754FF03B05DF804FB00BFC0
:1038A000A4170120A0170120006A7047406A7047E2
:1038B00070478B8880690A68DB0A50F8230010443F
:1038C000704710B5C2B1137BB3B1547BD27A2402D6
:1038D00004F4E0641443C26998B202EB84021388D2
:1038E0008B4202D192F9020010BD05D8013880B296
:1038F00004320028F3D1F7E70020F5E710B52821BE
:1039000004462EF0C8F9204610BD000030B589B03D
:103910000446BDF850500695BDF84C5005959DF8ED
:10392000405004959DF83C5003959DF83850029501
:103930009DF8345001959DF8305000951EF040FEE2
:10394000064B2360119BA361129BE361159B2362CD
:10395000169B6362204609B030BD00BFF83F0308E4
:103960000020704781807047C18070470181704797
:10397000418170477047704770477047704710B477
:10398000C4880368121B84881B6D091B12B25DF882
:10399000044B09B218474FF6FF7383814FF0FF3392
:1039A00003621368C36110607047704770477047C7
:1039B0007047704790F825201AB190F8242002B182
:1039C000186070477047704710B543F2A461044611
:1039D0002EF061F9204610BD012908B505D11DF072
:1039E000B7FDBDE80840FFF711BA08BD074A0260FD
:1039F0000022C0E90122C0E90322C0E90522C0E992
:103A000007224FF480728284704700BFAC5E0308C7
:103A100070B503680446DB6A154698472368294653
:103A200020461B6BBDE87040184770B504461D4624
:103A3000BDF91060FFF7ECFF2368294620465B6B59
:103A400098472368314620469B6BBDE87040184775
:103A500010B52622044600212EF0D2FA2046FFF7A8
:103A6000C5FF044B2360FF2384F826300023A362A4
:103A7000204610BDAC5A030810B52622044600218A
:103A80002EF0BEFA2046FFF7B1FF074B2360074B2D
:103A9000A3624FF6FF73A3854FF47F020023C4E9AE
:103AA0000C322387204610BD045A03083036030821
:103AB00070B5FF22134E0272134A0260326892F808
:103AC00076100023C0E903330446436009B1D06C8B
:103AD00000B9906803685B6A98473368B0FA80F56C
:103AE000D86C6D0928B103685B6A9847002808BF45
:103AF00001252DB9054B064A06482C212EF0FAF86F
:103B0000204670BD44170120F855030848400308BB
:103B1000A6400308DF4003082DE9F04F2DED108B80
:103B2000044693B01FF07CF822460025B84BE563AD
:103B300042F8403B104609EE902AFFF789FF04F156
:103B40006C0318460993FFF783FF04F19803DFF82D
:103B5000E482B04FDFF8E09204F1C40B184608EE9F
:103B6000103AFFF743FFC4F898805846C4F8C05095
:103B7000FFF76EFF04F1F00318460AEE103AFFF764
:103B80007BFF04F59873C4F8F0701846C4F82C5104
:103B90000AEE903AFFF770FF04F5B673184604F585
:103BA000CC7608EE903AFFF721FFC4F86C81C4F898
:103BB00094513046FFF71AFF04F5E273C4F8988178
:103BC0001846C4F8C0510A93FFF742FF04F5F87392
:103BD00018460BEE103A1AF0BFFC04F50F731846A6
:103BE0000F93FFF765FF04F51573C4F83C92184670
:103BF000C4F850520BEE903A1AF0AEFC04F528735C
:103C000018460E93FFF754FF04F52E73C4F8A092E4
:103C10001846C4F8B4520CEE103A1AF09DFC04F5A4
:103C2000417318460D93FFF743FF04F54773C4F83B
:103C300004931846C4F818530CEE903AFFF71CFF93
:103C400004F5567318460DEE103AFFF715FF04F50C
:103C5000657318460DEE903AFFF70EFF04F5747386
:103C6000184609EE103AFFF7C1FE04F57F73C4F859
:103C7000D0831846C4F8F8530B93FFF7E9FE04F518
:103C8000856318460EEE103AFFF7F6FE04F2644321
:103C9000184604F2A4490EEE903AFFF7EDFEC4F880
:103CA0006474C4F8A0544846FFF7A0FE04F59A6374
:103CB000C4F8A4841846C4F8CC540C93FFF7C8FE8B
:103CC00004F2FC4318460FEE103AFFF7D5FE04F558
:103CD000A76318460FEE903AFFF7CEFE04F2745336
:103CE000184604F5B6680293FFF7C6FE4046FFF794
:103CF000C3FE04F2EC5318460393FFF7BDFE04F233
:103D00002C63C4F8EC751846C4F828560493FFF7E2
:103D1000B3FE04F26C63C4F82C761846C4F86856F7
:103D20000593FFF7A9FE04F2AC63C4F86C7618465D
:103D3000C4F8A8560693FFF79FFE04F5DD63184606
:103D40000793FFF799FE04F22473184608934FF483
:103D5000F077FFF791FE42F6E06104F2C4701BF0C9
:103D6000D9FE4FF07F4A19EE900A4FF448732A4665
:103D700029460097FFF759FE0998C4F868A04FF448
:103D800048732A4629460097FFF74FFE224BC4F896
:103D9000943018EE100A4FF4E1732A462946009732
:103DA000FFF743FE40F2B9131422584600930D2149
:103DB00040F2B513FFF739FE4FF0FF33594618EEC6
:103DC000100AC4F8EC3019F03DF940F26113009389
:103DD0001AEE100A4FF4D1731F221421FFF725FEAB
:103DE0000E4BC4F820A11B68A4F8245104F5EC6B19
:103DF0002BB90B4B0B4AAE210B482DF07BFF0B4B25
:103E00001B88012B1AD80A4B064AAF21F4E700BFE2
:103E100058420308105B0308231107FFB417012061
:103E20004141030883410308B1410308B817012049
:103E3000F84103086C4D0308D8550308EA4B0121EB
:103E4000186812F0BFF9E94A03460A21584620F0E3
:103E500081FB1AEE100AC4F82CB110A9DFF894B354
:103E6000CDF840B0ADF844501BF07FFC1AEE101AAC
:103E700018EE100A19F0E6F840F251121AEE900A04
:103E8000B021FFF7C5FD02231AEE900A10A9C4F86D
:103E900060A1A4F86451ADF84430CDF840B01BF0F7
:103EA00064FC1AEE901A18EE100A19F0CBF818EE0E
:103EB000900A00974FF4AF735D272A464FF4E171E3
:103EC000FFF7B3FD304600974FF49C736322132134
:103ED000FFF7ABFD4FF49C730A9800972A462946DA
:103EE000FFF7A3FD4FF0FF3230460A99C4F8EC21EA
:103EF00019F0A8F833223A231BEE100A00920F2182
:103F00002422FFF792FD4FF434524FF44877C4F85F
:103F10003022B74AC4F85022C4E988770F99C4F810
:103F200028721BEE100AC4F83452C4F82C521AF04E
:103F300095FE30461BEE101A19F084F833213A230F
:103F40001BEE900A009124227921FFF76EFDA84A0A
:103F5000C4F8B4224FF43451C4E9A1771BEE900A9F
:103F6000C4F88C72C4F89412C4F898520E99C4F82C
:103F700090521AF073FE30461BEE901A19F062F858
:103F800033213A231CEE100A00912422F621FFF778
:103F90004CFD974AC4F818234FF43451C4E9BA775A
:103FA0001CEE100AC4F8F072C4F8F812C4F8FC52FF
:103FB0000D99C4F8F4521AF051FE30461CEE101A56
:103FC00019F040F82A461CEE900A5F21FFF720FD09
:103FD00005231CEE900A10A9C4F84CA3A4F8505372
:103FE000ADF84430CDF840B01BF0BFFB30461CEEBE
:103FF000901A19F027F82A461DEE100A2946FFF7F5
:1040000007FD04231DEE100A10A9C4F888A3A4F824
:104010008C53ADF84430CDF840B01BF0A6FB3046D1
:104020001DEE101A19F00EF82A461DEE900AE8212E
:10403000FFF7EEFC06231DEE900A10A9C4F8C4A3F6
:10404000A4F8C853ADF84430CDF840B01BF08DFB58
:1040500030461DEE901A18F0F5FF314618EE900A22
:10406000412618F0EFFF19EE100A00964FF49C73EA
:1040700014221321FFF7D9FC4FF49C730B98009680
:104080002A462946FFF7D1FC4FF0FF320B99C4F8BE
:10409000242419EE100A18F0D5FF0B221EEE100A88
:1040A0002946FFF7B5FC07231EEE100A10A9C4F835
:1040B00058A4A4F85C54ADF84430CDF840B01BF0DF
:1040C00054FB1EEE101A19EE100A18F0BBFF242341
:1040D0000B221EEE900A00936721C923FFF7A5FC6F
:1040E00004F274730826C4F8A0341EEE900A10A9D6
:1040F000C4F894A4A4F89854A4F87457ADF8446094
:10410000CDF840B01BF031FB1EEE901A19EE100AEC
:1041100018F098FFF92719EE101A18EE900A18F007
:1041200091FF00974FF49C73D52213214846FFF767
:104130007CFC4FF49C730C9800972A462946FFF7A5
:1041400074FC4FF0FF320C99C4F8F824484618F07C
:1041500079FF2A461FEE100A8021FFF759FC03233E
:104160001FEE100A10A9C4F82CA5A4F83055ADF81C
:104170004430CDF840B01BF0F8FA1FEE101A484654
:1041800018F060FF3E2231461FEE900AFFF740FC18
:1041900009231FEE900A10A9C4F868A5A4F86C556D
:1041A000ADF84430CDF840B01BF0DFFA1FEE901AA6
:1041B000484618F047FF7C2231460298FFF728FC5A
:1041C0000A270298C4F8A4A510A9A4F8A855CDF808
:1041D00040B0ADF844701BF0C8FA0299484618F098
:1041E00031FFBB22314607E0C01701204A420308D5
:1041F000777777FF303603084046FFF709FC0B233B
:10420000404610A9C4F8E0A5A4F8E455ADF8443040
:10421000CDF840B02F261BF0A8FA4146484618F0CA
:1042200011FF2B233E2203980096CD21FFF7FDFBC3
:104230007B4AC4F81CA61368A4F8205604F5F1685C
:10424000002B3FF4D6AD77490B880D2B7FF6DBAD05
:10425000754B0D21186811F0B5FF744A03463946B5
:10426000404620F077F910A80C230146C4F82886B0
:104270000398ADF84430CDF840B01BF076FA0399BE
:10428000484618F0DFFE2B237C2204980096CD21AF
:10429000FFF7CBFB624AC4F85CA61368A4F860562B
:1042A00004F29C78002B3FF4A4AD5E490B880F2BE1
:1042B0007FF6A9AD5C4B0F21186811F083FF5B4AB4
:1042C00003463946404620F045F910A80E23014622
:1042D000C4F868860498ADF84430CDF840B01BF0BF
:1042E00044FA0499484618F0ADFE2B23BB220598EA
:1042F0000096CD21FFF799FB494AC4F89CA61368A4
:10430000A4F8A05604F5F668002B3FF472AD4549B9
:104310000B88112B7FF677AD434B1121186811F0F4
:1043200051FF424A03463946404620F013F9102314
:104330000598C4F8A88610A9ADF84430CDF840B06F
:104340001BF013FA0599484618F07CFE3E220698A9
:1043500000961C234FF48671FFF767FB1223069823
:10436000C4F8DCA610A9A4F8E056ADF84430CDF8A6
:1043700040B01BF0FAF90699484618F063FE7C221B
:10438000079800961C234FF48671FFF74EFB13230A
:104390000798C4F818A710A9A4F81C57ADF8443022
:1043A000CDF840B01BF0E1F90799484618F04AFEF5
:1043B000BB2208980096232340F20511FFF735FB36
:1043C00014230898C4F854A710A9A4F85857ADF8B6
:1043D0004430CDF840B01BF0C8F90899484618F0B1
:1043E00031FE18EE900A494618F02CFE201D19EEF9
:1043F000901A029018F026FE0999029818F022FEF1
:1044000018EE101A029818F01DFE029818EE901A75
:1044100018F018FE204613B0BDEC108BBDE8F08FED
:10442000B4170120B8170120C01701204A42030821
:104430007047704710B5982104462DF02CFC20469B
:1044400010BD012908B505D11DF082F8BDE808406E
:10445000FEF7ECBC08BD70B5036804465B6B1546FF
:1044600098472368294620469B6BBDE87040184753
:10447000F7B5044625461EF0D3FB00261A4BE6632B
:1044800045F8403B04F16C072846FFF7E1FA38464F
:10449000FFF7DEFA31462846FFF764FA3146284630
:1044A000FFF762FA28464FF4F0724FF44871FFF7B5
:1044B000D2FF4FF07F434FF4F072A3663846266771
:1044C0004FF44871FFF7C7FF084BC4F89430201D24
:1044D0002946019018F0B6FD0198394618F0B2FD52
:1044E000204603B0F0BD00BF8C420308231107FF34
:1044F0007047704710B544F6042104462DF0CBFBFD
:10450000204610BD012908B505D11DF021F8BDE8F0
:104510000840FEF79BBC08BD10B50446FFF766FADD
:10452000024B23600023A362204610BD6C4D03089C
:1045300010B50446FFF78CFA034B23600023E362B7
:104540002386204610BD00BFB85B030810B50446A3
:10455000FFF792FA024B23600023E363204610BD6D
:10456000105B030810B4046CB4EB411F4FEA411216
:1045700004D05DF8044B02641AF046BD5DF8044BAC
:10458000704700002DE9F04F2DED108B0446E5B08B
:104590001EF046FB22460025DD4BE56342F8403B1A
:1045A00010464492FFF754FA04F16C031846459301
:1045B000FFF74EFA04F1980318464693FFF7B8FF49
:1045C00004F1CC0318461A93FFF756FA04F58473E6
:1045D00018464793FFF7ACFF04F59E7318461B93EC
:1045E000FFF74AFA04F5BC7318461C93FFF744FA28
:1045F00004F5DA7318461D93FFF7A8FF04F5FA7364
:1046000018461E93FFF738FA04F50C7318461F93EB
:10461000FFF79CFF04F51C7318462093FFF72CFA54
:1046200004F52B73184608EE103AFFF775FF04F5F2
:10463000367318464893FFF77BFF04F5437318461B
:104640004993FFF775FF04F5507318464A93FFF737
:104650006FFF04F55D7318464B93FFF769FF04F590
:104660006A73184604F577784C93FFF761FF40466C
:10467000FFF752FF04F5816318464D93FFF7E8F901
:1046800004F2344318462193FFF7F6F904F58E63DC
:104690001846229319F060FF04F2BC4318469D4E61
:1046A0005993FFF705FA04F2D443C4F8BC641846E2
:1046B000C4F8D0541093FFF749FF04F2145318467E
:1046C0002393FFF7D9F904F5AA6318462493FFF75B
:1046D0003DFF04F5B263184604F2CC5A2593FFF768
:1046E000CBF95046FFF718FF04F5BF6318464E9309
:1046F000FFF7AEF904F224631846269319F02CFF55
:1047000004F5CE6318465893FFF7D2F904F5D16348
:10471000C4F870661846C4F884562793FFF7ACF9BE
:1047200004F2C46318461193FFF710FF04F20473F8
:1047300018462893FFF70AFF04F24473184629939A
:10474000FFF79AF904F5F06318462A93FFF794F9F6
:1047500004F2BC7318460AEE103AFFF7DDFE04F5CA
:10476000FD6318464F93FFF773F904F614031846D8
:104770002B93FFF781F904F5056318462C9319F084
:10478000EBFE04F69C0318465793FFF791F904F6E5
:10479000B403C4F89C681846C4F8B0581293FFF7E5
:1047A000D5FE04F6F40318462D93FFF7CFFE04F66A
:1047B000341318462E93FFF75FF904F51763184674
:1047C00004F6AC1B2F93FFF757F95846FFF7A4FEEA
:1047D00004F6D81318465093FFF73AF904F6042369
:1047E00018463093FFF748F904F5246318463193CF
:1047F00019F0B2FE04F68C2318465693FFF758F9C9
:1048000004F6A423C4F88C6A1846C4F8A05A32935C
:10481000FFF732F904F52E6318463393FFF72CF9AE
:1048200004F61C3318463493FFF790FE04F65C330D
:1048300018461393FFF78AFE04F69C3318460AEED7
:10484000903AFFF769FE04F6C83318465193FFF714
:10485000FFF804F6F43318463593FFF70DF904F525
:1048600043631846369319F077FE04F67C431846E6
:104870005593FFF71DF904F69443C4F87C6C184671
:10488000C4F8905C3793FFF7F7F804F54D631846CA
:104890003893FFF7F1F804F60C5318463993FFF7F5
:1048A00055FE04F64C5318461493FFF74FFE04F6DA
:1048B0008C5318460BEE103AFFF72EFE04F6B85351
:1048C00018465293FFF7C4F804F6E45318463A9397
:1048D000FFF7D2F804F5626318463B9319F03CFEEB
:1048E00004F66C6318465493FFF7E2F804F6846309
:1048F000C4F86C6E1846C4F8805E3C93FFF726FE41
:1049000004F6C46318463D93FFF7B6F804E000BF11
:10491000C0420308D855030804F5706318463E9357
:10492000FFF7AAF804F63C7318461593FFF70EFE3E
:1049300004F67C7318460BEE903AFFF7EDFD04F693
:10494000A87318465393FFF783F804F6D4731846F8
:104950003F93FFF791F804F58053103341F25C0761
:104960001846049319F0F8FDE31918466193FFF710
:104970009FF841F27003E651E55004F58353143378
:1049800018460DEE903AFFF7E1FD04F58553143318
:1049900018460EEE903AFFF76FF804F58753103380
:1049A00018460FEE103AFFF767F804F589530C33F9
:1049B00018460FEE903AFFF7C9FD04F58B530C3300
:1049C000184608EE903AFFF7A7FD04F58C5318330C
:1049D00018461693FFF73CF804F58E530433184637
:1049E0000593FFF749F804F5905341F24C27184618
:1049F000409319F0B1FDE31918466093FFF758F89A
:104A000004F59353E651043343F8045C18460693C7
:104A1000FFF79CFD04F59553043318460793FFF701
:104A20002BF804F5975318464193FFF725F804F542
:104A300098531C3318460293FFF788FD04F59A53E8
:104A40001C33184609EE103AFFF766FD04F59C5337
:104A5000083318461793FEF7FBFF04F59D531433F4
:104A600018460893FFF708F804F59F53103341F2F6
:104A70003C471846099319F06FFDE31918465F93F8
:104A8000FFF716F841F25043E651E55004F5A25302
:104A9000143318460A93FEF7EFFF04F5A4531033BE
:104AA00018460393FFF752FD04F5A653103318463A
:104AB0000B93FEF7E1FF04F5A8530C3318460C9353
:104AC000FFF744FD04F5AA530C33184609EE903A5B
:104AD000FFF722FD04F5AB53183318461893FEF781
:104AE000B7FF04F5AD53043318460D93FEF7C4FF2A
:104AF00004F5AF5341F22C671846429319F02CFD90
:104B0000E31918465E93FEF7D3FF04F5B253E6515E
:104B1000043343F8045C18460E93FFF717FD04F5C1
:104B2000B453043318460F93FEF7A6FF04F5B653AB
:104B300018461993FFF70AFD04F5B8531846439336
:104B4000FEF79AFF04F5B9531C3341F2B0771846CB
:104B50000CEE103A1AF038FAE31918465D93FEF796
:104B6000A7FF41F2C473E651E55004F5BE53083384
:104B700041F63C0718460CEE903A1AF025FAE31974
:104B800018465C93FEF794FF41F65003E651E5505A
:104B900004F5C253143341F6C80718460DEE103A17
:104BA0001AF012FAE31918465B93FEF781FF41F6FB
:104BB000DC03E651E55004F5C75341F65417184697
:104BC0000EEE103A1AF000FAE31918465A93FEF75F
:104BD0006FFF41F6681304F5D950E65142F6E061E3
:104BE000E55004301AF096FF4FF4F07344980093A8
:104BF0002A464FF448732946FEF717FF4FF07F43CC
:104C0000A3664FF4F073459800932A464FF4487317
:104C10002946FEF70AFFA7F579076FF403631F44DF
:104C20005423469800932A46EF232946C4F89470EB
:104C3000FEF7FBFE4FF005094FF0FF3313221A98E1
:104C4000C4F8C430A4F8C8902E21C4F8C070FEF790
:104C5000DFFE4FF0FF33344E1A98C4F8FC3062A9DF
:104C60001523A4F80051ADF88C3162961AF07DFD41
:104C7000602347980093422240F2052340F21B1123
:104C8000FEF7D3FE4FF0FF335B221B98C4F834319C
:104C9000A4F838914FF49571DFF8AC90C4F83071F6
:104CA000FEF7B6FE16231B98C4F86C9162A9A4F80F
:104CB0007051ADF88C3162961AF057FD5B221C984A
:104CC00040F21D21FEF7A4FE17231C98C4F8A891FA
:104CD00062A9A4F8AC51ADF88C3162961AF045FD8A
:104CE0002F2300931D9823235B224FF4E671FEF7D8
:104CF0009CFE0E4BC4F8E4310D4BA4F8E8511B6840
:104D000004F5CB5909F10C092BB90A4B0A4AAE211B
:104D10000A482CF0EFFF0A4B1B88192B16D8094BB9
:104D2000054AAF21F4E700BF30360308FAFAFCFF6A
:104D3000B41701204141030883410308B14103082E
:104D4000B8170120F8410308F2F2FAFFD24B1921FB
:104D5000186811F037FAD14A03460A2148461FF075
:104D6000F9FB4FF018011D98C4F8F091ADF88C11C3
:104D700062A962961AF0F9FC5B221E9840F2EF11CC
:104D8000FEF746FE4FF0FF311A231E98C4F8241296
:104D9000A4F8285262A9ADF88C3162961AF0E5FCAD
:104DA0002F210091242340F2B9211F985B22FEF7A6
:104DB0003CFE4FF0FF31C4F86012B949A4F86452C8
:104DC0000B6804F5CC59002B9FD0B64B1B881C2BCD
:104DD000A5D9B14A1C21106811F0F4F9AF4A034675
:104DE0000A2148461FF0B6FB62A81B230146C4F8FF
:104DF0006C921F98ADF88C3162961AF0B6FC5B226B
:104E0000209840F2DD21FEF703FE4FF0FF30C4F89A
:104E1000A00262A84FF497791D230146A4F8A4527A
:104E20002098ADF88C3162961AF09FFC18EE100AAB
:104E3000CDF800904FF44873B2222946FEF7F5FDF5
:104E4000A0232A464898CDF800902946FEF7EDFDAC
:104E50004FF00500C4E9C0774899A4F8080318EE9C
:104E6000100A18F0EFF8A02319462A464998CDF801
:104E70000090FEF7DAFD4FF00500C4E9CD774999BF
:104E8000A4F83C0318EE100A18F0DCF8A0232A4618
:104E90004A98CDF800904FF4A071FEF7C6FD4FF090
:104EA0000500C4E9DA774A99A4F8700318EE100AED
:104EB00018F0C8F8A0232A464B98CDF800904FF47C
:104EC000F071FEF7B2FD4FF00500C4E9E7774B99AA
:104ED000A4F8A40318EE100A18F0B4F8A0232A4688
:104EE0004C98CDF800904FF42071FEF79EFD4FF0E6
:104EF0000500C4E9F4774C99A4F8D80318EE100A19
:104F000018F0A0F897200090A0232A462946404692
:104F1000FEF78BFD6C2096232B22009005214D98E7
:104F2000FEF783FD4FF0FF304D99C4F83004404642
:104F300018F088F80E2221981821FEF769FD4FF02D
:104F4000FF30C4F8640462A81E230146A4F8685424
:104F50002198ADF88C314FF0500962961AF005FC9B
:104F60002199404618F06EF84B466FF00F022298D8
:104F7000CDF800904F21FEF758FD4FF4F070C4F8C3
:104F8000A8044FF434504FF4A067C4F8B0044FF0B5
:104F9000FF305999C4F8D004C4F8A0742298C4F81A
:104FA000A474C4F8B454C4F8AC5419F057FE229950
:104FB000404618F047F8109821212C22FEF728FDD2
:104FC0003749A4F808554FF07F40C4F804050B6832
:104FD00004F5CC5014302190002B3FF496AE314BA9
:104FE0001B88292B7FF69BAE2B4A2921106811F0D4
:104FF000E9F82A4A03460A2121981FF0ABFA2198C2
:10500000C4F8100510981AF093FB62A828230146F3
:105010001098ADF88C3162961AF0A7FB10994046B3
:1050200018F010F8612223985C21FEF7F1FC4FF094
:105030007F40C4F8440562A82D230146A4F84855D2
:105040002398ADF88C3162961AF08FFB2399404675
:1050500017F0F8FF2F2000902C232498262161229E
:10506000FEF7E3FC0E49A4F884554FF07F40C4F8E6
:1050700080050B6804F5CD5008301090002B3FF4EC
:1050800044AE084B1B882B2B7FF649AE024A2B21DE
:10509000106811F097F807E0C01701204A42030892
:1050A000B4170120B8170120D24A03460A211098EC
:1050B0001FF050FA1098C4F88C0562A82A23014604
:1050C0002498ADF88C3162961AF04FFB2499404633
:1050D00017F0B8FF2C2225986021FEF799FC4FF0BD
:1050E0007F40C4F8C00562A833230146A4F8C45524
:1050F0002598ADF88C3162961AF037FB2599404619
:1051000017F0A0FF18EE100A414617F09BFF9720FA
:10511000024629460090A0235046FEF786FC6C20EC
:1051200096232422009005214E98FEF77EFC4FF036
:10513000FF304E99C4F82006504617F083FF4B46C7
:105140006FF014022698CDF800904F21FEF76DFC09
:105150004FF4F070C4F85C064FF43450C4F86406A1
:105160004FF0FF305899C4F86856C4F86056C4F838
:105170008406C4F854762698C4F8587619F06EFD63
:105180002699504617F05EFF29230722279800939F
:1051900006216523FEF749FC4FF0FF30C4F8B8063E
:1051A00062A81F230146A4F8BC562798ADF88C319D
:1051B00062961AF0DAFA2799504617F043FF1198D1
:1051C00021212422FEF724FC8B49A4F8F8560B6811
:1051D0004FF07F4004F5CD55C4F8F4061C35002B84
:1051E0003FF493AD854B1B882F2B7FF698AD844AF7
:1051F000844E1068DFF800922F2110F0E3FF7D4A03
:1052000003460A2128461FF0A5F91198C4F8005753
:105210001AF08EFA4FF02E011198ADF88C1162A998
:1052200062961AF0A2FA1199504617F00BFF2F213F
:1052300000912C2328985A222621FEF7F6FBD9F854
:1052400000304FF07F47002504F5CE58C4F834777E
:10525000A4F8385708F11008002B3FF456AD674BFF
:105260001B88312B7FF65BAD654A3121106810F049
:10527000A9FF604A03460A2140461FF06BF930231C
:105280002898C4F8408762A9ADF88C3162961AF06C
:105290006CFA5046289917F0D5FE5A2229985C21BD
:1052A000FEF7B6FB32232998C4F8747762A9A4F8F4
:1052B0007857ADF88C3162961AF057FA5046299912
:1052C00017F0C0FE24222A986021FEF7A1FB4FF0C0
:1052D0002C012A98ADF88C11C4F8B07762A9A4F813
:1052E000B45762961AF041FA50462A9917F0AAFE6E
:1052F000514618EE100A17F0A5FE9721A0230A4682
:105300001AEE100A00911946FEF78FFB6C219623C6
:1053100024224FF0FF384F9800910521FEF785FBBE
:105320004F99C4F810881AEE100A17F08BFE292145
:1053300007222B98009165230621FEF776FB202398
:105340002B98C4F8448862A9A4F84858ADF88C3169
:1053500062961AF00AFA2B991AEE100A17F072FEEA
:1053600050210B466FF014022C9800914F21FEF74C
:105370005CFB4FF4A061C4F88018C4F884184FF4A3
:10538000F071C4F888184FF434512C98C4F8901870
:10539000C4F894585799C4F88C58C4F8B08819F0D8
:1053A0005DFC2C991AEE100A17F04CFE129824227C
:1053B0002921FEF72DFBD9F80030C4F8E47804F574
:1053C000CF5AA4F8E8580AF1040A002B3FF49DAC28
:1053D0000A4B1B883D2B7FF6A2AC094A3D21106881
:1053E00010F0F0FE034A03460A2150461FF0B2F8BF
:1053F000129809E04A420308B4170120B8170120A7
:10540000C017012030360308C4F8F0A81AF090F94C
:105410003C231298ADF88C3162A962961AF0A5F976
:1054200012991AEE100A17F00DFE2F2100912C236D
:105430002D985A222E21FEF7F8FAD9F80030C4F838
:10544000247904F5CF5AA4F828590AF1180A002B38
:105450003FF45BACD34B1B883B2B7FF660ACD24A4E
:105460003B21106810F0AEFED04A03460A21504698
:105470001FF070F83A232D98C4F830A962A9ADF84E
:105480008C3162961AF071F92D991AEE100A17F004
:10549000D9FD5A222E986021FEF7BAFA3F232E98A2
:1054A000C4F8647962A9A4F86859ADF88C316296A1
:1054B0001AF05BF92E991AEE100A17F0C3FD242298
:1054C0002F986921FEF7A4FA3E232F98C4F8A079FB
:1054D00062A9A4F8A459ADF88C3162961AF045F986
:1054E0002F991AEE100A17F0ADFD1AEE101A18EEE9
:1054F000100A17F0A7FD97210091A02307229F21F2
:105500005846FEF792FA6C21962324225098009177
:105510000621FEF78AFA5099C4F8008A584617F017
:1055200091FD292107223098009165230621FEF77D
:105530007CFA21233098C4F8348A62A9A4F8385A36
:10554000ADF88C3162961AF010F93099584617F080
:1055500079FD50210B466FF0160231980091FEF74D
:1055600064FA4FF4A061C4F8701AC4F8741A4FF4C6
:10557000F071C4F8781A4FF434513198C4F8801A95
:10558000C4F8A08A5699C4F8845AC4F87C5A19F011
:1055900065FB3199584617F055FD5A223298612122
:1055A000FEF736FA39233298C4F8D47A62A9A4F8FF
:1055B000D85AADF88C3162961AF0D7F8329958461D
:1055C00017F040FD252233986A21FEF721FA38238F
:1055D0003398C4F8107B62A9A4F8145BADF88C3141
:1055E00062961AF0C2F83399584617F02BFD2F2116
:1055F00000912C2334985A222A21FEF716FAD9F862
:105600000030C4F84C7B04F5D058A4F8505B08F186
:105610000C08002B3FF479AB624B1B88372B7FF6CD
:105620007EAB614A3721106810F0CCFD5F4A03461B
:105630000A2140461EF08EFF36233498C4F8588B5A
:1056400062A9ADF88C3162961AF08FF834995846F9
:1056500017F0F8FC139825222A21FEF7D9F9D9F87A
:105660000030A4F8905BC4F88C7B04F5D155002B76
:105670003FF44BAB4B4B1B88352B7FF650AB4A4A64
:10568000DFF82CA11068352110F09CFD474A034635
:105690000A2128461EF05EFF1398C4F8985B1AF0A2
:1056A00047F834231398ADF88C3162A962961AF04A
:1056B0005CF85846139917F0C5FC594618EE100AC5
:1056C00017F0C0FC97211AEE900A0091A023072240
:1056D0004FF4A071FEF7A9F96C21962324224FF014
:1056E000FF38519800910521FEF79FF95199C4F8B0
:1056F000F08B1AEE900A17F0A5FC2921002507224D
:105700003598009165230621FEF78FF922233598FD
:10571000C4F8248C62A9A4F8285CADF88C314FF051
:10572000500962961AF021F835991AEE900A17F08E
:1057300089FC4B466FF016023698CDF80090512147
:10574000FEF773F94FF4A061C4F8601CC4F8641C40
:105750004FF4F071C4F8681C4FF434513698C4F813
:10576000701CC4F8745C5599C4F86C5CC4F8908CD7
:1057700019F074FA36991AEE900A17F063FC5A225F
:1057800011463798FEF744F945233798C4F8C47C8E
:1057900062A9A4F8C85CADF88C31629619F0E5FFF7
:1057A00008E000BFB8170120C01701204A420308D3
:1057B000B417012037991AEE900A17F043FC2422FF
:1057C00038986A21FEF724F944233898C4F8007DFC
:1057D00062A9A4F8045DADF88C31629619F0C5FF9A
:1057E00038991AEE900A17F02DFC2C232F210091E6
:1057F000399819465A22FEF718F9DAF80030C4F839
:105800003C7D04F5D15BA4F8405D0BF1140B002B3B
:105810003FF47BAAD24B1B88432B7FF680AAD14A48
:105820004321106810F0CEFCCF4A03460A215846A7
:105830001EF090FE42233998C4F848BD62A9ADF825
:105840008C31629619F091FF39991AEE900A17F08F
:10585000F9FB149824222721FEF7DAF8DAF8003051
:10586000C4F87C7D04F5D25BA4F8805D0BF1080BD5
:10587000002B3FF44AAABA4B1B88412B7FF64FAA54
:10588000B84A4121106810F09DFCB74A03460A212E
:1058900058461EF05FFE1498C4F888BD19F048FF02
:1058A00040231498ADF88C3162A9629619F05DFF1F
:1058B00014991AEE900A17F0C5FB1AEE901A18EE1A
:1058C000100A17F0BFFB97210A461BEE100A009141
:1058D000A02340F24111FEF7A8F86C219623242260
:1058E000529800910421FEF7A0F85299C4F8E08D77
:1058F0001BEE100A17F0A6FB292107223A98009107
:1059000065230621FEF791F823233A98C4F8148EF4
:1059100062A9A4F8185EADF88C31629619F025FFE3
:105920003A991BEE100A17F08DFB4B466FF01402EC
:105930003B98CDF800905121FEF777F84FF4A06125
:10594000C4F8501EC4F8541E4FF4F071C4F8581E29
:105950004FF434513B98C4F8601EC4F8645E549907
:10596000C4F85C5EC4F8808E19F078F93B991BEEA0
:10597000100A17F067FB2F2100912C233C985A2224
:105980002B21FEF752F8DAF80030C4F8B47E04F5A3
:10599000D25BA4F8B85E0BF11C0B002B3FF4B5A949
:1059A0006F4B1B884B2B7FF6BAA96E4A4B211068B0
:1059B00010F008FC6C4A03460A2158461EF0CAFD46
:1059C0004A233C98C4F8C0BE62A9ADF88C316296F7
:1059D00019F0CBFE3C991BEE100A17F033FB242282
:1059E0003D986921FEF714F849233D98C4F8F47EE8
:1059F00062A9A4F8F85EADF88C31629619F0B5FE94
:105A00003D991BEE100A17F01DFB5A223E985B21B0
:105A1000FDF7FEFF48233E98C4F8307F62A9A4F842
:105A2000345FADF88C31629619F09FFE3E991BEE03
:105A3000100A17F007FB159824222621FDF7E8FF2E
:105A4000DAF80030C4F86C7F04F5D35BA4F8705F1B
:105A50000BF1100B002B3FF458A9414B1B88472B2F
:105A60007FF65DA93F4A4721106810F0ABFB3E4A24
:105A700003460A2158461EF06DFD1598C4F878BFFC
:105A800019F056FE46231598ADF88C3162A962963E
:105A900019F06BFE15991BEE100A17F0D3FA1BEEE6
:105AA000101A18EE100A17F0CDFA97211BEE900A83
:105AB0000091A023072240F2E111FDF7B6FF6C210F
:105AC00096232422539800910421FDF7AEFF5399A9
:105AD000C4F8D08F1BEE900A17F0B4FA29210722E0
