:020000040800F2
:1000000000000520450C0008CD2A0008CF2A000872
:10001000D12A0008D32A0008D52A000800000000D1
:10002000000000000000000000000000D1D901081D
:10003000D72A00080000000061DA0108C9D20108CF
:10004000950C0008950C0008950C0008950C00080C
:10005000950C0008950C0008950C0008950C0008FC
:10006000950C0008950C0008950C0008950C0008EC
:10007000950C0008950C0008950C0008950C0008DC
:10008000950C0008950C0008950C0008950C0008CC
:10009000950C0008950C0008950C0008950C0008BC
:1000A000950C0008950C0008950C0008950C0008AC
:1000B000950C0008D92A0008950C0008950C00083A
:1000C000950C0008950C0008950C0008950C00088C
:1000D000950C0008950C0008950C0008950C00087C
:1000E000950C0008950C0008950C0008950C00086C
:1000F000950C0008950C0008950C0008950C00085C
:10010000950C0008950C0008950C0008950C00084B
:10011000950C0008950C0008E52A0008950C0008CD
:10012000950C0008950C0008950C0008950C00082B
:10013000950C0008950C0008950C0008950C00081B
:10014000F12A0008FD2A0008950C0008950C00080B
:10015000950C0008950C0008950C0008950C0008FB
:10016000950C0008950C0008950C0008950C0008EB
:10017000950C0008950C0008950C00080000000084
:10018000950C0008950C0008950C0008950C0008CB
:10019000950C0008950C0008950C0008950C0008BB
:1001A000012B0008950C00080D2B0008950C000889
:0401B000192B0008FF
:1001C00010B5054C237833B9044B13B10448AFF391
:1001D00000800123237010BD640100200000000096
:1001E0001C5A030808B5034B1BB103490348AFF37E
:1001F000008008BD00000000680100201C5A0308B0
:1002000001F0FF01102A2BDB10F0070F08D010F8C7
:10021000013B013A8B422DD010F0070F42B3F6D1CB
:10022000F0B441EA012141EA014122F007047FF0E4
:1002300000070023F0E80256083C85EA010586EA3B
:10024000010685FA47F5A3FA87F586FA47F6A5FA77
:1002500087F68EB9EED1F0BC01F0FF0102F0070283
:1002600032B110F8013B013A83EA010313B1F8D12E
:100270000020704701387047002D06BF354603380F
:10028000073815F0010F07D1013015F4807F02BF48
:10029000013015F4C03F0130F0BC0138704700BF99
:1002A00070B54FF0FF0C4CF4E06C1CEA11541DBF0C
:1002B0001CEA135594EA0C0F95EA0C0F00F0DEF8D7
:1002C0002C4481EA030621EA4C5123EA4C5350EABC
:1002D000013518BF52EA033541F4801143F480130D
:1002E00038D0A0FB02CE4FF00005E1FB02E506F09E
:1002F0000042E0FB03E54FF00006E1FB03569CF0F3
:10030000000F18BF4EF0010EA4F1FF04B6F5007FF8
:1003100064F5407404D25FEA4E0E6D4146EB06066A
:1003200042EAC62141EA55514FEAC52040EA5E50F3
:100330004FEACE2EB4F1FD0C88BFBCF5E06F1ED89D
:10034000BEF1004F08BF5FEA500E50F1000041EBD4
:10035000045170BD06F0004646EA010140EA020081
:1003600081EA0301B4EB5C04C2BFD4EB0C0541EAA3
:10037000045170BD41F480114FF0000E013C00F3B8
:10038000AB8014F1360FDEBF002001F0004170BDDC
:10039000C4F10004203C35DA0C341BDC04F11404F5
:1003A000C4F1200500FA05F320FA04F001FA05F281
:1003B00040EA020001F0004221F0004110EBD3704E
:1003C00021FA04F642EB06015EEA430E08BF20EA7A
:1003D000D37070BDC4F10C04C4F1200500FA04F31D
:1003E00020FA05F001FA04F240EA020001F00041AF
:1003F00010EBD37041F100015EEA430E08BF20EA22
:10040000D37070BDC4F1200500FA05F24EEA020E69
:1004100020FA04F301FA05F243EA020321FA04F098
:1004200001F0004121FA04F220EA020000EBD3704F
:100430005EEA430E08BF20EAD37070BD94F0000F4F
:100440000FD101F00046400041EB010111F4801F83
:1004500008BF013CF7D041EA060195F0000F18BF34
:10046000704703F00046520043EB030313F4801F70
:1004700008BF013DF7D043EA0603704794EA0C0F2A
:100480000CEA135518BF95EA0C0F0CD050EA410640
:1004900018BF52EA4306D1D181EA030101F00041BD
:1004A0004FF0000070BD50EA410606BF10461946E5
:1004B00052EA430619D094EA0C0F02D150EA0136F1
:1004C00013D195EA0C0F05D152EA03361CBF104632
:1004D00019460AD181EA030101F0004141F0FE41D1
:1004E00041F470014FF0000070BD41F0FE4141F455
:1004F000780170BD81F0004102E000BF83F000434D
:1005000030B54FEA41044FEA430594EA050F08BFAE
:1005100090EA020F1FBF54EA000C55EA020C7FEA72
:10052000645C7FEA655C00F0E2804FEA5454D4EBEF
:100530005555B8BF6D420CDD2C4480EA020281EAB9
:10054000030382EA000083EA010180EA020281EAF1
:100550000303362D88BF30BD11F0004F4FEA013143
:100560004FF4801C4CEA113102D0404261EB410152
:1005700013F0004F4FEA03334CEA133302D05242D8
:1005800063EB430394EA050F00F0A780A4F1010494
:10059000D5F1200E0DDB02FA0EFC22FA05F28018CE
:1005A00041F1000103FA0EF2801843FA05F35941B4
:1005B0000EE0A5F120050EF1200E012A03FA0EFC33
:1005C00028BF4CF0020C43FA05F3C01851EBE3715D
:1005D00001F0004507D54FF0000EDCF1000C7EEB7A
:1005E00000006EEB0101B1F5801F1BD3B1F5001FB8
:1005F0000CD349085FEA30004FEA3C0C04F10104D7
:100600004FEA445212F5800F80F09A80BCF1004FFF
:1006100008BF5FEA500C50F1000041EB045141EA81
:10062000050130BD5FEA4C0C404141EB0101013C4A
:1006300028BFB1F5801FE9D291F0000F04BF014639
:100640000020B1FA81F308BF2033A3F10B03B3F10B
:1006500020020CDA0C3208DD02F1140CC2F10C029B
:1006600001FA0CF021FA02F10CE002F11402D8BFF9
:10067000C2F1200C01FA02F120FA0CFCDCBF41EAC5
:100680000C019040E41AA2BF01EB0451294330BD94
:100690006FEA04041F3C1CDA0C340EDC04F1140471
:1006A000C4F1200220FA04F001FA02F340EA030048
:1006B00021FA04F345EA030130BDC4F10C04C4F18E
:1006C000200220FA02F001FA04F340EA030029466E
:1006D00030BD21FA04F0294630BD94F0000F83F4B8
:1006E000801306BF81F480110134013D4EE77FEA9B
:1006F000645C18BF7FEA655C29D094EA050F08BFE7
:1007000090EA020F05D054EA000C04BF19461046C7
:1007100030BD91EA030F1EBF0021002030BD5FEA0B
:10072000545C05D14000494128BF41F0004130BD33
:1007300014F580043CBF01F5801130BD01F0004587
:1007400045F0FE4141F470014FF0000030BD7FEAFA
:10075000645C1ABF194610467FEA655C1CBF0B46F5
:10076000024650EA013406BF52EA033591EA030F0C
:1007700041F4002130BD00BF90F0000F04BF002104
:10078000704730B54FF4806404F132044FF0000537
:100790004FF0000150E700BF90F0000F04BF0021B0
:1007A000704730B54FF4806404F1320410F0004516
:1007B00048BF40424FF000013EE700BF42004FEA11
:1007C000E2014FEA31014FEA02701FBF12F07F438E
:1007D00093F07F4F81F06051704732F07F4208BF45
:1007E000704793F07F4F04BF41F40021704730B54C
:1007F0004FF4607401F0004521F000411CE700BF98
:1008000050EA010208BF704730B54FF000050AE01A
:1008100050EA010208BF704730B511F0004502D51B
:10082000404261EB41014FF4806404F132045FEA1D
:10083000915C3FF4D8AE4FF003025FEADC0C18BFC6
:1008400003325FEADC0C18BF033202EBDC02C2F1B8
:10085000200300FA03FC20FA02F001FA03FE40EA4A
:100860000E0021FA02F11444BDE600BF4A0011D285
:1008700012F5001211D20DD56FF47873B3EB6252FA
:100880000ED44FEAC12343F0004343EA505323FA06
:1008900002F070474FF00000704750EA013002D17B
:1008A0004FF0FF3070474FF0000070474FEA4102B1
:1008B000B2F1E04324BFB3F5001CDCF1FE5C0DD9BE
:1008C00001F0004C4FEAC0024CEA5070B2F1004F08
:1008D00040EB830008BF20F00100704711F0804F0B
:1008E00021D113F13872BCBF01F00040704741F4D0
:1008F00080114FEA5252C2F11802C2F1200C10FAD4
:100900000CF320FA02F018BF40F001004FEAC123B7
:100910004FEAD32303FA0CFC40EA0C0023FA02F35B
:100920004FEA4303CCE77FEA625307D150EA013331
:100930001EBF4FF0FE4040F44000704701F0004001
:1009400040F0FE4040F40000704700BF53B94AB980
:10095000002908BF00281CBF4FF0FF314FF0FF30C7
:1009600000F06EB9ADF1080C6DE904CE00F006F8A8
:10097000DDF804E0DDE9022304B070472DE9F0471B
:10098000089D04468C46002B40F083808A4217461F
:1009900047D9B2FA82F242B1C2F1200024FA00F043
:1009A0009140974040EA010C94404FEA1748230CCD
:1009B000BCFBF8F61FFA87FE08FB16C143EA0143A9
:1009C00006FB0EF1994209D9FB1806F1FF3080F0C1
:1009D0001981994240F21681023E3B445B1AA4B24F
:1009E000B3FBF8F008FB103344EA034400FB0EFEAF
:1009F000A64509D93C1900F1FF3380F00581A645D1
:100A000040F2028102383C4440EA0640A4EB0E0466
:100A100000261DB1D4400023C5E900433146BDE89E
:100A2000F08702B9FFDEB2FA82F2002A50D1CB1B66
:100A30004FEA174E1FFA87F80126B3FBFEFC210C84
:100A40000EFB1C3341EA034108FB0CF38B4207D930
:100A500079180CF1FF3002D28B4200F2E980844613
:100A6000C91AA3B2B1FBFEF00EFB101143EA014418
:100A700008FB00F8A04507D93C1900F1FF3302D26A
:100A8000A04500F2D9801846A4EB080440EA0C40C7
:100A9000BFE78B4209D9002D00F0B1800026C5E9DF
:100AA000000130463146BDE8F087B3FA83F6002EE8
:100AB0004AD18B4202D3824200F2B880841A61EBA1
:100AC000030101208C46002DA8D0C5E9004CA5E704
:100AD000C2F1200320FA03F6974001FA02F04FEA30
:100AE000174ED9403043030CB1FBFEF61FFA87F8CE
:100AF0000EFB161143EA014306FB08F1994204FA82
:100B000002F409D9FB1806F1FF3C80F08D80994270
:100B100040F28A80023E3B445B1A81B2B3FBFEF096
:100B20000EFB103341EA034100FB08F38B4207D967
:100B3000791800F1FF3C73D28B4271D902383944E5
:100B4000CB1A40EA064678E7C6F1200C03FA06F411
:100B500022FA0CF31C4320FA0CF701FA06F34FEAD1
:100B6000144E21FA0CF11F433B0CB1FBFEF91FFAA6
:100B700084F80EFB191143EA014109FB08FA8A4582
:100B800002FA06F200FA06F308D9611809F1FF30FB
:100B900048D28A4546D9A9F102092144A1EB0A01AC
:100BA000BFB2B1FBFEF00EFB101147EA014700FB9C
:100BB00008F8B84507D9E71900F1FF312ED2B8453A
:100BC0002CD90238274440EA0940A7EB0807A0FBCC
:100BD00002894F45C64649461AD317D05DB1B3EBDB
:100BE0000E0267EB010707FA0CFCF2404CEA020226
:100BF000F740C5E9002700263146BDE8F0872E46BC
:100C000028460BE70646E9E61846FDE64345E5D2E9
:100C1000B8EB020E69EB04010138DFE70846D2E7C2
:100C200060468DE78146B9E7664675E730464AE794
:100C3000ACF1020C394413E702383C4424E700BF0E
:100C4000704700BFDFF834D0002103E00C4B5B5845
:100C5000435004310B480C4B42189A42F6D30B4ACE
:100C600002E0002342F8043B094B9A42F9D318F002
:100C70007FFF33F02FFF01F069F970470000052076
:100C8000E4A50308000000206401002064010020A6
:100C900064220120FEE700F0EFBD00F05DBE002100
:100CA000084618F0CDBA002018F004BB4068704721
:100CB00041607047054A136843F080731360044A2B
:100CC000136843F001031360704700BFFCED00E0C0
:100CD000001000E0511A01EB5301B1FBF3F0704733
:100CE000014B1868704700BF041000E0704710B552
:100CF0000C21044633F07FFD204610BD036810B57B
:100D00001B69044631B19847A26863689B1A18446E
:100D1000606010BD9847A060FBE770477047000017
:100D200008B5FFF7BCFF024B00221A6008BD00BFE8
:100D30008001002070B50D46FFF7B5FF0B4A937890
:100D400056781178D370C4B213F0010096705170C8
:100D500014700AD016F0010007D011F0010004D081
:100D6000E3075ABF01202870002070BD80010020D9
:100D700010B50421044633F03EFD204610BD7047F7
:100D800010B50421044633F036FD204610BD0000A6
:100D900008B54FF4F0714FF4487018F035FE074B6A
:100DA00010B901221A7008BD1B78002BFBD1044B2F
:100DB000044A0548242133F04DFD00BF8401002082
:100DC000C05A0308D35A0308FD5A03087FB50B4BDA
:100DD0001C780E4615465CB101A818F053FE9DF82C
:100DE000043043B1BDF806303360BDF80A302B60E3
:100DF000204604B070BD1C46FAE700BF8401002005
:100E000010B1012809D07047084B09481A68B2FA96
:100E100082F2520940211AF091B9044B05485A68F0
:100E2000B2FA82F252091021F5E700BF88010020D2
:100E300000180240000C024010B1012809D0704790
:100E4000084B09481A68003A18BF012240211AF0DD
:100E500075B9044B05485A68003A18BF01221021A1
:100E6000F5E700BF8801002000180240000C024096
:100E700010B1012804D07047034840211AF063B92B
:100E800002481021FAE700BF00180240000C02409F
:100E900008B530B1012809D00020431E58425841FE
:100EA00008BD044840211AF043F9F6E70248102132
:100EB000F9E700BF00180240000C024070B5084D71
:100EC00000240126E0B2FFF7E3FF18B12B68012BE5
:100ED00018BF2E600134052C05F10405F2D170BD58
:100EE00088010020012380F8741080F87530704765
:100EF0000020704700207047836B0BB108461847ED
:100F000070474FF6FF707047406803689B69184749
:100F100070477047014B1868704700BF9801002068
:100F20007047000038B50446094DFFF7C7FF20465B
:100F300000F094FD002384F84A302846FFF7BAFEFB
:100F4000012384F86C30034B2561636138BD00BF19
:100F5000A4010020A00100200368044607B59B6F90
:100F60009847236820461B6F984700F017FA2368BC
:100F700020469B6E984700210648009129231522A0
:100F800019F0C5FE00F00AFA236820469B6E9847C8
:100F9000F8E700BF7C1F012010B504461FF0CEFB10
:100FA00023682046D3F8A030BDE81040184700F071
:100FB00054BD00F06BBD00F06BBD00F03DBD00F016
:100FC00043BD00F067BD0000024B00221A701EF006
:100FD000A7BD00BF1400002010B504461EF0ACFDF4
:100FE00094F84B3013B1024B01221A7010BD00BFB0
:100FF000140000201EF05ABD10B57C21044633F0C9
:10100000FAFB204610BD90F877301BB140680368AA
:101010001B6818471846704730B590F8341090F8A0
:101020007440104B8C421A780DD05AB90E4A0F49B1
:101030000F4814880F4D0C8001881180298004808E
:1010400001221A7030BD002AFCD00948074A0188E5
:101050001180054A074D14882C80118004800022DD
:10106000EFE700BFDC1B0120D81B0120DE1B0120A5
:10107000DA1B0120E01B012010B50C4C216031B9B6
:101080000B4B0C4A0C484FF4257133F0E3FBC0E9DD
:101090000F12003A0949436418BF01220A70003B4D
:1010A000074A18BF0123137010BD00BF980100202C
:1010B000745B0308AC5B0308FA5B0308E21B0120C6
:1010C000E31B0120012807B50AD84B7800930B7861
:1010D00008481522002119F01AFE03B05DF804FB40
:1010E00001910B5C0093392203460021014819F05D
:1010F0001FFEF2E77C1F012037B50B4A0B4C022381
:101100001525137055700192442200920021392256
:10111000204619F00DFE0021009135232A46204675
:1011200019F0F5FD03B030BDB00100207C1F012097
:1011300007B50190FFF7E0FF019803B05DF804EBFD
:1011400000F08ABC07B5074B03EB80002A2301900F
:101150000093392204230021034819F0E9FD03B06C
:101160005DF804FB040000207C1F012070B5154DC4
:1011700004460020FFF744FE2A6892F866300133E7
:1011800082F8663000F0FEF80F4B28681A781B785A
:1011900080F84A2023B10D4D2B7803F0FF0623B1D0
:1011A000BDE870400020FFF747BE1FF0C7FA084BAC
:1011B00030461E60FFF7C6FF204619F098FD012358
:1011C0002B7070BDE41B012014000020B201002030
:1011D0009C010020304B314A70B505461868304CF0
:1011E000013018602F4B03281E682ADCD4F8041441
:1011F0004FF4C87303FB006321F00801C4F8041422
:1012000093620CBFE823C823023327491B0443F42D
:10121000F1730B61254B4B61A3F5F0735360244BC5
:10122000D36201234B62FFF78DFF1D4AD2F80434CD
:1012300043F008032846C2F80434BDE8704019F0B2
:1012400056BDD4F804341B4923F00803C4F8043411
:10125000154B9662196101F10111596116495160EE
:101260001349D16201225A620020FFF76BFFD4F8C4
:10127000043443F00803C4F804340020FFF7DCFD15
:101280000E4B00221A700E4B186820B10368BDE89F
:101290007040DB69184770BD9C01002084680140E4
:1012A000006C01409801002000680140E301CA0081
:1012B00093018006E201CA000300CA00B2010020C7
:1012C000E41B012008B5044B0146186801B1012157
:1012D0001FF04EFA012008BDE41B0120054B064813
:1012E00000225A609A60054A1A60054B0360FFF7B6
:1012F00017BD00BFA4010020A0010020845A0308EC
:10130000AC5A0308012108B5002208461CF07EF8FB
:101310000A4B186028B90A4B0A4A27210A4833F0B9
:1013200099FA0022042101201CF00EF9074B1860E5
:1013300018B9074B034A2B21F0E708BDB80100207C
:101340000C5D0308555D0308845D0308B4010020AB
:10135000E25D0308024B4FF0FF3118681CF0A0B8A3
:10136000B8010020014B18681CF0C6B8B801002075
:10137000024B002118681CF093B800BFB801002090
:10138000FFF7F0BF03480449006800231A461CF029
:1013900017B900BFB40100201800002013B5084C95
:1013A00000231A4601A920681CF03AF920684FF082
:1013B000FF33002201A91CF033F902B010BD00BFB9
:1013C000B40100201CF004B803685B6C18470120CE
:1013D000704703689B6A184782B0002301930D4B46
:1013E0001A6B42F400021A631A6B02F400020192B3
:1013F000019A1A6942F400021A611A6922F4000281
:101400001A61054B054A1A61054B4FF080629A60DC
:1014100002B0704700380240B42001202D140008AB
:1014200000E100E040F2EF3070470000024B1B6823
:10143000586803685B691847E41B012008B50B284E
:101440000BD8DFE800F01206100A0A0A0A0808089A
:101450000808012008BD0520FCE7054B054A0648A1
:10146000652133F0F7F90020F4E70220F2E700BF2E
:10147000245E03083F5E03088B5E030808B50A2854
:1014800009D8DFE800F010060E080808080606066E
:101490000600012008BD054B054A0648862133F0A9
:1014A000D9F90020F6E70220F4E700BF245E030824
:1014B000E75E03088B5E03082DE9F84391F81D8071
:1014C0000C464046FFF7BAFFA77F05463846FFF7B0
:1014D000B5FF06463846FFF7D1FFA18A628B534B12
:1014E000521A1A649A61228B521A1A61E28A58635C
:1014F00042EA01425A6421696268D963DA60D4F829
:1015000000C094F81C90BCF1800F4FEA09629E461F
:101510003BD015D8BCF1200F45EA020079D0BCF1D0
:10152000400F76D0BCF1040F2BD0404B2A4342F43D
:101530000032B845DA6114BF3D4A40F201221EE094
:10154000BCF5807F07D0BCF5007FEED142F40032BD
:1015500042F0090203E042F4003242F00A02DA618A
:10156000E0680202440102F4780204F47C44C00002
:101570002243C0B202431A622E4A5E6259611A6067
:1015800043E040F40030D861F6E7A0682A4342F413
:101590000032041DDC62DA6102785E62596142B198
:1015A000012A1CD0244B254A25484FF4887133F07A
:1015B00051F94288D969501E21F47F4222F010026D
:1015C00042EA0022DA610125184CE36943F0200366
:1015D000E361E3699B0613D5FFF7F4FEF9E7428860
:1015E000D969501E21F47F4222F0100242EA002203
:1015F000B9F1FF0542F0100218BF0125DA61E3E7F7
:101600001023A3601DB10B4B2360BDE8F883084B8A
:10161000FAE7084B40F40030CEF81C00CEF8246006
:10162000CEF81410CEF80030EFE700BF00B0024053
:101630000102010001020200345F03084E5F03084B
:101640008B5E0308F8B58E7F0C463046FFF716FF19
:10165000A78AE18A628B1E4B2569586341EA0741DC
:10166000D21B5964DD631A642168082918D19A6174
:101670001A615862217F174A42EA0162DA61E16821
:101680000A02480102F4780200F47C40C9000243D7
:10169000C9B20A431A62104A5D61DD601A60F8BD82
:1016A0000022D8611A61E1681EB99963084B0B4AA0
:1016B000F4E70A02480102F4780200F47C40C90011
:1016C000C9B202430A43217F42EA01629A63EDE70D
:1016D00000B0024009000100010202000102030003
:1016E000054B0360054B4FF08062C3F88820BFF3C1
:1016F0004F8FBFF36F8F7047985F030800E100E0E2
:1017000010B50446FFF7ECFF20464FF4426133F07A
:1017100072F8204610BD000070B5044625460A4BFD
:101720000C30002660602672667245F8203B60220D
:1017300029461FF055F904F54263EE602035AB42AF
:10174000FBD1204670BD00BF985F030801207047A1
:101750000C2070470C2303FB0100083070470C235A
:1017600003FB0100083070470120704747F2D85052
:10177000704747F2D85303FB01000830704747F227
:10178000D85303FB01000830704701207047102038
:10179000704700EB01100830704700EB0110083073
:1017A0007047084601F038BB10B5034B0360044690
:1017B0001DF090FF204610BD5060030810B5044690
:1017C000FFF7F2FF2046142133F015F8204610BD34
:1017D00010B5034B036004461DF07CFF204610BD8E
:1017E0001C60030810B50446FFF7F2FF204647F2DD
:1017F000E05133F000F8204610BD000010B5034B57
:10180000036004461DF066FF204610BDE85F030834
:1018100010B50446FFF7F2FF2046182132F0EBFF27
:10182000204610BD10B5094B0360044600F5EC409E
:101830000C30FFF7B9FF04F12C00FFF7C9FF04F1EA
:101840001400FFF7DBFF204610BD00BF84600308D3
:1018500008B50248FFF7E6FF08BD00BFC001002041
:1018600010B50446FFF7DEFF20464FF4EF4132F09B
:10187000C2FF204610BD00002DE9F34101F00EFA31
:10188000054601F00FFA0024014623462846224669
:10189000009425F0DBFC244B244A254D1A60204699
:1018A00015F040FA234825F013FC2B78BFF35B8F2B
:1018B000DB0733D4284632F0A0FF78B31E4C1F4F0D
:1018C0001F4B236007F11C0604F1140004F12C08DF
:1018D0006060C4F80880E76026611DF0FDFE194BCA
:1018E000636140461DF0F8FE174BE36238461DF079
:1018F000F3FE164B3B6007F1140015F09DFA2246EB
:1019000007F11401304615F08DFA304601F084FAE3
:10191000284632F07EFF0E4832F0BAFF0D4802B082
:10192000BDE8F041FFF7FEBA601C0120E085002011
:10193000BC0100201C000020C0010020CC7700204A
:1019400084600308E85F03081C6003085060030814
:1019500051180008648500200148FFF7FDBA00BF58
:101960006485002070B5244C244E254B254D236002
:101970003046FFF7D1FE284628F0ECFC224B00222F
:101980004FF48071C3E912122049DC60C3E91912D7
:101990004FF080715967012183F878101C491D4C64
:1019A0000B601D491A854FF4507008804FF4F07198
:1019B000C3E90422C3E90622C3E90822C3E90E22CF
:1019C000C3E91022C3E91422C3E9162283F82A20AE
:1019D000DA621A861A6683F86C201A67C3E9016511
:1019E00021800E4C83F8342022700D4C0D4A20804B
:1019F0000D481A60018070BD4079002044790020B4
:101A0000645B0308E4850020648500200100000178
:101A1000E41B0120DA1B0120D81B0120DC1B012064
:101A2000DE1B0120485C0308E01B01200148FFF792
:101A300057BE00BF44790020024B902283F85A23FE
:101A4000704700BF00E100E0024B4FF080629A60F7
:101A5000704700BF00E100E07047704738B50446AA
:101A60001EF077F82368DD6D22F066F90146204606
:101A7000A8472368D3F8805000231A464FF040410E
:101A80002046A847012384F84A3038BD1EF014B818
:101A90001EF06DB9044B4FF08062C3F88820BFF38D
:101AA0004F8FBFF36F8F704700E100E0A0F5977094
:101AB00057289ABF014B185C0020704790600308BC
:101AC0002DE9F04FB84C89B02346002101AA18F047
:101AD000CFF9019940F28223994211D1A378E0789D
:101AE00003EB0020FEF758FEABA3D3E90023FEF77B
:101AF000D7FBFEF7BBFEAD4B186009B0BDE8F08F19
:101B0000B1F5407F06D1AA4B01221A602278A94B79
:101B10001A70F2E7A1F59673132B34D8A64B012265
:101B200008461A60FFF7C2FFA44A52F820305C1C36
:101B300013F0010342F82040A14A0ED0CB0716D57E
:101B40000823102111FB0030974C024414F8011BAC
:101B500002F8011B013BF9D1CFE704B202EB0414F8
:101B60001D460133102B04F8015BFAD1E6E700B201
:101B70008D4902EB0012082311F8010B02F8010B4A
:101B8000013BF9D1B9E7652921D18B4B01221A60BC
:101B90008C4B22781A706278A37803EB02234FF6FD
:101BA000FF72B3FBF2F3884A03EB83031380E278FE
:101BB000237903EB0223854A1380854B62791A70DF
:101BC000A279E37903EB0223824A138095E7662921
:101BD00021D1814B01221A606378A27807EE903AF6
:101BE0007E4BF8EE677AC3ED007AE37803EB0223CD
:101BF00007EE903A7A4B2279F8EEE77AC3ED007A55
:101C0000784B1A70784B62791A70784BA2791A70F7
:101C1000E279774B7CE7A1F5AF73132B5BD8664B6A
:101C2000744D012208461A60FFF740FF724A52F8CD
:101C300020305C1C13F0010F42F820406F4A4FEA3D
:101C400080041FD0131911F0010F93ED007ADFED1E
:101C50006C6A25D02021382313FB0010524E2844F3
:101C6000062116F8013B03EB830307EE903AF8EEEA
:101C7000E77A013967EEA67A37EE277AE0EC017A47
:101C8000EFD124E0131900261E6003B2C3EBC30397
:101C900005EBC3030E27013F43F8046BFBD1D1E7EB
:101CA00000B2C0EBC000404E05EBC000082116F8A2
:101CB000013B03EB830307EE903AF8EEE77A013934
:101CC00067EEA67A37EE277AE0EC017AEFD122446C
:101CD00082ED007A11E7A1F5BE73092B25D8364BAA
:101CE000012208461A60FFF7E1FE464A464902EB28
:101CF000800200B20023C0EBC00001EB8000136043
:101D0000072114F8013B92ED007A07EE903AF8EEC5
:101D1000677AF4EEC77AF1EE10FAC8BFC2ED007A26
:101D20000139E0EC017AECD1E7E6B1F5C87F27D1C3
:101D3000294BDFF8E4B0DFF8E4A0344F0FF260097C
:101D4000D9E9008901221A600425002614F8010B44
:101D5000FEF722FD42464B46FEF7A2FA3B463246CC
:101D6000FEF79EFAFEF7A2FDE3784BF8040B07EEB0
:101D7000903AF8EE677A013DEAEC017AE6D1BCE6EA
:101D8000B1F5C97F4CD1144B01221A60204B627807
:101D90001A70A2781F4BBBE6616D8C9DF0127C3FE0
:101DA00090D1BE500000293F5C8C0020688C002040
:101DB0003C8C00206C8C0020488C0020C81E012028
:101DC000CC870020598C0020088C0020CA87002076
:101DD00094880020C8870020508C0020388C002078
:101DE0000C8C0020148C0020138C0020448C0020CC
:101DF000458C0020D8890020F01E0120B0890020E9
:101E00000000803B6C880020988800200000704013
:101E10005A8C00205B8C0020288C0020188C00201D
:101E200040F2911399427FF468AE054BA2780121EC
:101E30001960044B21781970617859709A705CE6CA
:101E4000508C0020108C002010B5114C8AB001215C
:101E5000204618F084F80221204618F080F810215E
:101E6000204618F07CF800230F22CDE90523CDE9A8
:101E70000033CDE902330493694601232046CDE9BE
:101E8000073317F03FFF204617F0C4FF0AB010BD1C
:101E900088200120014900201CF03ABFC51200082B
:101EA00008B564201BF0A6FAFBE7000030B595B03A
:101EB0001022002109A832F053FE1422002102A8AA
:101EC00032F04EFE00241F4B00941A6C42F08052F8
:101ED0001A641B6C03F080530093009B1A4B01940F
:101EE0001A6842F440421A601B6803F440430193AD
:101EF0000122019B4FF48033CDE9072302254FF4E3
:101F000080030821CDE90D534FF4B473CDE90F13CD
:101F100004200623CDE9120307A811951AF0C0FC8E
:101F200019F010FF0F23CDE9023504944FF48053CC
:101F30004FF4A054052102A8CDE905431AF084FA14
:101F400015B030BD00380240007000402DE98048D7
:101F5000B9B017F01BFEFFF7A9FF142200212BA830
:101F6000002432F0FDFDC94B02941A6BC84842F0C0
:101F700010021A631A6B02F010020292029A039482
:101F80001A6B42F002021A631A6B02F00202039209
:101F9000039A04941A6B42F040021A631A6B02F01F
:101FA00040020492049A05941A6B42F008021A63E4
:101FB0001A6B02F008020592059A06941A6B42F415
:101FC00080721A631A6B02F480720692069A079462
:101FD0001A6B42F020021A631A6B02F02002079279
:101FE000079A08941A6B42F480621A631A6B02F41F
:101FF00080620892089A09941A6B42F080021A6370
:102000001A6B02F080020992099A0A941A6B42F044
:1020100004021A631A6B02F004020A920A9A0B94E1
:102020001A6B42F400721A631B6B03F400730B9378
:10203000012208210B9B19F081F8964822461021B5
:1020400019F07CF894482246402119F077F822468E
:102050009248802119F072F8112608238C482BA988
:1020600001274FF00208CDE92B364FF01009CDE9DA
:102070002D4418F0D5FE8748CDF8B8802BA9CDE9BE
:102080002B972D9418F0CCFE402383482BA9802554
:10209000CDE92B37CDE92D4818F0C2FE2BA903233B
:1020A0007E482E93CDE92B562D9418F0B9FE7C482E
:1020B0007C4E7D4B036018F0D3F87C4BC6E90A4494
:1020C000C6E90C443046C6E90034C6E9024418F0BB
:1020D000DBF93946304618F08FFA294622466F4818
:1020E000734E19F02BF8142017F07CFD29463A4660
:1020F0006A4819F023F80A2017F074FD24222146BB
:1021000015A832F02DFD182221460FA832F028FD27
:10211000342221462BA832F023FD2C2221461EA872
:1021200032F01EFD634B0E940425C6E900340CA961
:102130007D233046CDE90C38C6E9025718F024FB60
:1021400015A93046CDE91574CDE91744CDE91944F8
:10215000CDE91B441D9418F041FD1C222123CDE93B
:102160000F230F211923CDE9111330460FA9CDE913
:10217000134418F0F6FC2946304618F0E1FC42F210
:102180001071304618F035FE2146304618F099FAA5
:102190004FF480704FF40073CDE92B034FF4806B44
:1021A0004FF400634FF4805CCDE92DB34FF400533E
:1021B000CDE92FC34FF4804A4FF480334FF4003EF3
:1021C000CDE931A34FF48023CDE933E34FF400226E
:1021D0004FF080732BA93046CDE93523CDF8DC8054
:1021E00018F07AFCC8231EA93046CDE92039CDE984
:1021F0002245CDE92484CDE91E44CDE92644289723
:1022000018F0F8FB2146304618F0E3FB2A482B492A
:10221000CDF8AC80C0E9001440232021C0E90413AC
:102220004FF4C071C0E906144FF480530721C0E990
:10223000093ACDE92C1503232E912BA9CDE92F388E
:10224000C0E90245CDF8C48004621AF0DFFC17F043
:10225000C5FB17F075FB342221461EA832F080FC26
:10226000174D184AAC86C5E90024CA214FF4F17213
:10227000C5E90912CB2040F2E312C5E90B0228465A
:10228000C5E90678C5F820801EE000BF003802408E
:1022900000280240000C024000180240001C0240CE
:1022A000741F0120B42001200030024000B0024021
:1022B0007C1F0120006C0140F4200120400100A09F
:1022C000E01F012000680140C5E90244C5E9044758
:1022D00085F8364019F000FCFF214FF0050CC823AB
:1022E0004FF4F072CDE923144FF04041CDE926C1FF
:1022F000CDE92128CDE928321EA922462846CDE97C
:102300001F341E94CDF894B0ADF8A8408DF8AA40C3
:1023100019F0AEFC2A68936923F0010393613046FB
:1023200018F0C2FC3946404616F0CCFC2823152292
:1023300021460094304618F0EAFC2BA93046CDE93E
:102340002B44CDE92D44CDE92F44CDE93144CDE9ED
:102350003344359418F0C0FB4FF4487122462846A8
:1023600019F0B4FC2A683C4893693C4DDFF81C81A5
:102370003B4393613A4B0462C0E900371B23C0E939
:10238000043BC0E90279C0E9064419F0F3FD17F0F7
:102390009DF917F0D1F817F047F8DFF8F4E0314B6A
:1023A0002C622846C5E900E3C5E904A4C5E9024456
:1023B000C5E9064419F0ACF8284619F051F92A4845
:1023C0002A4D84610323C0E900834FF4302A4FF47F
:1023D00080138483C0E904A3C0E9024417F016FC0B
:1023E0004A4621462BA832F0BBFB214BAC60C5E925
:1023F000003428464FF6FF73C5E90334CDE91E4487
:10240000AC611AF0A1FD4FF480532BA928462B9301
:102410001AF0D0FD1EA92846CDE91E441AF066FE2A
:10242000FEF739FCFFF710FD00F0DAFB28461AF042
:1024300045FC1AF057FF0F4A0F4821461AF07EFF5D
:102440000E4B0F4A186021460E481AF077FF0E4BCC
:1024500018601AF059FFFEE728210120201F0120F3
:10246000001000A0801A060088200120981F01207B
:102470000004004028610308A11E00081C1F012061
:10248000046103089B0C0008B02001200068004094
:10249000005400400268034B9A4201D117F090BBF0
:1024A000704700BF001000407047000082B00E4B24
:1024B00000220092596C41F480415964596C01F436
:1024C0008041009100990192196C41F0805119648A
:1024D0001B6C03F080530193019B0F216FF00100EF
:1024E00002B017F069BE00BF0038024010B50446C4
:1024F00088B01422002103A832F032FB2268224B5C
:102500009A423ED103F5E833002400941A6C1F4828
:1025100042F080621A641A6C02F080620092009AA3
:1025200001941A6C42F000721A641A6C02F0007284
:102530000192019A02941A6B42F002021A631B6B19
:10254000059403F00203029342F22002029B02234D
:10255000CDE9032303210923CDE9061303A918F0CC
:102560005FFC22460521402017F026FE402017F090
:1025700055FE41202246052117F01EFE412017F08E
:102580004DFE08B010BD00BF0068004000040240CE
:102590000268094B9A4282B00BD100230193074B8A
:1025A0001A6B42F480521A631B6B03F4805301933D
:1025B000019B02B0704700BF00300240003802406B
:1025C00007B50F4B02689A4216D10022A3F5F043DB
:1025D0000192196B41F4000119631B6B03F40003B2
:1025E000019305215A20019B17F0E6FD5A2003B004
:1025F0005DF804EB17F012BE03B05DF804FB00BFFA
:1026000000B0024010B5044688B01422002103A88F
:1026100032F0A6FA2268184B9A422AD103F54C43AD
:10262000002401945A6C154842F000625A645A6CB6
:1026300002F000620192019A02941A6B42F4007255
:102640001A631B6B03F4007302930422029B0223A0
:10265000CDE9032303A90D230793CDE9054418F021
:10266000DFFB5C202246052117F0A6FD5C2017F059
:10267000D5FD08B010BD00BF006C01400024024031
:1026800030B5044689B01422002103A832F068FA5C
:1026900022681A4B9A422FD1194C1A4800250195ED
:1026A000236B43F002032363236B03F002030193C4
:1026B000019B4FF440721223CDE903230121032330
:1026C000CDE90513042303A9079318F0A9FB02958C
:1026D000236C43F400132364236C03F4001302936C
:1026E000029B236A43F400132362236A23F400133A
:1026F0002362642017F076FA09B030BD0054004020
:10270000003802400004024008B502680A4B9A42B1
:1027100010D10A4A0A48136C23F4001313644FF4CF
:10272000807118F063FCBDE8084005484FF4007163
:1027300018F05CBC08BD00BF0054004000380240E7
:102740000004024010B5044690B03C22002101A8CC
:1027500032F006FA2268134B9A4221D108230193E2
:102760004FF4B47305930024062301A808930B9437
:1027700019F034FF08B1FFF797FE0B4B00945A6C29
:1027800042F080625A645B6C03F0806300935820CF
:1027900000220521009B17F00FFD582017F03EFD89
:1027A00010B010BD0068014000380240F0B504468A
:1027B00089B01422002103A832F0D2F92268244BF8
:1027C0009A4243D1234B2448002400949A6B42F050
:1027D00002029A639A6B02F002020092009A01943C
:1027E0001A6B42F002021A631A6B02F002020192A3
:1027F000019A02941A6B42F020021A631B6B059433
:1028000003F02003029302260325029B0A2740239C
:1028100003A9CDE90336CDE9065718F001FB4FF4C3
:102820009863CDE903360D48092303A90793CDE941
:10283000054518F0F5FA4FF440730848079703A9C7
:10284000CDE90336CDE9054518F0EAFA09B0F0BD47
:10285000001000A0003802400004024000140240B2
:1028600008B50268094B9A420FD1094A0948936B8F
:1028700023F002039363402118F0B8FBBDE8084041
:1028800005484FF4F86118F0B1BB08BD001000A076
:1028900000380240000402400014024007B50F4B0C
:1028A00002689A4216D1002203F50D330192196C89
:1028B00041F0020119641B6C03F00203019305212E
:1028C0001D20019B17F078FC1D2003B05DF804EB80
:1028D00017F0A4BC03B05DF804FB00BF0004004087
:1028E000F0B5314B1C6887B0002C5BD101221A6017
:1028F0002E4B00949A6B2E4842F001029A639B6B18
:10290000039403F001030093022703260C25009B88
:1029100001A94FF68373CDE90137CDE9046518F0BD
:102920007FFA48F233132348059501A9CDE9013711
:10293000CDE9034618F074FA4CF203731E4805956E
:1029400001A9CDE90137CDE9034618F069FA40F253
:10295000FF631A48059501A9CDE90137CDE9034682
:1029600018F05EFA4FF63F031548059501A9CDE929
:102970000137CDE9034618F053FA4FF47F4311486D
:10298000059501A9CDE90137CDE9034618F048FACC
:102990000D230D48059501A9CDE90137CDE9034681
:1029A00018F03EFA07B0F0BD608600200038024003
:1029B0000010024000180240000C024000200240BB
:1029C00000140240001C02400008024008B5174BEA
:1029D0001A6852BB01221A60154A1648936B23F0FD
:1029E000010393634FF6837118F000FB124848F21D
:1029F000331118F0FBFA11484CF2037118F0F6FA93
:102A00000F4840F2FF6118F0F1FA0E484FF63F010F
:102A100018F0ECFA0C484FF47F4118F0E7FABDE8E3
:102A200008400A480D2118F0E1BA08BD5C86002074
:102A3000003802400010024000180240000C024022
:102A40000020024000140240001C02400008024026
:102A500030B5014689B00022362017F0ADFB362094
:102A600017F0DCFB0025154B02951A6C144C42F054
:102A700010021A641B6C03F01003029301A903A84F
:102A8000029B19F08DFD19F07BFD0E4B236040F287
:102A9000E733E36040000C4BB0FBF3F001386060BB
:102AA00020462561A5601AF04FFA20B920461AF099
:102AB00005F909B030BD0120FBE700BF0038024036
:102AC000742101200010004040420F007047FEE7D3
:102AD000FEE7FEE7FEE7704701481AF02DB900BF98
:102AE000981F012001481AF027B900BF7421012066
:102AF000014817F051BA00BF88200120FFF7F8BF46
:102B0000014819F058B800BFE01F0120014817F034
:102B1000E9BC00BFB4200120014817F0E8BE00BFA7
:102B20007C1F01200120704708B531F0C5FE162337
:102B300003604FF0FF3008BD08B531F0BDFE16232D
:102B40000360FEE770B50E4614460025A54201DB82
:102B5000204670BDAFF3008070550135F6E770B5C3
:102B60000E4614460025A54201DB204670BD705D6F
:102B7000AFF300800135F6E74FF0FF3070474FF4B8
:102B800000534B60002070470120704700207047C1
:102B900008B50A4B1968024609B90949196018684D
:102BA000694602448A4206D931F086FE0C2303604E
:102BB0004FF0FF3008BD1A60FCE700BF64860020BC
:102BC00068220120034B00221A70034B01221A6075
:102BD000FEE700BF588C0020648C0020FEE7000058
:102BE00037B5002224210A201BF06AF90D4B18602A
:102BF00001201BF07FFA0C4B0C49186000240525BE
:102C00002346CDE90054802209481BF017FFCDE987
:102C1000005408490848234680221BF00FFF03B0E8
:102C200030BD00BFBC210120C02101204C61030840
:102C3000C52B000855610308DD2B0008704708B557
:102C4000072921D8DFE801F00404080C1014181C2F
:102C500014F0B6F8006808BD14F0B2F84068FAE75E
:102C600014F0AEF88068F6E714F0AAF8C068F2E74E
:102C700014F0A6F80069EEE714F0A2F84069EAE75C
:102C800014F09EF88069E6E70020E4E710B504211F
:102C9000044631F0B0FD204610BD000000487047EA
:102CA000746103080120704713B5002451B1036813
:102CB00001948DF8034001AA9C680DF10303A0471D
:102CC00002B010BD0846FBE7408970478089704715
:102CD0008088704783798088184480B27047C079B3
:102CE00000F07F007047C079C0097047704710B589
:102CF0000821044631F07FFD204610BD704700F5E5
:102D000096730868496803C370477047704741600D
:102D1000704770470123037270477047704710B4C3
:102D2000C26841685410034601EB6200D20748BFF5
:102D30000A599B685DF8044B48BFD358184743684D
:102D40002BB183682BB9C06800F0010070471846AA
:102D500070470120704710B50C21044631F04BFD3F
:102D6000204610BD10B51021044631F044FD204628
:102D700010BD10B54FF4AC71044631F03CFD204657
:102D800010BD10B520F0D8FF0368BDE810401B6BE4
:102D9000184710B50446D0F83C0158B10368DB6809
:102DA000984738B1D4F83C0103689B6898470023E2
:102DB000C4F83C3110BD0000F8B5044617460E4675
:102DC00020F0DAFF104B0025C4E954760F4E1C604A
:102DD000C4E952550E4B306823600E4BC4E95035A0
:102DE000036829469B68C4E94E559847284613F066
:102DF00099FF336893F876200AB1D86C00B99868C7
:102E000028F0DBFF2046F8BD501C0120E41B012008
:102E1000F46B0308DC6B0308064BC0F84831002351
:102E2000C0F84C3100F5A073C0F84401C0F83C3143
:102E3000704700BF61300008064BC0F848310023DE
:102E4000C0F84C3100F5A073C0F84401C0F83C3123
:102E5000704700BFC5310008064BC0F84831002359
:102E6000C0F84C3100F5A073C0F84401C0F83C3103
:102E7000704700BF2D330008064BC0F848310023CF
:102E8000C0F84C3100F5A073C0F84401C0F83C31E3
:102E9000704700BF95340008064BC0F84831002346
:102EA000C0F84C3100F5A073C0F84401C0F83C31C3
:102EB000704700BFFD350008064BC0F848310023BD
:102EC000C0F84C3100F5A073C0F84401C0F83C31A3
:102ED000704700BF65370008064BC0F84831002333
:102EE000C0F84C3100F5A073C0F84401C0F83C3183
:102EF000704700BFCD380008064BC0F848310023AA
:102F0000C0F84C3100F5A073C0F84401C0F83C3162
:102F1000704700BF313A000803685B6A1847000039
:102F20002DE9F84F07469068DDF828A09946036818
:102F30001B6A88461446984743F2A363984205D813
:102F4000414B424AA321424831F084FC6068036847
:102F50001B6A98470F2803D83E4B3C4AA421F2E74E
:102F6000E06803681B6A98470B2803D83A4B374A36
:102F7000A521E8E720F0E0FE20F0E4FED9F800000B
:102F800010B10368DB689847D9F8000010B10368F6
:102F90001B689847386810B103685B699847D8F890
:102FA000000010B103685B689847386810B1036887
:102FB0001B689847D8F8000010B103689B689847D1
:102FC000E0680021FFF7A8FF4FF0000B234B0360E0
:102FD0000546C0F804B080F808B0A06803685946F8
:102FE0005B6A9847064614F00BF860680368594618
:102FF0005B6A98473146044613F06CFFC9F80050ED
:10300000C8F800403E60E4B1231DCAF800303368C0
:10301000C4F808A03046DB68F4639847236820466C
:103020001B6898472946304622F06BFB2B682846E0
:103030001B6998472B6828465B6998472046BDE87E
:10304000F88F2346E1E700BF986103082662030872
:103050002A6303087163030814640308386C0308C7
:1030600007B5D0F854310093D0F85021044B00F547
:103070009C710448FFF754FF03B05DF804FB00BFE8
:10308000441C0120401C01202DE9F84F07469068A0
:10309000DDF828A0994603681B6A884614469847BD
:1030A000972805D8414B424AA321424831F0D2FB30
:1030B000606803681B6A98470F2803D83E4B3C4A58
:1030C000A421F2E7E06803681B6A98470B2803D83D
:1030D0003A4B374AA521E8E720F02EFE20F032FED9
:1030E000D9F8000010B10368DB689847D9F80000F0
:1030F00010B103681B689847386810B103685B69B2
:103100009847D8F8000010B103685B6898473868A2
:1031100010B103681B689847D8F8000010B1036825
:103120009B689847E0680021FFF7F6FE4FF0000B20
:10313000234B03600546C0F804B080F808B0A068CF
:10314000036859465B6A9847064613F08FFF60682C
:10315000036859465B6A98473146044613F06CFF92
:10316000C9F80050C8F800403E60E4B1231DCAF819
:1031700000303368C4F808A03046DB68F463984731
:10318000236820461B6898472946304622F0B9FA42
:103190002B6828461B6998472B6828465B69984727
:1031A0002046BDE8F88F2346E1E700BF9861030899
:1031B000B76403082A6303087163030814640308EF
:1031C000386C030807B5D0F854310093D0F850217B
:1031D000044B00F59C710448FFF756FF03B05DF8FF
:1031E00004FB00BF441C0120401C01202DE9F84FC6
:1031F00007469068DDF828A0994603681B6A884650
:103200001446984744F60323984205D8414B424A56
:10321000A321424831F01EFB606803681B6A98478F
:103220000F2803D83E4B3C4AA421F2E7E06803682C
:103230001B6A98470B2803D83A4B374AA521E8E781
:1032400020F07AFD20F07EFDD9F8000010B103686F
:10325000DB689847D9F8000010B103681B689847ED
:10326000386810B103685B699847D8F8000010B15E
:1032700003685B689847386810B103681B68984713
:10328000D8F8000010B103689B689847E0680021F7
:10329000FFF742FE4FF0000B234B03600546C0F8DA
:1032A00004B080F808B0A068036859465B6A984784
:1032B000064614F019F96068036859465B6A984736
:1032C0003146044613F0FAFEC9F80050C8F8004031
:1032D0003E60E4B1231DCAF800303368C4F808A08A
:1032E0003046DB68F4639847236820461B6898479C
:1032F0002946304622F005FA2B6828461B69984774
:103300002B6828465B6998472046BDE8F88F23461E
:10331000E1E700BF98610308BB6503082A6303085F
:103320007163030814640308386C030807B5D0F808
:1033300054310093D0F85021044B00F59C7104489F
:10334000FFF754FF03B05DF804FB00BF441C0120ED
:10335000401C01202DE9F84F07469068DDF828A0B1
:10336000994603681B6A88461446984747F2D75324
:10337000984205D8414B424AA321424831F06AFAAB
:10338000606803681B6A98470F2803D83E4B3C4A85
:10339000A421F2E7E06803681B6A98470B2803D86A
:1033A0003A4B374AA521E8E720F0C6FC20F0CAFCDA
:1033B000D9F8000010B10368DB689847D9F800001D
:1033C00010B103681B689847386810B103685B69DF
:1033D0009847D8F8000010B103685B6898473868D0
:1033E00010B103681B689847D8F8000010B1036853
:1033F0009B689847E0680021FFF78EFD4FF0000BB7
:10340000234B03600546C0F804B080F808B0A068FC
:10341000036859465B6A9847064614F0F3FB6068F8
:10342000036859465B6A98473146044614F084F8AD
:10343000C9F80050C8F800403E60E4B1231DCAF846
:1034400000303368C4F808A03046DB68F46398475E
:10345000236820461B6898472946304622F051F9D8
:103460002B6828461B6998472B6828465B69984754
:103470002046BDE8F88F2346E1E700BF98610308C6
:10348000BF6603082A630308716303081464030812
:10349000386C030807B5D0F854310093D0F85021A8
:1034A000044B00F59C710448FFF754FF03B05DF82E
:1034B00004FB00BF441C0120401C01202DE9F84FF3
:1034C00007469068DDF828A0994603681B6A88467D
:1034D0001446984747F2D753984205D8414B424A81
:1034E000A321424831F0B6F9606803681B6A984727
:1034F0000F2803D83E4B3C4AA421F2E7E06803685A
:103500001B6A98470B2803D83A4B374AA521E8E7AE
:1035100020F012FC20F016FCD9F8000010B103686E
:10352000DB689847D9F8000010B103681B6898471A
:10353000386810B103685B699847D8F8000010B18B
:1035400003685B689847386810B103681B68984740
:10355000D8F8000010B103689B689847E068002124
:10356000FFF7DAFC4FF0000B234B03600546C0F871
:1035700004B080F808B0A068036859465B6A9847B1
:10358000064614F0CDFE6068036859465B6A9847AA
:103590003146044614F05EFBC9F80050C8F80040FC
:1035A0003E60E4B1231DCAF800303368C4F808A0B7
:1035B0003046DB68F4639847236820461B689847C9
:1035C0002946304622F09DF82B6828461B6998470B
:1035D0002B6828465B6998472046BDE8F88F23464C
:1035E000E1E700BF98610308C36703082A63030883
:1035F0007163030814640308386C030807B5D0F836
:1036000054310093D0F85021044B00F59C710448CC
:10361000FFF754FF03B05DF804FB00BF441C01201A
:10362000401C01202DE9F84F07469068DDF828A0DE
:10363000994603681B6A88461446984745F2D35357
:10364000984205D8414B424AA321424831F002F941
:10365000606803681B6A98470F2803D83E4B3C4AB2
:10366000A421F2E7E06803681B6A98470B2803D897
:103670003A4B374AA521E8E720F05EFB20F062FBD9
:10368000D9F8000010B10368DB689847D9F800004A
:1036900010B103681B689847386810B103685B690C
:1036A0009847D8F8000010B103685B6898473868FD
:1036B00010B103681B689847D8F8000010B1036880
:1036C0009B689847E0680021FFF726FC4FF0000B4D
:1036D000234B03600546C0F804B080F808B0A0682A
:1036E000036859465B6A9847064615F043F86068D8
:1036F000036859465B6A98473146044614F038FE21
:10370000C9F80050C8F800403E60E4B1231DCAF873
:1037100000303368C4F808A03046DB68F46398478B
:10372000236820461B6898472946304621F0E9FF68
:103730002B6828461B6998472B6828465B69984781
:103740002046BDE8F88F2346E1E700BF98610308F3
:10375000C76803082A630308716303081464030835
:10376000386C030807B5D0F854310093D0F85021D5
:10377000044B00F59C710448FFF754FF03B05DF85B
:1037800004FB00BF441C0120401C01202DE9F84F20
:1037900007469068DDF828A0994603681B6A8846AA
:1037A0001446984744F2B753984205D8414B424AD1
:1037B000A321424831F04EF8606803681B6A9847BD
:1037C0000F2803D83E4B3C4AA421F2E7E068036887
:1037D0001B6A98470B2803D83A4B374AA521E8E7DC
:1037E00020F0AAFA20F0AEFAD9F8000010B1036870
:1037F000DB689847D9F8000010B103681B68984748
:10380000386810B103685B699847D8F8000010B1B8
:1038100003685B689847386810B103681B6898476D
:10382000D8F8000010B103689B689847E068002151
:10383000FFF772FB4FF0000B234B03600546C0F807
:1038400004B080F808B0A068036859465B6A9847DE
:10385000064615F079F96068036859465B6A98472F
:103860003146044614F0A6FFC9F80050C8F80040DD
:103870003E60E4B1231DCAF800303368C4F808A0E4
:103880003046DB68F4639847236820461B689847F6
:103890002946304621F035FF2B6828461B6998479A
:1038A0002B6828465B6998472046BDE8F88F234679
:1038B000E1E700BF98610308CB6903082A630308A6
:1038C0007163030814640308386C030807B5D0F863
:1038D00054310093D0F85021044B00F59C710448FA
:1038E000FFF754FF03B05DF804FB00BF441C012048
:1038F000401C01202DE9F84F07469068DDF828A00C
:10390000994603681B6A884614469847B0F55F5F7E
:1039100005D2414B414AA321414830F09BFF6068EA
:1039200003681B6A98470F2803D83E4B3B4AA421E3
:10393000F2E7E06803681B6A98470B2803D83A4B04
:10394000364AA521E8E720F0F7F920F0FBF9D9F88D
:10395000000010B10368DB689847D9F8000010B187
:1039600003681B689847386810B103685B6998471B
:10397000D8F8000010B103685B689847386810B148
:1039800003681B689847D8F8000010B103689B686B
:103990009847E0680021FFF7BFFA4FF0000B234B78
:1039A00003600546C0F804B080F808B0A06803685A
:1039B00059465B6A9847064615F0F8F86068036850
:1039C00059465B6A98473146044615F0D5F8C9F860
:1039D0000050C8F800403E60E4B1231DCAF8003032
:1039E0003368C4F808A03046DB68F463984723685E
:1039F00020461B6898472946304621F082FE2B68F6
:103A000028461B6998472B6828465B6998472046DB
:103A1000BDE8F88F2346E1E798610308CF6A030801
:103A20002A6303087163030814640308386C0308ED
:103A300007B5D0F854310093D0F85021044B00F56D
:103A40009C710448FFF756FF03B05DF804FB00BF0C
:103A5000441C0120401C0120006A7047406A7047E6
:103A600070478B8880690A68DB0A50F8230010448D
:103A7000704710B5C2B1137BB3B1547BD27A240224
:103A800004F4E0641443C26998B202EB8402138820
:103A90008B4202D192F9020010BD05D8013880B2E4
:103AA00004320028F3D1F7E70020F5E710B528210C
:103AB000044630F0A0FE204610BD000030B589B0AD
:103AC0000446BDF850500695BDF84C5005959DF83C
:103AD000405004959DF83C5003959DF83850029550
:103AE0009DF8345001959DF83050009521F05CF917
:103AF000064B2360119BA361129BE361159B23621C
:103B0000169B6362204609B030BD00BF5C6C0308A1
:103B10000020704781807047C180704701817047E5
:103B2000418170477047704770477047704710B4C5
:103B3000C4880368121B84881B6D091B12B25DF8D0
:103B4000044B09B218474FF6FF7383814FF0FF33E0
:103B500003621368C3611060704770477047704715
:103B60007047704790F825201AB190F8242002B1D0
:103B7000186070477047704710B543F2A46104465F
:103B800030F039FE204610BD012908B505D120F0DE
:103B9000D3F8BDE80840FFF74FB908BD074A0260F7
:103BA0000022C0E90122C0E90322C0E90522C0E9E0
:103BB00007224FF480728284704700BFA88C0308EC
:103BC00070B503680446DB6A1546984723682946A2
:103BD00020461B6BBDE87040184770B504461D4673
:103BE000BDF91060FFF7ECFF2368294620465B6BA8
:103BF00098472368314620469B6BBDE870401847C4
:103C000010B526220446002130F0AAFF2046FFF717
:103C1000C5FF044B2360FF2384F826300023A362F2
:103C2000204610BDA888030810B5262204460021AE
:103C300030F096FF2046FFF7B1FF074B2360074B9C
:103C4000A3624FF6FF73A3854FF47F020023C4E9FC
:103C50000C322387204610BD0088030890610308BA
:103C600070B5FF22134E0272134A0260326892F856
:103C700076100023C0E903330446436009B1D06CD9
:103C800000B9906803685B6A98473368B0FA80F5BA
:103C9000D86C6D0928B103685B6A9847002808BF93
:103CA00001252DB9054B064A06482C2130F0D2FDDE
:103CB000204670BDE41B0120F4830308AC6C0308AC
:103CC0000A6D0308436D03082DE9F04F2DED108BAD
:103CD000044693B021F098FB22460025B84BE563DB
:103CE00042F8403B104609EE902AFFF789FF04F1A5
:103CF0006C0318460993FFF783FF04F19803DFF87C
:103D0000E482B04FDFF8E09204F1C40B184608EEED
:103D1000103AFFF743FFC4F898805846C4F8C050E3
:103D2000FFF76EFF04F1F00318460AEE103AFFF7B2
:103D30007BFF04F59873C4F8F0701846C4F82C5152
:103D40000AEE903AFFF770FF04F5B673184604F5D3
:103D5000CC7608EE903AFFF721FFC4F86C81C4F8E6
:103D600094513046FFF71AFF04F5E273C4F89881C6
:103D70001846C4F8C0510A93FFF742FF04F5F873E0
:103D800018460BEE103A1CF0DBFF04F50F731846D3
:103D90000F93FFF765FF04F51573C4F83C921846BE
:103DA000C4F850520BEE903A1CF0CAFF04F5287389
:103DB00018460E93FFF754FF04F52E73C4F8A09233
:103DC0001846C4F8B4520CEE103A1CF0B9FF04F5D2
:103DD000417318460D93FFF743FF04F54773C4F88A
:103DE00004931846C4F818530CEE903AFFF71CFFE2
:103DF00004F5567318460DEE103AFFF715FF04F55B
:103E0000657318460DEE903AFFF70EFF04F57473D4
:103E1000184609EE103AFFF7C1FE04F57F73C4F8A7
:103E2000D0831846C4F8F8530B93FFF7E9FE04F566
:103E3000856318460EEE103AFFF7F6FE04F264436F
:103E4000184604F2A4490EEE903AFFF7EDFEC4F8CE
:103E50006474C4F8A0544846FFF7A0FE04F59A63C2
:103E6000C4F8A4841846C4F8CC540C93FFF7C8FED9
:103E700004F2FC4318460FEE103AFFF7D5FE04F5A6
:103E8000A76318460FEE903AFFF7CEFE04F2745384
:103E9000184604F5B6680293FFF7C6FE4046FFF7E2
:103EA000C3FE04F2EC5318460393FFF7BDFE04F281
:103EB0002C63C4F8EC751846C4F828560493FFF731
:103EC000B3FE04F26C63C4F82C761846C4F8685646
:103ED0000593FFF7A9FE04F2AC63C4F86C761846AC
:103EE000C4F8A8560693FFF79FFE04F5DD63184655
:103EF0000793FFF799FE04F22473184608934FF4D2
:103F0000F077FFF791FE42F6E06104F2C4701EF014
:103F1000F5F94FF07F4A19EE900A4FF448732A469C
:103F200029460097FFF759FE0998C4F868A04FF496
:103F300048732A4629460097FFF74FFE224BC4F8E4
:103F4000943018EE100A4FF4E1732A462946009780
:103F5000FFF743FE40F2B9131422584600930D2197
:103F600040F2B513FFF739FE4FF0FF33594618EE14
:103F7000100AC4F8EC301BF059FC40F261130093B6
:103F80001AEE100A4FF4D1731F221421FFF725FEF9
:103F90000E4BC4F820A11B68A4F8245104F5EC6B67
:103FA0002BB90B4B0B4AAE210B4830F053FC0B4B9B
:103FB0001B88012B1AD80A4B064AAF21F4E700BF31
:103FC000BC6E03080C890308231107FF541C012051
:103FD000A56D0308E76D0308156E0308581C012042
:103FE0005C6E0308687B0308D4830308EA4B012155
:103FF000186812F0D3FEE94A03460A21584622F017
:104000009DFE1AEE100AC4F82CB110A9DFF894B383
:10401000CDF840B0ADF844501DF09BFF1AEE101AD9
:1040200018EE100A1BF002FC40F251121AEE900A30
:10403000B021FFF7C5FD02231AEE900A10A9C4F8BB
:1040400060A1A4F86451ADF84430CDF840B01DF043
:1040500080FF1AEE901A18EE100A1BF0E7FB18EE1C
:10406000900A00974FF4AF735D272A464FF4E17131
:10407000FFF7B3FD304600974FF49C736322132182
:10408000FFF7ABFD4FF49C730A9800972A46294628
:10409000FFF7A3FD4FF0FF3230460A99C4F8EC2138
:1040A0001BF0C4FB33223A231BEE100A00920F21AF
:1040B0002422FFF792FD4FF434524FF44877C4F8AE
:1040C0003022B74AC4F85022C4E988770F99C4F85F
:1040D00028721BEE100AC4F83452C4F82C521DF09A
:1040E000B1F930461BEE101A1BF0A0FB33213A2326
:1040F0001BEE900A009124227921FFF76EFDA84A59
:10410000C4F8B4224FF43451C4E9A1771BEE900AED
:10411000C4F88C72C4F89412C4F898520E99C4F87A
:1041200090521DF08FF930461BEE901A1BF07EFB6B
:1041300033213A231CEE100A00912422F621FFF7C6
:104140004CFD974AC4F818234FF43451C4E9BA77A8
:104150001CEE100AC4F8F072C4F8F812C4F8FC524D
:104160000D99C4F8F4521DF06DF930461CEE101A8A
:104170001BF05CFB2A461CEE900A5F21FFF720FD36
:1041800005231CEE900A10A9C4F84CA3A4F85053C0
:10419000ADF84430CDF840B01DF0DBFE30461CEEEB
:1041A000901A1BF043FB2A461DEE100A2946FFF722
:1041B00007FD04231DEE100A10A9C4F888A3A4F873
:1041C0008C53ADF84430CDF840B01DF0C2FE3046FF
:1041D0001DEE101A1BF02AFB2A461DEE900AE8215C
:1041E000FFF7EEFC06231DEE900A10A9C4F8C4A345
:1041F000A4F8C853ADF84430CDF840B01DF0A9FE86
:1042000030461DEE901A1BF011FB314618EE900A55
:1042100041261BF00BFB19EE100A00964FF49C731D
:1042200014221321FFF7D9FC4FF49C730B980096CE
:104230002A462946FFF7D1FC4FF0FF320B99C4F80C
:10424000242419EE100A1BF0F1FA0B221EEE100ABC
:104250002946FFF7B5FC07231EEE100A10A9C4F883
:1042600058A4A4F85C54ADF84430CDF840B01DF02B
:1042700070FE1EEE101A19EE100A1BF0D7FA242356
:104280000B221EEE900A00936721C923FFF7A5FCBD
:1042900004F274730826C4F8A0341EEE900A10A924
:1042A000C4F894A4A4F89854A4F87457ADF84460E2
:1042B000CDF840B01DF04DFE1EEE901A19EE100A1A
:1042C0001BF0B4FAF92719EE101A18EE900A1BF039
:1042D000ADFA00974FF49C73D52213214846FFF79F
:1042E0007CFC4FF49C730C9800972A462946FFF7F4
:1042F00074FC4FF0FF320C99C4F8F82448461BF0C8
:1043000095FA2A461FEE100A8021FFF759FC032375
:104310001FEE100A10A9C4F82CA5A4F83055ADF86A
:104320004430CDF840B01DF014FE1FEE101A484680
:104330001BF07CFA3E2231461FEE900AFFF740FC4C
:1043400009231FEE900A10A9C4F868A5A4F86C55BB
:10435000ADF84430CDF840B01DF0FBFD1FEE901AD3
:1043600048461BF063FA7C2231460298FFF728FC8E
:104370000A270298C4F8A4A510A9A4F8A855CDF856
:1043800040B0ADF844701DF0E4FD029948461BF0C2
:104390004DFABB22314607E0601C0120AE6E0308D7
:1043A000777777FF906103084046FFF709FC0B23FE
:1043B000404610A9C4F8E0A5A4F8E455ADF844308F
:1043C000CDF840B02F261DF0C4FD414648461BF0F5
:1043D0002DFA2B233E2203980096CD21FFF7FDFBFB
:1043E0007B4AC4F81CA61368A4F8205604F5F168AB
:1043F000002B3FF4D6AD77490B880D2B7FF6DBAD54
:10440000754B0D21186812F0C9FC744A03463946F1
:10441000404622F093FC10A80C230146C4F82886DD
:104420000398ADF84430CDF840B01DF092FD0399EB
:1044300048461BF0FBF92B237C2204980096CD21E3
:10444000FFF7CBFB624AC4F85CA61368A4F8605679
:1044500004F29C78002B3FF4A4AD5E490B880F2B2F
:104460007FF6A9AD5C4B0F21186812F097FC5B4AF0
:1044700003463946404622F061FC10A80E2301464F
:10448000C4F868860498ADF84430CDF840B01DF00B
:1044900060FD049948461BF0C9F92B23BB220598FF
:1044A0000096CD21FFF799FB494AC4F89CA61368F2
:1044B000A4F8A05604F5F668002B3FF472AD454908
:1044C0000B88112B7FF677AD434B1121186812F042
:1044D00065FC424A03463946404622F02FFC102331
:1044E0000598C4F8A88610A9ADF84430CDF840B0BE
:1044F0001DF02FFD059948461BF098F93E220698BD
:1045000000961C234FF48671FFF767FB1223069871
:10451000C4F8DCA610A9A4F8E056ADF84430CDF8F4
:1045200040B01DF016FD069948461BF07FF97C222D
:10453000079800961C234FF48671FFF74EFB132358
:104540000798C4F818A710A9A4F81C57ADF8443070
:10455000CDF840B01DF0FDFC079948461BF066F908
:10456000BB2208980096232340F20511FFF735FB84
:1045700014230898C4F854A710A9A4F85857ADF804
:104580004430CDF840B01DF0E4FC089948461BF0DB
:104590004DF918EE900A49461BF048F9201D19EE16
:1045A000901A02901BF042F9099902981BF03EF90B
:1045B00018EE101A02981BF039F9029818EE901AAA
:1045C0001BF034F9204613B0BDEC108BBDE8F08F22
:1045D000541C0120581C0120601C0120AE6E0308F1
:1045E0007047704710B59821044630F004F9204612
:1045F00010BD012908B505D11FF09EFBBDE808409C
:10460000FEF72ABC08BD70B5036804465B6B15460F
:1046100098472368294620469B6BBDE870401847A1
:10462000F7B50446254620F0EFFE00261A4BE66358
:1046300045F8403B04F16C072846FFF7E1FA38469D
:10464000FFF7DEFA31462846FFF764FA314628467E
:10465000FFF762FA28464FF4F0724FF44871FFF703
:10466000D2FF4FF07F434FF4F072A36638462667BF
:104670004FF44871FFF7C7FF084BC4F89430201D72
:10468000294601901BF0D2F8019839461BF0CEF86C
:10469000204603B0F0BD00BFF06E0308231107FFF2
:1046A0007047704710B544F60421044630F0A3F873
:1046B000204610BD012908B505D11FF03DFBBDE81E
:1046C0000840FEF7D9BB08BD10B50446FFF766FAEF
:1046D000024B23600023A362204610BD687B0308C1
:1046E00010B50446FFF78CFA034B23600023E36206
:1046F0002386204610BD00BFB489030810B50446C8
:10470000FFF792FA024B23600023E363204610BDBB
:104710000C89030810B4046CB4EB411F4FEA41123A
:1047200004D05DF8044B02641DF062B85DF8044BE0
:10473000704700002DE9F04F2DED108B0446E5B0D9
:1047400020F062FE22460025DD4BE56342F8403B47
:1047500010464492FFF754FA04F16C03184645934F
:10476000FFF74EFA04F1980318464693FFF7B8FF97
:1047700004F1CC0318461A93FFF756FA04F5847334
:1047800018464793FFF7ACFF04F59E7318461B933A
:10479000FFF74AFA04F5BC7318461C93FFF744FA76
:1047A00004F5DA7318461D93FFF7A8FF04F5FA73B2
:1047B00018461E93FFF738FA04F50C7318461F933A
:1047C000FFF79CFF04F51C7318462093FFF72CFAA3
:1047D00004F52B73184608EE103AFFF775FF04F541
:1047E000367318464893FFF77BFF04F5437318466A
:1047F0004993FFF775FF04F5507318464A93FFF786
:104800006FFF04F55D7318464B93FFF769FF04F5DE
:104810006A73184604F577784C93FFF761FF4046BA
:10482000FFF752FF04F5816318464D93FFF7E8F94F
:1048300004F2344318462193FFF7F6F904F58E632A
:10484000184622931CF07CFA04F2BC4318469D4E95
:104850005993FFF705FA04F2D443C4F8BC64184630
:10486000C4F8D0541093FFF749FF04F214531846CC
:104870002393FFF7D9F904F5AA6318462493FFF7A9
:104880003DFF04F5B263184604F2CC5A2593FFF7B6
:10489000CBF95046FFF718FF04F5BF6318464E9357
:1048A000FFF7AEF904F22463184626931CF048FA89
:1048B00004F5CE6318465893FFF7D2F904F5D16397
:1048C000C4F870661846C4F884562793FFF7ACF90D
:1048D00004F2C46318461193FFF710FF04F2047347
:1048E00018462893FFF70AFF04F2447318462993E9
:1048F000FFF79AF904F5F06318462A93FFF794F945
:1049000004F2BC7318460AEE103AFFF7DDFE04F518
:10491000FD6318464F93FFF773F904F61403184626
:104920002B93FFF781F904F5056318462C931CF0CF
:1049300007FA04F69C0318465793FFF791F904F61B
:10494000B403C4F89C681846C4F8B0581293FFF733
:10495000D5FE04F6F40318462D93FFF7CFFE04F6B8
:10496000341318462E93FFF75FF904F517631846C2
:1049700004F6AC1B2F93FFF757F95846FFF7A4FE38
:1049800004F6D81318465093FFF73AF904F60423B7
:1049900018463093FFF748F904F52463184631931D
:1049A0001CF0CEF904F68C2318465693FFF758F9FD
:1049B00004F6A423C4F88C6A1846C4F8A05A3293AB
:1049C000FFF732F904F52E6318463393FFF72CF9FD
:1049D00004F61C3318463493FFF790FE04F65C335C
:1049E00018461393FFF78AFE04F69C3318460AEE26
:1049F000903AFFF769FE04F6C83318465193FFF763
:104A0000FFF804F6F43318463593FFF70DF904F573
:104A10004363184636931CF093F904F67C4318461A
:104A20005593FFF71DF904F69443C4F87C6C1846BF
:104A3000C4F8905C3793FFF7F7F804F54D63184618
:104A40003893FFF7F1F804F60C5318463993FFF743
:104A500055FE04F64C5318461493FFF74FFE04F628
:104A60008C5318460BEE103AFFF72EFE04F6B8539F
:104A700018465293FFF7C4F804F6E45318463A93E5
:104A8000FFF7D2F804F5626318463B931CF058F91F
:104A900004F66C6318465493FFF7E2F804F6846357
:104AA000C4F86C6E1846C4F8805E3C93FFF726FE8F
:104AB00004F6C46318463D93FFF7B6F804E000BF60
:104AC000246F0308D483030804F5706318463E93EB
:104AD000FFF7AAF804F63C7318461593FFF70EFE8D
:104AE00004F67C7318460BEE903AFFF7EDFD04F6E2
:104AF000A87318465393FFF783F804F6D473184647
:104B00003F93FFF791F804F58053103341F25C07AF
:104B1000184604931CF014F9E31918466193FFF743
:104B20009FF841F27003E651E55004F583531433C6
:104B300018460DEE903AFFF7E1FD04F58553143366
:104B400018460EEE903AFFF76FF804F587531033CE
:104B500018460FEE103AFFF767F804F589530C3347
:104B600018460FEE903AFFF7C9FD04F58B530C334E
:104B7000184608EE903AFFF7A7FD04F58C5318335A
:104B800018461693FFF73CF804F58E530433184685
:104B90000593FFF749F804F5905341F24C27184666
:104BA00040931CF0CDF8E31918466093FFF758F8CE
:104BB00004F59353E651043343F8045C1846069316
:104BC000FFF79CFD04F59553043318460793FFF750
:104BD0002BF804F5975318464193FFF725F804F591
:104BE00098531C3318460293FFF788FD04F59A5337
:104BF0001C33184609EE103AFFF766FD04F59C5386
:104C0000083318461793FEF7FBFF04F59D53143342
:104C100018460893FFF708F804F59F53103341F244
:104C20003C47184609931CF08BF8E31918465F932C
:104C3000FFF716F841F25043E651E55004F5A25350
:104C4000143318460A93FEF7EFFF04F5A45310330C
:104C500018460393FFF752FD04F5A6531033184688
:104C60000B93FEF7E1FF04F5A8530C3318460C93A1
:104C7000FFF744FD04F5AA530C33184609EE903AA9
:104C8000FFF722FD04F5AB53183318461893FEF7CF
:104C9000B7FF04F5AD53043318460D93FEF7C4FF78
:104CA00004F5AF5341F22C67184642931CF048F8C4
:104CB000E31918465E93FEF7D3FF04F5B253E651AD
:104CC000043343F8045C18460E93FFF717FD04F510
:104CD000B453043318460F93FEF7A6FF04F5B653FA
:104CE00018461993FFF70AFD04F5B8531846439385
:104CF000FEF79AFF04F5B9531C3341F2B07718461A
:104D00000CEE103A1CF054FDE31918465D93FEF7C3
:104D1000A7FF41F2C473E651E55004F5BE530833D2
:104D200041F63C0718460CEE903A1CF041FDE319A1
:104D300018465C93FEF794FF41F65003E651E550A8
:104D400004F5C253143341F6C80718460DEE103A65
:104D50001CF02EFDE31918465B93FEF781FF41F628
:104D6000DC03E651E55004F5C75341F654171846E5
:104D70000EEE103A1CF01CFDE31918465A93FEF78C
:104D80006FFF41F6681304F5D950E65142F6E06131
:104D9000E55004301DF0B2FA4FF4F07344980093DC
:104DA0002A464FF448732946FEF717FF4FF07F431A
:104DB000A3664FF4F073459800932A464FF4487366
:104DC0002946FEF70AFFA7F579076FF403631F442E
:104DD0005423469800932A46EF232946C4F894703A
:104DE000FEF7FBFE4FF005094FF0FF3313221A9830
:104DF000C4F8C430A4F8C8902E21C4F8C070FEF7DF
:104E0000DFFE4FF0FF33344E1A98C4F8FC3062A92D
:104E10001523A4F80051ADF88C3162961DF099F875
:104E2000602347980093422240F2052340F21B1171
:104E3000FEF7D3FE4FF0FF335B221B98C4F83431EA
:104E4000A4F838914FF49571DFF8AC90C4F8307144
:104E5000FEF7B6FE16231B98C4F86C9162A9A4F85D
:104E60007051ADF88C3162961DF073F85B221C987E
:104E700040F21D21FEF7A4FE17231C98C4F8A89148
:104E800062A9A4F8AC51ADF88C3162961DF061F8BE
:104E90002F2300931D9823235B224FF4E671FEF726
:104EA0009CFE0E4BC4F8E4310D4BA4F8E8511B688E
:104EB00004F5CB5909F10C092BB90A4B0A4AAE216A
:104EC0000A482FF0C7FC0A4B1B88192B16D8094B30
:104ED000054AAF21F4E700BF90610308FAFAFCFF2E
:104EE000541C0120A56D0308E76D0308156E030827
:104EF000581C01205C6E0308F2F2FAFFD24B192114
:104F0000186811F04BFFD14A03460A21484621F0A8
:104F100015FF4FF018011D98C4F8F091ADF88C11F1
:104F200062A962961DF015F85B221E9840F2EF11FF
:104F3000FEF746FE4FF0FF311A231E98C4F82412E4
:104F4000A4F8285262A9ADF88C3162961DF001F8E0
:104F50002F210091242340F2B9211F985B22FEF7F4
:104F60003CFE4FF0FF31C4F86012B949A4F8645216
:104F70000B6804F5CC59002B9FD0B64B1B881C2B1B
:104F8000A5D9B14A1C21106811F008FFAF4A0346A9
:104F90000A21484621F0D2FE62A81B230146C4F82C
:104FA0006C921F98ADF88C3162961CF0D2FF5B2298
:104FB000209840F2DD21FEF703FE4FF0FF30C4F8E9
:104FC000A00262A84FF497791D230146A4F8A452C9
:104FD0002098ADF88C3162961CF0BBFF18EE100AD9
:104FE000CDF800904FF44873B2222946FEF7F5FD44
:104FF000A0232A464898CDF800902946FEF7EDFDFB
:105000004FF00500C4E9C0774899A4F8080318EEEA
:10501000100A1AF00BFCA02319462A464998CDF82D
:105020000090FEF7DAFD4FF00500C4E9CD7749990D
:10503000A4F83C0318EE100A1AF0F8FBA0232A4645
:105040004A98CDF800904FF4A071FEF7C6FD4FF0DE
:105050000500C4E9DA774A99A4F8700318EE100A3B
:105060001AF0E4FBA0232A464B98CDF800904FF4A9
:10507000F071FEF7B2FD4FF00500C4E9E7774B99F8
:10508000A4F8A40318EE100A1AF0D0FBA0232A46B5
:105090004C98CDF800904FF42071FEF79EFD4FF034
:1050A0000500C4E9F4774C99A4F8D80318EE100A67
:1050B0001AF0BCFB97200090A0232A4629464046C0
:1050C000FEF78BFD6C2096232B22009005214D9836
:1050D000FEF783FD4FF0FF304D99C4F83004404691
:1050E0001AF0A4FB0E2221981821FEF769FD4FF05B
:1050F000FF30C4F8640462A81E230146A4F8685473
:105100002198ADF88C314FF0500962961CF021FFC8
:10511000219940461AF08AFB4B466FF00F02229805
:10512000CDF800904F21FEF758FD4FF4F070C4F811
:10513000A8044FF434504FF4A067C4F8B0044FF003
:10514000FF305999C4F8D004C4F8A0742298C4F868
:10515000A474C4F8B454C4F8AC541CF073F9229984
:1051600040461AF063FB109821212C22FEF728FDFF
:105170003749A4F808554FF07F40C4F804050B6880
:1051800004F5CC5014302190002B3FF496AE314BF7
:105190001B88292B7FF69BAE2B4A2921106811F022
:1051A000FDFD2A4A03460A21219821F0C7FD2198D6
:1051B000C4F8100510981CF0AFFE62A82823014621
:1051C0001098ADF88C3162961CF0C3FE10994046E1
:1051D0001AF02CFB612223985C21FEF7F1FC4FF0C2
:1051E0007F40C4F8440562A82D230146A4F8485521
:1051F0002398ADF88C3162961CF0ABFE23994046A3
:105200001AF014FB2F2000902C23249826216122D1
:10521000FEF7E3FC0E49A4F884554FF07F40C4F834
:1052200080050B6804F5CD5008301090002B3FF43A
:1052300044AE084B1B882B2B7FF649AE024A2B212C
:10524000106811F0ABFD07E0601C0120AE6E030892
:10525000541C0120581C0120D24A03460A211098F0
:1052600021F06CFD1098C4F88C0562A82A23014631
:105270002498ADF88C3162961CF06BFE2499404660
:105280001AF0D4FA2C2225986021FEF799FC4FF0F1
:105290007F40C4F8C00562A833230146A4F8C45572
:1052A0002598ADF88C3162961CF053FE2599404646
:1052B0001AF0BCFA18EE100A41461AF0B7FA972015
:1052C000024629460090A0235046FEF786FC6C203B
:1052D00096232422009005214E98FEF77EFC4FF085
:1052E000FF304E99C4F8200650461AF09FFA4B46FC
:1052F0006FF014022698CDF800904F21FEF76DFC58
:105300004FF4F070C4F85C064FF43450C4F86406EF
:105310004FF0FF305899C4F86856C4F86056C4F886
:105320008406C4F854762698C4F858761CF08AF897
:10533000269950461AF07AFA2923072227980093D3
:1053400006216523FEF749FC4FF0FF30C4F8B8068C
:1053500062A81F230146A4F8BC562798ADF88C31EB
:1053600062961CF0F6FD279950461AF05FFA1198E4
:1053700021212422FEF724FC8B49A4F8F8560B685F
:105380004FF07F4004F5CD55C4F8F4061C35002BD2
:105390003FF493AD854B1B882F2B7FF698AD844A45
:1053A000844E1068DFF800922F2111F0F7FC7D4A3F
:1053B00003460A21284621F0C1FC1198C4F8005781
:1053C0001CF0AAFD4FF02E011198ADF88C1162A9C6
:1053D00062961CF0BEFD119950461AF027FA2F2153
:1053E00000912C2328985A222621FEF7F6FBD9F8A3
:1053F00000304FF07F47002504F5CE58C4F83477CD
:10540000A4F8385708F11008002B3FF456AD674B4D
:105410001B88312B7FF65BAD654A3121106811F096
:10542000BDFC604A03460A21404621F087FC302338
:105430002898C4F8408762A9ADF88C3162961CF0B8
:1054400088FD504628991AF0F1F95A2229985C21D2
:10545000FEF7B6FB32232998C4F8747762A9A4F842
:105460007857ADF88C3162961CF073FD504629993F
:105470001AF0DCF924222A986021FEF7A1FB4FF0F4
:105480002C012A98ADF88C11C4F8B07762A9A4F861
:10549000B45762961CF05DFD50462A991AF0C6F981
:1054A000514618EE100A1AF0C1F99721A0230A46B6
:1054B0001AEE100A00911946FEF78FFB6C21962315
:1054C00024224FF0FF384F9800910521FEF785FB0D
:1054D0004F99C4F810881AEE100A1AF0A7F929217A
:1054E00007222B98009165230621FEF776FB2023E7
:1054F0002B98C4F8448862A9A4F84858ADF88C31B8
:1055000062961CF026FD2B991AEE100A1AF08EF9FD
:1055100050210B466FF014022C9800914F21FEF79A
:105520005CFB4FF4A061C4F88018C4F884184FF4F1
:10553000F071C4F888184FF434512C98C4F89018BE
:10554000C4F894585799C4F88C58C4F8B0881BF024
:1055500079FF2C991AEE100A1AF068F91298242291
:105560002921FEF72DFBD9F80030C4F8E47804F5C2
:10557000CF5AA4F8E8580AF1040A002B3FF49DAC76
:105580000A4B1B883D2B7FF6A2AC094A3D211068CF
:1055900011F004FC034A03460A21504621F0CEFBD9
:1055A000129809E0AE6E0308541C0120581C01201B
:1055B000601C012090610308C4F8F0A81CF0ACFC4A
:1055C0003C231298ADF88C3162A962961CF0C1FCA4
:1055D00012991AEE100A1AF029F92F2100912C23A2
:1055E0002D985A222E21FEF7F8FAD9F80030C4F887
:1055F000247904F5CF5AA4F828590AF1180A002B87
:105600003FF45BACD34B1B883B2B7FF660ACD24A9C
:105610003B21106811F0C2FBD04A03460A215046D4
:1056200021F08CFB3A232D98C4F830A962A9ADF87B
:105630008C3162961CF08DFC2D991AEE100A1AF02E
:10564000F5F85A222E986021FEF7BAFA3F232E98D9
:10565000C4F8647962A9A4F86859ADF88C316296EF
:105660001CF077FC2E991AEE100A1AF0DFF82422AB
:105670002F986921FEF7A4FA3E232F98C4F8A07949
:1056800062A9A4F8A459ADF88C3162961CF061FCB3
:105690002F991AEE100A1AF0C9F81AEE101A18EE1D
:1056A000100A1AF0C3F897210091A02307229F2126
:1056B0005846FEF792FA6C219623242250980091C6
:1056C0000621FEF78AFA5099C4F8008A58461AF063
:1056D000ADF8292107223098009165230621FEF7B5
:1056E0007CFA21233098C4F8348A62A9A4F8385A85
:1056F000ADF88C3162961CF02CFC309958461AF0AB
:1057000095F850210B466FF0160231980091FEF784
:1057100064FA4FF4A061C4F8701AC4F8741A4FF414
:10572000F071C4F8781A4FF434513198C4F8801AE3
:10573000C4F8A08A5699C4F8845AC4F87C5A1BF05D
:1057400081FE319958461AF071F85A223298612137
:10575000FEF736FA39233298C4F8D47A62A9A4F84D
:10576000D85AADF88C3162961CF0F3FB329958464A
:105770001AF05CF8252233986A21FEF721FA3823C3
:105780003398C4F8107B62A9A4F8145BADF88C318F
:1057900062961CF0DEFB339958461AF047F82F2129
:1057A00000912C2334985A222A21FEF716FAD9F8B0
:1057B0000030C4F84C7B04F5D058A4F8505B08F1D5
:1057C0000C08002B3FF479AB624B1B88372B7FF61C
:1057D0007EAB614A3721106811F0E0FA5F4A034658
:1057E0000A21404621F0AAFA36233498C4F8588B8F
:1057F00062A9ADF88C3162961CF0ABFB3499584627
:105800001AF014F8139825222A21FEF7D9F9D9F8AD
:105810000030A4F8905BC4F88C7B04F5D155002BC4
:105820003FF44BAB4B4B1B88352B7FF650AB4A4AB2
:10583000DFF82CA11068352111F0B0FA474A034671
:105840000A21284621F07AFA1398C4F8985B1CF0D4
:1058500063FB34231398ADF88C3162A962961CF077
:1058600078FB5846139919F0E1FF594618EE100AD3
:1058700019F0DCFF97211AEE900A0091A02307226D
:105880004FF4A071FEF7A9F96C21962324224FF062
:10589000FF38519800910521FEF79FF95199C4F8FE
:1058A000F08B1AEE900A19F0C1FF2921002507227A
:1058B0003598009165230621FEF78FF9222335984C
:1058C000C4F8248C62A9A4F8285CADF88C314FF0A0
:1058D000500962961CF03DFB35991AEE900A19F0BA
:1058E000A5FF4B466FF016023698CDF80090512177
:1058F000FEF773F94FF4A061C4F8601CC4F8641C8F
:105900004FF4F071C4F8681C4FF434513698C4F861
:10591000701CC4F8745C5599C4F86C5CC4F8908C25
:105920001BF090FD36991AEE900A19F07FFF5A226B
:1059300011463798FEF744F945233798C4F8C47CDC
:1059400062A9A4F8C85CADF88C3162961CF001FB2A
:1059500008E000BF581C0120601C0120AE6E030847
:10596000541C012037991AEE900A19F05FFF242287
:1059700038986A21FEF724F944233898C4F8007D4A
:1059800062A9A4F8045DADF88C3162961CF0E1FACE
:1059900038991AEE900A19F049FF2C232F21009113
:1059A000399819465A22FEF718F9DAF80030C4F887
:1059B0003C7D04F5D15BA4F8405D0BF1140B002B8A
:1059C0003FF47BAAD24B1B88432B7FF680AAD14A97
:1059D0004321106811F0E2F9CF4A03460A215846E4
:1059E00021F0ACF942233998C4F848BD62A9ADF85A
:1059F0008C3162961CF0ADFA39991AEE900A19F0C2
:105A000015FF149824222721FEF7DAF8DAF800307F
:105A1000C4F87C7D04F5D25BA4F8805D0BF1080B23
:105A2000002B3FF44AAABA4B1B88412B7FF64FAAA2
:105A3000B84A4121106811F0B1F9B74A03460A216A
:105A4000584621F07BF91498C4F888BD1CF064FA1C
:105A500040231498ADF88C3162A962961CF079FA53
:105A600014991AEE900A19F0E1FE1AEE901A18EE47
:105A7000100A19F0DBFE97210A461BEE100A00916E
:105A8000A02340F24111FEF7A8F86C2196232422AE
:105A9000529800910421FEF7A0F85299C4F8E08DC5
:105AA0001BEE100A19F0C2FE292107223A98009134
:105AB00065230621FEF791F823233A98C4F8148E43
:105AC00062A9A4F8185EADF88C3162961CF041FA18
:105AD0003A991BEE100A19F0A9FE4B466FF014021A
