:020000040800F2
:1000000000000520450C0008512B0008532B000868
:10001000552B0008572B0008592B00080000000042
:10002000000000000000000000000000F1DD0108F9
:100030005B2B00080000000081DE0108E9D6010802
:10004000950C0008950C0008950C0008950C00080C
:10005000950C0008950C0008950C0008950C0008FC
:10006000950C0008950C0008950C0008950C0008EC
:10007000950C0008950C0008950C0008950C0008DC
:10008000950C0008950C0008950C0008950C0008CC
:10009000950C0008950C0008950C00085D2B0008D5
:1000A000950C0008950C0008950C0008950C0008AC
:1000B000950C0008652B0008950C0008950C0008AD
:1000C000950C0008950C0008950C0008950C00088C
:1000D000950C0008950C0008950C0008950C00087C
:1000E000950C0008950C0008950C0008950C00086C
:1000F000950C0008950C0008950C0008950C00085C
:10010000950C0008950C0008950C0008950C00084B
:10011000950C0008950C0008712B0008950C000840
:10012000950C0008950C0008950C0008950C00082B
:10013000950C0008950C0008950C0008950C00081B
:100140007D2B0008892B0008950C0008950C0008F1
:10015000950C0008950C0008950C0008950C0008FB
:10016000950C0008950C0008950C0008950C0008EB
:10017000950C0008950C0008950C00080000000084
:10018000950C0008950C0008950C0008950C0008CB
:10019000950C0008950C0008950C0008950C0008BB
:1001A0008D2B0008950C0008992B0008950C000871
:0401B000A52B000873
:1001C00010B5054C237833B9044B13B10448AFF391
:1001D00000800123237010BD680100200000000092
:1001E0003C5E030808B5034B1BB103490348AFF35A
:1001F000008008BD000000006C0100203C5E030888
:1002000001F0FF01102A2BDB10F0070F08D010F8C7
:10021000013B013A8B422DD010F0070F42B3F6D1CB
:10022000F0B441EA012141EA014122F007047FF0E4
:1002300000070023F0E80256083C85EA010586EA3B
:10024000010685FA47F5A3FA87F586FA47F6A5FA77
:1002500087F68EB9EED1F0BC01F0FF0102F0070283
:1002600032B110F8013B013A83EA010313B1F8D12E
:100270000020704701387047002D06BF354603380F
:10028000073815F0010F07D1013015F4807F02BF48
:10029000013015F4C03F0130F0BC0138704700BF99
:1002A00070B54FF0FF0C4CF4E06C1CEA11541DBF0C
:1002B0001CEA135594EA0C0F95EA0C0F00F0DEF8D7
:1002C0002C4481EA030621EA4C5123EA4C5350EABC
:1002D000013518BF52EA033541F4801143F480130D
:1002E00038D0A0FB02CE4FF00005E1FB02E506F09E
:1002F0000042E0FB03E54FF00006E1FB03569CF0F3
:10030000000F18BF4EF0010EA4F1FF04B6F5007FF8
:1003100064F5407404D25FEA4E0E6D4146EB06066A
:1003200042EAC62141EA55514FEAC52040EA5E50F3
:100330004FEACE2EB4F1FD0C88BFBCF5E06F1ED89D
:10034000BEF1004F08BF5FEA500E50F1000041EBD4
:10035000045170BD06F0004646EA010140EA020081
:1003600081EA0301B4EB5C04C2BFD4EB0C0541EAA3
:10037000045170BD41F480114FF0000E013C00F3B8
:10038000AB8014F1360FDEBF002001F0004170BDDC
:10039000C4F10004203C35DA0C341BDC04F11404F5
:1003A000C4F1200500FA05F320FA04F001FA05F281
:1003B00040EA020001F0004221F0004110EBD3704E
:1003C00021FA04F642EB06015EEA430E08BF20EA7A
:1003D000D37070BDC4F10C04C4F1200500FA04F31D
:1003E00020FA05F001FA04F240EA020001F00041AF
:1003F00010EBD37041F100015EEA430E08BF20EA22
:10040000D37070BDC4F1200500FA05F24EEA020E69
:1004100020FA04F301FA05F243EA020321FA04F098
:1004200001F0004121FA04F220EA020000EBD3704F
:100430005EEA430E08BF20EAD37070BD94F0000F4F
:100440000FD101F00046400041EB010111F4801F83
:1004500008BF013CF7D041EA060195F0000F18BF34
:10046000704703F00046520043EB030313F4801F70
:1004700008BF013DF7D043EA0603704794EA0C0F2A
:100480000CEA135518BF95EA0C0F0CD050EA410640
:1004900018BF52EA4306D1D181EA030101F00041BD
:1004A0004FF0000070BD50EA410606BF10461946E5
:1004B00052EA430619D094EA0C0F02D150EA0136F1
:1004C00013D195EA0C0F05D152EA03361CBF104632
:1004D00019460AD181EA030101F0004141F0FE41D1
:1004E00041F470014FF0000070BD41F0FE4141F455
:1004F000780170BD81F0004102E000BF83F000434D
:1005000030B54FEA41044FEA430594EA050F08BFAE
:1005100090EA020F1FBF54EA000C55EA020C7FEA72
:10052000645C7FEA655C00F0E2804FEA5454D4EBEF
:100530005555B8BF6D420CDD2C4480EA020281EAB9
:10054000030382EA000083EA010180EA020281EAF1
:100550000303362D88BF30BD11F0004F4FEA013143
:100560004FF4801C4CEA113102D0404261EB410152
:1005700013F0004F4FEA03334CEA133302D05242D8
:1005800063EB430394EA050F00F0A780A4F1010494
:10059000D5F1200E0DDB02FA0EFC22FA05F28018CE
:1005A00041F1000103FA0EF2801843FA05F35941B4
:1005B0000EE0A5F120050EF1200E012A03FA0EFC33
:1005C00028BF4CF0020C43FA05F3C01851EBE3715D
:1005D00001F0004507D54FF0000EDCF1000C7EEB7A
:1005E00000006EEB0101B1F5801F1BD3B1F5001FB8
:1005F0000CD349085FEA30004FEA3C0C04F10104D7
:100600004FEA445212F5800F80F09A80BCF1004FFF
:1006100008BF5FEA500C50F1000041EB045141EA81
:10062000050130BD5FEA4C0C404141EB0101013C4A
:1006300028BFB1F5801FE9D291F0000F04BF014639
:100640000020B1FA81F308BF2033A3F10B03B3F10B
:1006500020020CDA0C3208DD02F1140CC2F10C029B
:1006600001FA0CF021FA02F10CE002F11402D8BFF9
:10067000C2F1200C01FA02F120FA0CFCDCBF41EAC5
:100680000C019040E41AA2BF01EB0451294330BD94
:100690006FEA04041F3C1CDA0C340EDC04F1140471
:1006A000C4F1200220FA04F001FA02F340EA030048
:1006B00021FA04F345EA030130BDC4F10C04C4F18E
:1006C000200220FA02F001FA04F340EA030029466E
:1006D00030BD21FA04F0294630BD94F0000F83F4B8
:1006E000801306BF81F480110134013D4EE77FEA9B
:1006F000645C18BF7FEA655C29D094EA050F08BFE7
:1007000090EA020F05D054EA000C04BF19461046C7
:1007100030BD91EA030F1EBF0021002030BD5FEA0B
:10072000545C05D14000494128BF41F0004130BD33
:1007300014F580043CBF01F5801130BD01F0004587
:1007400045F0FE4141F470014FF0000030BD7FEAFA
:10075000645C1ABF194610467FEA655C1CBF0B46F5
:10076000024650EA013406BF52EA033591EA030F0C
:1007700041F4002130BD00BF90F0000F04BF002104
:10078000704730B54FF4806404F132044FF0000537
:100790004FF0000150E700BF90F0000F04BF0021B0
:1007A000704730B54FF4806404F1320410F0004516
:1007B00048BF40424FF000013EE700BF42004FEA11
:1007C000E2014FEA31014FEA02701FBF12F07F438E
:1007D00093F07F4F81F06051704732F07F4208BF45
:1007E000704793F07F4F04BF41F40021704730B54C
:1007F0004FF4607401F0004521F000411CE700BF98
:1008000050EA010208BF704730B54FF000050AE01A
:1008100050EA010208BF704730B511F0004502D51B
:10082000404261EB41014FF4806404F132045FEA1D
:10083000915C3FF4D8AE4FF003025FEADC0C18BFC6
:1008400003325FEADC0C18BF033202EBDC02C2F1B8
:10085000200300FA03FC20FA02F001FA03FE40EA4A
:100860000E0021FA02F11444BDE600BF4A0011D285
:1008700012F5001211D20DD56FF47873B3EB6252FA
:100880000ED44FEAC12343F0004343EA505323FA06
:1008900002F070474FF00000704750EA013002D17B
:1008A0004FF0FF3070474FF0000070474FEA4102B1
:1008B000B2F1E04324BFB3F5001CDCF1FE5C0DD9BE
:1008C00001F0004C4FEAC0024CEA5070B2F1004F08
:1008D00040EB830008BF20F00100704711F0804F0B
:1008E00021D113F13872BCBF01F00040704741F4D0
:1008F00080114FEA5252C2F11802C2F1200C10FAD4
:100900000CF320FA02F018BF40F001004FEAC123B7
:100910004FEAD32303FA0CFC40EA0C0023FA02F35B
:100920004FEA4303CCE77FEA625307D150EA013331
:100930001EBF4FF0FE4040F44000704701F0004001
:1009400040F0FE4040F40000704700BF53B94AB980
:10095000002908BF00281CBF4FF0FF314FF0FF30C7
:1009600000F06EB9ADF1080C6DE904CE00F006F8A8
:10097000DDF804E0DDE9022304B070472DE9F0471B
:10098000089D04468C46002B40F083808A4217461F
:1009900047D9B2FA82F242B1C2F1200024FA00F043
:1009A0009140974040EA010C94404FEA1748230CCD
:1009B000BCFBF8F61FFA87FE08FB16C143EA0143A9
:1009C00006FB0EF1994209D9FB1806F1FF3080F0C1
:1009D0001981994240F21681023E3B445B1AA4B24F
:1009E000B3FBF8F008FB103344EA034400FB0EFEAF
:1009F000A64509D93C1900F1FF3380F00581A645D1
:100A000040F2028102383C4440EA0640A4EB0E0466
:100A100000261DB1D4400023C5E900433146BDE89E
:100A2000F08702B9FFDEB2FA82F2002A50D1CB1B66
:100A30004FEA174E1FFA87F80126B3FBFEFC210C84
:100A40000EFB1C3341EA034108FB0CF38B4207D930
:100A500079180CF1FF3002D28B4200F2E980844613
:100A6000C91AA3B2B1FBFEF00EFB101143EA014418
:100A700008FB00F8A04507D93C1900F1FF3302D26A
:100A8000A04500F2D9801846A4EB080440EA0C40C7
:100A9000BFE78B4209D9002D00F0B1800026C5E9DF
:100AA000000130463146BDE8F087B3FA83F6002EE8
:100AB0004AD18B4202D3824200F2B880841A61EBA1
:100AC000030101208C46002DA8D0C5E9004CA5E704
:100AD000C2F1200320FA03F6974001FA02F04FEA30
:100AE000174ED9403043030CB1FBFEF61FFA87F8CE
:100AF0000EFB161143EA014306FB08F1994204FA82
:100B000002F409D9FB1806F1FF3C80F08D80994270
:100B100040F28A80023E3B445B1A81B2B3FBFEF096
:100B20000EFB103341EA034100FB08F38B4207D967
:100B3000791800F1FF3C73D28B4271D902383944E5
:100B4000CB1A40EA064678E7C6F1200C03FA06F411
:100B500022FA0CF31C4320FA0CF701FA06F34FEAD1
:100B6000144E21FA0CF11F433B0CB1FBFEF91FFAA6
:100B700084F80EFB191143EA014109FB08FA8A4582
:100B800002FA06F200FA06F308D9611809F1FF30FB
:100B900048D28A4546D9A9F102092144A1EB0A01AC
:100BA000BFB2B1FBFEF00EFB101147EA014700FB9C
:100BB00008F8B84507D9E71900F1FF312ED2B8453A
:100BC0002CD90238274440EA0940A7EB0807A0FBCC
:100BD00002894F45C64649461AD317D05DB1B3EBDB
:100BE0000E0267EB010707FA0CFCF2404CEA020226
:100BF000F740C5E9002700263146BDE8F0872E46BC
:100C000028460BE70646E9E61846FDE64345E5D2E9
:100C1000B8EB020E69EB04010138DFE70846D2E7C2
:100C200060468DE78146B9E7664675E730464AE794
:100C3000ACF1020C394413E702383C4424E700BF0E
:100C4000704700BFDFF834D0002103E00C4B5B5845
:100C5000435004310B480C4B42189A42F6D30B4ACE
:100C600002E0002342F8043B094B9A42F9D319F001
:100C700031F934F03FF901F083F9704700000520A5
:100C8000B4AB0308000000206801002068010020C8
:100C9000EC220120FEE700F0EFBD00F05DBE002178
:100CA000084618F07FBC002018F0B6BC40687047BA
:100CB00041607047054A136843F080731360044A2B
:100CC000136843F001031360704700BFFCED00E0C0
:100CD000001000E0511A01EB5301B1FBF3F0704733
:100CE000014B1868704700BF041000E0704710B552
:100CF0000C21044633F08FFF204610BD036810B569
:100D00001B69044631B19847A26863689B1A18446E
:100D1000606010BD9847A060FBE770477047000017
:100D200008B5FFF7BCFF024B00221A6008BD00BFE8
:100D30008401002070B50D46FFF7B5FF0B4A93788C
:100D400056781178D370C4B213F0010096705170C8
:100D500014700AD016F0010007D011F0010004D081
:100D6000E3075ABF01202870002070BD84010020D5
:100D700010B50421044633F04EFF204610BD7047E5
:100D800010B50421044633F046FF204610BD000094
:100D900008B54FF4F0714FF4487018F0E7FF074BB7
:100DA00010B901221A7008BD1B78002BFBD1044B2F
:100DB000044A0548242133F05DFF00BF880100206C
:100DC000E05E0308F35E03081D5F03087FB50B4B6D
:100DD0001C780E4615465CB101A819F005F89DF87F
:100DE000043043B1BDF806303360BDF80A302B60E3
:100DF000204604B070BD1C46FAE700BF8801002001
:100E000010B1012809D07047084B09481A68B2FA96
:100E100082F2520940211AF093BB044B05485A68EC
:100E2000B2FA82F252091021F5E700BF8C010020CE
:100E300000180240000C024010B1012809D0704790
:100E4000084B09481A68003A18BF012240211AF0DD
:100E500077BB044B05485A68003A18BF012210219D
:100E6000F5E700BF8C01002000180240000C024092
:100E700010B1012804D07047034840211AF065BB27
:100E800002481021FAE700BF00180240000C02409F
:100E900008B530B1012809D00020431E58425841FE
:100EA00008BD044840211AF045FBF6E7024810212E
:100EB000F9E700BF00180240000C024070B5084D71
:100EC00000240126E0B2FFF7E3FF18B12B68012BE5
:100ED00018BF2E600134052C05F10405F2D170BD58
:100EE0008C010020012380F8741080F87530704761
:100EF0000020704700207047836B0BB108461847ED
:100F000070474FF6FF707047406803689B69184749
:100F100070477047014B1868704700BF9C01002064
:100F20007047000038B50446094DFFF7C7FF20465B
:100F300000F094FD002384F84A302846FFF7BAFEFB
:100F4000012384F86C30034B2561636138BD00BF19
:100F5000A8010020A40100200368044607B59B6F88
:100F60009847236820461B6F984700F017FA2368BC
:100F700020469B6E984700210648009129231522A0
:100F80001AF0C7F800F00AFA236820469B6E9847CB
:100F9000F8E700BF0420012010B504461FF0DEFD75
:100FA00023682046D3F8A030BDE81040184700F071
:100FB00054BD00F06BBD00F06BBD00F03DBD00F016
:100FC00043BD00F067BD0000024B00221A701EF006
:100FD000B7BF00BF1400002010B504461EF0BCFFD0
:100FE00094F84B3013B1024B01221A7010BD00BFB0
:100FF000140000201EF06ABF10B57C21044633F0B7
:101000000AFE204610BD90F877301BB14068036897
:101010001B6818471846704730B590F8341090F8A0
:101020007440104B8C421A780DD05AB90E4A0F49B1
:101030000F4814880F4D0C8001881180298004808E
:1010400001221A7030BD002AFCD00948074A0188E5
:101050001180054A074D14882C80118004800022DD
:10106000EFE700BF641C0120601C0120661C01200A
:10107000621C0120681C012010B50C4C216031B9A4
:101080000B4B0C4A0C484FF4257133F0F3FDC0E9CB
:101090000F12003A0949436418BF01220A70003B4D
:1010A000074A18BF0123137010BD00BF9C01002028
:1010B000945F0308CC5F03081A6003086A1C0120D0
:1010C0006B1C0120012807B50AD84B7800930B78D8
:1010D0000848152200211AF01CF803B05DF804FB43
:1010E00001910B5C009339220346002101481AF05C
:1010F00021F8F2E70420012037B50B4A0B4C0223FC
:101100001525137055700192442200920021392256
:1011100020461AF00FF80021009135232A46204678
:1011200019F0F7FF03B030BDB40100200420012006
:1011300007B50190FFF7E0FF019803B05DF804EBFD
:1011400000F08ABC07B5074B03EB80002A2301900F
:101150000093392204230021034819F0EBFF03B068
:101160005DF804FB040000200420012070B5154D3B
:1011700004460020FFF744FE2A6892F866300133E7
:1011800082F8663000F0FEF80F4B28681A781B785A
:1011900080F84A2023B10D4D2B7803F0FF0623B1D0
:1011A000BDE870400020FFF747BE1FF0D7FC084B9A
:1011B00030461E60FFF7C6FF204619F09AFF012354
:1011C0002B7070BD6C1C012014000020B6010020A3
:1011D000A0010020304B314A70B505461868304CEC
:1011E000013018602F4B03281E682ADCD4F8041441
:1011F0004FF4C87303FB006321F00801C4F8041422
:1012000093620CBFE823C823023327491B0443F42D
:10121000F1730B61254B4B61A3F5F0735360244BC5
:10122000D36201234B62FFF78DFF1D4AD2F80434CD
:1012300043F008032846C2F80434BDE8704019F0B2
:1012400058BFD4F804341B4923F00803C4F804340D
:10125000154B9662196101F10111596116495160EE
:101260001349D16201225A620020FFF76BFFD4F8C4
:10127000043443F00803C4F804340020FFF7DCFD15
:101280000E4B00221A700E4B186820B10368BDE89F
:101290007040DB69184770BDA001002084680140E0
:1012A000006C01409C01002000680140E301CA007D
:1012B00093018006E201CA000300CA00B6010020C3
:1012C0006C1C012008B5044B0146186801B10121CE
:1012D0001FF05EFC012008BD6C1C0120054B064878
:1012E00000225A609A60054A1A60054B0360FFF7B6
:1012F00017BD00BFA8010020A4010020A45E0308C0
:10130000CC5E0308012108B5002208461CF08EFAC5
:101310000A4B186028B90A4B0A4A27210A4833F0B9
:10132000A9FC0022042101201CF01EFB074B1860C1
:1013300018B9074B034A2B21F0E708BDBC01002078
:101340002C61030875610308A4610308B80100203B
:1013500002620308024B4FF0FF3118681CF0B0BA6C
:10136000BC010020014B18681CF0D6BABC0100205B
:10137000024B002118681CF0A3BA00BFBC0100207A
:10138000FFF7F0BF03480449006800231A461CF029
:1013900027BB00BFB80100201800002013B5084C7F
:1013A00000231A4601A920681CF04AFB20684FF070
:1013B000FF33002201A91CF043FB02B010BD00BFA7
:1013C000B80100201CF014BA03685B6C18470120B8
:1013D000704703689B6A184782B0002301930D4B46
:1013E0001A6B42F400021A631A6B02F400020192B3
:1013F000019A1A6942F400021A611A6922F4000281
:101400001A61054B054A1A61054B4FF080629A60DC
:1014100002B07047003802403C2101202D14000822
:1014200000E100E040F2EF3070470000024B1B6823
:10143000586803685B6918476C1C012008B50B28C5
:101440000BD8DFE800F01206100A0A0A0A0808089A
:101450000808012008BD0520FCE7054B054A0648A1
:10146000652133F007FC0020F4E70220F2E700BF1B
:10147000446203085F620308AB62030808B50A28E8
:1014800009D8DFE800F010060E080808080606066E
:101490000600012008BD054B054A0648862133F0A9
:1014A000E9FB0020F6E70220F4E700BF44620308EE
:1014B00007630308AB6203082DE9F84391F81D8028
:1014C0000C464046FFF7BAFFA77F05463846FFF7B0
:1014D000B5FF06463846FFF7D1FFA18A628B534B12
:1014E000521A1A649A61228B521A1A61E28A58635C
:1014F00042EA01425A6421696268D963DA60D4F829
:1015000000C094F81C90BCF1800F4FEA09629E461F
:101510003BD015D8BCF1200F45EA020079D0BCF1D0
:10152000400F76D0BCF1040F2BD0404B2A4342F43D
:101530000032B845DA6114BF3D4A40F201221EE094
:10154000BCF5807F07D0BCF5007FEED142F40032BD
:1015500042F0090203E042F4003242F00A02DA618A
:10156000E0680202440102F4780204F47C44C00002
:101570002243C0B202431A622E4A5E6259611A6067
:1015800043E040F40030D861F6E7A0682A4342F413
:101590000032041DDC62DA6102785E62596142B198
:1015A000012A1CD0244B254A25484FF4887133F07A
:1015B00061FB4288D969501E21F47F4222F010025B
:1015C00042EA0022DA610125184CE36943F0200366
:1015D000E361E3699B0613D5FFF7F4FEF9E7428860
:1015E000D969501E21F47F4222F0100242EA002203
:1015F000B9F1FF0542F0100218BF0125DA61E3E7F7
:101600001023A3601DB10B4B2360BDE8F883084B8A
:10161000FAE7084B40F40030CEF81C00CEF8246006
:10162000CEF81410CEF80030EFE700BF00B0024053
:101630000102010001020200546303086E63030803
:10164000AB620308F8B58E7F0C463046FFF716FFF5
:10165000A78AE18A628B1E4B2569586341EA0741DC
:10166000D21B5964DD631A642168082918D19A6174
:101670001A615862217F174A42EA0162DA61E16821
:101680000A02480102F4780200F47C40C9000243D7
:10169000C9B20A431A62104A5D61DD601A60F8BD82
:1016A0000022D8611A61E1681EB99963084B0B4AA0
:1016B000F4E70A02480102F4780200F47C40C90011
:1016C000C9B202430A43217F42EA01629A63EDE70D
:1016D00000B0024009000100010202000102030003
:1016E000054B0360054B4FF08062C3F88820BFF3C1
:1016F0004F8FBFF36F8F7047B863030800E100E0BE
:1017000010B50446FFF7ECFF20464FF4426133F07A
:1017100082FA204610BD000070B5044625460A4BEB
:101720000C30002660602672667245F8203B60220D
:1017300029461FF065FB04F54263EE602035AB429D
:10174000FBD1204670BD00BFB8630308012070477D
:101750000C2070470C2303FB0100083070470C235A
:1017600003FB0100083070470120704747F2FC502E
:10177000704747F2FC5303FB01000830704747F203
:10178000FC5303FB01000830704701207047102014
:10179000704700EB01100830704700EB0110083073
:1017A0007047084601F060BC10B5034B0360044667
:1017B0001EF0A0F9204610BD7064030810B5044661
:1017C000FFF7F2FF2046142133F025FA204610BD22
:1017D00010B5034B036004461EF08CF9204610BD83
:1017E0003C64030810B50446FFF7F2FF204647F2B9
:1017F000046133F010FA204610BD000010B5034B11
:10180000036004461EF076F9204610BD0864030804
:1018100010B50446FFF7F2FF2046182133F0FBF91C
:10182000204610BD10B5094B0360044600F5EC409E
:101830003030FFF7B9FF04F12C00FFF7C9FF04F1C6
:101840001400FFF7DBFF204610BD00BFA4640308AF
:1018500008B50248FFF7E6FF08BD00BFC40100203D
:1018600010B50446FFF7DEFF204647F2A47133F0BF
:10187000D2F9204610BD00002DE9F34101F036FBFE
:10188000054601F037FB0024014623462846224640
:10189000009425F0EBFE244B244A254D1A60204687
:1018A00015F002FA234825F023FE2B78BFF35B8F57
:1018B000DB0733D4284633F0B0F978B31E4C1F4F02
:1018C0001F4B236007F11C0604F1140004F12C08DF
:1018D0006060C4F80880E76026611EF00DF9194BBE
:1018E000636140461EF008F9174BE36238461EF06C
:1018F00003F9164B3B6007F1140015F065FA224618
:1019000007F11401304615F055FA304601F0ACFBF2
:10191000284633F08EF90E4833F0CAF90D4802B06C
:10192000BDE8F041FFF7FEBAE81C01200886002060
:10193000C00100201C000020C4010020F47700201A
:10194000A4640308086403083C6403087064030883
:10195000511800088C8500200148FFF7FDBA00BF30
:101960008C85002070B5244C244E254B254D2360DA
:101970003046FFF7D1FE284628F0FCFE224B00221D
:101980004FF48071C3E912122049DC60C3E91912D7
:101990004FF080715967012183F878101C491D4C64
:1019A0000B601D491A854FF4507008804FF4F07198
:1019B000C3E90422C3E90622C3E90822C3E90E22CF
:1019C000C3E91022C3E91422C3E9162283F82A20AE
:1019D000DA621A861A6683F86C201A67C3E9016511
:1019E00021800E4C83F8342022700D4C0D4A20804B
:1019F0000D481A60018070BD687900206C79002064
:101A0000845F03080C8600208C8500200100000103
:101A10006C1C0120621C0120601C0120641C012040
:101A2000661C012068600308681C01200148FFF75C
:101A300057BE00BF6C790020024B902283F85A23D6
:101A4000704700BF00E100E0024B4FF080629A60F7
:101A5000704700BF00E100E07047704738B50446AA
:101A60001EF087FA2368DD6D22F076FB01462046E2
:101A7000A8472368D3F8805000231A464FF040410E
:101A80002046A847012384F84A3038BD1EF024BA06
:101A90001EF07DBB044B4FF08062C3F88820BFF37B
:101AA0004F8FBFF36F8F704700E100E07FB50023D9
:101AB0000121CDE903310293642302460093694674
:101AC000034B044818F086FB07B05DF804FB00BF29
:101AD000A01F012010210120A0F5977057289ABF60
:101AE000014B185C00207047B06403080000000040
:101AF0002DE9F04FBA4C89B02346002101AA18F015
:101B0000B9FB019940F28223994211D1A378E07880
:101B100003EB0020FEF740FEADA3D3E90023FEF760
:101B2000BFFBFEF7A3FEAF4B186009B0BDE8F08F16
:101B3000B1F5407F06D1AC4B01221A602278AB4B45
:101B40001A70F2E7A1F59673132B34D8A84B012233
:101B500008461A60FFF7C0FFA64A52F820305C1C06
:101B600013F0010342F82040A34A0ED0CB0716D54C
:101B70000823102111FB0030994C024414F8011B7A
:101B800002F8011B013BF9D1CFE704B202EB0414C8
:101B90001D460133102B04F8015BFAD1E6E700B2D1
:101BA0008F4902EB0012082311F8010B02F8010B18
:101BB000013BF9D1B9E765291ED18D4B01221A608D
:101BC0008E4B22781A706278A37803EB022364228A
:101BD000B3FBF2F38A4A1380E278237903EB022302
:101BE000884A1380884B62791A70A279E37903EBF3
:101BF0000223864A138098E7662927D1844BE07830
:101C000001221A60A37807EE903AF8EE677AF2EEB6
:101C1000046A87EEA67A7F4B83ED007AFEF7BCFD5F
:101C20006DA3D3E90023FEF73BFB7B4B0022FEF7BD
:101C300037FBFEF73BFE794B62791860784B1A70E0
:101C4000784BA2791A70E279774B79E7A1F5AF73F7
:101C5000132B5BD8664B754D012208461A60FFF7BF
:101C60003BFF734A52F820305C1C13F0010F42F81E
:101C70002040704A4FEA80041FD0131911F0010F61
:101C800093ED007ADFED6C6A25D02021382313FB19
:101C90000010534E2844062116F8013B03EB830342
:101CA00007EE903AF8EEE77A013967EEA67A37EE5A
:101CB000277AE0EC017AEFD124E0131900261E60A8
:101CC00003B2C3EBC30305EBC3030E27013F43F885
:101CD000046BFBD1D1E700B2C0EBC000404E05EB76
:101CE000C000082116F8013B03EB830307EE903A8E
:101CF000F8EEE77A013967EEA67A37EE277AE0EC5C
:101D0000017AEFD1224482ED007A0EE7A1F5BE738D
:101D1000092B25D8364B012208461A60FFF7DCFE56
:101D2000464B03EB800300221A6000B2444AC0EB2A
:101D3000C00002EB8000072214F8011B93ED007A2B
:101D400007EE901AF8EE677AF4EEC77AF1EE10FA21
:101D5000C8BFC3ED007A013AE0EC017AECD1E4E6C9
:101D6000B1F5C87F27D12A4BDFF8E0B0DFF8E0A05B
:101D7000294F0FF26409D9E9008901221A6004256C
:101D8000002614F8010BFEF707FD42464B46FEF70E
:101D900087FA3B463246FEF783FAFEF787FDE37883
:101DA0004BF8040B07EE903AF8EE677A013DEAEC47
:101DB000017AE6D1B9E696294CD10B4B01221A6083
:101DC000204B62781A70A2781F4BB9E6AFF30080FF
:101DD000616D8C9DF0127C3F90D1BE500000293F78
:101DE000E08C0020EC8C0020C08C0020F48C0020C3
:101DF000CC8C0020501F012054880020DD8C002056
:101E0000908C0020528800201C89002050880020DF
:101E1000D48C0020BC8C002000007040948C0020EA
:101E20009B8C0020C88C0020C98C0020608A002078
:101E3000781F0120388A00200000803BF4880020B1
:101E400020890020DE8C0020DF8C0020AC8C00205C
:101E50009C8C002040F2911399427FF466AE054BB2
:101E6000A27801211960044B2178197061785970AA
:101E70009A705AE6D48C0020988C002010B5114C32
:101E80008AB00121204618F06CFA0221204618F091
:101E900068FA1021204618F064FA00230F22CDE9D9
:101EA0000523CDE90033CDE90233049369460123CC
:101EB0002046CDE9073318F0D7F8204618F05CF932
:101EC0000AB010BD10210120014900201DF030B9D9
:101ED000C512000808B564201BF09CFCFBE700005D
:101EE00030B595B01022002109A833F049F814222A
:101EF000002102A833F044F800241F4B00941A6C10
:101F000042F080521A641B6C03F080530093009BD4
:101F10001A4B01941A6842F440421A601B6803F499
:101F2000404301930122019B4FF48033CDE9072305
:101F300002254FF480030821CDE90D534FF4B4730B
:101F4000CDE90F1304200623CDE9120307A811954C
:101F50001AF0B6FE1AF006F90F23CDE90235049403
:101F60004FF480534FF4A054052102A8CDE9054356
:101F70001AF07AFC15B030BD003802400070004005
:101F80002DE98048BBB017F0B3FFFFF7A9FF14227B
:101F900000212DA8002432F0F3FFC54B03941A6BE7
:101FA000C44842F010021A631A6B02F01002039246
:101FB000039A04941A6B42F002021A631A6B02F03D
:101FC00002020492049A05941A6B42F040021A63CA
:101FD0001A6B02F040020592059A06941A6B42F0C1
:101FE00008021A631A6B02F008020692069A079416
:101FF0001A6B42F480721A631A6B02F480720792B1
:10200000079A08941A6B42F020021A631A6B02F0C6
:1020100020020892089A09941A6B42F480621A63AB
:102020001A6B02F480620992099A0A941A6B42F0C0
:1020300080021A631A6B02F080020A920A9A0B94C9
:102040001A6B42F004021A631A6B02F004020B923C
:102050000B9A0C941A6B42F001021A631A6B02F08D
:1020600001020C920C9A0D941A6B42F400721A63DE
:102070001B6B03F4007322464FF488610D930D9B94
:1020800019F05EFA8C480122082119F059FA8B48A0
:102090002246102119F054FA22468948802101274E
:1020A00019F04EFA4FF4806A82482DA91125CDE926
:1020B0002DA7CDE92F4419F0B5F808237E482DA9A6
:1020C0004FF00208CDE92D354FF01009CDE92F442E
:1020D00019F0A8F879482F942DA98026CDE92D97DD
:1020E000CDF8C08019F09EF876482F942DA9CDE93F
:1020F0002D6419F097F840236E482DA9CDE92D37AE
:10210000CDE92F4819F08EF803236D4830932DA99F
:10211000CDE92D652F9419F085F84FF4881320220E
:1021200069482F942DA9CDE92D2319F07BF822467B
:102130000521172018F042FA172018F071FA6348A9
:10214000634D644B036018F08DFA634BC5E90A4494
:10215000C5E90C442846C5E90034C5E9024418F035
:1021600095FB3946284618F049FC3146224654482A
:1021700019F0E6F9142017F0E7FE3A4631465048C8
:1021800019F0DEF90A2017F0DFFE2422214617A8F5
:1021900032F0F6FE1822214611A832F0F1FE342268
:1021A00021462DA832F0ECFE2C2221460DEB060034
:1021B00032F0E6FE494E4A4B10940425C6E900343D
:1021C0000EA97D233046C6E90257CDE90E3818F036
:1021D000DDFC17A93046CDE91774CDE91944CDE9E6
:1021E0001B44CDE91D441F9418F0FAFE1C21212345
:1021F000CDE911130F201923CDE9130311A930469E
:10220000CDE9154418F0AFFE2946304618F09AFE85
:1022100042F21071304618F0EEFF2146304618F0B9
:1022200052FC4FF4807C4FF400734FF4006ECDE904
:102230002DC34FF48053CDE930E34FF4804B4FF47E
:1022400000534FF48032CDE9323B4FF40033CDE9F7
:1022500034234FF480214FF40023CDE93613304668
:102260004FF080732DA9CDE93838CDF8BCA018F017
:1022700035FEC82320A93046CDE92239CDE92445D1
:102280002A97CDE92044CDE92684CDE9284418F0E9
:10229000B3FD2146304618F09EFD124812490462F3
:1022A0004FF0200CC0E9001440234FF4C0711DE032
:1022B000003802400018024000280240000C024092
:1022C000001C02400008024000000240FC1F0120E8
:1022D0003C2101200030024000B0024004200120D7
:1022E000006C01407C210120400100A0C0E904C332
:1022F000C0E906144FF480530721CDE92E15C0E93B
:10230000093B309103232DA9CDE93138C0E90245BD
:10231000CDF8B480CDF8CC801AF088FE17F010FD0F
:1023200017F0C0FC2146342220A832F029FE6E4D61
:102330006E4AAC864FF0CA0EC5E900244FF4F17224
:10234000C5E909E2CB2340F2E3122846C5E90B3286
:10235000C5E90447C5E90678C5E90244C5F8208007
:1023600085F8364019F0C8FDFF21C8234FF4F072FC
:10237000CDE9251405204FF04041CDE92801CDE9F4
:102380002A3220A9CDE9232828462246CDE9213446
:102390002094CDF89CA0ADF8B0408DF8B24019F073
:1023A00077FE2A68936923F001039361304618F0A1
:1023B0007DFE3946404616F037FE28231522214679
:1023C0003046009418F0A5FE2DA93046CDE92D44E5
:1023D000CDE92F44CDE93144CDE93344CDE935444D
:1023E000379418F07BFD4FF448712246284619F0C7
:1023F0007DFE2A683E4893693E4D3F4E3B439361C4
:102400003E4B0462C0E900371B23C0E9043AC0E92F
:102410000279C0E9064419F0BDFF17F009FB17F077
:102420003DFA17F0B3F9364B2C622846C5E9006334
:10243000C5E90244C5E904B4C5E9064419F078FACF
:10244000284619F01DFB2F4F2F48304D8461032380
:102450004FF4302CC0E9007384834FF48013C0E93B
:1024600004C3C0E9024417F083FD4A4621462DA863
:1024700032F086FDDFF8B0E0AC604AF6C873C5E91B
:1024800000E3284641F27073C5E90334CDE92044E6
:10249000AC611AF069FF4FF480532DA928462D93A3
:1024A0001AF098FF20A92846CDE920441BF02EF809
:1024B000FEF7F1FBFFF7E2FC00F0B2FC28461AF051
:1024C0000DFE1BF01FF9124A124821461BF046F977
:1024D000114B124A1860214611481BF03FF9114B6D
:1024E00018601BF021F9FEE7682001200068014018
:1024F000B0210120A81F012000540040001000A0BE
:10250000801A0600006800401021012020200120D0
:1025100048650308D51E0008A41F01202465030890
:102520009B0C000838210120000400407047000087
:1025300082B00E4B00220092596C41F480415964E4
:10254000596C01F48041009100990192196C41F09D
:10255000805119641B6C03F080530193019B0F2180
:102560006FF0010002B018F029B800BF0038024037
:1025700010B5044688B01422002103A832F000FDF3
:102580002268224B9A423ED103F5E833002400949E
:102590001A6C1F4842F080621A641A6C02F0806262
:1025A0000092009A01941A6C42F000721A641A6C3C
:1025B00002F000720192019A02941A6B42F0020238
:1025C0001A631B6B059403F00203029342F220028C
:1025D000029B0223CDE9032303210923CDE906133E
:1025E00003A918F01FFE22460521402017F0E6FF40
:1025F000402018F015F841202246052117F0DEFF93
:10260000412018F00DF808B010BD00BF0068004070
:10261000000402400268094B9A4282B00BD10023A9
:102620000193074B1A6B42F480521A631B6B03F43D
:1026300080530193019B02B0704700BF00300240FD
:102640000038024007B50F4B02689A4216D10022AB
:10265000A3F5F0430192196B41F4000119631B6B60
:1026600003F40003019305215A20019B17F0A6FFF4
:102670005A2003B05DF804EB17F0D2BF03B05DF849
:1026800004FB00BF00B0024010B5044688B014221D
:10269000002103A832F074FC2268184B9A422AD118
:1026A00003F54C43002401945A6C154842F0006233
:1026B0005A645A6C02F000620192019A02941A6BF9
:1026C00042F400721A631B6B03F40073029304223A
:1026D000029B0223CDE9032303A90D230793CDE930
:1026E000054418F09FFD5C202246052117F066FF87
:1026F0005C2017F095FF08B010BD00BF006C0140D2
:102700000024024030B5044689B01422002103A8F9
:1027100032F036FC22681A4B9A422FD1194C1A48D3
:1027200000250195236B43F002032363236B03F021
:1027300002030193019B4FF440721223CDE903235E
:1027400001210323CDE90513042303A9079318F0FE
:1027500069FD0295236C43F400132364236C03F496
:1027600000130293029B236A43F400132362236A3B
:1027700023F400132362642017F0E6FB09B030BD98
:1027800000540040003802400004024008B50268CE
:102790000A4B9A4210D10A4A0A48136C23F40013D8
:1027A00013644FF4807118F023FEBDE8084005481B
:1027B0004FF4007118F01CBE08BD00BF005400406B
:1027C000003802400004024010B5044690B03C229C
:1027D000002101A832F0D4FB2268134B9A4221D188
:1027E000082301934FF4B47305930024062301A832
:1027F00008930B941AF002F908B1FFF797FE0B4B00
:1028000000945A6C42F080625A645B6C03F08063FF
:102810000093582000220521009B17F0CFFE58207E
:1028200017F0FEFE10B010BD0068014000380240F5
:10283000F0B5044689B01422002103A832F0A0FBB1
:102840002268244B9A4243D1234B2448002400940D
:102850009A6B42F002029A639A6B02F002020092B3
:10286000009A01941A6B42F002021A631A6B02F08A
:1028700002020192019A02941A6B42F020021A633A
:102880001B6B059403F02003029302260325029B91
:102890000A27402303A9CDE90336CDE9065718F0EE
:1028A000C1FC4FF49863CDE903360D48092303A911
:1028B0000793CDE9054518F0B5FC4FF4407308487F
:1028C000079703A9CDE90336CDE9054518F0AAFC21
:1028D00009B0F0BD001000A0003802400004024022
:1028E0000014024008B50268094B9A420FD1094A08
:1028F0000948936B23F002039363402118F078FD9D
:10290000BDE8084005484FF4F86118F071BD08BDF6
:10291000001000A0003802400004024000140240F1
:1029200007B50F4B02689A4216D1002203F50D330A
:102930000192196C41F0020119641B6C03F002034F
:10294000019305211D20019B17F038FE1D2003B0C7
:102950005DF804EB17F064BE03B05DF804FB00BF44
:1029600000040040F0B5314B1C6887B0002C5BD1EF
:1029700001221A602E4B00949A6B2E4842F00102FD
:102980009A639B6B039403F00103009302270326D1
:102990000C25009B01A94FF68373CDE90137CDE9E2
:1029A000046518F03FFC48F233132348059501A94C
:1029B000CDE90137CDE9034618F034FC4CF203733E
:1029C0001E48059501A9CDE90137CDE9034618F068
:1029D00029FC40F2FF631A48059501A9CDE90137AA
:1029E000CDE9034618F01EFC4FF63F031548059548
:1029F00001A9CDE90137CDE9034618F013FC4FF4E6
:102A00007F431148059501A9CDE90137CDE903467A
:102A100018F008FC0D230D48059501A9CDE90137F3
:102A2000CDE9034618F0FEFB07B0F0BD8886002014
:102A3000003802400010024000180240000C024022
:102A40000020024000140240001C02400008024026
:102A500008B5174B1A6852BB01221A60154A16486E
:102A6000936B23F0010393634FF6837118F0C0FC5E
:102A7000124848F2331118F0BBFC11484CF20371B4
:102A800018F0B6FC0F4840F2FF6118F0B1FC0E4898
:102A90004FF63F0118F0ACFC0C484FF47F4118F0A2
:102AA000A7FCBDE808400A480D2118F0A1BC08BDEC
:102AB00084860020003802400010024000180240C6
:102AC000000C02400020024000140240001C0240A2
:102AD0000008024030B5014689B00022362017F0C8
:102AE0006DFD362017F09CFD0025154B02951A6CE4
:102AF000144C42F010021A641B6C03F01003029392
:102B000001A903A8029B19F05BFF19F049FF0E4BC6
:102B1000236040F2E733E36040000C4BB0FBF3F07E
:102B20000138606020462561A5601AF01DFC20B9BF
:102B300020461AF0D3FA09B030BD0120FBE700BFF0
:102B400000380240FC2101200010004040420F00EC
:102B50007047FEE7FEE7FEE7FEE77047202018F02B
:102B6000FFBC000001481AF0F7BA00BF2020012086
:102B700001481AF0F1BA00BFFC210120014817F00A
:102B80000DBC00BF10210120FFF7F8BF014819F06C
:102B900022BA00BF68200120014817F0A5BE00BF7F
:102BA0003C210120014818F0A4B800BF04200120F6
:102BB0000120704708B532F08FF8162303604FF0FC
:102BC000FF3008BD08B532F087F816230360FEE732
:102BD00070B50E4614460025A54201DB204670BDA7
:102BE000AFF3008070550135F6E770B50E46144618
:102BF0000025A54201DB204670BD705DAFF300806B
:102C00000135F6E74FF0FF3070474FF400534B604B
:102C100000207047012070470020704708B50A4B1C
:102C20001968024609B909491960186869460244D9
:102C30008A4206D932F050F80C2303604FF0FF307F
:102C400008BD1A60FCE700BF8C860020F02201203E
:102C50002DE9F047314EDFF8CC90DFF8CCA000270B
:102C600037603C46B8463D468021484618F062FC35
:102C700020B91DB917F062F90124054680214846A4
:102C800018F058FC60B15CB117F058F9401BB0F572
:102C9000AF7F05D9336813BB012333600024254679
:102CA0002021504618F046FC30B9B8F1000F03D18E
:102CB00017F044F9012780462021504618F03AFCCD
:102CC0000028D1D0002FCFD017F038F9A0EB0800A2
:102CD000FA28C9D9124B1F600027B846C4E7012B58
:102CE00001D10223D9E7022B01D10323D5E7032B1E
:102CF00001D10423D1E7042B01D10523CDE7052B16
:102D000001D10623C9E7062B01D10723C5E7072B0D
:102D100001D10823C1E7082BC0D1BDE7E88C002012
:102D2000F08C0020000802400000024083B5194BDF
:102D3000194E1A4F00221A70194A012313608DF898
:102D40000430B046174C3378022B02D03378052B71
:102D500008D1236833B101A8FEF7A8FE4FF47A70BA
:102D60001CF0C2F90025256098F80030072BEAD145
:102D700001224FF48061384618F0E2FB40F6B8308B
:102D800017F0E2F82A464FF48061384618F0D8FB75
:102D90002560D7E7DC8C0020F48C0020001802406E
:102DA000E88C0020F08C00200268154B9A4210B588
:102DB000044601D117F0B6F82268124B9A4214D19A
:102DC000114A124B116889B1002119601160104A33
:102DD000104B116869B10021196011600E4A0F4B48
:102DE000116849B100211960116010BD01221A60FB
:102DF000EDE701221A60F1E701221A60F5E700BF52
:102E00000010004000040040C08C0020C48C002052
:102E1000D48C0020D88C0020CC8C0020D08C0020BA
:102E200037B5002224210A201BF05AFA0D4B1860F6
:102E300001201BF06FFB0C4B0C491860002405258A
:102E40002346CDE90054802209481CF007F8CDE95B
:102E5000005408490848234680221BF0FFFF03B0B6
:102E600030BD00BF44220120482201206C650308C8
:102E70002D2D000875650308512C0008704708B512
:102E800009292AD8DFE801F00505090D1115191DDA
:102E9000212513F057FF006808BD13F053FF406869
:102EA000FAE713F04FFF8068F6E713F04BFFC068B6
:102EB000F2E713F047FF0069EEE713F043FF4069C4
:102EC000EAE713F03FFF8069E6E713F03BFFC069D4
:102ED000E2E713F037FF006ADEE70020DCE710B519
:102EE0000421044631F097FE204610BD004870478B
:102EF000946503080120704713B5002451B103689D
:102F000001948DF8034001AA9C680DF10303A047CA
:102F100002B010BD0846FBE74089704780897047C2
:102F20008088704783798088184480B27047C07960
:102F300000F07F007047C079C0097047704710B536
:102F40000821044631F067FE204610BD704700F5A9
:102F500096730868496803C37047704770474160BB
:102F6000704770470123037270477047704710B471
:102F7000C26841685410034601EB6200D20748BFA3
:102F80000A599B685DF8044B48BFD35818474368FB
:102F90002BB183682BB9C06800F001007047184658
:102FA00070470120704710B50C21044631F033FE04
:102FB000204610BD10B51021044631F02CFE2046ED
:102FC00010BD10B54FF4AC71044631F024FE20461C
:102FD00010BD10B521F0C0F80368BDE810401B6BB0
:102FE000184710B50446D0F83C0158B10368DB68B7
:102FF000984738B1D4F83C0103689B689847002390
:10300000C4F83C3110BD0000F8B5044617460E4622
:1030100021F0C2F8104B0025C4E954760F4E1C6015
:10302000C4E952550E4B306823600E4BC4E950354D
:10303000036829469B68C4E94E559847284613F013
:1030400033FE336893F876200AB1D86C00B99868DB
:1030500029F0C3F82046F8BDD81C01206C1C0120C3
:1030600014700308FC6F0308064BC0F848310023B6
:10307000C0F84C3100F5A073C0F84401C0F83C31F1
:10308000704700BFB1320008064BC0F8483100233A
:10309000C0F84C3100F5A073C0F84401C0F83C31D1
:1030A000704700BF15340008064BC0F848310023B4
:1030B000C0F84C3100F5A073C0F84401C0F83C31B1
:1030C000704700BF7D350008064BC0F8483100232B
:1030D000C0F84C3100F5A073C0F84401C0F83C3191
:1030E000704700BFE5360008064BC0F848310023A2
:1030F000C0F84C3100F5A073C0F84401C0F83C3171
:10310000704700BF4D380008064BC0F84831002317
:10311000C0F84C3100F5A073C0F84401C0F83C3150
:10312000704700BFB5390008064BC0F8483100238E
:10313000C0F84C3100F5A073C0F84401C0F83C3130
:10314000704700BF1D3B0008064BC0F84831002304
:10315000C0F84C3100F5A073C0F84401C0F83C3110
:10316000704700BF853C000803685B6A1847000091
:103170002DE9F84F07469068DDF828A099460368C6
:103180001B6A88461446984743F2C753984205D8AD
:10319000414B424AA321424831F06CFD606803680C
:1031A0001B6A98470F2803D83E4B3C4AA421F2E7FC
:1031B000E06803681B6A98470B2803D83A4B374AE4
:1031C000A521E8E720F0C8FF20F0CCFFD9F80000E7
:1031D00010B10368DB689847D9F8000010B10368A4
:1031E0001B689847386810B103685B699847D8F83E
:1031F000000010B103685B689847386810B1036835
:103200001B689847D8F8000010B103689B6898477E
:10321000E0680021FFF7A8FF4FF0000B234B03608D
:103220000546C0F804B080F808B0A06803685946A5
:103230005B6A9847064613F0BFFE6068036859460C
:103240005B6A98473146044613F00CFEC9F80050FB
:10325000C8F800403E60E4B1231DCAF8003033686E
:10326000C4F808A03046DB68F4639847236820461A
:103270001B6898472946304622F053FC2B682846A5
:103280001B6998472B6828465B6998472046BDE82C
:10329000F88F2346E1E700BFB865030846660308D8
:1032A0004A670308916703083468030858700308E5
:1032B00007B5D0F854310093D0F85021044B00F5F5
:1032C0009C710448FFF754FF03B05DF804FB00BF96
:1032D000CC1C0120C81C01202DE9F84F074690683E
:1032E000DDF828A0994603681B6A8846144698476B
:1032F000972805D8414B424AA321424831F0BAFCF5
:10330000606803681B6A98470F2803D83E4B3C4A05
:10331000A421F2E7E06803681B6A98470B2803D8EA
:103320003A4B374AA521E8E720F016FF20F01AFFB4
:10333000D9F8000010B10368DB689847D9F800009D
:1033400010B103681B689847386810B103685B695F
:103350009847D8F8000010B103685B689847386850
:1033600010B103681B689847D8F8000010B10368D3
:103370009B689847E0680021FFF7F6FE4FF0000BCE
:10338000234B03600546C0F804B080F808B0A0687D
:10339000036859465B6A9847064613F051FE606819
:1033A000036859465B6A98473146044613F020FE8D
:1033B000C9F80050C8F800403E60E4B1231DCAF8C7
:1033C00000303368C4F808A03046DB68F4639847DF
:1033D000236820461B6898472946304622F0A1FB07
:1033E0002B6828461B6998472B6828465B699847D5
:1033F0002046BDE8F88F2346E1E700BFB865030823
:10340000D76803084A67030891670308346803080C
:103410005870030807B5D0F854310093D0F8502104
:10342000044B00F59C710448FFF756FF03B05DF8AC
:1034300004FB00BFCC1C0120C81C01202DE9F84F63
:1034400007469068DDF828A0994603681B6A8846FD
:103450001446984744F2AB23984205D8414B424A60
:10346000A321424831F006FC606803681B6A984754
:103470000F2803D83E4B3C4AA421F2E7E0680368DA
:103480001B6A98470B2803D83A4B374AA521E8E72F
:1034900020F062FE20F066FED9F8000010B103684B
:1034A000DB689847D9F8000010B103681B6898479B
:1034B000386810B103685B699847D8F8000010B10C
:1034C00003685B689847386810B103681B689847C1
:1034D000D8F8000010B103689B689847E0680021A5
:1034E000FFF742FE4FF0000B234B03600546C0F888
:1034F00004B080F808B0A068036859465B6A984732
:10350000064614F03DF86068036859465B6A9847C0
:103510003146044613F0BCFDC9F80050C8F800401D
:103520003E60E4B1231DCAF800303368C4F808A037
:103530003046DB68F4639847236820461B68984749
:103540002946304622F0EDFA2B6828461B69984739
:103550002B6828465B6998472046BDE8F88F2346CC
:10356000E1E700BFB8650308DB6903084A670308A1
:1035700091670308346803085870030807B5D0F84A
:1035800054310093D0F85021044B00F59C7104484D
:10359000FFF754FF03B05DF804FB00BFCC1C012013
:1035A000C81C01202DE9F84F07469068DDF828A0D7
:1035B000994603681B6A88461446984747F2FB53AE
:1035C000984205D8414B424AA321424831F052FB70
:1035D000606803681B6A98470F2803D83E4B3C4A33
:1035E000A421F2E7E06803681B6A98470B2803D818
:1035F0003A4B374AA521E8E720F0AEFD20F0B2FDB6
:10360000D9F8000010B10368DB689847D9F80000CA
:1036100010B103681B689847386810B103685B698C
:103620009847D8F8000010B103685B68984738687D
:1036300010B103681B689847D8F8000010B1036800
:103640009B689847E0680021FFF78EFD4FF0000B64
:10365000234B03600546C0F804B080F808B0A068AA
:10366000036859465B6A9847064614F029FB606870
:10367000036859465B6A98473146044613F0A8FF31
:10368000C9F80050C8F800403E60E4B1231DCAF8F4
:1036900000303368C4F808A03046DB68F46398470C
:1036A000236820461B6898472946304622F039FA9D
:1036B0002B6828461B6998472B6828465B69984702
:1036C0002046BDE8F88F2346E1E700BFB865030850
:1036D000DF6A03084A670308916703083468030830
:1036E0005870030807B5D0F854310093D0F8502132
:1036F000044B00F59C710448FFF754FF03B05DF8DC
:1037000004FB00BFCC1C0120C81C01202DE9F84F90
:1037100007469068DDF828A0994603681B6A88462A
:103720001446984747F2FB53984205D8414B424A0A
:10373000A321424831F09EFA606803681B6A9847EB
:103740000F2803D83E4B3C4AA421F2E7E068036807
:103750001B6A98470B2803D83A4B374AA521E8E75C
:1037600020F0FAFC20F0FEFCD9F8000010B103684C
:10377000DB689847D9F8000010B103681B689847C8
:10378000386810B103685B699847D8F8000010B139
:1037900003685B689847386810B103681B689847EE
:1037A000D8F8000010B103689B689847E0680021D2
:1037B000FFF7DAFC4FF0000B234B03600546C0F81F
:1037C00004B080F808B0A068036859465B6A98475F
:1037D000064614F017FE6068036859465B6A98470E
:1037E0003146044614F094FAC9F80050C8F8004075
:1037F0003E60E4B1231DCAF800303368C4F808A065
:103800003046DB68F4639847236820461B68984776
:103810002946304622F085F92B6828461B699847CF
:103820002B6828465B6998472046BDE8F88F2346F9
:10383000E1E700BFB8650308E36B03084A670308C4
:1038400091670308346803085870030807B5D0F877
:1038500054310093D0F85021044B00F59C7104487A
:10386000FFF754FF03B05DF804FB00BFCC1C012040
:10387000C81C01202DE9F84F07469068DDF828A004
:10388000994603681B6A88461446984745F29F5339
:10389000984205D8414B424AA321424831F0EAF907
:1038A000606803681B6A98470F2803D83E4B3C4A60
:1038B000A421F2E7E06803681B6A98470B2803D845
:1038C0003A4B374AA521E8E720F046FC20F04AFCB5
:1038D000D9F8000010B10368DB689847D9F80000F8
:1038E00010B103681B689847386810B103685B69BA
:1038F0009847D8F8000010B103685B6898473868AB
:1039000010B103681B689847D8F8000010B103682D
:103910009B689847E0680021FFF726FC4FF0000BFA
:10392000234B03600546C0F804B080F808B0A068D7
:10393000036859465B6A9847064614F099FF606829
:10394000036859465B6A98473146044614F082FD85
:10395000C9F80050C8F800403E60E4B1231DCAF821
:1039600000303368C4F808A03046DB68F463984739
:10397000236820461B6898472946304622F0D1F834
:103980002B6828461B6998472B6828465B6998472F
:103990002046BDE8F88F2346E1E700BFB86503087D
:1039A000E76C03084A670308916703083468030853
:1039B0005870030807B5D0F854310093D0F850215F
:1039C000044B00F59C710448FFF754FF03B05DF809
:1039D00004FB00BFCC1C0120C81C01202DE9F84FBE
:1039E00007469068DDF828A0994603681B6A884658
:1039F0001446984744F28733984205D8414B424ACF
:103A0000A321424831F036F9606803681B6A984781
:103A10000F2803D83E4B3C4AA421F2E7E068036834
:103A20001B6A98470B2803D83A4B374AA521E8E789
:103A300020F092FB20F096FBD9F8000010B103684B
:103A4000DB689847D9F8000010B103681B689847F5
:103A5000386810B103685B699847D8F8000010B166
:103A600003685B689847386810B103681B6898471B
:103A7000D8F8000010B103689B689847E0680021FF
:103A8000FFF772FB4FF0000B234B03600546C0F8B5
:103A900004B080F808B0A068036859465B6A98478C
:103AA000064615F0DDF86068036859465B6A98477A
:103AB0003146044614F0FCFEC9F80050C8F8004036
:103AC0003E60E4B1231DCAF800303368C4F808A092
:103AD0003046DB68F4639847236820461B689847A4
:103AE0002946304622F01DF82B6828461B69984766
:103AF0002B6828465B6998472046BDE8F88F234627
:103B0000E1E700BFB8650308EB6D03084A670308E7
:103B100091670308346803085870030807B5D0F8A4
:103B200054310093D0F85021044B00F59C710448A7
:103B3000FFF754FF03B05DF804FB00BFCC1C01206D
:103B4000C81C01202DE9F84F07469068DDF828A031
:103B5000994603681B6A88461446984743F6933390
:103B6000984205D8414B424AA321424831F082F89D
:103B7000606803681B6A98470F2803D83E4B3C4A8D
:103B8000A421F2E7E06803681B6A98470B2803D872
:103B90003A4B374AA521E8E720F0DEFA20F0E2FAB6
:103BA000D9F8000010B10368DB689847D9F8000025
:103BB00010B103681B689847386810B103685B69E7
:103BC0009847D8F8000010B103685B6898473868D8
:103BD00010B103681B689847D8F8000010B103685B
:103BE0009B689847E0680021FFF7BEFA4FF0000B92
:103BF000234B03600546C0F804B080F808B0A06805
:103C0000036859465B6A9847064615F081F9606873
:103C1000036859465B6A98473146044615F040F8F8
:103C2000C9F80050C8F800403E60E4B1231DCAF84E
:103C300000303368C4F808A03046DB68F463984766
:103C4000236820461B6898472946304621F069FFC3
:103C50002B6828461B6998472B6828465B6998475C
:103C60002046BDE8F88F2346E1E700BFB8650308AA
:103C7000EF6E03084A670308916703083468030876
:103C80005870030807B5D0F854310093D0F850218C
:103C9000044B00F59C710448FFF754FF03B05DF836
:103CA00004FB00BFCC1C0120C81C0120006A704727
:103CB000406A704770478B8880690A68DB0A50F851
:103CC00023001044704710B5C2B1137BB3B1547BCD
:103CD000D27A240204F4E0641443C26998B202EB7D
:103CE000840213888B4202D192F9020010BD05D8DC
:103CF000013880B204320028F3D1F7E70020F5E75D
:103D000010B52821044630F086FF204610BD000083
:103D100030B589B00446BDF850500695BDF84C50FA
:103D200005959DF8405004959DF83C5003959DF8ED
:103D3000385002959DF8345001959DF8305000950B
:103D400021F042FA064B2360119BA361129BE361B1
:103D5000159B2362169B6362204609B030BD00BFED
:103D60007C7003080020704781807047C1807047D5
:103D700001817047418170477047704770477047B5
:103D8000704710B4C4880368121B84881B6D091B1C
:103D900012B25DF8044B09B218474FF6FF738381E6
:103DA0004FF0FF3303621368C361106070477047C0
:103DB000704770477047704790F825201AB190F807
:103DC000242002B1186070477047704710B543F265
:103DD000C851044630F01FFF204610BD012908B528
:103DE00005D120F0B9F9BDE80840FFF74DB908BD8D
:103DF000074A02600022C0E90122C0E90322C0E9AB
:103E00000522C0E907224FF480728284704700BF08
:103E1000D890030870B503680446DB6A15469847D6
:103E20002368294620461B6BBDE87040184770B5D3
:103E300004461D46BDF91060FFF7ECFF23682946D4
:103E400020465B6B98472368314620469B6BBDE854
:103E50007040184710B526220446002131F090F832
:103E60002046FFF7C5FF044B2360FF2384F826306C
:103E70000023A362204610BDD88C030810B526226B
:103E80000446002131F07CF82046FFF7B1FF074BD4
:103E90002360074BA3624FF6FF73A3854FF47F02A5
:103EA0000023C4E90C322387204610BD308C030860
:103EB000B065030870B5FF22134E0272134A026008
:103EC000326892F876100023C0E903330446436059
:103ED00009B1D06C00B9906803685B6A9847336891
:103EE000B0FA80F5D86C6D0928B103685B6A984711
:103EF000002808BF01252DB9054B064A06482C218C
:103F000030F0B8FE204670BD6C1C012024880308E8
:103F1000CC7003082A710308637103082DE9F04F80
:103F20002DED108B04468FB021F07EFC224600253B
:103F3000AC4BE56342F8403B104609EE102AFFF710
:103F400089FF04F16C0318460593FFF783FF04F122
:103F50009803DFF8B482A44FDFF8B09204F1C40BE9
:103F6000184608EE103AFFF743FFC4F89880584609
:103F7000C4F8C050FFF76EFF04F1F00318460AEED4
:103F8000103AFFF77BFF04F59873C4F8F0701846F9
:103F9000C4F82C510AEE903AFFF770FF04F5B6739F
:103FA000184604F5CC7608EE903AFFF721FFC4F8E6
:103FB0006C81C4F894513046FFF71AFF04F5E273A0
:103FC000C4F898811846C4F8C0510693FFF742FF21
:103FD00004F5F87318460BEE103A1DF0C1F804F51D
:103FE0000F7318460B93FFF765FF04F51573C4F8BC
:103FF0003C921846C4F850520BEE903A1DF0B0F8BF
:1040000004F5287318460A93FFF754FF04F52E733E
:10401000C4F8A0921846C4F8B4520CEE103A1DF041
:104020009FF804F5417318460993FFF743FF04F521
:104030004773C4F804931846C4F818530CEE903A2A
:10404000FFF71CFF04F5567318460DEE103AFFF704
:1040500015FF04F5657318460DEE903AFFF70EFF55
:1040600004F57473184609EE903AFFF7C1FE04F5A3
:104070007F73C4F8D0831846C4F8F8530793FFF74A
:10408000E9FE04F58563184604F58D690EEE103AD5
:10409000FFF7F4FEC4F82874C4F864544846FFF7E8
:1040A000A7FE04F29443C4F868841846C4F89054F8
:1040B0000893FFF7CFFE04F5986318460EEE903A8A
:1040C000FFF7DCFE04F2FC4318460FEE103AFFF750
:1040D000D5FE04F5A763184604F274580FEE903A23
:1040E000FFF7CCFE4046FFF7C9FE04F5B66318465D
:1040F0000293FFF7C3FE04F5BE63C4F8B07518461B
:10410000C4F8EC550393FFF7B9FE04F5C6631846EF
:10411000C4F8F075C4F82C560493FFF7AFFEC4F84A
:10412000307642F6E0614FF4F07704F5DD60C4F8D4
:104130006C561EF0F3FA4FF07F4A19EE100A4FF456
:1041400048732A4629460097FFF771FE0598C4F880
:1041500068A04FF448732A4629460097FFF767FE88
:10416000224BC4F8943018EE100A4FF4E1732A463B
:1041700029460097FFF75BFE40F2B9131422584618
:1041800000930D2140F2B513FFF751FE4FF0FF33BE
:10419000594618EE100AC4F8EC301BF057FD40F2F7
:1041A000611300931AEE100A4FF4D1731F221421E9
:1041B000FFF73DFE0E4BC4F820A11B68A4F8245164
:1041C00004F5CE6B2BB90B4B0B4AAE210B4830F0EC
:1041D00051FD0B4B1B88012B1AD80A4B064AAF2105
:1041E000F4E700BFDC7203083C8D0308231107FFCE
:1041F000DC1C0120C571030807720308357203082F
:10420000E01C01207C720308987F030804880308DF
:10421000EB4B0121186812F083FDEA4A03460A219C
:10422000584622F09BFF1AEE100AC4F82CB10CA9D4
:10423000DFF898B3CDF830B0ADF834501EF099F8EF
:104240001AEE101A18EE100A1BF000FD40F251127F
:104250001AEE900AB021FFF7DDFD02231AEE900A54
:104260000CA9C4F860A1A4F86451ADF83430CDF8BD
:1042700030B01EF07EF81AEE901A18EE100A1BF0FD
:10428000E5FC18EE900A00974FF4AF735D272A46BD
:104290004FF4E171FFF7CBFD304600974FF49C736C
:1042A00063221321FFF7C3FD4FF49C730698009718
:1042B0002A462946FFF7BBFD4FF0FF3230460699EC
:1042C000C4F8EC211BF0C2FC33223A231BEE100A87
:1042D000009210212422FFF7AAFD4FF434524FF42C
:1042E0004877C4F83022B84AC4F85022C4E9887725
:1042F0000B99C4F828721BEE100AC4F83452C4F8A3
:104300002C521DF0AFFA30461BEE101A1BF09EFC2B
:1043100033213A231BEE900A009124228421FFF7D7
:1043200086FDA94AC4F8B4224FF43451C4E9A177F8
:104330001BEE900AC4F88C72C4F89412C4F8985218
:104340000A99C4F890521DF08DFA30461BEE901A6F
:104350001BF07CFC33213A231CEE100A009124222E
:10436000F321FFF764FD984AC4F818234FF4345141
:10437000C4E9BA771CEE100AC4F8F072C4F8F81257
:10438000C4F8FC520999C4F8F4521DF06BFA304697
:104390001CEE101A1BF05AFC2A461CEE900A6521EE
:1043A000FFF738FD05231CEE900A0CA9C4F84CA3B6
:1043B000A4F85053ADF83430CDF830B01DF0D9FF2B
:1043C00030461CEE901A1BF041FC2A461DEE100AE6
:1043D0000B21FFF71FFD04231DEE100A0CA9C4F8E2
:1043E00088A3A4F88C53ADF83430CDF830B01DF06C
:1043F000C0FF30461DEE101A1BF028FC2A461DEEA9
:10440000900AE821FFF706FD06231DEE900A0CA98D
:10441000C4F8C4A3A4F8C853ADF83430CDF830B014
:104420001DF0A7FF30461DEE901A1BF00FFC314621
:1044300018EE900A41261BF009FC19EE900A00962E
:104440004FF49C7314221321FFF7F1FC4FF49C737B
:10445000079800962A462946FFF7E9FC4FF0FF32FD
:104460000799C4F8242419EE900A1BF0EFFB2D23C2
:104470000B221EEE100A009308214FF49473FFF7ED
:10448000D6FC04F284631EEE100AC4F864340CA94E
:104490000723C4F858A4A4F85C54A4F88456ADF8D3
:1044A0003430CDF830B01DF064FF1EEE101A19EE56
:1044B000900A1BF0CBFBF92619EE901A18EE900A21
:1044C0001BF0C4FB00964FF49C73D5221321484681
:1044D000FFF7ADFC4FF49C73089800962A462946D6
:1044E000FFF7A5FC4FF0FF320899C4F8BC244846FA
:1044F0001BF0ACFB2A461EEE900A8021FFF78AFCD7
:1045000003231EEE900A0CA9C4F8F0A4A4F8F454F6
:10451000ADF83430CDF830B01DF02BFF1EEE901A00
:1045200048461BF093FB3E221FEE100A0821FFF7BE
:1045300071FC08261FEE100A0CA9C4F82CA5A4F8DB
:104540003055ADF83460CDF830B01DF012FF1FEEDD
:10455000101A48461BF07AFB7C2231461FEE900A67
:10456000FFF758FC09231FEE900A0CA9C4F868A5B0
:10457000A4F86C55ADF83430CDF830B01DF0F9FE2C
:104580001FEE901A48461BF061FBBB2231464046A5
:10459000FFF740FC0A2640460CA9C4F8A4A5A4F8DD
:1045A000A855CDF830B0ADF834602F271DF0E1FEEE
:1045B000414648461BF04AFB68233E22029807E02A
:1045C000E81C0120CE720308777777FFB0650308F7
:1045D0000097BE21FFF72BFC564AC4F8E0A51368EC
:1045E000A4F8E45504F2AC68002B3FF4ECAD52495A
:1045F0000B880C2B7FF6F1AD504B0C21186812F094
:104600008FFB4F4A03463146404622F0A7FD0CA8D7
:104610000B230146C4F8EC850298ADF83430CDF890
:1046200030B01DF0A6FE029948461BF00FFB682330
:104630007C2203980097BE21FFF7F9FB3D4AC4F89E
:1046400020A61368A4F8245604F5D868002B3FF47C
:10465000BAAD39490B880E2B7FF6BFAD374B0E2113
:10466000186812F05DFB364A03463146404622F098
:1046700075FD0CA80D230146C4F82C860398ADF8EF
:104680003430CDF830B01DF074FE039948461BF06D
:10469000DDFA6823BB2204980097BE21FFF7C7FB11
:1046A000244AA4F864561368C4F860A604F2D465DA
:1046B000002B3FF488AD20490B88102B7FF68DAD81
:1046C0001E4B1021186812F02BFB1D4A0346314681
:1046D000284622F043FD0F230498C4F86C560CA919
:1046E000ADF83430CDF830B01DF043FE04994846A3
:1046F0001BF0ACFA18EE900A49461BF0A7FA201DF1
:1047000019EE101A02901BF0A1FA059902981BF0FD
:104710009DFA18EE101A02981BF098FA029818EEFB
:10472000901A1BF093FA20460FB0BDEC108BBDE839
:10473000F08F00BFDC1C0120E01C0120E81C0120E0
:10474000CE7203087047704710B59821044630F0C8
:1047500062FA204610BD012908B505D11FF0FCFC06
:10476000BDE80840FEF7A0BC08BD70B5036804466C
:104770005B6B154698472368294620469B6BBDE82E
:1047800070401847F7B50446254621F04DF800263D
:104790001A4BE66345F8403B04F16C072846FFF7E7
:1047A00059FB3846FFF756FB31462846FFF7DCFA3F
:1047B00031462846FFF7DAFA28464FF4F0724FF4F4
:1047C0004871FFF7D2FF4FF07F434FF4F072A366BA
:1047D000384626674FF44871FFF7C7FF084BC4F807
:1047E0009430201D294601901BF030FA019839467B
:1047F0001BF02CFA204603B0F0BD00BF1073030875
:10480000231107FF7047704710B544F2AC210446EE
:1048100030F001FA204610BD012908B505D11FF07E
:104820009BFCBDE80840FEF74FBC08BD10B5044630
:10483000FFF7DEFA024B23600023A362204610BD7F
:10484000987F030810B50446FFF704FB034B236071
:104850000023E3622386204610BD00BFE48D0308D9
:1048600010B50446FFF70AFB024B23600023E36305
:10487000204610BD3C8D03082DE9F04F2DED108B27
:104880000446C7B020F0D0FF22460025DF4BE56389
:1048900042F8403B10460FEE902AFFF7DBFA04F196
:1048A0006C0318462993FFF7D5FA04F198031846CC
:1048B0002A93FFF7C7FF04F1CC0318460393FFF7D1
:1048C000DDFA04F5847318462B93FFF7BBFF04F55C
:1048D0009E7318460493FFF7D1FA04F5BC7318468B
:1048E0000593FFF7CBFA04F5DA7318460693FFF742
:1048F000B7FF04F5FA73184604F50D790793FFF72F
:10490000AFFF4846FFF792FF04F5187318462C9343
:10491000FFF798FF04F5257318462D93FFF792FFD4
:1049200004F5327318462E93FFF78CFF04F53F739E
:1049300018462F93FFF786FF04F54C731846309303
:10494000FFF780FF04F55973184608EE903AFFF719
:104950006DFF04F56473184604F56F7A3193FFF721
:1049600079FA5046FFF78AFA04F57E7318460893E1
:104970001CF0F6FB04F244431846A54E4193FFF7A2
:1049800099FA04F25C43C4F844641846C4F85854D5
:104990000993FFF765FF04F29C4318460A93FFF75B
:1049A0005FFF04F2DC43184609EE103AFFF73EFFC2
:1049B00004F5A16318463293FFF74CFA04F234531E
:1049C00018460B931CF0CCFB04F5B06318464093DB
:1049D000FFF770FA04F5B363C4F880651846C4F8AD
:1049E00094550C93FFF74AFA04F2D45318460D93EA
:1049F000FFF736FF04F2146318460E93FFF730FFFB
:104A000004F25463184609EE903AFFF70FFF04F5DD
:104A1000D06318463393FFF71DFA04F2AC631846CF
:104A20000F93FFF72BFA04F5DD63184610931CF083
:104A300097FB04F2347318463F93FFF73BFA04F2F6
:104A40004C73C4F834671846C4F848571193FFF7FD
:104A500007FF04F28C73184604F2CC7B1293FFF725
:104A6000FFFE5846FFF7E2FE04F5FF631846349355
:104A7000FFF7F0F904F6240318461393FFF7FEF945
:104A800004F50663184614931CF06AFB04F6AC03A5
:104A900018463E93FFF70EFA04F6C403C4F8AC6858
:104AA0001846C4F8C0581593FFF7DAFE04F604134D
:104AB00018461693FFF7D4FE04F6441318460AEE80
:104AC000103AFFF7B3FE04F5176318463593FFF766
:104AD000C1F904F69C1318461793FFF7CFF904F6B3
:104AE000D813184618931CF03BFB04F624231846F1
:104AF0003D93FFF7DFF904F63C23C4F8246A184617
:104B0000C4F8385A1993FFF7ABFE04F67C23184615
:104B10001A93FFF7A5FE04F6BC2318460AEE903A56
:104B2000FFF784FE04F6E82318463693FFF792F960
:104B300004F6143318461B93FFF7A0F904F5356308
:104B400018461C931CF00CFB04F69C3318463C934F
:104B5000FFF7B0F904F6B433C4F89C6B1846C4F8F8
:104B6000B05B1D93FFF77CFE04F6F43318461E93EA
:104B7000FFF776FE04F6344318460BEE103AFFF7C3
:104B800055FE04F5466318463793FFF763F904F6BC
:104B90008C4318461F93FFF771F904F6C843184673
:104BA00020931CF0DDFA04F6145318463B93FFF7EC
:104BB00081F904F62C53C4F8146D1846C4F8285D26
:104BC0002193FFF74DFE04F66C5318462293FFF72E
:104BD00047FE04F6AC5318460BEE903AFFF726FE5C
:104BE00004F6D85318463893FFF734F904F60463F3
:104BF00018462393FFF742F904F56463184624939B
:104C00001CF0AEFA04F68C63184603E04473030804
:104C1000048803083A93FFF74DF904F6A463C4F837
:104C20008C6E1846C4F8A05E2593FFF719FE04F6B3
:104C3000E46318462693FFF713FE04F62473184620
:104C40000CEE103AFFF7F2FD04F575631846399340
:104C5000FFF700F904F67C7318462793FFF70EF967
:104C600004F6B87341F20407184628931CF078FA4A
:104C7000E31918464393FFF71DF941F21803E65173
:104C8000E55004F580531C3318460CEE903AFFF7BC
:104C9000E7FD04F582531C3318460DEE103AFFF77A
:104CA000DFFD04F584531C33184608EE103AFFF775
:104CB000BDFD04F58653083318460293FFF7CAF882
:104CC00004F58753143318460DEE903AFFF7D6F8E3
:104CD00004F58953103341F27C1718460EEE103A52
:104CE0001CF03EFAE31918464293FFF7E3F841F24D
:104CF0009013E651E55004F58C53143318460EEE2C
:104D0000903AFFF7ADFD04F58E53143318460FEEBD
:104D1000103AFFF7A5FD04F59E5042F6E0610C3015
:104D20001DF0FCFC4FF4F0731FEE900A00932A462E
:104D30004FF448732946FFF77AF84FF07F43A36694
:104D40004FF4F073299800932A464FF4487329468C
:104D5000FFF76DF8DFF820812A98C4F894804F237C
:104D600000932A46DF232946FFF761F804264FF017
:104D7000FF330D220398C4F8C430A4F8C8601C2186
:104D8000C4F8C080FFF746F84FF0FF33314F039867
:104D9000C4F8FC3044A91123A4F800514497ADF89D
:104DA00014311DF0E6FA60232B98009342224FF451
:104DB0000C73F021FFF73BF84FF0FF335B220498B0
:104DC000C4F83431A4F83861F921234EC4F8308195
:104DD000FFF720F812230498C4F86C6144A9A4F8E2
:104DE0007051ADF8143144971DF0C3FA5B22059859
:104DF0004FF40371FFF70EF813230598C4F8A86168
:104E000044A9A4F8AC514497ADF814311DF0B1FA9F
:104E10002F2300930698114F68235B2240F29511CF
:104E2000FFF705F80E4BC4F8E4313B68A4F8E851ED
:104E300004F5905614362BB90A4B0B4AAE210B4899
:104E40002FF018FF0A4B1B88152B17D8094B064A61
:104E5000AF21F4E7B0650308F2F2FAFFDC1C012091
:104E6000FAFAFCFFC57103080772030835720308DC
:104E7000E01C01207C720308231107FFD74B15218A
:104E8000186811F04DFFD64A03460A21304622F039
:104E900065F9D44A0698C4F8F061142344A94492F1
:104EA000ADF814311DF065FA2F2000905F230798AC
:104EB0005B224FF42A71FEF7BAFF3B68A4F8285230
:104EC0004FF0FF3004F59156C4F824020836002B49
:104ED000B2D0C54A1388172BB8D9C04B1721186810
:104EE00011F01EFFBE4A03460A21304622F036F971
:104EF000BC49C4F8306244A816234491014607987F
:104F0000ADF814311DF035FA4FF4977000904FF45E
:104F10004873B22229464846FEF789FF4FF497703E
:104F20000526A0232A46009029462C98FEF77FFFED
:104F3000C4E9A2882C99A4F8906248461AF086FE2B
:104F4000A0234FF4977019462A4600902D98FEF73B
:104F50006EFFC4E9AF882D99A4F8C46248461AF0E0
:104F600075FE4FF49770A0232A4600904FF4A0716D
:104F70002E98FEF75CFFC4E9BC882E99A4F8F8626D
:104F800048461AF063FE4FF49770A0232A4600901B
:104F90004FF4F0712F98FEF74AFFC4E9C9882F99A2
:104FA000A4F82C6348461AF051FE4FF49770A023E2
:104FB0002A4600904FF420713098FEF738FFC4E97C
:104FC000D6883099A4F8606348461AF03FFE9720CF
:104FD0000090A02318EE900A2A462946FEF727FFE4
:104FE0006C2096232B22009031463198FEF71FFF4C
:104FF0004FF0FF303199C4F8B80318EE900A1AF058
:1050000025FE0E2250461821FEF704FF4FF0FF3018
:105010007449C4F8EC0344A818234491A4F8F0534D
:1050200001465046ADF814314FF050081DF0A1F97B
:10503000514618EE900A1AF009FE43466FF00F022F
:105040000898CDF800804F21FEF7F1FE4FF4A060E4
:10505000C4F82804C4F82C044FF4F070C4F83004E9
:105060004FF43450C4F83804A0F5A0404199C4F876
:105070005804C4F83C540898C4F834541CF0F2FBAB
:10508000089918EE900A1AF0E1FD4FF02F0CCDF8B8
:1050900000C0852309982C220E21FEF7C8FE3B682C
:1050A000A4F890544FF07F4C04F5915AC4F88CC486
:1050B0000AF11C0A002B3FF4BFAE4B4A1388232B86
:1050C0007FF6C4AE454B2321186811F029FE444AEF
:1050D00003460A21504622F041F80DF5887C4149EB
:1050E0000998C4F898A4222344916146ADF814317C
:1050F0001DF03FF9099918EE900A1AF0A7FD4FF03C
:105100002F0CCDF800C051230A9861222421FEF70C
:105110008EFE3B68A4F8D0544FF07F4C04F5925AB1
:10512000C4F8CCC40AF1100A002B3FF485AE2E4A15
:105130001388252B7FF68AAE284B2521186811F09D
:10514000EFFD274A03460A21504622F007F80DF5E5
:10515000887C24490A98C4F8D8A444914FF0240AC2
:105160006146ADF814A11DF004F90A9918EE900AF1
:105170001AF06CFD18EE901A48461AF067FD4FF0D1
:10518000970C6246294619EE100ACDF800C0A023FC
:10519000FEF74DFE4FF06C0C962352463146329886
:1051A000CDF800C0FEF743FE4FF0FF3CC4F830C519
:1051B00032990C4E19EE100A1AF048FD43466FF072
:1051C00014020B98CDF800804F21FEF730FE4FF40B
:1051D000A06CC4F864C5C4F868C507E0E81C0120E9
:1051E000CE720308B0650308E01C01204FF4F07C88
:1051F000D448C4F86CC54FF4345CC4F874C5409905
:10520000C4F87855C4F87055C4F894050B981CF090
:1052100029FB0B9919EE100A1AF018FD2923072211
:105220000C98009306216523FEF701FE4FF0FF3C2A
:105230001923C4F8C8C50C98A4F8CC5544A9ADF8F6
:10524000143144961DF095F80C9919EE100A1AF0D5
:10525000FDFC2F21009185230E210D985246FEF76B
:10526000E6FD3B68A4F808564FF07F4104F59355DE
:10527000C4F804160435002B3FF4DEADB24A13889F
:10528000272B7FF6E3ADB14B2721186811F048FDBD
:10529000AF4A03460A21284621F060FF26230D98D5
:1052A000C4F8105644A9ADF8143144964FF02F08B5
:1052B0001DF05FF8A74E0D9919EE100A1AF0C6FC02
:1052C00085230E210E98CDF800805A22FEF7AFFDFF
:1052D00033684FF07F41002504F59357C4F8441616
:1052E000A4F848561837002B3FF4A6AD964A138809
:1052F000292B7FF6ABAD954B2921186811F010FDD5
:10530000934A03460A21384621F028FF28230E98A5
:10531000C4F8507644A9904FADF8143144971DF06D
:1053200028F80E9919EE100A1AF090FC19EE101ACE
:1053300048461AF08BFC9721A0230A4619EE900AE2
:1053400000911946FEF773FD6C215246962333985F
:1053500000910521FEF76BFD4FF0FF3119EE900A29
:10536000C4F8A81633991AF071FC292107220F9866
:10537000009165230621FEF75AFD4FF0FF311A23F5
:105380000F98C4F8DC16A4F8E05644A9ADF814311F
:1053900044971CF0EEFF50270F9919EE900A1AF06F
:1053A00055FC3B466FF01402109800974F21FEF712
:1053B0003EFD4FF4A061C4F81817C4F81C174FF451
:1053C000F0716048C4F820174FF43451C4F828171E
:1053D000C4F848073F991098C4F82C57C4F82457CC
:1053E0001CF040FA109919EE900A1AF02FFC88234D
:1053F00052460C211198CDF80080FEF718FD336855
:10540000A4F880574FF07F4104F5945AC4F87C17F4
:105410000AF10C0A002B3FF40FAD4B4A1388312BD5
:105420007FF614AD494B3121186811F079FC484AD8
:1054300003460A21504621F091FE0DF5887C46492D
:105440001198C4F888A7302344916146ADF814310F
:105450001CF08FFF119919EE900A1AF0F7FB7523D3
:105460001298CDF800805A221521FEF7E0FC33682F
:10547000A4F8C0574FF07F4CC4F8BCC704F5955A48
:10548000002B3FF4D9AC304A138843457FF6DEAC9D
:105490002E4B4146186811F043FC2D4A03460A2161
:1054A000504621F05BFE0DF5887C2B491298449103
:1054B0002E236146C4F8C8A7ADF814311CF059FF7B
:1054C000129919EE900A1AF0C1FB19EE901A48468B
:1054D0001AF0BCFB4FF0970CCDF800C0A0230722B8
:1054E0009F215846FEF7A3FC4FF06C0C9623242214
:1054F0003498CDF800C00621FEF799FC4FF0FF3C30
:105500003499C4F820C858461AF0A0FB4FF0290C73
:1055100007221398CDF800C065230621FEF787FC0B
:105520004FF0FF3C0C49C4F854C80DF5887C1B2390
:1055300013984491A4F858586146ADF814311CF002
:1055400018FF0BE000DDFFFFE01C0120E81C01203C
:10555000CE720308DC1C0120B0650308139958467D
:105560001AF074FB3B466FF0160239461498009708
:105570004FF4A067FEF75BFCC4F89078C4F8947809
:105580004FF4F077D448C4F898784FF434573E99E4
:10559000C4F8A078C4F8C008C4F8A4581498C4F893
:1055A0009C581CF05FF9149958461AF04FFB4E2393
:1055B0001598CDF800805A222921FEF738FC4FF0CB
:1055C0007F473368C4F8F4785746A4F8F85814377E
:1055D000002B3FF431ACC14A13882D2B7FF636AC3B
:1055E000BF4B2D21186811F09BFBBE4A03460A21D0
:1055F000384621F0B3FDBC49159844912C2344A9A9
:10560000C4F80079ADF814311CF0B3FE1599584672
:105610001AF01CFB88230D211698CDF80080252256
:10562000FEF705FC3368A4F838594FF07F4104F5C4
:105630009655C4F834190835002B3FF4FDABA74A42
:1056400013882B2B7FF602ACA54BA74E1868DFF80A
:105650009CA22B2111F064FBA24A03460A21284692
:1056600021F07CFD2A231698C4F8405944A9ADF8CE
:10567000143144961CF07DFE584616991AF0E6FA4D
:10568000594648461AF0E2FA97211AEE100A00919C
:10569000A02307224FF4A071FEF7C9FB6C219623CB
:1056A0002422359800910521FEF7C1FB4FF0FF3110
:1056B0001AEE100AC4F8981935991AF0C7FA292178
:1056C00007221798009165230621FEF7B0FB0025FD
:1056D0004FF0FF311C231798C4F8CC19A4F8D05907
:1056E00044A9ADF814314FF0500844961CF041FE27
:1056F00017991AEE100A1AF0A9FA43466FF016022B
:105700001898CDF800805121FEF791FB4FF4F0710D
:105710007148C4F8101A4FF4A0674FF43451C4F81C
:10572000181AC4F8380A3D991898C4F8087AC4F8C9
:105730000C7AC4F81C5AC4F8145A1CF093F818993F
:105740001AEE100A1AF082FA2F2100917223172103
:1057500019985A22FEF76BFBDAF80030A4F8705A59
:105760004FF07F4104F5965BC4F86C1A0BF11C0BEB
:10577000002B3FF461AB594A1388352B7FF666AB9B
:10578000574B3521186811F0CBFA564A03460A21C7
:10579000584621F0E3FC34231998C4F878BA44A998
:1057A000ADF8143144961CF0E4FD19991AEE100A74
:1057B0001AF04CFA2F2100918E2307211A982422E7
:1057C000FEF735FBDAF80030A4F8B05A4FF07F410D
:1057D00004F5975BC4F8AC1A0BF1100B002B3FF4E7
:1057E0002BAB3E4A1388332B7FF630AB3C4B332137
:1057F000186811F095FA3B4A03460A21584621F0F1
:10580000ADFC32231A98C4F8B8BA44A9ADF81431E3
:1058100044961CF0AEFD1A991AEE100A1AF016FA08
:105820001AEE101A48461AF011FA97210A461AEE93
:10583000900A0091A02340F24111FEF7F8FA6C2182
:1058400096232422369800910421FEF7F0FA4FF0B7
:10585000FF311AEE900AC4F8101B36991AF0F6F9C7
:10586000292107221B98009165230621FEF7DFFA04
:105870004FF0FF311D231B98C4F8441BA4F8485B6C
:1058800044A9ADF8143144961CF073FD1B991AEE2F
:10589000900A1AF0DBF943466FF014021C98CDF819
:1058A00000805121FEF7C3FA4FF4F0710A48C4F8A2
:1058B000881B4FF43451C4F8901BC4F8B00B3C99CA
:1058C0001C98C4F8807BC4F8847BC4F8945BC4F84B
:1058D0008C5B1BF0C7FF0BE000DDFFFFE01C01202D
:1058E000E81C0120CE720308B0650308DC1C01200F
:1058F0001C991AEE900A1AF0A9F92F21009185231C
:105900000F211D985A22FEF792FADAF80030A4F817
:10591000E85B4FF07F4104F5985BC4F8E41B0BF1A2
:10592000040B002B3FF488AAD64A1388392B7FF644
:105930008DAAD54B3921186811F0F2F9D34A0346E4
:105940000A21584621F00AFC38231D98C4F8F0BB00
:1059500044A9ADF8143144961CF00BFD1D991AEEC4
:10596000900A1AF073F92F21009185230F211E98B8
:105970002422FEF75CFADAF80030A4F8285C4FF035
:105980007F4104F5985BC4F8241C0BF1180B002B25
:105990003FF452AABB4A1388372B7FF657AABA4B5B
:1059A0003721186811F0BCF9B84A03460A21584655
:1059B00021F0D4FB36231E98C4F830BC44A9ADF8BE
:1059C000143144961CF0D5FC1E991AEE900A1AF078
:1059D0003DF91AEE901A48461AF038F997211BEE55
:1059E000100A0091A023072240F2E111FEF71FFAEE
:1059F0006C2196232422379800910421FEF717FA90
:105A00004FF0FF311BEE100AC4F8881C37991AF0CA
:105A10001DF9292107221F98009165230621FEF711
:105A200006FA4FF0FF311E231F98C4F8BC1CA4F8DF
:105A3000C05C44A9ADF8143144961CF09AFC1F993F
:105A40001BEE100A1AF002F943466FF01602209876
:105A5000CDF800805121FEF7EAF94FF4F0718C483F
:105A6000C4F8001D4FF43451C4F80C5DC4F8045D53
:105A7000C4F8081DC4F8280D3B992098C4F8F87C98
:105A8000C4F8FC7C1BF0EEFE20991BEE100A1AF005
:105A9000DDF82F21009190230A2121982422FEF77E
:105AA000C6F9DAF80030A4F8605D4FF07F4104F5E4
:105AB0009955C4F85C1D0C35002B3FF4BDA9714A03
:105AC00013883D2B7FF6C2A96F4B3D21186811F05A
:105AD00027F96E4A03460A21284621F03FFB3C2362
