:020000040800F2
:1000000000000520450C0008392C00083B2C000896
:100010003D2C00083F2C0008412C00080000000087
:1000200000000000000000000000000001020208C3
:10003000432C0008000000009102020805FB0108A3
:10004000950C0008950C0008950C0008950C00080C
:10005000950C0008950C0008950C0008950C0008FC
:10006000950C0008950C0008950C0008950C0008EC
:10007000950C0008950C0008950C0008950C0008DC
:10008000950C0008950C0008950C0008950C0008CC
:10009000950C0008950C0008950C0008950C0008BC
:1000A000950C0008950C0008950C0008950C0008AC
:1000B000950C0008452C0008950C0008950C0008CC
:1000C000950C0008950C0008950C0008950C00088C
:1000D000950C0008950C0008950C0008950C00087C
:1000E000950C0008950C0008950C0008950C00086C
:1000F000950C0008950C0008950C0008950C00085C
:10010000950C0008950C0008950C0008950C00084B
:10011000950C0008950C0008512C0008950C00085F
:10012000950C0008950C0008950C0008950C00082B
:10013000950C0008950C0008950C0008950C00081B
:100140005D2C0008692C0008950C0008950C00082F
:10015000950C0008950C0008950C0008950C0008FB
:10016000950C0008950C0008950C0008950C0008EB
:10017000950C0008950C0008950C00080000000084
:10018000950C0008950C0008950C0008950C0008CB
:10019000950C0008950C0008950C0008950C0008BB
:1001A0006D2C0008950C0008792C0008950C0008AF
:0401B000852C000892
:1001C00010B5054C237833B9044B13B10448AFF391
:1001D00000800123237010BD680100200000000092
:1001E0007884030808B5034B1BB103490348AFF3F8
:1001F000008008BD000000006C0100207884030826
:1002000001F0FF01102A2BDB10F0070F08D010F8C7
:10021000013B013A8B422DD010F0070F42B3F6D1CB
:10022000F0B441EA012141EA014122F007047FF0E4
:1002300000070023F0E80256083C85EA010586EA3B
:10024000010685FA47F5A3FA87F586FA47F6A5FA77
:1002500087F68EB9EED1F0BC01F0FF0102F0070283
:1002600032B110F8013B013A83EA010313B1F8D12E
:100270000020704701387047002D06BF354603380F
:10028000073815F0010F07D1013015F4807F02BF48
:10029000013015F4C03F0130F0BC0138704700BF99
:1002A00070B54FF0FF0C4CF4E06C1CEA11541DBF0C
:1002B0001CEA135594EA0C0F95EA0C0F00F0DEF8D7
:1002C0002C4481EA030621EA4C5123EA4C5350EABC
:1002D000013518BF52EA033541F4801143F480130D
:1002E00038D0A0FB02CE4FF00005E1FB02E506F09E
:1002F0000042E0FB03E54FF00006E1FB03569CF0F3
:10030000000F18BF4EF0010EA4F1FF04B6F5007FF8
:1003100064F5407404D25FEA4E0E6D4146EB06066A
:1003200042EAC62141EA55514FEAC52040EA5E50F3
:100330004FEACE2EB4F1FD0C88BFBCF5E06F1ED89D
:10034000BEF1004F08BF5FEA500E50F1000041EBD4
:10035000045170BD06F0004646EA010140EA020081
:1003600081EA0301B4EB5C04C2BFD4EB0C0541EAA3
:10037000045170BD41F480114FF0000E013C00F3B8
:10038000AB8014F1360FDEBF002001F0004170BDDC
:10039000C4F10004203C35DA0C341BDC04F11404F5
:1003A000C4F1200500FA05F320FA04F001FA05F281
:1003B00040EA020001F0004221F0004110EBD3704E
:1003C00021FA04F642EB06015EEA430E08BF20EA7A
:1003D000D37070BDC4F10C04C4F1200500FA04F31D
:1003E00020FA05F001FA04F240EA020001F00041AF
:1003F00010EBD37041F100015EEA430E08BF20EA22
:10040000D37070BDC4F1200500FA05F24EEA020E69
:1004100020FA04F301FA05F243EA020321FA04F098
:1004200001F0004121FA04F220EA020000EBD3704F
:100430005EEA430E08BF20EAD37070BD94F0000F4F
:100440000FD101F00046400041EB010111F4801F83
:1004500008BF013CF7D041EA060195F0000F18BF34
:10046000704703F00046520043EB030313F4801F70
:1004700008BF013DF7D043EA0603704794EA0C0F2A
:100480000CEA135518BF95EA0C0F0CD050EA410640
:1004900018BF52EA4306D1D181EA030101F00041BD
:1004A0004FF0000070BD50EA410606BF10461946E5
:1004B00052EA430619D094EA0C0F02D150EA0136F1
:1004C00013D195EA0C0F05D152EA03361CBF104632
:1004D00019460AD181EA030101F0004141F0FE41D1
:1004E00041F470014FF0000070BD41F0FE4141F455
:1004F000780170BD81F0004102E000BF83F000434D
:1005000030B54FEA41044FEA430594EA050F08BFAE
:1005100090EA020F1FBF54EA000C55EA020C7FEA72
:10052000645C7FEA655C00F0E2804FEA5454D4EBEF
:100530005555B8BF6D420CDD2C4480EA020281EAB9
:10054000030382EA000083EA010180EA020281EAF1
:100550000303362D88BF30BD11F0004F4FEA013143
:100560004FF4801C4CEA113102D0404261EB410152
:1005700013F0004F4FEA03334CEA133302D05242D8
:1005800063EB430394EA050F00F0A780A4F1010494
:10059000D5F1200E0DDB02FA0EFC22FA05F28018CE
:1005A00041F1000103FA0EF2801843FA05F35941B4
:1005B0000EE0A5F120050EF1200E012A03FA0EFC33
:1005C00028BF4CF0020C43FA05F3C01851EBE3715D
:1005D00001F0004507D54FF0000EDCF1000C7EEB7A
:1005E00000006EEB0101B1F5801F1BD3B1F5001FB8
:1005F0000CD349085FEA30004FEA3C0C04F10104D7
:100600004FEA445212F5800F80F09A80BCF1004FFF
:1006100008BF5FEA500C50F1000041EB045141EA81
:10062000050130BD5FEA4C0C404141EB0101013C4A
:1006300028BFB1F5801FE9D291F0000F04BF014639
:100640000020B1FA81F308BF2033A3F10B03B3F10B
:1006500020020CDA0C3208DD02F1140CC2F10C029B
:1006600001FA0CF021FA02F10CE002F11402D8BFF9
:10067000C2F1200C01FA02F120FA0CFCDCBF41EAC5
:100680000C019040E41AA2BF01EB0451294330BD94
:100690006FEA04041F3C1CDA0C340EDC04F1140471
:1006A000C4F1200220FA04F001FA02F340EA030048
:1006B00021FA04F345EA030130BDC4F10C04C4F18E
:1006C000200220FA02F001FA04F340EA030029466E
:1006D00030BD21FA04F0294630BD94F0000F83F4B8
:1006E000801306BF81F480110134013D4EE77FEA9B
:1006F000645C18BF7FEA655C29D094EA050F08BFE7
:1007000090EA020F05D054EA000C04BF19461046C7
:1007100030BD91EA030F1EBF0021002030BD5FEA0B
:10072000545C05D14000494128BF41F0004130BD33
:1007300014F580043CBF01F5801130BD01F0004587
:1007400045F0FE4141F470014FF0000030BD7FEAFA
:10075000645C1ABF194610467FEA655C1CBF0B46F5
:10076000024650EA013406BF52EA033591EA030F0C
:1007700041F4002130BD00BF90F0000F04BF002104
:10078000704730B54FF4806404F132044FF0000537
:100790004FF0000150E700BF90F0000F04BF0021B0
:1007A000704730B54FF4806404F1320410F0004516
:1007B00048BF40424FF000013EE700BF42004FEA11
:1007C000E2014FEA31014FEA02701FBF12F07F438E
:1007D00093F07F4F81F06051704732F07F4208BF45
:1007E000704793F07F4F04BF41F40021704730B54C
:1007F0004FF4607401F0004521F000411CE700BF98
:1008000050EA010208BF704730B54FF000050AE01A
:1008100050EA010208BF704730B511F0004502D51B
:10082000404261EB41014FF4806404F132045FEA1D
:10083000915C3FF4D8AE4FF003025FEADC0C18BFC6
:1008400003325FEADC0C18BF033202EBDC02C2F1B8
:10085000200300FA03FC20FA02F001FA03FE40EA4A
:100860000E0021FA02F11444BDE600BF4A0011D285
:1008700012F5001211D20DD56FF47873B3EB6252FA
:100880000ED44FEAC12343F0004343EA505323FA06
:1008900002F070474FF00000704750EA013002D17B
:1008A0004FF0FF3070474FF0000070474FEA4102B1
:1008B000B2F1E04324BFB3F5001CDCF1FE5C0DD9BE
:1008C00001F0004C4FEAC0024CEA5070B2F1004F08
:1008D00040EB830008BF20F00100704711F0804F0B
:1008E00021D113F13872BCBF01F00040704741F4D0
:1008F00080114FEA5252C2F11802C2F1200C10FAD4
:100900000CF320FA02F018BF40F001004FEAC123B7
:100910004FEAD32303FA0CFC40EA0C0023FA02F35B
:100920004FEA4303CCE77FEA625307D150EA013331
:100930001EBF4FF0FE4040F44000704701F0004001
:1009400040F0FE4040F40000704700BF53B94AB980
:10095000002908BF00281CBF4FF0FF314FF0FF30C7
:1009600000F06EB9ADF1080C6DE904CE00F006F8A8
:10097000DDF804E0DDE9022304B070472DE9F0471B
:10098000089D04468C46002B40F083808A4217461F
:1009900047D9B2FA82F242B1C2F1200024FA00F043
:1009A0009140974040EA010C94404FEA1748230CCD
:1009B000BCFBF8F61FFA87FE08FB16C143EA0143A9
:1009C00006FB0EF1994209D9FB1806F1FF3080F0C1
:1009D0001981994240F21681023E3B445B1AA4B24F
:1009E000B3FBF8F008FB103344EA034400FB0EFEAF
:1009F000A64509D93C1900F1FF3380F00581A645D1
:100A000040F2028102383C4440EA0640A4EB0E0466
:100A100000261DB1D4400023C5E900433146BDE89E
:100A2000F08702B9FFDEB2FA82F2002A50D1CB1B66
:100A30004FEA174E1FFA87F80126B3FBFEFC210C84
:100A40000EFB1C3341EA034108FB0CF38B4207D930
:100A500079180CF1FF3002D28B4200F2E980844613
:100A6000C91AA3B2B1FBFEF00EFB101143EA014418
:100A700008FB00F8A04507D93C1900F1FF3302D26A
:100A8000A04500F2D9801846A4EB080440EA0C40C7
:100A9000BFE78B4209D9002D00F0B1800026C5E9DF
:100AA000000130463146BDE8F087B3FA83F6002EE8
:100AB0004AD18B4202D3824200F2B880841A61EBA1
:100AC000030101208C46002DA8D0C5E9004CA5E704
:100AD000C2F1200320FA03F6974001FA02F04FEA30
:100AE000174ED9403043030CB1FBFEF61FFA87F8CE
:100AF0000EFB161143EA014306FB08F1994204FA82
:100B000002F409D9FB1806F1FF3C80F08D80994270
:100B100040F28A80023E3B445B1A81B2B3FBFEF096
:100B20000EFB103341EA034100FB08F38B4207D967
:100B3000791800F1FF3C73D28B4271D902383944E5
:100B4000CB1A40EA064678E7C6F1200C03FA06F411
:100B500022FA0CF31C4320FA0CF701FA06F34FEAD1
:100B6000144E21FA0CF11F433B0CB1FBFEF91FFAA6
:100B700084F80EFB191143EA014109FB08FA8A4582
:100B800002FA06F200FA06F308D9611809F1FF30FB
:100B900048D28A4546D9A9F102092144A1EB0A01AC
:100BA000BFB2B1FBFEF00EFB101147EA014700FB9C
:100BB00008F8B84507D9E71900F1FF312ED2B8453A
:100BC0002CD90238274440EA0940A7EB0807A0FBCC
:100BD00002894F45C64649461AD317D05DB1B3EBDB
:100BE0000E0267EB010707FA0CFCF2404CEA020226
:100BF000F740C5E9002700263146BDE8F0872E46BC
:100C000028460BE70646E9E61846FDE64345E5D2E9
:100C1000B8EB020E69EB04010138DFE70846D2E7C2
:100C200060468DE78146B9E7664675E730464AE794
:100C3000ACF1020C394413E702383C4424E700BF0E
:100C4000704700BFDFF834D0002103E00C4B5B5845
:100C5000435004310B480C4B42189A42F6D30B4ACE
:100C600002E0002342F8043B094B9A42F9D31BF0FF
:100C70004DFB36F05DFC01F0F5F9704700000520F2
:100C800010D7030800000020680100206801002040
:100C900028230120FEE700F0EFBD00F05DBE00213B
:100CA00008461AF09BBE00201AF0D2BE406870477A
:100CB00041607047054A136843F080731360044A2B
:100CC000136843F001031360704700BFFCED00E0C0
:100CD000001000E0511A01EB5301B1FBF3F0704733
:100CE000014B1868704700BF041000E0704710B552
:100CF0000C21044636F0ADFA204610BD036810B54D
:100D00001B69044631B19847A26863689B1A18446E
:100D1000606010BD9847A060FBE770477047000017
:100D200008B5FFF7BCFF024B00221A6008BD00BFE8
:100D30008401002070B50D46FFF7B5FF0B4A93788C
:100D400056781178D370C4B213F0010096705170C8
:100D500014700AD016F0010007D011F0010004D081
:100D6000E3075ABF01202870002070BD84010020D5
:100D700010B50421044636F06CFA204610BD7047C9
:100D800010B50421044636F064FA204610BD000078
:100D900008B54FF4F0714FF448701BF003FA074B9D
:100DA00010B901221A7008BD1B78002BFBD1044B2F
:100DB000044A0548242136F07BFA00BF8801002050
:100DC0003C8503084F850308798503087FB50B4BE5
:100DD0001C780E4615465CB101A81BF021FA9DF85F
:100DE000043043B1BDF806303360BDF80A302B60E3
:100DF000204604B070BD1C46FAE700BF8801002001
:100E000010B1012809D07047084B09481A68B2FA96
:100E100082F2520940211CF0AFBD044B05485A68CC
:100E2000B2FA82F252091021F5E700BF8C010020CE
:100E300000180240000C024010B1012809D0704790
:100E4000084B09481A68003A18BF012240211CF0DB
:100E500093BD044B05485A68003A18BF012210217F
:100E6000F5E700BF8C01002000180240000C024092
:100E700010B1012804D07047034840211CF081BD07
:100E800002481021FAE700BF00180240000C02409F
:100E900008B530B1012809D00020431E58425841FE
:100EA00008BD044840211CF061FDF6E7024810210E
:100EB000F9E700BF00180240000C024070B5084D71
:100EC00000240126E0B2FFF7E3FF18B12B68012BE5
:100ED00018BF2E600134052C05F10405F2D170BD58
:100EE0008C010020012380F8741080F87530704761
:100EF0000020704700207047836B0BB108461847ED
:100F000070474FF6FF707047406803689B69184749
:100F100070477047014B1868704700BF9C01002064
:100F20007047000038B50446094DFFF7C7FF20465B
:100F300000F094FD002384F84A302846FFF7BAFEFB
:100F4000012384F86C30034B2561636138BD00BF19
:100F5000A8010020A40100200368044607B59B6F88
:100F60009847236820461B6F984700F017FA2368BC
:100F700020469B6E984700210648009129231522A0
:100F80001CF0E3FA00F00AFA236820469B6E9847AB
:100F9000F8E700BF4020012010B5044621F0E6FF2D
:100FA00023682046D3F8A030BDE81040184700F071
:100FB00054BD00F06BBD00F06BBD00F03DBD00F016
:100FC00043BD00F067BD0000024B00221A7021F003
:100FD000BFB900BF1400002010B5044621F0C4F9C9
:100FE00094F84B3013B1024B01221A7010BD00BFB0
:100FF0001400002021F072B910B57C21044636F0AF
:1010000028F9204610BD90F877301BB1406803687E
:101010001B6818471846704730B590F8341090F8A0
:101020007440104B8C421A780DD05AB90E4A0F49B1
:101030000F4814880F4D0C8001881180298004808E
:1010400001221A7030BD002AFCD00948074A0188E5
:101050001180054A074D14882C80118004800022DD
:10106000EFE700BF901C01208C1C0120921C012086
:101070008E1C0120941C012010B50C4C216031B94C
:101080000B4B0C4A0C484FF4257136F011F9C0E9AE
:101090000F12003A0949436418BF01220A70003B4D
:1010A000074A18BF0123137010BD00BF9C01002028
:1010B000F08503082886030876860308961C01201D
:1010C000971C0120012807B50AD84B7800930B78AC
:1010D0000848152200211CF038FA03B05DF804FB23
:1010E00001910B5C009339220346002101481CF05A
:1010F0003DFAF2E74020012037B50B4A0B4C0223A2
:101100001525137055700192442200920021392256
:1011100020461CF02BFA0021009135232A46204658
:101120001CF013FA03B030BDB401002040200120B0
:1011300007B50190FFF7E0FF019803B05DF804EBFD
:1011400000F08ABC07B5074B03EB80002A2301900F
:10115000009339220423002103481CF007FA03B04E
:101160005DF804FB040000204020012070B5154DFF
:1011700004460020FFF744FE2A6892F866300133E7
:1011800082F8663000F0FEF80F4B28681A781B785A
:1011900080F84A2023B10D4D2B7803F0FF0623B1D0
:1011A000BDE870400020FFF747BE21F0DFFE084B8E
:1011B00030461E60FFF7C6FF20461CF0B6F901233B
:1011C0002B7070BD981C012014000020B601002077
:1011D000A0010020304B314A70B505461868304CEC
:1011E000013018602F4B03281E682ADCD4F8041441
:1011F0004FF4C87303FB006321F00801C4F8041422
:1012000093620CBFE823C823023327491B0443F42D
:10121000F1730B61254B4B61A3F5F0735360244BC5
:10122000D36201234B62FFF78DFF1D4AD2F80434CD
:1012300043F008032846C2F80434BDE870401CF0AF
:1012400074B9D4F804341B4923F00803C4F80434F7
:10125000154B9662196101F10111596116495160EE
:101260001349D16201225A620020FFF76BFFD4F8C4
:10127000043443F00803C4F804340020FFF7DCFD15
:101280000E4B00221A700E4B186820B10368BDE89F
:101290007040DB69184770BDA001002084680140E0
:1012A000006C01409C01002000680140E301CA007D
:1012B00093018006E201CA000300CA00B6010020C3
:1012C000981C012008B5044B0146186801B10121A2
:1012D00021F066FE012008BD981C0120054B064840
:1012E00000225A609A60054A1A60054B0360FFF7B6
:1012F00017BD00BFA8010020A4010020008503083D
:1013000028850308012108B5002208461EF09CFC30
:101310000A4B186028B90A4B0A4A27210A4835F0B7
:10132000C7FF0022042101201EF02CFD074B18608E
:1013300018B9074B034A2B21F0E708BDBC01002078
:1013400088870308D187030800880308B8010020B4
:101350005E880308024B4FF0FF3118681EF0BEBCD8
:10136000BC010020014B18681EF0E4BCBC01002049
:10137000024B002118681EF0B1BC00BFBC01002068
:10138000FFF7F0BF03480449006800231A461EF027
:1013900035BD00BFB80100201800002013B5084C6F
:1013A00000231A4601A920681EF058FD20684FF05E
:1013B000FF33002201A91EF051FD02B010BD00BF95
:1013C000B80100201EF022BC03685B6C18470120A6
:1013D000704703689B6A184782B0002301930D4B46
:1013E0001A6B42F400021A631A6B02F400020192B3
:1013F000019A1A6942F400021A611A6922F4000281
:101400001A61054B054A1A61054B4FF080629A60DC
:1014100002B0704700380240782101202D140008E6
:1014200000E100E040F2EF3070470000024B1B6823
:10143000586803685B691847981C012008B50B2899
:101440000BD8DFE800F01206100A0A0A0A0808089A
:101450000808012008BD0520FCE7054B054A0648A1
:10146000652135F025FF0020F4E70220F2E700BFF8
:10147000A0880308BB8803080789030808B50A2861
:1014800009D8DFE800F010060E080808080606066E
:101490000600012008BD054B054A0648862135F0A7
:1014A00007FF0020F6E70220F4E700BFA08803084A
:1014B00063890308078903082DE9F84391F81D8023
:1014C0000C464046FFF7BAFFA77F05463846FFF7B0
:1014D000B5FF06463846FFF7D1FFA18A628B534B12
:1014E000521A1A649A61228B521A1A61E28A58635C
:1014F00042EA01425A6421696268D963DA60D4F829
:1015000000C094F81C90BCF1800F4FEA09629E461F
:101510003BD015D8BCF1200F45EA020079D0BCF1D0
:10152000400F76D0BCF1040F2BD0404B2A4342F43D
:101530000032B845DA6114BF3D4A40F201221EE094
:10154000BCF5807F07D0BCF5007FEED142F40032BD
:1015500042F0090203E042F4003242F00A02DA618A
:10156000E0680202440102F4780204F47C44C00002
:101570002243C0B202431A622E4A5E6259611A6067
:1015800043E040F40030D861F6E7A0682A4342F413
:101590000032041DDC62DA6102785E62596142B198
:1015A000012A1CD0244B254A25484FF4887135F078
:1015B0007FFE4288D969501E21F47F4222F010023A
:1015C00042EA0022DA610125184CE36943F0200366
:1015D000E361E3699B0613D5FFF7F4FEF9E7428860
:1015E000D969501E21F47F4222F0100242EA002203
:1015F000B9F1FF0542F0100218BF0125DA61E3E7F7
:101600001023A3601DB10B4B2360BDE8F883084B8A
:10161000FAE7084B40F40030CEF81C00CEF8246006
:10162000CEF81410CEF80030EFE700BF00B0024053
:101630000102010001020200B0890308CA890308FF
:1016400007890308F8B58E7F0C463046FFF716FF72
:10165000A78AE18A628B1E4B2569586341EA0741DC
:10166000D21B5964DD631A642168082918D19A6174
:101670001A615862217F174A42EA0162DA61E16821
:101680000A02480102F4780200F47C40C9000243D7
:10169000C9B20A431A62104A5D61DD601A60F8BD82
:1016A0000022D8611A61E1681EB99963084B0B4AA0
:1016B000F4E70A02480102F4780200F47C40C90011
:1016C000C9B202430A43217F42EA01629A63EDE70D
:1016D00000B0024009000100010202000102030003
:1016E000054B0360054B4FF08062C3F88820BFF3C1
:1016F0004F8FBFF36F8F7047148A030800E100E03B
:1017000010B50446FFF7ECFF20464FF4426135F078
:10171000A0FD204610BD000070B5044625460A4BCA
:101720000C30002660602672667245F8203B60220D
:10173000294621F06DFD04F54263EE602035AB4291
:10174000FBD1204670BD00BF148A030801207047FA
:101750000C2070470C2303FB0100083070470C235A
:1017600003FB0100083070470120704747F2FC502E
:10177000704747F2FC5303FB01000830704747F203
:10178000FC5303FB01000830704701207047102014
:10179000704700EB01100830704700EB0110083073
:1017A0007047084601F008BD10B5034B03600446BE
:1017B00020F0A8FB204610BDCC8A030810B50446D3
:1017C000FFF7F2FF2046142135F043FD204610BDFF
:1017D00010B5034B0360044620F094FB204610BD77
:1017E000988A030810B50446FFF7F2FF204647F237
:1017F000046135F02EFD204610BD000010B5034BEE
:101800000360044620F07EFB204610BD648A030876
:1018100010B50446FFF7F2FF2046182135F019FDF8
:10182000204610BD10B5094B0360044600F5EC409E
:101830003030FFF7B9FF04F12C00FFF7C9FF04F1C6
:101840001400FFF7DBFF204610BD00BF008B03082C
:1018500008B50248FFF7E6FF08BD00BFC40100203D
:1018600010B50446FFF7DEFF204647F2A47135F0BD
:10187000F0FC204610BD00002DE9F34101F0DEFB35
:10188000054601F0DFFB0024014623462846224698
:10189000009428F009FA244B244A254D1A6020466A
:1018A00017F082F9234828F041F92B78BFF35B8FBA
:1018B000DB0733D4284635F0CEFC78B31E4C1F4FDF
:1018C0001F4B236007F11C0604F1140004F12C08DF
:1018D0006060C4F80880E760266120F015FB194BB2
:1018E0006361404620F010FB174BE362384620F05E
:1018F0000BFB164B3B6007F1140017F0EFF9224683
:1019000007F11401304617F0D5F9304601F054FCC8
:10191000284635F0ACFC0E4835F0E8FC0D4802B026
:10192000BDE8F041FFF7FEBA141D01200886002033
:10193000C00100201C000020C4010020F47700201A
:10194000008B0308648A0308988A0308CC8A03087A
:10195000511800088C8500200148FFF7FDBA00BF30
:101960008C85002070B5244C244E254B254D2360DA
:101970003046FFF7D1FE28462BF01AFA224B002200
:101980004FF48071C3E912122049DC60C3E91912D7
:101990004FF080715967012183F878101C491D4C64
:1019A0000B601D491A854FF4507008804FF4F07198
:1019B000C3E90422C3E90622C3E90822C3E90E22CF
:1019C000C3E91022C3E91422C3E9162283F82A20AE
:1019D000DA621A861A6683F86C201A67C3E9016511
:1019E00021800E4C83F8342022700D4C0D4A20804B
:1019F0000D481A60018070BD687900206C79002064
:101A0000E08503080C8600208C8500200100000181
:101A1000981C01208E1C01208C1C0120901C012090
:101A2000921C0120C4860308941C01200148FFF782
:101A300057BE00BF6C790020024B902283F85A23D6
:101A4000704700BF00E100E0024B4FF080629A60F7
:101A5000704700BF00E100E07047704738B50446AA
:101A600020F08FFC2368DD6D24F094FE01462046B3
:101A7000A8472368D3F8805000231A464FF040410E
:101A80002046A847012384F84A3038BD20F02CBCFA
:101A900020F085BD044B4FF08062C3F88820BFF36F
:101AA0004F8FBFF36F8F704700E100E07FB50023D9
:101AB0000121CDE903310293642302460093694674
:101AC000034B04481AF0A2FD07B05DF804FB00BF09
:101AD000D81F01204C210120A0F5977057289ABFEC
:101AE000014B185C002070470C8B030800000000BD
:101AF0002DE9F04FB24C89B0234601AA00211AF01B
:101B0000D5FD019A40F282239A42254611D1A3784D
:101B1000E07803EB0020FEF73FFEA5A3D3E9002306
:101B2000FEF7BEFBFEF7A2FEA64B186009B0BDE8AB
:101B3000F08FB2F5407F1BD1A34B01221A60A34B5B
:101B400022781A706378A24A19091170A14A03F029
:101B50000F031370A378A04A190911709F4A03F06C
:101B60000F031370E3789E4A03F003031360DDE76D
:101B7000A2F59673132B34D89A4B012110461960A5
:101B8000FFF7AAFF984951F820305C1C13F00103BD
:101B900041F8204095490ED0D30716D508231022CE
:101BA00012FB0030864C014414F8012B01F8012B84
:101BB000013BF9D1BAE704B201EB04141D4601332D
:101BC000102B04F8015BFAD1E6E700B27C4A01EB86
:101BD0000011082312F8010B01F8010B013BF9D1A8
:101BE000A4E7652A1ED17F4B01221A60804B227820
:101BF0001A706278A37803EB02236422B3FBF2F33A
:101C00007C4A1380E278237903EB02237A4A13801B
:101C10007A4B62791A70A279E37903EB0223784A4E
:101C2000138083E7662A2ED1764BE07801221A6072
:101C3000754B62781A60754B22791A60A37807EEAB
:101C4000903AF8EE677AF2EE046A87EEA67A704B65
:101C500083ED007AFEF7A0FD57A3D3E90023FEF73A
:101C60001FFB6C4B0022FEF71BFBFEF71FFE6A4BAF
:101C700062791860694B1A70694BA2791A70E2791F
:101C8000684B1A7052E7A2F5AF73132B5BD8554B14
:101C9000654D012110461960FFF71EFF634951F899
:101CA00020305C1C13F0010F41F8204060494FEADE
:101CB00080041FD00B1912F0010F93ED007ADFEDB5
:101CC0005D6A25D02022382313FB00203C4E284497
:101CD000062216F8013B03EB830307EE903AF8EE79
:101CE000E77A013A67EEA67A37EE277AE0EC017AD6
:101CF000EFD124E00B1900261E6003B2C3EBC3032F
:101D000005EBC3030E27013F43F8046BFBD1D1E77A
:101D100000B2C0EBC0002A4E05EBC000082216F846
:101D2000013B03EB830307EE903AF8EEE77A013AC2
:101D300067EEA67A37EE277AE0EC017AEFD12144FC
:101D400081ED007AF2E6A2F5BE73092B7CD8254B13
:101D5000394D012110461960FFF7BEFE374B9FED4C
:101D6000387A03EB800300221A6000B2354AC0EBD8
:101D7000C00002EB8000072214F8016BD3ED006A6B
:101D800007EE906AF8EE677AF4EEE67AF1EE10FA72
:101D9000C8BFC3ED007AE0EC017AD3ED007AF4EE2F
:101DA000C77AF1EE10FAA8BF2960013AE4D1BDE686
:101DB000616D8C9DF0127C3F90D1BE500000293F98
:101DC000048D0020108D0020D88C0020188D00205C
:101DD000518800205288002050880020538800201D
:101DE00058880020E48C0020841F01206088002097
:101DF000F58C00209C8C00205E8800202889002023
:101E00005C880020EC8C00207C1F0120DC1F01205E
:101E1000D48C002000007040A08C0020A78C0020F3
:101E2000E08C0020A88C00206C8A0020B01F0120CC
:101E3000448A00200000803B1C8D00200089002087
:101E4000000070422C890020B2F5C87F21D1344BAC
:101E5000DFF808A1334F0FF2C009D9E90089012248
:101E6000A3461A60042400261BF8010BFEF794FC1D
:101E700042464B46FEF714FA32463B46FEF710FA4E
:101E8000FEF714FD013C4AF8040BEDD12A79264BEC
:101E9000F7E6962A0BD1254B01221A60244B2278B3
:101EA0001A70244B62781A70A278234BE9E640F24C
:101EB00091139A421BD11A4B204901221A60204AE1
:101EC000062311F8010B07EE900AF8EE677A013B42
:101ED000E2EC017AF5D1AA79EB791A4913430B6048
:101EE000002A3FF423AE184B01221A601EE640F28E
:101EF00093139A4205D1154BA2791A60E279144BDB
:101F0000F3E7982A7FF412AE124B22781A606278B7
:101F1000114BEAE7AFF3008090D1BE500000293F9B
:101F2000EC8C002000007040A48C0020D88C002095
:101F3000E08C0020FC8C0020FD8C0020048D002013
:101F4000AC8C0020AC1F01201C8D00205488002088
:101F5000801F0120008D0020F88C0020C48C002000
:101F600010B5114C8AB0012120461AF016FC02214E
:101F700020461AF012FC102120461AF00EFC002315
:101F80000F22CDE90523CDE90033CDE902330493D7
:101F9000694601232046CDE907331AF081FA20462D
:101FA0001AF006FB0AB010BD4C21012001490020A7
:101FB0001FF0C6BAC512000808B564201DF038FE2F
:101FC000FBE7000030B595B01022002109A835F0DC
:101FD000F5FA1422002102A835F0F0FA00241F4B74
:101FE00000941A6C42F080521A641B6C03F0805308
:101FF0000093009B1A4B01941A6842F440421A6005
:102000001B6803F4404301930122019B4FF480338A
:10201000CDE9072302254FF480030821CDE90D53B4
:102020004FF4B473CDE90F1304200623CDE9120356
:1020300007A811951DF052F81CF0A2FA0F23CDE964
:10204000023504944FF480534FF4A054052102A8A4
:10205000CDE905431CF016FE15B030BD0038024036
:10206000007000402DE98048BBB01AF05DF9FFF721
:10207000A9FF142200212DA8002435F09FFAC44B9B
:1020800003941A6BC34842F010021A631A6B02F0F1
:1020900010020392039A04941A6B42F002021A632C
:1020A0001A6B02F002020492049A05941A6B42F031
:1020B00040021A631A6B02F040020592059A0694D8
:1020C0001A6B42F008021A631A6B02F008020692B9
:1020D000069A07941A6B42F480721A631A6B02F420
:1020E00080720792079A08941A6B42F020021A63D2
:1020F0001A6B02F020020892089A09941A6B42F4B3
:1021000080621A631A6B02F480620992099A0A9437
:102110001A6B42F080021A631A6B02F080020A9274
:102120000A9A0B941A6B42F004021A631A6B02F0BB
:1021300004020B920B9A0C941A6B42F001021A6380
:102140001A6B02F001020C920C9A0D941A6B42F475
:1021500000721A631B6B03F4007322464FF488610C
:102160000D930D9B1BF008FC8B48012208211BF0EE
:1021700003FC8A48224610211BF0FEFB22468848B9
:1021800080211BF0F9FB4FF4006382482F942DA9A6
:102190000127CDE92D344FF4806A1BF05FFA7D48AA
:1021A0002DA91125CDE92DA7CDE92F441BF056FA15
:1021B000082279482DA94FF00208CDE92D254FF0CE
:1021C0001009CDE92F441BF049FA74482F942DA92A
:1021D0008026CDE92D97CDF8C0801BF03FFA7148DD
:1021E0002F942DA9CDE92D641BF038FA40236948BE
:1021F0002DA9CDE92D374FF0030BCDE92F481BF06A
:102200002DFA6748CDF8C0B02DA9CDE92D652F94E2
:102210001BF024FAC0222DA963482F94CDE92D2468
:102220001BF01CFA6148624D624A02601AF036FCEB
:102230006149C5E90A44C5E90C442846C5E90014CA
:10224000C5E902441AF03EFD394628461AF0F2FD6F
:102250003146224652481BF08FFB14201AF090F8AA
:1022600031463A464E481BF087FB0A201AF088F8A0
:102270002422214617A835F0A1F91822214611A8D9
:1022800035F09CF9342221462DA835F097F92C22FF
:1022900021460DEB0600494E35F090F9484A10945E
:1022A0007D210425CDE90E1830460EA9C6E900248B
:1022B000C6E902571AF086FE17A93046CDE9177411
:1022C000CDE91944CDE91B44CDE91D441F941BF011
:1022D000A3F81C232121CDE911310F221921CDE9C9
:1022E0001321304611A9CDE915441BF058F82946B1
:1022F00030461BF043F842F2107130461BF097F95C
:10230000214630461AF0FBFD4FF4006C4FF4805329
:102310004FF4005ECDE930C34FF48043CDE932E3A2
:102320004FF480324FF480704FF400714FF400335B
:10233000CDE93423CDE92D014FF400234FF4802162
:10234000CDE9361330464FF080732DA9CDE93838EA
:10235000CDF8BCA01AF0DEFFC82320A93046CDE995
:102360002239CDE92445CDE92044CDE92684CDE9C3
:1023700028442A971AF05CFF214630461AF047FF9E
:10238000104811490462C0E90014402320211DE0D7
:10239000003802400018024000280240000C0240B1
:1023A000001C0240000802400000024038200120CA
:1023B000782101200030024000B00240402001207E
:1023C000006C0140B8210120400100A0C0E90413C5
:1023D0004FF4C071C0E9061407214FF4805C4FF43C
:1023E0008043CDE92E15CDE9301B2DA9C0E909C3E5
:1023F000C0E90245CDE93288CDF8B4801DF024F85B
:1024000019F0BAFE19F06AFE2146342220A835F0F0
:10241000D5F86F4D6F4AAC864FF0CA0EC5E900245F
:102420004FF4F172C5E909E24FF0CB0B40F2E31231
:102430002846C5E90BB2C5E90244C5E90447C5E928
:102440000678C5F8208085F836401BF063FFFF2131
:10245000C8234FF4F072CDE925144FF0050B4FF06F
:102460004041CDE92A32CDE92328CDE928B12246E1
:1024700020A92846CDE921342094CDF89CA0ADF8C0
:10248000B0408DF8B2401CF011F82A68936923F02F
:102490000103936130461BF025F83946404618F099
:1024A000DFFF282315222146009430461BF04DF80B
:1024B0002DA93046CDE92D44CDE92F44CDE9314455
:1024C000CDE93344CDE9354437941AF023FF4FF476
:1024D0004871224628461CF017F82A683E4893693E
:1024E0003E4D3B4393613E4B0462C0E900371B23E2
:1024F000C0E9043AC0E90279C0E906441CF058F981
:1025000019F0B2FC19F0E6FB19F05CFB354A364BCA
:102510002C62C5E9002328464FF48043C5E9043402
:10252000C5E90244C5E906441BF010FC28461BF02F
:10253000B5FC2E482E4B84614FF46021C0E9003B6E
:1025400084834FF48013C0E90413C0E9024419F0F6
:102550002BFF4A4621462DA835F030F8254D264858
:10256000AC604AF6C873C5E9000341F270732846AF
:10257000C5E90334CDE92044AC611DF003F94FF403
:1025800080532DA928462D931DF032F920A9284605
:10259000CDE920441DF0C8F9FEF77DFBFFF7E0FC14
:1025A00000F0E6FC28461CF0A7FF1DF0B9FA134A1C
:1025B000134821461DF0E0FA124B134A18602146D9
:1025C00012481DF0D9FA124B18601DF0BBFAFEE755
:1025D000A420012000680140EC210120E41F01201B
:1025E000001000A000540040801A06004C21012079
:1025F000006800405C20012000040040A48B030818
:10260000B91F0008E01F0120808B03089B0C000805
:10261000742101207047000082B00E4B002200920E
:10262000596C41F480415964596C01F48041009126
:1026300000990192196C41F0805119641B6C03F0F0
:1026400080530193019B0F216FF0010002B01AF03B
:10265000D1B900BF0038024010B5044688B014223A
:10266000002103A834F0AAFF2268224B9A423ED1EF
:1026700003F5E833002400941A6C1F4842F080628E
:102680001A641A6C02F080620092009A01941A6C2B
:1026900042F000721A641A6C02F000720192019A00
:1026A00002941A6B42F002021A631B6B059403F04A
:1026B0000203029342F22002029B0223CDE903238C
:1026C00003210923CDE9061303A91AF0C7FF224607
:1026D000052140201AF08EF940201AF0BDF9412062
:1026E000224605211AF086F941201AF0B5F908B002
:1026F00010BD00BF00680040000402400268094BA2
:102700009A4282B00BD100230193074B1A6B42F41B
:1027100080521A631B6B03F480530193019B02B038
:10272000704700BF003002400038024007B50F4B31
:1027300002689A4216D10022A3F5F0430192196B68
:1027400041F4000119631B6B03F40003019305219D
:102750005A20019B1AF04EF95A2003B05DF804EBA1
:102760001AF07AB903B05DF804FB00BF00B0024074
:1027700010B5044688B01422002103A834F01EFFCF
:102780002268184B9A422AD103F54C430024019445
:102790005A6C154842F000625A645A6C02F00062AA
:1027A0000192019A02941A6B42F400721A631B6B35
:1027B00003F4007302930422029B0223CDE9032356
:1027C00003A90D230793CDE905441AF047FF5C20C8
:1027D000224605211AF00EF95C201AF03DF908B0E6
:1027E00010BD00BF006C01400024024030B504461B
:1027F00089B01422002103A834F0E0FE22681A4BAD
:102800009A422FD1194C1A4800250195236B43F0A9
:1028100002032363236B03F002030193019B4FF434
:1028200040721223CDE9032301210323CDE90513CF
:10283000042303A907931AF011FF0295236C43F4B4
:1028400000132364236C03F400130293029B236A96
:1028500043F400132362236A23F4001323626420E9
:1028600019F08EFD09B030BD005400400038024020
:102870000004024008B502680A4B9A4210D10A4A85
:102880000A48136C23F4001313644FF480711AF098
:10289000CBFFBDE8084005484FF400711AF0C4BFF3
:1028A00008BD00BF00540040003802400004024050
:1028B00010B5044690B03C22002101A834F07EFE01
:1028C0002268134B9A4221D1082301934FF4B47329
:1028D00005930024062301A808930B941CF09CFA8E
:1028E00008B1FFF797FE0B4B00945A6C42F08062E0
:1028F0005A645B6C03F0806300935820002205212A
:10290000009B1AF077F858201AF0A6F810B010BD06
:102910000068014000380240F0B5044689B0142236
:10292000002103A834F04AFE2268244B9A4243D186
:10293000234B2448002400949A6B42F002029A63CD
:102940009A6B02F002020092009A01941A6B42F014
:1029500002021A631A6B02F002020192019A0294B7
:102960001A6B42F020021A631B6B059403F02003DC
:10297000029302260325029B0A27402303A9CDE9DF
:102980000336CDE906571AF069FE4FF49863CDE996
:1029900003360D48092303A90793CDE905451AF02D
:1029A0005DFE4FF440730848079703A9CDE903364D
:1029B000CDE905451AF052FE09B0F0BD001000A0A7
:1029C00000380240000402400014024008B50268CA
:1029D000094B9A420FD1094A0948936B23F002032D
:1029E000936340211AF020FFBDE8084005484FF4EA
:1029F000F8611AF019BF08BD001000A000380240AD
:102A0000000402400014024007B50F4B02689A42CE
:102A100016D1002203F50D330192196C41F0020129
:102A200019641B6C03F00203019305211D20019B17
:102A300019F0E0FF1D2003B05DF804EB1AF00CB8AC
:102A400003B05DF804FB00BF00040040F0B5314B5B
:102A50001C6887B0002C5BD101221A602E4B0094B9
:102A60009A6B2E4842F001029A639B6B039403F029
:102A700001030093022703260C25009B01A94FF6B2
:102A80008373CDE90137CDE904651AF0E7FD48F21B
:102A900033132348059501A9CDE90137CDE9034654
:102AA0001AF0DCFD4CF203731E48059501A9CDE92F
:102AB0000137CDE903461AF0D1FD40F2FF631A4811
:102AC000059501A9CDE90137CDE903461AF0C6FD08
:102AD0004FF63F031548059501A9CDE90137CDE92A
:102AE00003461AF0BBFD4FF47F431148059501A939
:102AF000CDE90137CDE903461AF0B0FD0D230D48AD
:102B0000059501A9CDE90137CDE903461AF0A6FDE7
:102B100007B0F0BD88860020003802400010024057
:102B200000180240000C0240002002400014024045
:102B3000001C02400008024008B5174B1A6852BB3F
:102B400001221A60154A1648936B23F00103936320
:102B50004FF683711AF068FE124848F233111AF0EA
:102B600063FE11484CF203711AF05EFE0F4840F20A
:102B7000FF611AF059FE0E484FF63F011AF054FE5D
:102B80000C484FF47F411AF04FFEBDE808400A4858
:102B90000D211AF049BE08BD84860020003802408D
:102BA0000010024000180240000C024000200240C9
:102BB00000140240001C02400008024030B50146EB
:102BC00089B00022362019F015FF362019F044FF95
:102BD0000025154B02951A6C144C42F010021A6431
:102BE0001B6C03F01003029301A903A8029B1CF0C5
:102BF000F5F81CF0E3F80E4B236040F2E733E36096
:102C000040000C4BB0FBF3F00138606020462561BA
:102C1000A5601CF0B7FD20B920461CF06DFC09B082
:102C200030BD0120FBE700BF003802403822012000
:102C30000010004040420F007047FEE7FEE7FEE74D
:102C4000FEE7704701481CF095BC00BF5C200120E6
:102C500001481CF08FBC00BF38220120014819F048
:102C6000B9BD00BF4C210120FFF7F8BF01481BF0A0
:102C7000C0BB00BFA420012001481AF051B800BF1A
:102C80007821012001481AF050BA00BF40200120ED
:102C90000120704708B534F03DFB162303604FF068
:102CA000FF3008BD08B534F035FB16230360FEE79E
:102CB00070B50E4614460025A54201DB204670BDC6
:102CC000AFF3008070550135F6E770B50E46144637
:102CD0000025A54201DB204670BD705DAFF300808A
:102CE0000135F6E74FF0FF3070474FF400534B606B
:102CF00000207047012070470020704708B50A4B3C
:102D00001968024609B909491960186869460244F8
:102D10008A4206D934F0FEFA0C2303604FF0FF30EC
:102D200008BD1A60FCE700BF8C8600202823012024
:102D30002DE9F041244E254F0024346025464FF004
:102D40000108802138461AF011FE20B91DB919F08A
:102D500011FB01240546802138461AF007FE0028A1
:102D6000EFD0002CEDD019F005FB401BB0F5AF7F84
:102D7000E7D9336823B9C6F8008000242546E0E788
:102D8000012B02D102233360F7E7022B01D1032389
:102D9000F9E7032B01D10423F5E7042B01D1052327
:102DA000F1E7052B01D10623EDE7062B01D107231F
:102DB000E9E7072B01D10823E5E7082B01D1092317
:102DC000E1E7092BD9D1D6E70C8D0020000802409D
:102DD0002DE9F04F374A384FDFF8EC90002585B0E9
:102DE0001570CDE90055354ACDE902550121116034
:102DF0002E46A846BA46012302A88DF80830FEF7F1
:102E000055FE1E2019F0BCFA3B78022B02D03B780D
:102E1000052B4BD1802148461AF0A8FD8045044679
:102E2000834602D019F0A6FA064619F0A3FA801BD1
:102E3000322822D9A54220D0012C39D1DFF8808058
:102E40000A24402148461AF091FD10B1FF238DF865
:102E500001304FF4006140461AF088FD10B1FF23A5
:102E60008DF80230684601258DF80050FEF71EFEF1
:102E70001E2019F085FA013CE3D19AF80030072BA7
:102E800012D101224FF480610D481AF075FD40F611
:102E9000B83019F075FA002209484FF480611AF031
:102EA0006BFD084B00221A60D846A4E7C346E4E74E
:102EB0002546E2E7F48C0020188D00200C8D0020C0
:102EC00000180240148D00200000024002681B4BD5
:102ED0009A4210B5044601D119F040FA2268184B05
:102EE0009A4214D1174A184B116889B10021196010
:102EF0001160164A164B1168C9B1002119601160A2
:102F0000144A154B1168A9B100211960116010BD58
:102F100001221A60114A05231370114A1370114AD5
:102F20001370114A1370114B03221A60E1E701225A
:102F30001A60E5E701221A60E9E700BF00100040CF
:102F400000040040D88C0020DC8C0020EC8C002099
:102F5000F08C0020E48C0020E88C002051880020B8
:102F60005288002050880020538800205888002074
:102F700037B5002224210A201DF0BAFB0D4B186042
:102F800001201DF0CFFC0C4B0C49186000240525D6
:102F90002346CDE90054802209481EF067F9CDE9A7
:102FA000005408490848234680221EF05FF903B008
:102FB00030BD00BF8022012084220120C88B03087D
:102FC000D12D0008D18B0308312D0008704708B5BA
:102FD00009292AD8DFE801F00505090D1115191D89
:102FE000212515F02FFE006808BD15F02BFE406866
:102FF000FAE715F027FE8068F6E715F023FEC068B3
:10300000F2E715F01FFE0069EEE715F01BFE4069C0
:10301000EAE715F017FE8069E6E715F013FEC069D0
:10302000E2E715F00FFE006ADEE70020DCE710B5EE
:103030000421044634F00DF9204610BD00487047C5
:10304000F08B03080120704713B5002451B10368C9
:1030500001948DF8034001AA9C680DF10303A04779
:1030600002B010BD0846FBE7408970478089704771
:103070008088704783798088184480B27047C0790F
:1030800000F07F007047C079C0097047704710B5E5
:103090000821044634F0DDF8204610BD704700F5E5
:1030A00096730868496803C370477047704741606A
:1030B000704770470123037270477047704710B420
:1030C000C26841685410034601EB6200D20748BF52
:1030D0000A599B685DF8044B48BFD35818474368AA
:1030E0002BB183682BB9C06800F001007047184607
:1030F00070470120704710B50C21044634F0A9F840
:10310000204610BD10B51021044634F0A2F8204628
:1031100010BD10B54FF4AC71044634F09AF8204657
:1031200010BD10B523F036FB0368BDE810401B6BE3
:10313000184710B50446D0F83C0158B10368DB6865
:10314000984738B1D4F83C0103689B68984700233E
:10315000C4F83C3110BD0000F8B5044617460E46D1
:1031600023F038FB104B0025C4E954760F4E1C6049
:10317000C4E952550E4B306823600E4BC4E95035FC
:10318000036829469B68C4E94E559847284615F0C0
:103190000BFD336893F876200AB1D86C00B99868B3
:1031A0002BF039FB2046F8BD041D0120981C01209E
:1031B000749703085C970308064BC0F84831002356
:1031C000C0F84C3100F5A073C0F84401C0F83C31A0
:1031D000704700BF1D340008064BC0F8483100237B
:1031E000C0F84C3100F5A073C0F84401C0F83C3180
:1031F000704700BF85350008064BC0F848310023F2
:10320000C0F84C3100F5A073C0F84401C0F83C315F
:10321000704700BFED360008064BC0F84831002368
:10322000C0F84C3100F5A073C0F84401C0F83C313F
:10323000704700BF55380008064BC0F848310023DE
:10324000C0F84C3100F5A073C0F84401C0F83C311F
:10325000704700BFBD390008064BC0F84831002355
:10326000C0F84C3100F5A073C0F84401C0F83C31FF
:10327000704700BF253B0008064BC0F848310023CB
:10328000C0F84C3100F5A073C0F84401C0F83C31DF
:10329000704700BF8D3C0008064BC0F84831002342
:1032A000C0F84C3100F5A073C0F84401C0F83C31BF
:1032B000704700BFF53D0008064BC0F848310023B9
:1032C000C0F84C3100F5A073C0F84401C0F83C319F
:1032D000704700BF5D3F000803685B6A1847000045
:1032E0002DE9F84F07469068DDF828A09946036855
:1032F0001B6A884614469847B0F5595F05D2414B82
:10330000414AA321414833F0D3FF606803681B6A38
:1033100098470F2803D83E4B3B4AA421F2E7E068C8
:1033200003681B6A98470B2803D83A4B364AA521F5
:10333000E8E723F02FFA23F033FAD9F8000010B1B0
:103340000368DB689847D9F8000010B103681B6870
:103350009847386810B103685B699847D8F800004F
:1033600010B103685B689847386810B103681B6840
:103370009847D8F8000010B103689B689847E06848
:103380000021FFF7A9FF4FF0000B234B0360054618
:10339000C0F804B080F808B0A068036859465B6ABA
:1033A0009847064615F0ACFD6068036859465B6AAD
:1033B00098473146044615F0E9FCC9F80050C8F8B2
:1033C00000403E60E4B1231DCAF800303368C4F801
:1033D00008A03046DB68F4639847236820461B68E2
:1033E00098472946304624F0BAFE2B6828461B69C8
:1033F00098472B6828465B6998472046BDE8F88FB8
:103400002346E1E7148C0308A28C0308A68D030869
:10341000ED8D0308908E0308B897030807B5D0F820
:1034200054310093D0F85021044B00F59C710448AE
:10343000FFF756FF03B05DF804FB00BFF81C012046
:10344000F41C01202DE9F84F07469068DDF828A00C
:10345000994603681B6A88461446984743F65F03FB
:10346000984205D8414B424AA321424833F020FFFD
:10347000606803681B6A98470F2803D83E4B3C4A94
:10348000A421F2E7E06803681B6A98470B2803D879
:103490003A4B374AA521E8E723F07CF923F080F97D
:1034A000D9F8000010B10368DB689847D9F800002C
:1034B00010B103681B689847386810B103685B69EE
:1034C0009847D8F8000010B103685B6898473868DF
:1034D00010B103681B689847D8F8000010B1036862
:1034E0009B689847E0680021FFF7F6FE4FF0000B5D
:1034F000234B03600546C0F804B080F808B0A0680C
:10350000036859465B6A9847064615F0B7FD606840
:10351000036859465B6A98473146044615F014FD26
:10352000C9F80050C8F800403E60E4B1231DCAF855
:1035300000303368C4F808A03046DB68F46398476D
:10354000236820461B6898472946304624F007FE2A
:103550002B6828461B6998472B6828465B69984763
:103560002046BDE8F88F2346E1E700BF148C03082E
:10357000338F0308A68D0308ED8D0308908E030892
:10358000B897030807B5D0F854310093D0F850210C
:10359000044B00F59C710448FFF754FF03B05DF83D
:1035A00004FB00BFF81C0120F41C01202DE9F84F9A
:1035B00007469068DDF828A0994603681B6A88468C
:1035C0001446984744F2AB23984205D8414B424AEF
:1035D000A321424833F06CFE606803681B6A984779
:1035E0000F2803D83E4B3C4AA421F2E7E068036869
:1035F0001B6A98470B2803D83A4B374AA521E8E7BE
:1036000023F0C8F823F0CCF8D9F8000010B1036813
:10361000DB689847D9F8000010B103681B68984729
:10362000386810B103685B699847D8F8000010B19A
:1036300003685B689847386810B103681B6898474F
:10364000D8F8000010B103689B689847E068002133
:10365000FFF742FE4FF0000B234B03600546C0F816
:1036600004B080F808B0A068036859465B6A9847C0
:10367000064615F0A3FF6068036859465B6A9847E1
:103680003146044615F022FDC9F80050C8F8004044
:103690003E60E4B1231DCAF800303368C4F808A0C6
:1036A0003046DB68F4639847236820461B689847D8
:1036B0002946304624F053FD2B6828461B6998475D
:1036C0002B6828465B6998472046BDE8F88F23465B
:1036D000E1E700BF148C030837900308A68D0308A8
:1036E000ED8D0308908E0308B897030807B5D0F84E
:1036F00054310093D0F85021044B00F59C710448DC
:10370000FFF754FF03B05DF804FB00BFF81C012075
:10371000F41C01202DE9F84F07469068DDF828A039
:10372000994603681B6A88461446984747F2FB533C
:10373000984205D8414B424AA321424833F0B8FD94
:10374000606803681B6A98470F2803D83E4B3C4AC1
:10375000A421F2E7E06803681B6A98470B2803D8A6
:103760003A4B374AA521E8E723F014F823F018F87C
:10377000D9F8000010B10368DB689847D9F8000059
:1037800010B103681B689847386810B103685B691B
:103790009847D8F8000010B103685B68984738680C
:1037A00010B103681B689847D8F8000010B103688F
:1037B0009B689847E0680021FFF78EFD4FF0000BF3
:1037C000234B03600546C0F804B080F808B0A06839
:1037D000036859465B6A9847064616F08FFA606898
:1037E000036859465B6A98473146044615F00EFF58
:1037F000C9F80050C8F800403E60E4B1231DCAF883
:1038000000303368C4F808A03046DB68F46398479A
:10381000236820461B6898472946304624F09FFCC1
:103820002B6828461B6998472B6828465B69984790
:103830002046BDE8F88F2346E1E700BF148C03085B
:103840003B910308A68D0308ED8D0308908E0308B5
:10385000B897030807B5D0F854310093D0F8502139
:10386000044B00F59C710448FFF754FF03B05DF86A
:1038700004FB00BFF81C0120F41C01202DE9F84FC7
:1038800007469068DDF828A0994603681B6A8846B9
:103890001446984747F2FB53984205D8414B424A99
:1038A000A321424833F004FD606803681B6A98470F
:1038B0000F2803D83E4B3C4AA421F2E7E068036896
:1038C0001B6A98470B2803D83A4B374AA521E8E7EB
:1038D00022F060FF22F064FFD9F8000010B1036805
:1038E000DB689847D9F8000010B103681B68984757
:1038F000386810B103685B699847D8F8000010B1C8
:1039000003685B689847386810B103681B6898477C
:10391000D8F8000010B103689B689847E068002160
:10392000FFF7DAFC4FF0000B234B03600546C0F8AD
:1039300004B080F808B0A068036859465B6A9847ED
:10394000064616F07DFD6068036859465B6A984735
:103950003146044616F0FAF9C9F80050C8F800409C
:103960003E60E4B1231DCAF800303368C4F808A0F3
:103970003046DB68F4639847236820461B68984705
:103980002946304624F0EBFB2B6828461B699847F4
:103990002B6828465B6998472046BDE8F88F234688
:1039A000E1E700BF148C03083F920308A68D0308CB
:1039B000ED8D0308908E0308B897030807B5D0F87B
:1039C00054310093D0F85021044B00F59C71044809
:1039D000FFF754FF03B05DF804FB00BFF81C0120A3
:1039E000F41C01202DE9F84F07469068DDF828A067
:1039F000994603681B6A88461446984745F29F53C8
:103A0000984205D8414B424AA321424833F050FC2A
:103A1000606803681B6A98470F2803D83E4B3C4AEE
:103A2000A421F2E7E06803681B6A98470B2803D8D3
:103A30003A4B374AA521E8E722F0ACFE22F0B0FE6F
:103A4000D9F8000010B10368DB689847D9F8000086
:103A500010B103681B689847386810B103685B6948
:103A60009847D8F8000010B103685B689847386839
:103A700010B103681B689847D8F8000010B10368BC
:103A80009B689847E0680021FFF726FC4FF0000B89
:103A9000234B03600546C0F804B080F808B0A06866
:103AA000036859465B6A9847064616F0FFFE606851
:103AB000036859465B6A98473146044616F0E8FCAD
:103AC000C9F80050C8F800403E60E4B1231DCAF8B0
:103AD00000303368C4F808A03046DB68F4639847C8
:103AE000236820461B6898472946304624F037FB58
:103AF0002B6828461B6998472B6828465B699847BE
:103B00002046BDE8F88F2346E1E700BF148C030888
:103B100043930308A68D0308ED8D0308908E0308D8
:103B2000B897030807B5D0F854310093D0F8502166
:103B3000044B00F59C710448FFF754FF03B05DF897
:103B400004FB00BFF81C0120F41C01202DE9F84FF4
:103B500007469068DDF828A0994603681B6A8846E6
:103B60001446984744F28733984205D8414B424A5D
:103B7000A321424833F09CFB606803681B6A9847A6
:103B80000F2803D83E4B3C4AA421F2E7E0680368C3
:103B90001B6A98470B2803D83A4B374AA521E8E718
:103BA00022F0F8FD22F0FCFDD9F8000010B1036806
:103BB000DB689847D9F8000010B103681B68984784
:103BC000386810B103685B699847D8F8000010B1F5
:103BD00003685B689847386810B103681B689847AA
:103BE000D8F8000010B103689B689847E06800218E
:103BF000FFF772FB4FF0000B234B03600546C0F844
:103C000004B080F808B0A068036859465B6A98471A
:103C1000064617F043F86068036859465B6A9847A0
:103C20003146044616F062FEC9F80050C8F800405C
:103C30003E60E4B1231DCAF800303368C4F808A020
:103C40003046DB68F4639847236820461B68984732
:103C50002946304624F083FA2B6828461B6998478A
:103C60002B6828465B6998472046BDE8F88F2346B5
:103C7000E1E700BF148C030847940308A68D0308EE
:103C8000ED8D0308908E0308B897030807B5D0F8A8
:103C900054310093D0F85021044B00F59C71044836
:103CA000FFF754FF03B05DF804FB00BFF81C0120D0
:103CB000F41C01202DE9F84F07469068DDF828A094
:103CC000994603681B6A88461446984744F26F3346
:103CD000984205D8414B424AA321424833F0E8FAC2
:103CE000606803681B6A98470F2803D83E4B3C4A1C
:103CF000A421F2E7E06803681B6A98470B2803D801
:103D00003A4B374AA521E8E722F044FD22F048FD6E
:103D1000D9F8000010B10368DB689847D9F80000B3
:103D200010B103681B689847386810B103685B6975
:103D30009847D8F8000010B103685B689847386866
:103D400010B103681B689847D8F8000010B10368E9
:103D50009B689847E0680021FFF7BEFA4FF0000B20
:103D6000234B03600546C0F804B080F808B0A06893
:103D7000036859465B6A9847064617F00FFA606871
:103D8000036859465B6A98473146044616F0A6FF19
:103D9000C9F80050C8F800403E60E4B1231DCAF8DD
:103DA00000303368C4F808A03046DB68F4639847F5
:103DB000236820461B6898472946304624F0CFF9EF
:103DC0002B6828461B6998472B6828465B699847EB
:103DD0002046BDE8F88F2346E1E700BF148C0308B6
:103DE0004B950308A68D0308ED8D0308908E0308FC
:103DF000B897030807B5D0F854310093D0F8502194
:103E0000044B00F59C710448FFF754FF03B05DF8C4
:103E100004FB00BFF81C0120F41C01202DE9F84F21
:103E200007469068DDF828A0994603681B6A884613
:103E30001446984743F21773984205D8414B424ABB
:103E4000A321424833F034FA606803681B6A98473C
:103E50000F2803D83E4B3C4AA421F2E7E0680368F0
:103E60001B6A98470B2803D83A4B374AA521E8E745
:103E700022F090FC22F094FCD9F8000010B1036805
:103E8000DB689847D9F8000010B103681B689847B1
:103E9000386810B103685B699847D8F8000010B122
:103EA00003685B689847386810B103681B689847D7
:103EB000D8F8000010B103689B689847E0680021BB
:103EC000FFF70AFA4FF0000B234B03600546C0F8DA
:103ED00004B080F808B0A068036859465B6A984748
:103EE000064617F031FA6068036859465B6A9847DE
:103EF0003146044617F072F9C9F80050C8F800407E
:103F00003E60E4B1231DCAF800303368C4F808A04D
:103F10003046DB68F4639847236820461B6898475F
:103F20002946304624F01BF92B6828461B69984720
:103F30002B6828465B6998472046BDE8F88F2346E2
:103F4000E1E700BF148C03084F960308A68D030811
:103F5000ED8D0308908E0308B897030807B5D0F8D5
:103F600054310093D0F85021044B00F59C71044863
:103F7000FFF754FF03B05DF804FB00BFF81C0120FD
:103F8000F41C0120006A7047406A704770478B88B4
:103F900080690A68DB0A50F823001044704710B5A6
:103FA000C2B1137BB3B1547BD27A240204F4E0642F
:103FB0001443C26998B202EB840213888B4202D187
:103FC00092F9020010BD05D8013880B204320028F1
:103FD000F3D1F7E70020F5E710B52821044633F0C8
:103FE00038F9204610BD000030B589B00446BDF850
:103FF00050500695BDF84C5005959DF840500495DD
:104000009DF83C5003959DF8385002959DF834502A
:1040100001959DF83050009523F0F4FB064B23608A
:10402000119BA361129BE361159B2362169B636244
:10403000204609B030BD00BFDC9703080020704760
:1040400081807047C180704701817047418170470E
:104050007047704770477047704710B4C488036852
:10406000121B84881B6D091B12B25DF8044B09B248
:1040700018474FF6FF7383814FF0FF3303621368D5
:10408000C361106070477047704770477047704752
:1040900090F825201AB190F8242002B118607047DA
:1040A00080F82E10704790F82E00704770477047C8
:1040B00070470420704703299EBF00EB8101CA644A
:1040C000CB65704703299ABF00EB8101C86C0020C3
:1040D000704703299ABF00EB8101C86D002070472B
:1040E00003299EBF00EB8101CA66CB677047032995
:1040F0009ABF00EB8101C86E0020704703299ABF68
:1041000000EB8101C86F0020704710B58C21044678
:1041100033F09FF8204610BD10B54FF459510446B6
:1041200033F097F8204610BD012908B505D122F0DB
:1041300031FBBDE80840FFF74FB808BD074A0260F1
:104140000022C0E90122C0E90322C0E90522C0E93A
:1041500007224FF480728284704700BF74BA03084C
:1041600070B503680446DB6A1546984723682946FC
:1041700020461B6BBDE87040184770B504461D46CD
:10418000BDF91060FFF7ECFF2368294620465B6B02
:1041900098472368314620469B6BBDE8704018471E
:1041A00010B526220446002133F008FA2046FFF716
:1041B000C5FF044B2360FF2384F826300023A3624D
:1041C000204610BD74B6030870B5FF22134E02726C
:1041D000134A0260326892F876100023C0E9033374
:1041E0000446436009B1D06C00B9906803685B6A0B
:1041F00098473368B0FA80F5D86C6D0928B1036828
:104200005B6A9847002808BF01252DB9054B064A6F
:1042100006482C2133F04CF8204670BD981C012034
:1042200078B203082C9803088A980308C3980308F7
:1042300010B526220446002133F0C0F92046FFF7CE
:104240007DFF074B2360074BA3624FF6FF73A385E7
:104250004FF47F020023C4E90C322387204610BDAF
:10426000CCB503080C8C03082DE9F04F2DED108B15
:10427000044697B023F0F6FD22460025E64BE563A1
:1042800042F8403B104608EE102AFFF789FF04F180
:104290006C03184604F1980A0493E04EDFF894B3D7
:1042A000DFF89483FFF77CFF04F1C4075046FFF763
:1042B00045FFC4F89860C4F8C05038461FF0C2F8F3
:1042C000D74BC4F8C43004F5A8731846C4E9445564
:1042D000C4E94655C4E94855C4E94A55C4E94C55B2
:1042E000C4E94E55C4E95055C4E952550B93FFF744
:1042F0006BFF04F5B473C4F850B11846C4F86451A8
:1043000009EE103AFFF794FF04F5D273184604F54E
:10431000F27909EE903AFFF78BFFC4F8A481C4F854
:10432000E0514846FFF70AFFC4F8E46104F504765B
:10433000C4F80C523046FFF701FFB84BC4F81032F6
:1043400004F50F721046C4F838520592FFF728FFA3
:1043500004F51A7210460AEE102A1FF011FA04F53D
:104360002D7210460A92FFF72FFF04F53372C4F83E
:10437000B4B21046C4F8C8520AEE902A1FF000FAF0
:1043800004F5467210460992FFF71EFF04F54C72C1
:10439000C4F818B31046C4F82C530BEE102A1FF0C3
:1043A000EFF904F55F7210460892FFF70DFF04F570
:1043B0006572C4F87CB31046C4F890530BEE902A93
:1043C000FFF736FF04F5747210460CEE102AFFF763
:1043D0002FFF04F20C4210460CEE902AFFF728FF44
:1043E00004F58962104608EE902AFFF7A7FE8B4B72
:1043F000C4F8483404F274421046C4F8705406926B
:10440000FFF7CEFE04F59462104604F59C6B0DEEAA
:10441000102AFFF70DFFC4F8A084C4F8DC545846F6
:10442000FFF78CFE7D4BC4F8E03404F20C531846C1
:10443000C4F808550793FFF7B3FE04F5A7631846C1
:104440000DEE903AFFF7F4FE04F2745318460EEEA8
:10445000103AFFF7EDFE04F5B66318460EEE903AFB
:10446000FFF7E6FE04F2EC5318460FEE103AFFF7A2
:10447000DFFE04F5C56318460FEE903AFFF7D8FE4D
:1044800004F5CD63C4F828861846C4F86456029330
:10449000FFF7CEFE04F5D5631846C4F86886C4F865
:1044A000A4560393FFF7C4FEC4F8A88642F6E06161
:1044B0004FF4F07804F5EC60C4F8E45620F04CFCBE
:1044C00018EE100A4FF448732A462946CDF80080AA
:1044D000FFF753FE4FF07F430498A3662A464FF43C
:1044E00048732946CDF80080FFF747FE4D4BC4F8CE
:1044F00094302A464FF4E17329465046CDF80080A7
:10450000FFF73BFE40F2B9130093142240F2B513BB
:104510000D213846FFF731FED4F8F43013B9D4F842
:10452000F83023B1C4E93D5538461EF0A1FF4FF4E1
:104530008063C4E9403338461EF09AFFD4F8FC305B
:104540002BB10023C4F8FC3038461EF091FF4FF029
:10455000FF330B99C4F8643138461FF093FCDFF841
:10456000DCC0BCE80F000EAD0FC59CE80F0085E86D
:104570000F000EAA04F5867304F58E71104690EDB7
:10458000007AD2ED017ABEEEED7AFEEEED7A17EE0C
:10459000100A43F8040F994202F10802C3ED047AAD
:1045A000ECD138461EF064FF394650461DF056FDEA
:1045B00040F2511219EE100AB021FFF7D1FD4FF071
:1045C0007F48194B0C930025022319EE100A0CA901
:1045D000C4F89881A4F89C51ADF8343020F0E6F985
:1045E00019EE101A50461DF039FD40F26113009388
:1045F00019EE900A4FF4D1731F221621FFF7BDFD6B
:104600000A4BC4F8D4811B68A4F8D85104F5DD67BF
:10461000DBB9074B14E000BFD49A03089CA8030839
:104620003C9A0308231107FF0C8C0308081D012086
:104630002599030808B10308D8B603089084030835
:10464000064AAE21064832F033FE064B1B88012B8A
:104650000CD8054B014AAF21F4E700BF6799030866
:10466000959903080C1D0120DC990308E34B0121F7
:10467000186814F0D5FAE24A03460A21384625F0B4
:104680008BF819EE900AC4F8E0710CA9DD4F0C9775
:10469000ADF8345020F08AF919EE901A50461DF00A
:1046A000DDFC4FF4F0735D2700932A464FF4AF739F
:1046B0004FF4E1714846FFF760FD304600974FF434
:1046C0009C7363221321FFF758FD4FF49C732A4615
:1046D000059800972946FFF750FD4FF0FF3130460F
:1046E000C4F8641205991DF0B9FC33213A23242241
:1046F0001AEE100A00911021FFF73FFD4FF43451DC
:104700004FF44877C4F8A812BF49C4F8A072C4E9AE
:10471000A6771AEE100AC4F8C812C4F8AC520A9967
:10472000C4F8A4521FF0AEFB30461AEE101A1DF06A
:1047300095FC33203A232422009087211AEE900A18
:10474000FFF71BFDB049C4F804734FF43450C4E9BB
:10475000BF77C4F80C03C4F82C131AEE900A099919
:10476000C4F81053C4F808531FF08CFB30461AEEFF
:10477000901A1DF073FC33203A2324220090F32179
:104780001BEE100AFFF7F9FC9F49C4F868734FF459
:104790003450C4E9D877C4F87003C4F890131BEE02
:1047A000100A0899C4F87453C4F86C531FF06AFBDC
:1047B00030461BEE101A1DF051FC2A461BEE900AE3
:1047C0006521FFF7CDFC8F4FC4F8C48305231BEE92
:1047D000900A0CA9A4F8C853ADF834300C9720F017
:1047E000E5F830461BEE901A1DF038FC2A461CEE08
:1047F000100A0B21FFF7B4FC04231CEE100A0CA9CD
:10480000C4F80084A4F80454ADF834300C9720F0B8
:10481000CDF830461CEE101A1DF020FC2A461CEE86
:10482000900AE821FFF79CFC06231CEE900A0CA9D5
:10483000C4F83C84A4F84054ADF834300C9720F010
:10484000B5F830461CEE901A1DF008FC314648467B
:1048500041261DF003FC18EE900A00964FF49C735D
:1048600014221321FFF789FC4FF49C732A46069803
:1048700000962946FFF781FC4FF0FF3118EE900AB1
:10488000C4F89C1406991DF0E9FB2D230B221DEEA4
:10489000100A009308214FF49473FFF76EFC04F2A2
:1048A000FC631DEE100AC4F8DC340CA90723C4F81D
:1048B000D084A4F8D454A4F8FC56ADF834300C9746
:1048C00020F074F81DEE101A18EE900A1DF0C6FBC9
:1048D000F92618EE901A48461DF0C0FB00964FF4DA
:1048E0009C73D52213215846FFF747FC4FF49C7365
:1048F0002A46079800962946FFF73FFC4FF0FF3104
:10490000C4F83415584607991DF0A8FB2A461DEE39
:10491000900A8021FFF724FC03231DEE900A0CA9C6
:10492000C4F86885A4F86C55ADF834300C9720F0C5
:104930003DF81DEE901A58461DF090FB3E221EEEEB
:10494000100A0821FFF70CFC08261EEE100A0CA91D
:10495000C4F8A485A4F8A8550C97ADF8346020F0ED
:1049600025F81EEE101A58461DF078FB7C223146C1
:104970001EEE900AFFF7F4FB09231EEE900A0CA925
:10498000C4F8E085A4F8E455ADF834300C9720F075
:104990000DF81EEE901A58461DF060FBBB22314602
:1049A0001FEE100AFFF7DCFB0A261FEE100A0CA907
:1049B000C4F81C86A4F820560C97ADF834602F2755
:1049C0001FF0F4FF1FEE101A58461DF047FB682336
:1049D000BE211FEE900A00973E22FFF7CEFB04F2A5
:1049E000247105910949C4F858860B68A4F85C56EF
:1049F000002B3FF40EAE064803880BE0141D012087
:104A00002E9A03080C8C0308777777FF081D012086
:104A10000C1D01200C2B7FF61CAE514A0C21106896
:104A200014F0FEF84F4A03463146059824F0B4FED0
:104A3000059BC4F864360DF1300C4B4B0C9361466A
:104A40000B231FEE900AADF834301FF0AFFF1FEEBE
:104A5000901A58461DF002FB6823BE210298009769
:104A60007C22FFF78AFB4149C4F898860B68A4F8BA
:104A70009C5604F5E76CCDF814C0002B3FF4C9AD8B
:104A80003B4803880E2B7FF6E4AD354A0E211068B3
:104A900014F0C6F8334A03463146059824F07CFEEC
:104AA000059BC4F8A4360DF1300C2F4B02980C93E3
:104AB00061460D23ADF834301FF078FF0299584657
:104AC0001DF0CCFA6823BE2103980097BB22FFF7A4
:104AD00054FB2649A4F8DC560B68C4F8D88604F2C7
:104AE0004C75002B3FF495AD21480388102B7FF6C1
:104AF000B0AD1B4A1021106814F092F8194A034611
:104B00003146284624F048FE174B03980C930CA915
:104B10000F23C4F8E456ADF834301FF047FF039973
:104B200058461DF09BFA594648461DF097FA201D3D
:104B300018EE101A02901DF091FA049902981DF0D7
:104B40008DFA029851461DF089FA029849461DF0E7
:104B500085FA204617B0BDEC108BBDE8F08F00BF82
:104B6000141D01202E9A03080C8C0308081D012037
:104B70000C1D01207047704710B543F660010446D4
:104B800032F067FB204610BD012908B505D121F0A0
:104B900001FEBDE80840FEF72FBB08BD2DE9F04F30
:104BA0002DED108B04469FB023F05CF922460026C1
:104BB000E84BE66342F8403B104608EE102AFFF748
:104BC000EFFA04F16C0304F19808184604F1C40BE1
:104BD0000D93DFF894A3E04DFFF7E2FA4046FFF7AC
:104BE000ADFAC4F898A0C4F8C0605846FFF720FB9F
:104BF00004F58073184608EE903AFFF719FB04F5A8
:104C00009E7304F5BC79184609EE103AFFF710FBC5
:104C10004846FFF70DFB04F5DA73184609EE903AA3
:104C20001EF0AEFD04F5007318461B93FFF7CCFA97
:104C300004F50673C4F80052C4F8146218460AEE6C
:104C4000103A1EF09DFD04F5197318461A93FFF7EC
:104C5000BBFA04F51F73C4F86452C4F878621846AE
:104C60000AEE903A1EF08CFD04F532731846199343
:104C7000FFF7AAFA04F53873C4F8C852C4F8DC6226
:104C800018460BEE103A1EF07BFD04F54B731846E8
:104C90001893FFF799FA04F55173C4F82C53C4F82C
:104CA000406318460BEE903AFFF7C2FA04F56073C2
:104CB00018460CEE103AFFF7BBFA04F56F7318466E
:104CC0000CEE903AFFF7B4FA04F57E7318460DEE39
:104CD000103AFFF7ADFA04F2344318460DEE903A5D
:104CE0001EF04EFD04F5906318461793FFF76CFA1B
:104CF00004F59363C4F88054C4F8946418460EEE27
:104D0000103A1EF03DFD04F2E44318461693FFF7F7
:104D10005BFA04F2FC43C4F8E454C4F8F86418469F
:104D20000EEE903A1EF02CFD04F5A963184615937B
:104D3000FFF74AFA04F5AC63C4F84855C4F85C655B
:104D400018460FEE103A1EF01BFD04F2AC53184645
:104D50001493FFF739FA04F2C453C4F8AC55C4F8FD
:104D6000C06518460E93FFF71BFA7C4BC4F8C43598
:104D700004F5BF6304F234671846C4F8F065A4F87C
:104D8000F4650FEE903AFFF753FA3846FFF7D6F97D
:104D900004F5CC63C4F834A6C4F85C6618460393E3
:104DA0001EF0EEFC04F2AC6318461393FFF70CFA06
:104DB00004F2C463C4F8AC56C4F8C0661846049341
:104DC0001EF0DEFC04F5E26318461293FFF7FCF9CF
:104DD00004F5E563C4F81057C4F824671846059332
:104DE0001EF0CEFC04F2747318461193FFF7ECF931
:104DF00004F28C73C4F87457C4F888671846069395
:104E00001EF0BEFC04F5FB6318461093FFF7DCF9B7
:104E100004F5FE63C4F8D857C4F8EC671846079346
:104E20001EF0AEFC04F63C0318460F93FFF7CCF9D6
:104E300004F65403C4F83C58C4F850681846089364
:104E4000FFF7F6F904F5096318460993FFF7F0F93F
:104E500004F6CC0318460A93FFF7EAF904F60813A0
:104E600018460B93FFF7E4F904F6441318460C9325
:104E70004FF4F075FFF7DCF904F5186042F6E061D5
:104E80001FF06AFF18EE100A0095324631464FF4C3
:104E90004873FFF772F94FF07F430D98A3660095B2
:104EA000324631464FF44873FFF767F92C4BC4F88C
:104EB00094304FF4EA730093314640F20A2340469F
:104EC0000C224FF0FF3AFFF758F94A2258462621A4
:104ED000FFF746F9234DC4F8F4A040F2E3231CA9E0
:104EE0005846A4F8F860ADF874301C951FF05EFDCC
:104EF000594640461DF0B2F87F2218EE900A29214B
:104F0000FFF72EF94FF4397318EE900A1CA9C4F874
:104F100030A1A4F83461ADF874301C951FF046FD43
:104F200018EE901A40461DF099F8B22219EE100AB8
:104F30003A21FFF715F940F2E52319EE100A1CA9F2
:104F4000C4F86CA1A4F87061ADF874301C951FF022
:104F50002DFD0BE0089B030808B1030880B7030888
:104F6000231107FF0C8C03089CA8030819EE101AE4
:104F700040461DF073F8E32248461521FFF7F0F88C
:104F800040F2E6231CA94846C4F8A8A1A4F8AC61E5
:104F9000ADF874301C951FF009FD494640464FF0AE
:104FA0002A094FF420754FF4345B1DF057F829237C
:104FB0004A2219EE900ACDF80090DC21FFF7DDF8C7
:104FC000C4E979551B99C4F8EC5119EE900AC4F85C
:104FD000F861C4F8F061C4F8F4B1C4F814A21EF08A
:104FE00051FF19EE901A40461DF038F829237F2210
:104FF0001AEE100ACDF80090DC21FFF7BEF8C4E9E4
:1050000092551A99C4F850521AEE100AC4E9956BD9
:10501000C4F85C62C4F878A21EF034FF1AEE101ACD
:1050200040461DF01BF82923B2221AEE900ACDF853
:105030000090DC21FFF7A1F8C4E9AB551999C4F839
:10504000B4521AEE900AC4E9AE6BC4F8C062C4F858
:10505000DCA21EF017FF1AEE901A40461CF0FEFF6D
:105060002923E3221BEE100ACDF80090DC21FFF784
:1050700084F8C4E9C4551899C4F818531BEE100AF3
:10508000C4E9C76BC4F82463C4F840A31EF0FAFE59
:105090001BEE101A40461CF0E1FF4FF497721BEE16
:1050A000900A0F21FFF75CF8E54B1C931BEE900A6A
:1050B00040F2E7231CA9C4F874A3A4F87863ADF800
:1050C00074301FF073FC1BEE901A40461CF0C6FFB4
:1050D0004FF4B9721CEE100A0F21FFF741F8D84BBC
:1050E0001C931CEE100A4FF43A731CA9C4F8B0A329
:1050F000A4F8B463ADF874301FF058FC1CEE101A1D
:1051000040461CF0ABFF4FF497721CEE900A4FF430
:105110008C71FFF725F8CA4B1C931CEE900A40F2E5
:10512000E9231CA9C4F8ECA3A4F8F063ADF874302B
:105130001FF03CFC1CEE901A40461CF08FFF4FF411
:10514000B9721DEE100A40F20511FFF709F8BC4BC9
:105150001C931DEE100A40F2EA231CA9C4F828A4EF
:10516000A4F82C64ADF874301FF020FC1DEE101A6A
:1051700040461CF073FF292340F22B121DEE900ACB
:10518000CDF800905F21FEF7F8FF1799C4F864543A
:105190001DEE900AC4F86854C4F86C54C4F87864DE
:1051A000C4F87064C4F874B4C4F894A41EF06AFE21
:1051B0001DEE901A40461CF051FF292340F26F1259
:1051C0001EEE100ACDF800905F21FEF7D6FF16996B
:1051D000C4F8C8541EEE100AC4F8CC54C4F8D05415
:1051E000C4F8DC64C4F8D464C4F8D8B4C4F8F8A42F
:1051F0001EF048FE1EEE101A40461CF02FFF292319
:1052000040F229121EEE900ACDF8009040F2611192
:10521000FEF7B3FF1599C4F82C551EEE900AC4F89A
:105220003055C4F83455C4F84065C4F83865C4F83E
:105230003CB5C4F85CA51EF025FE1EEE901A404653
:105240001CF00CFF292340F26F121FEE100ACDF85C
:10525000009040F26111FEF790FF1499C4F8905548
:105260001FEE100AC4F89455C4F89855C4F8A46504
:10527000C4F89C65C4F8A0B5C4F8C0A51EF002FE31
:105280001FEE101A40461CF0E9FE42210E980091D4
:10529000324631464FF4D173FEF76FFF0423694A5B
:1052A000C4F8EC251FEE900AA4F8F4350722C4F8E0
:1052B000F0A52621FEF754FF614B1C931FEE900AC8
:1052C00040F2DD231CA9C4F828A6A4F82C66ADF88A
:1052D00074301FF06BFB4FF4CF730093384640F2ED
:1052E0000D13422240F21321FEF747FF35220398A7
:1052F000CDF800902923D721FEF73FFF4FF0FF2381
:10530000C4F8C03613990398C4F89056C4F894565C
:10531000C4F89856C4F8A466C4F89C66C4F8A0B64D
:105320001EF0B0FD039938461CF098FE69220498DF
:10533000CDF800902923D721FEF71FFF424BC4F878
:10534000243712990498C4F8F456C4F8F856C4F8EF
:10535000FC56C4F80867C4F80067C4F804B71EF028
:1053600091FD049938461CF079FE9F220598CDF8EE
:1053700000902923D721FEF700FF344BC4F888376B
:1053800011990598C4F85857C4F85C57C4F8605789
:10539000C4F86C67C4F86467C4F868B71EF072FD9F
:1053A000059938461CF05AFED2220698CDF8009096
:1053B0002923D721FEF7E1FE254BC4F8EC371099DD
:1053C0000698C4F8BC57C4F8C057C4F8C457C4F80A
:1053D000D067C4F8C867C4F8CCB71EF053FD06996F
:1053E00038461CF03BFE4FF485720798CDF80090CC
:1053F0002923D721FEF7C1FE164BC4F850380F9968
:105400000798C4F82058C4F82458C4F82858C4F899
:105410003468C4F82C68C4F830B81EF033FD07991E
:10542000074D38461CF01AFE6C2208980921FEF739
:1054300097FE40F2DE230898C4F884A80CE000BF71
:105440000C8C0308231107FF05D5FAFFCDFA19FFCD
:10545000F50AF1FF0000FFFF1CA9A4F88868ADF869
:1054600074301C951FF0A2FA089938461CF0F6FD1E
:10547000382209986821FEF773FE40F2DF2309986D
:10548000C4F8C0A81CA9A4F8C468ADF874301C9571
:105490001FF08CFA099938461CF0E0FDA2220A9808
:1054A0001421FEF75DFE4FF438730A98C4F8FCA887
:1054B0001CA9A4F80069ADF874301C951FF076FAA9
:1054C0000A9938461CF0CAFDD5220B981421FEF724
:1054D00047FE40F2E1230B98C4F838A91CA9A4F8B0
:1054E0003C69ADF874301C951FF060FA0B99384692
:1054F0001CF0B4FD40F20D120C984821FEF730FE6E
:1055000040F2E2230C98C4F874A91CA9A4F87869A5
:10551000ADF874301C951FF049FA0C9938461CF010
:105520009DFD201D18EE101A03901CF097FD0D999B
:1055300003981CF093FD039841461CF08FFD0E99D3
:1055400003981CF08BFD1FEE901A03981CF086FD4B
:10555000039839461CF082FD20461FB0BDEC108B2D
:10556000BDE8F08F7047704710B544F2AC21044697
:1055700031F06FFE204610BD012908B505D121F09C
:1055800009F9BDE80840FDF747BE08BD10B504465F
:10559000FEF7D4FD024B23600023A362204610BD1A
:1055A0009CA8030810B50446FEF7FAFD034B2360E0
:1055B0000023E3622386204610BD00BF80B70308A6
:1055C00010B50446FEF734FE024B23600023E3636C
:1055D000204610BDD8B603082DE9F04F2DED108BF5
:1055E0000446C7B022F03EFC22460025DF4BE563AF
:1055F00042F8403B10460FEE902AFEF7D1FD04F131
:105600006C0318462993FEF7CBFD04F19803184666
:105610002A93FFF7C7FF04F1CC0318460393FEF764
:1056200007FE04F5847318462B93FFF7BBFF04F5C0
:105630009E7318460493FEF7FBFD04F5BC731846F1
:105640000593FEF7F5FD04F5DA7318460693FFF7A8
:10565000B7FF04F5FA73184604F50D790793FFF7C1
:10566000AFFF4846FFF792FF04F5187318462C93D6
:10567000FFF798FF04F5257318462D93FFF792FF67
:1056800004F5327318462E93FFF78CFF04F53F7331
:1056900018462F93FFF786FF04F54C731846309396
:1056A000FFF780FF04F55973184608EE903AFFF7AC
:1056B0006DFF04F56473184604F56F7A3193FEF7B5
:1056C0006FFD5046FEF7B4FD04F57E73184608934F
:1056D0001EF056F804F244431846A54E4193FEF7D7
:1056E00073FD04F25C43C4F844641846C4F858548B
:1056F0000993FFF765FF04F29C4318460A93FFF7EE
:105700005FFF04F2DC43184609EE103AFFF73EFF54
:1057100004F5A16318463293FEF742FD04F23453B8
:1057200018460B931EF02CF804F5B063184640930E
:10573000FEF74AFD04F5B363C4F880651846C4F863
:1057400094550C93FEF774FD04F2D45318460D9350
:10575000FFF736FF04F2146318460E93FFF730FF8D
:1057600004F25463184609EE903AFFF70FFF04F570
:10577000D06318463393FEF713FD04F2AC6318466A
:105780000F93FEF755FD04F5DD63184610931DF0E9
:10579000F7FF04F2347318463F93FEF715FD04F249
:1057A0004C73C4F834671846C4F848571193FFF790
:1057B00007FF04F28C73184604F2CC7B1293FFF7B8
:1057C000FFFE5846FFF7E2FE04F5FF6318463493E8
:1057D000FEF7E6FC04F6240318461393FEF728FDB3
:1057E00004F50663184614931DF0CAFF04F6AC03D3
:1057F00018463E93FEF7E8FC04F6C403C4F8AC6810
:105800001846C4F8C0581593FFF7DAFE04F60413DF
:1058100018461693FFF7D4FE04F6441318460AEE12
:10582000103AFFF7B3FE04F5176318463593FEF7F9
:10583000B7FC04F69C1318461793FEF7F9FC04F620
:10584000D813184618931DF09BFF04F6242318461E
:105850003D93FEF7B9FC04F63C23C4F8246A1846CD
:10586000C4F8385A1993FFF7ABFE04F67C231846A8
:105870001A93FFF7A5FE04F6BC2318460AEE903AE9
:10588000FFF784FE04F6E82318463693FEF788FCFB
:1058900004F6143318461B93FEF7CAFC04F535636F
:1058A00018461C931DF06CFF04F69C3318463C937D
:1058B000FEF78AFC04F6B433C4F89C6B1846C4F8AF
:1058C000B05B1D93FFF77CFE04F6F43318461E937D
:1058D000FFF776FE04F6344318460BEE103AFFF756
:1058E00055FE04F5466318463793FEF759FC04F657
:1058F0008C4318461F93FEF79BFC04F6C8431846DA
:1059000020931DF03DFF04F6145318463B93FEF719
:105910005BFC04F62C53C4F8146D1846C4F8285DDB
:105920002193FFF74DFE04F66C5318462293FFF7C0
:1059300047FE04F6AC5318460BEE903AFFF726FEEE
:1059400004F6D85318463893FEF72AFC04F604638D
:1059500018462393FEF76CFC04F564631846249301
:105960001DF00EFF04F68C63184603E03C9B030811
:1059700008B103083A93FEF727FC04F6A463C4F8C1
:105980008C6E1846C4F8A05E2593FFF719FE04F646
:10599000E46318462693FFF713FE04F624731846B3
:1059A0000CEE103AFFF7F2FD04F5756318463993D3
:1059B000FEF7F6FB04F67C7318462793FEF738FCD7
:1059C00004F6B87341F20407184628931DF0D8FE78
:1059D000E31918464393FEF7F7FB41F21803E6512B
:1059E000E55004F580531C3318460CEE903AFFF74F
:1059F000E7FD04F582531C3318460DEE103AFFF70D
:105A0000DFFD04F584531C33184608EE103AFFF707
:105A1000BDFD04F58653083318460293FEF7C0FB1C
:105A200004F58753143318460DEE903AFEF700FC48
:105A300004F58953103341F27C1718460EEE103AE4
:105A40001DF09EFEE31918464293FEF7BDFB41F29E
:105A50009013E651E55004F58C53143318460EEEBE
:105A6000903AFFF7ADFD04F58E53143318460FEE50
:105A7000103AFFF7A5FD04F59E5042F6E0610C30A8
:105A80001FF06AF94FF4F0731FEE900A00932A4654
:105A90004FF448732946FEF770FB4FF07F43A3662F
:105AA0004FF4F073299800932A464FF4487329461F
:105AB000FEF763FBDFF820812A98C4F894804F2317
:105AC00000932A46DF232946FEF757FB04264FF0B2
:105AD000FF330D220398C4F8C430A4F8C8601C2119
