:020000040800F2
:1000000000000520450C0008492C00084B2C000876
:100010004D2C00084F2C0008512C00080000000057
:100020000000000000000000000000009105020830
:10003000532C0008000000002106020889FE010878
:10004000950C0008950C0008950C0008950C00080C
:10005000950C0008950C0008950C0008950C0008FC
:10006000950C0008950C0008950C0008950C0008EC
:10007000950C0008950C0008950C0008950C0008DC
:10008000950C0008950C0008950C0008950C0008CC
:10009000950C0008950C0008950C0008950C0008BC
:1000A000950C0008950C0008950C0008950C0008AC
:1000B000950C0008552C0008950C0008950C0008BC
:1000C000950C0008950C0008950C0008950C00088C
:1000D000950C0008950C0008950C0008950C00087C
:1000E000950C0008950C0008950C0008950C00086C
:1000F000950C0008950C0008950C0008950C00085C
:10010000950C0008950C0008950C0008950C00084B
:10011000950C0008950C0008612C0008950C00084F
:10012000950C0008950C0008950C0008950C00082B
:10013000950C0008950C0008950C0008950C00081B
:100140006D2C0008792C0008950C0008950C00080F
:10015000950C0008950C0008950C0008950C0008FB
:10016000950C0008950C0008950C0008950C0008EB
:10017000950C0008950C0008950C00080000000084
:10018000950C0008950C0008950C0008950C0008CB
:10019000950C0008950C0008950C0008950C0008BB
:1001A0007D2C0008950C0008892C0008950C00088F
:0401B000952C000882
:1001C00010B5054C237833B9044B13B10448AFF391
:1001D00000800123237010BD680100200000000092
:1001E0000888030808B5034B1BB103490348AFF364
:1001F000008008BD000000006C0100200888030892
:1002000001F0FF01102A2BDB10F0070F08D010F8C7
:10021000013B013A8B422DD010F0070F42B3F6D1CB
:10022000F0B441EA012141EA014122F007047FF0E4
:1002300000070023F0E80256083C85EA010586EA3B
:10024000010685FA47F5A3FA87F586FA47F6A5FA77
:1002500087F68EB9EED1F0BC01F0FF0102F0070283
:1002600032B110F8013B013A83EA010313B1F8D12E
:100270000020704701387047002D06BF354603380F
:10028000073815F0010F07D1013015F4807F02BF48
:10029000013015F4C03F0130F0BC0138704700BF99
:1002A00070B54FF0FF0C4CF4E06C1CEA11541DBF0C
:1002B0001CEA135594EA0C0F95EA0C0F00F0DEF8D7
:1002C0002C4481EA030621EA4C5123EA4C5350EABC
:1002D000013518BF52EA033541F4801143F480130D
:1002E00038D0A0FB02CE4FF00005E1FB02E506F09E
:1002F0000042E0FB03E54FF00006E1FB03569CF0F3
:10030000000F18BF4EF0010EA4F1FF04B6F5007FF8
:1003100064F5407404D25FEA4E0E6D4146EB06066A
:1003200042EAC62141EA55514FEAC52040EA5E50F3
:100330004FEACE2EB4F1FD0C88BFBCF5E06F1ED89D
:10034000BEF1004F08BF5FEA500E50F1000041EBD4
:10035000045170BD06F0004646EA010140EA020081
:1003600081EA0301B4EB5C04C2BFD4EB0C0541EAA3
:10037000045170BD41F480114FF0000E013C00F3B8
:10038000AB8014F1360FDEBF002001F0004170BDDC
:10039000C4F10004203C35DA0C341BDC04F11404F5
:1003A000C4F1200500FA05F320FA04F001FA05F281
:1003B00040EA020001F0004221F0004110EBD3704E
:1003C00021FA04F642EB06015EEA430E08BF20EA7A
:1003D000D37070BDC4F10C04C4F1200500FA04F31D
:1003E00020FA05F001FA04F240EA020001F00041AF
:1003F00010EBD37041F100015EEA430E08BF20EA22
:10040000D37070BDC4F1200500FA05F24EEA020E69
:1004100020FA04F301FA05F243EA020321FA04F098
:1004200001F0004121FA04F220EA020000EBD3704F
:100430005EEA430E08BF20EAD37070BD94F0000F4F
:100440000FD101F00046400041EB010111F4801F83
:1004500008BF013CF7D041EA060195F0000F18BF34
:10046000704703F00046520043EB030313F4801F70
:1004700008BF013DF7D043EA0603704794EA0C0F2A
:100480000CEA135518BF95EA0C0F0CD050EA410640
:1004900018BF52EA4306D1D181EA030101F00041BD
:1004A0004FF0000070BD50EA410606BF10461946E5
:1004B00052EA430619D094EA0C0F02D150EA0136F1
:1004C00013D195EA0C0F05D152EA03361CBF104632
:1004D00019460AD181EA030101F0004141F0FE41D1
:1004E00041F470014FF0000070BD41F0FE4141F455
:1004F000780170BD81F0004102E000BF83F000434D
:1005000030B54FEA41044FEA430594EA050F08BFAE
:1005100090EA020F1FBF54EA000C55EA020C7FEA72
:10052000645C7FEA655C00F0E2804FEA5454D4EBEF
:100530005555B8BF6D420CDD2C4480EA020281EAB9
:10054000030382EA000083EA010180EA020281EAF1
:100550000303362D88BF30BD11F0004F4FEA013143
:100560004FF4801C4CEA113102D0404261EB410152
:1005700013F0004F4FEA03334CEA133302D05242D8
:1005800063EB430394EA050F00F0A780A4F1010494
:10059000D5F1200E0DDB02FA0EFC22FA05F28018CE
:1005A00041F1000103FA0EF2801843FA05F35941B4
:1005B0000EE0A5F120050EF1200E012A03FA0EFC33
:1005C00028BF4CF0020C43FA05F3C01851EBE3715D
:1005D00001F0004507D54FF0000EDCF1000C7EEB7A
:1005E00000006EEB0101B1F5801F1BD3B1F5001FB8
:1005F0000CD349085FEA30004FEA3C0C04F10104D7
:100600004FEA445212F5800F80F09A80BCF1004FFF
:1006100008BF5FEA500C50F1000041EB045141EA81
:10062000050130BD5FEA4C0C404141EB0101013C4A
:1006300028BFB1F5801FE9D291F0000F04BF014639
:100640000020B1FA81F308BF2033A3F10B03B3F10B
:1006500020020CDA0C3208DD02F1140CC2F10C029B
:1006600001FA0CF021FA02F10CE002F11402D8BFF9
:10067000C2F1200C01FA02F120FA0CFCDCBF41EAC5
:100680000C019040E41AA2BF01EB0451294330BD94
:100690006FEA04041F3C1CDA0C340EDC04F1140471
:1006A000C4F1200220FA04F001FA02F340EA030048
:1006B00021FA04F345EA030130BDC4F10C04C4F18E
:1006C000200220FA02F001FA04F340EA030029466E
:1006D00030BD21FA04F0294630BD94F0000F83F4B8
:1006E000801306BF81F480110134013D4EE77FEA9B
:1006F000645C18BF7FEA655C29D094EA050F08BFE7
:1007000090EA020F05D054EA000C04BF19461046C7
:1007100030BD91EA030F1EBF0021002030BD5FEA0B
:10072000545C05D14000494128BF41F0004130BD33
:1007300014F580043CBF01F5801130BD01F0004587
:1007400045F0FE4141F470014FF0000030BD7FEAFA
:10075000645C1ABF194610467FEA655C1CBF0B46F5
:10076000024650EA013406BF52EA033591EA030F0C
:1007700041F4002130BD00BF90F0000F04BF002104
:10078000704730B54FF4806404F132044FF0000537
:100790004FF0000150E700BF90F0000F04BF0021B0
:1007A000704730B54FF4806404F1320410F0004516
:1007B00048BF40424FF000013EE700BF42004FEA11
:1007C000E2014FEA31014FEA02701FBF12F07F438E
:1007D00093F07F4F81F06051704732F07F4208BF45
:1007E000704793F07F4F04BF41F40021704730B54C
:1007F0004FF4607401F0004521F000411CE700BF98
:1008000050EA010208BF704730B54FF000050AE01A
:1008100050EA010208BF704730B511F0004502D51B
:10082000404261EB41014FF4806404F132045FEA1D
:10083000915C3FF4D8AE4FF003025FEADC0C18BFC6
:1008400003325FEADC0C18BF033202EBDC02C2F1B8
:10085000200300FA03FC20FA02F001FA03FE40EA4A
:100860000E0021FA02F11444BDE600BF4A0011D285
:1008700012F5001211D20DD56FF47873B3EB6252FA
:100880000ED44FEAC12343F0004343EA505323FA06
:1008900002F070474FF00000704750EA013002D17B
:1008A0004FF0FF3070474FF0000070474FEA4102B1
:1008B000B2F1E04324BFB3F5001CDCF1FE5C0DD9BE
:1008C00001F0004C4FEAC0024CEA5070B2F1004F08
:1008D00040EB830008BF20F00100704711F0804F0B
:1008E00021D113F13872BCBF01F00040704741F4D0
:1008F00080114FEA5252C2F11802C2F1200C10FAD4
:100900000CF320FA02F018BF40F001004FEAC123B7
:100910004FEAD32303FA0CFC40EA0C0023FA02F35B
:100920004FEA4303CCE77FEA625307D150EA013331
:100930001EBF4FF0FE4040F44000704701F0004001
:1009400040F0FE4040F40000704700BF53B94AB980
:10095000002908BF00281CBF4FF0FF314FF0FF30C7
:1009600000F06EB9ADF1080C6DE904CE00F006F8A8
:10097000DDF804E0DDE9022304B070472DE9F0471B
:10098000089D04468C46002B40F083808A4217461F
:1009900047D9B2FA82F242B1C2F1200024FA00F043
:1009A0009140974040EA010C94404FEA1748230CCD
:1009B000BCFBF8F61FFA87FE08FB16C143EA0143A9
:1009C00006FB0EF1994209D9FB1806F1FF3080F0C1
:1009D0001981994240F21681023E3B445B1AA4B24F
:1009E000B3FBF8F008FB103344EA034400FB0EFEAF
:1009F000A64509D93C1900F1FF3380F00581A645D1
:100A000040F2028102383C4440EA0640A4EB0E0466
:100A100000261DB1D4400023C5E900433146BDE89E
:100A2000F08702B9FFDEB2FA82F2002A50D1CB1B66
:100A30004FEA174E1FFA87F80126B3FBFEFC210C84
:100A40000EFB1C3341EA034108FB0CF38B4207D930
:100A500079180CF1FF3002D28B4200F2E980844613
:100A6000C91AA3B2B1FBFEF00EFB101143EA014418
:100A700008FB00F8A04507D93C1900F1FF3302D26A
:100A8000A04500F2D9801846A4EB080440EA0C40C7
:100A9000BFE78B4209D9002D00F0B1800026C5E9DF
:100AA000000130463146BDE8F087B3FA83F6002EE8
:100AB0004AD18B4202D3824200F2B880841A61EBA1
:100AC000030101208C46002DA8D0C5E9004CA5E704
:100AD000C2F1200320FA03F6974001FA02F04FEA30
:100AE000174ED9403043030CB1FBFEF61FFA87F8CE
:100AF0000EFB161143EA014306FB08F1994204FA82
:100B000002F409D9FB1806F1FF3C80F08D80994270
:100B100040F28A80023E3B445B1A81B2B3FBFEF096
:100B20000EFB103341EA034100FB08F38B4207D967
:100B3000791800F1FF3C73D28B4271D902383944E5
:100B4000CB1A40EA064678E7C6F1200C03FA06F411
:100B500022FA0CF31C4320FA0CF701FA06F34FEAD1
:100B6000144E21FA0CF11F433B0CB1FBFEF91FFAA6
:100B700084F80EFB191143EA014109FB08FA8A4582
:100B800002FA06F200FA06F308D9611809F1FF30FB
:100B900048D28A4546D9A9F102092144A1EB0A01AC
:100BA000BFB2B1FBFEF00EFB101147EA014700FB9C
:100BB00008F8B84507D9E71900F1FF312ED2B8453A
:100BC0002CD90238274440EA0940A7EB0807A0FBCC
:100BD00002894F45C64649461AD317D05DB1B3EBDB
:100BE0000E0267EB010707FA0CFCF2404CEA020226
:100BF000F740C5E9002700263146BDE8F0872E46BC
:100C000028460BE70646E9E61846FDE64345E5D2E9
:100C1000B8EB020E69EB04010138DFE70846D2E7C2
:100C200060468DE78146B9E7664675E730464AE794
:100C3000ACF1020C394413E702383C4424E700BF0E
:100C4000704700BFDFF834D0002103E00C4B5B5845
:100C5000435004310B480C4B42189A42F6D30B4ACE
:100C600002E0002342F8043B094B9A42F9D31BF0FF
:100C70000FFD36F025FE01F0FDF97047000005205C
:100C800000DB03080000002068010020680100204C
:100C900030230120FEE700F0EFBD00F05DBE002133
:100CA00008461BF05DB800201BF094B84068704700
:100CB00041607047054A136843F080731360044A2B
:100CC000136843F001031360704700BFFCED00E0C0
:100CD000001000E0511A01EB5301B1FBF3F0704733
:100CE000014B1868704700BF041000E0704710B552
:100CF0000C21044636F075FC204610BD036810B583
:100D00001B69044631B19847A26863689B1A18446E
:100D1000606010BD9847A060FBE770477047000017
:100D200008B5FFF7BCFF024B00221A6008BD00BFE8
:100D30008401002070B50D46FFF7B5FF0B4A93788C
:100D400056781178D370C4B213F0010096705170C8
:100D500014700AD016F0010007D011F0010004D081
:100D6000E3075ABF01202870002070BD84010020D5
:100D700010B50421044636F034FC204610BD7047FF
:100D800010B50421044636F02CFC204610BD0000AE
:100D900008B54FF4F0714FF448701BF0C5FB074BDA
:100DA00010B901221A7008BD1B78002BFBD1044B2F
:100DB000044A0548242136F043FC00BF8801002086
:100DC000CC880308DF880308098903087FB50B4B2B
:100DD0001C780E4615465CB101A81BF0E3FB9DF89C
:100DE000043043B1BDF806303360BDF80A302B60E3
:100DF000204604B070BD1C46FAE700BF8801002001
:100E000010B1012809D07047084B09481A68B2FA96
:100E100082F2520940211CF071BF044B05485A6808
:100E2000B2FA82F252091021F5E700BF8C010020CE
:100E300000180240000C024010B1012809D0704790
:100E4000084B09481A68003A18BF012240211CF0DB
:100E500055BF044B05485A68003A18BF01221021BB
:100E6000F5E700BF8C01002000180240000C024092
:100E700010B1012804D07047034840211CF043BF43
:100E800002481021FAE700BF00180240000C02409F
:100E900008B530B1012809D00020431E58425841FE
:100EA00008BD044840211CF023FFF6E7024810214A
:100EB000F9E700BF00180240000C024070B5084D71
:100EC00000240126E0B2FFF7E3FF18B12B68012BE5
:100ED00018BF2E600134052C05F10405F2D170BD58
:100EE0008C010020012380F8741080F87530704761
:100EF0000020704700207047836B0BB108461847ED
:100F000070474FF6FF707047406803689B69184749
:100F100070477047014B1868704700BF9C01002064
:100F20007047000038B50446094DFFF7C7FF20465B
:100F300000F094FD002384F84A302846FFF7BAFEFB
:100F4000012384F86C30034B2561636138BD00BF19
:100F5000A8010020A40100200368044607B59B6F88
:100F60009847236820461B6F984700F017FA2368BC
:100F700020469B6E984700210648009129231522A0
:100F80001CF0A5FC00F00AFA236820469B6E9847E7
:100F9000F8E700BF4820012010B5044622F0AEF962
:100FA00023682046D3F8A030BDE81040184700F071
:100FB00054BD00F06BBD00F06BBD00F03DBD00F016
:100FC00043BD00F067BD0000024B00221A7021F003
:100FD00087BB00BF1400002010B5044621F08CFB35
:100FE00094F84B3013B1024B01221A7010BD00BFB0
:100FF0001400002021F03ABB10B57C21044636F0E5
:10100000F0FA204610BD90F877301BB140680368B5
:101010001B6818471846704730B590F8341090F8A0
:101020007440104B8C421A780DD05AB90E4A0F49B1
:101030000F4814880F4D0C8001881180298004808E
:1010400001221A7030BD002AFCD00948074A0188E5
:101050001180054A074D14882C80118004800022DD
:10106000EFE700BF941C0120901C0120961C01207A
:10107000921C0120981C012010B50C4C216031B944
:101080000B4B0C4A0C484FF4257136F0D9FAC0E9E5
:101090000F12003A0949436418BF01220A70003B4D
:1010A000074A18BF0123137010BD00BF9C01002028
:1010B00080890308B8890308068A03089A1C01205E
:1010C0009B1C0120012807B50AD84B7800930B78A8
:1010D0000848152200211CF0FAFB03B05DF804FB60
:1010E00001910B5C009339220346002101481CF05A
:1010F000FFFBF2E74820012037B50B4A0B4C0223D7
:101100001525137055700192442200920021392256
:1011100020461CF0EDFB0021009135232A46204695
:101120001CF0D5FB03B030BDB401002048200120E5
:1011300007B50190FFF7E0FF019803B05DF804EBFD
:1011400000F08ABC07B5074B03EB80002A2301900F
:10115000009339220423002103481CF0C9FB03B08B
:101160005DF804FB040000204820012070B5154DF7
:1011700004460020FFF744FE2A6892F866300133E7
:1011800082F8663000F0FEF80F4B28681A781B785A
:1011900080F84A2023B10D4D2B7803F0FF0623B1D0
:1011A000BDE870400020FFF747BE22F0A7F8084BCB
:1011B00030461E60FFF7C6FF20461CF078FB012377
:1011C0002B7070BD9C1C012014000020B601002073
:1011D000A0010020304B314A70B505461868304CEC
:1011E000013018602F4B03281E682ADCD4F8041441
:1011F0004FF4C87303FB006321F00801C4F8041422
:1012000093620CBFE823C823023327491B0443F42D
:10121000F1730B61254B4B61A3F5F0735360244BC5
:10122000D36201234B62FFF78DFF1D4AD2F80434CD
:1012300043F008032846C2F80434BDE870401CF0AF
:1012400036BBD4F804341B4923F00803C4F8043433
:10125000154B9662196101F10111596116495160EE
:101260001349D16201225A620020FFF76BFFD4F8C4
:10127000043443F00803C4F804340020FFF7DCFD15
:101280000E4B00221A700E4B186820B10368BDE89F
:101290007040DB69184770BDA001002084680140E0
:1012A000006C01409C01002000680140E301CA007D
:1012B00093018006E201CA000300CA00B6010020C3
:1012C0009C1C012008B5044B0146186801B101219E
:1012D00022F02EF8012008BD9C1C0120054B064879
:1012E00000225A609A60054A1A60054B0360FFF7B6
:1012F00017BD00BFA8010020A401002090880308AA
:10130000B8880308012108B5002208461EF05EFED9
:101310000A4B186028B90A4B0A4A27210A4836F0B6
:101320008FF90022042101201EF0EEFE074B186009
:1013300018B9074B034A2B21F0E708BDBC01002078
:10134000188B0308618B0308908B0308B8010020F9
:10135000EE8B0308024B4FF0FF3118681EF080BE81
:10136000BC010020014B18681EF0A6BEBC01002085
:10137000024B002118681EF073BE00BFBC010020A4
:10138000FFF7F0BF03480449006800231A461EF027
:10139000F7BE00BFB80100201800002013B5084CAC
:1013A00000231A4601A920681EF01AFF20684FF09A
:1013B000FF33002201A91EF013FF02B010BD00BFD1
:1013C000B80100201EF0E4BD03685B6C18470120E3
:1013D000704703689B6A184782B0002301930D4B46
:1013E0001A6B42F400021A631A6B02F400020192B3
:1013F000019A1A6942F400021A611A6922F4000281
:101400001A61054B054A1A61054B4FF080629A60DC
:1014100002B0704700380240802101202D140008DE
:1014200000E100E040F2EF3070470000024B1B6823
:10143000586803685B6918479C1C012008B50B2895
:101440000BD8DFE800F01206100A0A0A0A0808089A
:101450000808012008BD0520FCE7054B054A0648A1
:10146000652136F0EDF80020F4E70220F2E700BF36
:10147000308C03084B8C0308978C030808B50A28A6
:1014800009D8DFE800F010060E080808080606066E
:101490000600012008BD054B054A0648862136F0A6
:1014A000CFF80020F6E70220F4E700BF308C0308F5
:1014B000F38C0308978C03082DE9F84391F81D80FD
:1014C0000C464046FFF7BAFFA77F05463846FFF7B0
:1014D000B5FF06463846FFF7D1FFA18A628B534B12
:1014E000521A1A649A61228B521A1A61E28A58635C
:1014F00042EA01425A6421696268D963DA60D4F829
:1015000000C094F81C90BCF1800F4FEA09629E461F
:101510003BD015D8BCF1200F45EA020079D0BCF1D0
:10152000400F76D0BCF1040F2BD0404B2A4342F43D
:101530000032B845DA6114BF3D4A40F201221EE094
:10154000BCF5807F07D0BCF5007FEED142F40032BD
:1015500042F0090203E042F4003242F00A02DA618A
:10156000E0680202440102F4780204F47C44C00002
:101570002243C0B202431A622E4A5E6259611A6067
:1015800043E040F40030D861F6E7A0682A4342F413
:101590000032041DDC62DA6102785E62596142B198
:1015A000012A1CD0244B254A25484FF4887136F077
:1015B00047F84288D969501E21F47F4222F0100278
:1015C00042EA0022DA610125184CE36943F0200366
:1015D000E361E3699B0613D5FFF7F4FEF9E7428860
:1015E000D969501E21F47F4222F0100242EA002203
:1015F000B9F1FF0542F0100218BF0125DA61E3E7F7
:101600001023A3601DB10B4B2360BDE8F883084B8A
:10161000FAE7084B40F40030CEF81C00CEF8246006
:10162000CEF81410CEF80030EFE700BF00B0024053
:101630000102010001020200408D03085A8D0308D7
:10164000978C0308F8B58E7F0C463046FFF716FFDF
:10165000A78AE18A628B1E4B2569586341EA0741DC
:10166000D21B5964DD631A642168082918D19A6174
:101670001A615862217F174A42EA0162DA61E16821
:101680000A02480102F4780200F47C40C9000243D7
:10169000C9B20A431A62104A5D61DD601A60F8BD82
:1016A0000022D8611A61E1681EB99963084B0B4AA0
:1016B000F4E70A02480102F4780200F47C40C90011
:1016C000C9B202430A43217F42EA01629A63EDE70D
:1016D00000B0024009000100010202000102030003
:1016E000054B0360054B4FF08062C3F88820BFF3C1
:1016F0004F8FBFF36F8F7047A48D030800E100E0A8
:1017000010B50446FFF7ECFF20464FF4426135F078
:1017100068FF204610BD000070B5044625460A4B00
:101720000C30002660602672667245F8203B60220D
:10173000294621F035FF04F54263EE602035AB42C7
:10174000FBD1204670BD00BFA48D03080120704767
:101750000C2070470C2303FB0100083070470C235A
:1017600003FB0100083070470120704747F2FC502E
:10177000704747F2FC5303FB01000830704747F203
:10178000FC5303FB01000830704701207047102014
:10179000704700EB01100830704700EB0110083073
:1017A0007047084601F036BD10B5034B0360044690
:1017B00020F070FD204610BD5C8E030810B5044675
:1017C000FFF7F2FF2046142135F00BFF204610BD35
:1017D00010B5034B0360044620F05CFD204610BDAD
:1017E000288E030810B50446FFF7F2FF204647F2A3
:1017F000046135F0F6FE204610BD000010B5034B25
:101800000360044620F046FD204610BDF48D030819
:1018100010B50446FFF7F2FF2046182135F0E1FE2F
:10182000204610BD10B5094B0360044600F5EC409E
:101830003030FFF7B9FF04F12C00FFF7C9FF04F1C6
:101840001400FFF7DBFF204610BD00BF908E030899
:1018500008B50248FFF7E6FF08BD00BFC40100203D
:1018600010B50446FFF7DEFF204647F2A47135F0BD
:10187000B8FE204610BD00002DE9F34101F00CFC3C
:10188000054601F00DFC0024014623462846224669
:10189000009428F0D1FB244B244A254D1A602046A1
:1018A00017F004FB234828F009FB2B78BFF35B8F6C
:1018B000DB0733D4284635F096FE78B31E4C1F4F15
:1018C0001F4B236007F11C0604F1140004F12C08DF
:1018D0006060C4F80880E760266120F0DDFC194BE9
:1018E0006361404620F0D8FC174BE362384620F095
:1018F000D3FC164B3B6007F1140017F071FB224636
:1019000007F11401304617F057FB304601F082FC16
:10191000284635F074FE0E4835F0B0FE0D4802B092
:10192000BDE8F041FFF7FEBA181D0120088600202F
:10193000C00100201C000020C4010020F47700201A
:10194000908E0308F48D0308288E03085C8E03082C
:10195000511800088C8500200148FFF7FDBA00BF30
:101960008C85002070B5244C244E254B254D2360DA
:101970003046FFF7D1FE28462BF0E2FB224B002237
:101980004FF48071C3E912122049DC60C3E91912D7
:101990004FF080715967012183F878101C491D4C64
:1019A0000B601D491A854FF4507008804FF4F07198
:1019B000C3E90422C3E90622C3E90822C3E90E22CF
:1019C000C3E91022C3E91422C3E9162283F82A20AE
:1019D000DA621A861A6683F86C201A67C3E9016511
:1019E00021800E4C83F8342022700D4C0D4A20804B
:1019F0000D481A60018070BD687900206C79002064
:101A0000708903080C8600208C85002001000001ED
:101A10009C1C0120921C0120901C0120941C012080
:101A2000961C0120548A0308981C01200148FFF7E6
:101A300057BE00BF6C790020024B902283F85A23D6
:101A4000704700BF00E100E0024B4FF080629A60F7
:101A5000704700BF00E100E07047704738B50446AA
:101A600020F057FE2368DD6D25F05CF80146204626
:101A7000A8472368D3F8805000231A464FF040410E
:101A80002046A847012384F84A3038BD20F0F4BD31
:101A900020F04DBF044B4FF08062C3F88820BFF3A5
:101AA0004F8FBFF36F8F704700E100E07FB50246B4
:101AB00000230120CDE9033002930091034B044839
:101AC00069461AF065FF07B05DF804FBE01F0120CE
:101AD00054210120A0F5977057289ABF014B185C3C
:101AE000002070479C8E03082DE9F04FB84C89B058
:101AF00001AA234600211AF09BFF019A112A2546CC
:101B000011D1A378E07803EB0020FEF745FEACA3EB
:101B1000D3E90023FEF7C4FBFEF7A8FEAD4B186027
:101B200009B0BDE8F08FB2F5407F27D1AA4B012262
:101B30001A60AA4B22781A706378A94A19091170A1
:101B4000A84A03F00F031370A378A74A190911706C
:101B5000A64A03F00F031370E278A54B110902F0B7
:101B60000F0219705A702279110902F00F02997050
:101B7000DA7063799F4A1B091370D1E7A2F5967357
:101B8000132B34D89C4B012110461960FFF7A2FF9C
:101B90009A4951F820305C1C13F0010341F82040B1
:101BA00097490ED0D30716D50823102212FB003018
:101BB000874C014414F8012B01F8012B013BF9D1AA
:101BC000AEE704B201EB04141D460133102B04F8F8
:101BD000015BFAD1E6E700B27D4A01EB0011082370
:101BE00012F8010B01F8010B013BF9D198E7652AC6
:101BF0001ED1814B01221A60824B22781A706278C2
:101C0000A37803EB02236422B3FBF2F37E4A138032
:101C1000E278237903EB02237C4A13807C4B6279C0
:101C20001A70A279E37903EB02237A4A138077E7EB
:101C3000662A2ED1784BE07801221A60774B6278C1
:101C40001A60774B22791A60A37807EE903AF8EE83
:101C5000677AF2EE046A87EEA67A724B83ED007A19
:101C6000FEF79AFD58A3D3E90023FEF719FB6E4B4C
:101C70000022FEF715FBFEF719FE6C4B6279186027
:101C80006B4B1A706B4BA2791A70E2796A4B1A701F
:101C900046E7A2F5AF73132B5BD8574B674D012175
:101CA00010461960FFF716FF654951F820305C1C9B
:101CB00013F0010F41F8204062494FEA80041FD021
:101CC0000B1912F0010F93ED007ADFED5F6A25D05A
:101CD0002022382313FB00203D4E2844062216F80C
:101CE000013B03EB830307EE903AF8EEE77A013A03
:101CF00067EEA67A37EE277AE0EC017AEFD124E09E
:101D00000B1900261E6003B2C3EBC30305EBC3032C
:101D10000E27013F43F8046BFBD1D1E700B2C0EBC3
:101D2000C0002B4E05EBC000082216F8013B03EB68
:101D3000830307EE903AF8EEE77A013A67EEA67A67
:101D400037EE277AE0EC017AEFD1214481ED007A79
:101D5000E6E6A2F5BE73092B00F28080264B3B4DD0
:101D6000012110461960FFF7B5FE394B9FED397A16
:101D700003EB800300221A6000B2374AC0EBC000B8
:101D800002EB8000072214F8016BD3ED006A07EE26
:101D9000906AF8EE677AF4EEE67AF1EE10FAC8BFD0
:101DA000C3ED007AE0EC017AD3ED007AF4EEC77A65
:101DB000F1EE10FAA8BF2960013AE4D1B0E600BF05
:101DC000616D8C9DF0127C3F90D1BE500000293F88
:101DD000048D0020108D0020D88C0020188D00204C
:101DE000518800205288002050880020538800200D
:101DF000208D00205C1F0120E48C00208C1F01201E
:101E000060880020F58C00209C8C00205E880020DB
:101E1000288900205C880020EC8C0020841F012091
:101E2000E41F0120D48C002000007040A08C002012
:101E3000A78C0020E08C0020A88C00206C8A002059
:101E4000B81F0120448A00200000803B1C8D002028
:101E500000890020000070422C890020B2F5C87F64
:101E600021D1334BDFF804A1324F0FF2BC09D9E97D
:101E700000890122A3461A60042400261BF8010BE6
:101E8000FEF78AFC42464B46FEF70AFA32463B46CC
:101E9000FEF706FAFEF70AFD013C4AF8040BEDD105
:101EA0002A79254BF3E6962A0BD1244B01221A609E
:101EB000234B22781A70234B62781A70A278224B37
:101EC000E5E640F291139A421BD1194B1F490122BA
:101ED0001A601F4A062311F8010B07EE900AF8EE6C
:101EE000677A013BE2EC017AF5D1AA79EB791949DD
:101EF00013430B60002A3FF413AE174B01221A6004
:101F00000EE640F293139A4205D1144BA2791A605F
:101F1000E279134BF3E7982A7FF402AE114B227853
:101F20001A606278104BEAE790D1BE500000293F5A
:101F3000EC8C002000007040A48C0020D88C002085
:101F4000E08C0020FC8C0020FD8C0020048D002003
:101F5000AC8C0020B41F01201C8D00205488002070
:101F6000881F0120008D0020F88C0020C48C0020E8
:101F700010B5114C8AB0012120461AF0D0FD022183
:101F800020461AF0CCFD102120461AF0C8FD00238F
:101F90000F22CDE90523CDE90033CDE902330493C7
:101FA000694601232046CDE907331AF03BFC204661
:101FB0001AF0C0FC0AB010BD5421012001490020D4
:101FC0001FF086BCC512000808B564201DF0F2FFA2
:101FD000FBE7000030B595B01022002109A835F0CC
:101FE000B5FC1422002102A835F0B0FC00241F4BE0
:101FF00000941A6C42F080521A641B6C03F08053F8
:102000000093009B1A4B01941A6842F440421A60F4
:102010001B6803F4404301930122019B4FF480337A
:10202000CDE9072302254FF480030821CDE90D53A4
:102030004FF4B473CDE90F1304200623CDE9120346
:1020400007A811951DF00CFA1CF05CFC0F23CDE9DC
:10205000023504944FF480534FF4A054052102A894
:10206000CDE905431CF0D0FF15B030BD003802406B
:10207000007000402DE98048BBB01AF017FBFFF755
:10208000A9FF142200212DA8002435F05FFCC44BC9
:1020900003941A6BC34842F010021A631A6B02F0E1
:1020A00010020392039A04941A6B42F002021A631C
:1020B0001A6B02F002020492049A05941A6B42F021
:1020C00040021A631A6B02F040020592059A0694C8
:1020D0001A6B42F008021A631A6B02F008020692A9
:1020E000069A07941A6B42F480721A631A6B02F410
:1020F00080720792079A08941A6B42F020021A63C2
:102100001A6B02F020020892089A09941A6B42F4A2
:1021100080621A631A6B02F480620992099A0A9427
:102120001A6B42F080021A631A6B02F080020A9264
:102130000A9A0B941A6B42F004021A631A6B02F0AB
:1021400004020B920B9A0C941A6B42F001021A6370
:102150001A6B02F001020C920C9A0D941A6B42F465
:1021600000721A631B6B03F4007322464FF48861FC
:102170000D930D9B1BF0C2FD8B48012208211BF023
:10218000BDFD8A48224610211BF0B8FD2246884832
:1021900080211BF0B3FD4FF4006382482F942DA9DA
:1021A0000127CDE92D344FF4806A1BF019FC7D48DE
:1021B0002DA91125CDE92DA7CDE92F441BF010FC49
:1021C000082279482DA94FF00208CDE92D254FF0BE
:1021D0001009CDE92F441BF003FC74482F942DA95E
:1021E0008026CDE92D97CDF8C0801BF0F9FB714812
:1021F0002F942DA9CDE92D641BF0F2FB40236948F3
:102200002DA9CDE92D374FF0030BCDE92F481BF059
:10221000E7FB6748CDF8C0B02DA9CDE92D652F9417
:102220001BF0DEFBC0222DA963482F94CDE92D249D
:102230001BF0D6FB6148624D624A02601AF0F0FD65
:102240006149C5E90A44C5E90C442846C5E90014BA
:10225000C5E902441AF0F8FE394628461AF0ACFFE8
:102260003146224652481BF049FD14201AF04AFA22
:1022700031463A464E481BF041FD0A201AF042FA18
:102280002422214617A835F061FB1822214611A807
:1022900035F05CFB342221462DA835F057FB2C226B
:1022A00021460DEB0600494E35F050FB484A10948C
:1022B0007D210425CDE90E1830460EA9C6E900247B
:1022C000C6E902571BF040F817A93046CDE917744C
:1022D000CDE91944CDE91B44CDE91D441F941BF001
:1022E0005DFA1C232121CDE911310F221921CDE9FD
:1022F0001321304611A9CDE915441BF012FA2946E5
:1023000030461BF0FDF942F2107130461BF051FBD4
:10231000214630461AF0B5FF4FF4006C4FF480535D
:102320004FF4005ECDE930C34FF48043CDE932E392
:102330004FF480324FF480704FF400714FF400334B
:10234000CDE93423CDE92D014FF400234FF4802152
:10235000CDE9361330464FF080732DA9CDE93838DA
:10236000CDF8BCA01BF098F9C82320A93046CDE9D0
:102370002239CDE92445CDE92044CDE92684CDE9B3
:1023800028442A971BF016F9214630461BF001F924
:10239000104811490462C0E90014402320211DE0C7
:1023A000003802400018024000280240000C0240A1
:1023B000001C0240000802400000024040200120B2
:1023C000802101200030024000B00240482001205E
:1023D000006C0140C0210120400100A0C0E90413AD
:1023E0004FF4C071C0E9061407214FF4805C4FF42C
:1023F0008043CDE92E15CDE9301B2DA9C0E909C3D5
:10240000C0E90245CDE93288CDF8B4801DF0DEF98F
:102410001AF074F81AF024F82146342220A835F076
:1024200095FA6F4D6F4AAC864FF0CA0EC5E900248D
:102430004FF4F172C5E909E24FF0CB0B40F2E31221
:102440002846C5E90BB2C5E90244C5E90447C5E918
:102450000678C5F8208085F836401CF01DF9FF216C
:10246000C8234FF4F072CDE925144FF0050B4FF05F
:102470004041CDE92A32CDE92328CDE928B12246D1
:1024800020A92846CDE921342094CDF89CA0ADF8B0
:10249000B0408DF8B2401CF0CBF92A68936923F064
:1024A0000103936130461BF0DFF93946404619F0CD
:1024B00099F9282315222146009430461BF007FA8B
:1024C0002DA93046CDE92D44CDE92F44CDE9314445
:1024D000CDE93344CDE9354437941BF0DDF84FF4B2
:1024E0004871224628461CF0D1F92A683E48936973
:1024F0003E4D3B4393613E4B0462C0E900371B23D2
:10250000C0E9043AC0E90279C0E906441CF012FBB4
:1025100019F06CFE19F0A0FD19F016FD354A364B86
:102520002C62C5E9002328464FF48043C5E90434F2
:10253000C5E90244C5E906441BF0CAFD28461BF064
:102540006FFE2E482E4B84614FF46021C0E9003BA2
:1025500084834FF48013C0E90413C0E902441AF0E5
:10256000E5F84A4621462DA835F0F0F9254D2648D4
:10257000AC604AF6C873C5E9000341F2707328469F
:10258000C5E90334CDE92044AC611DF0BDFA4FF438
:1025900080532DA928462D931DF0ECFA20A928463A
:1025A000CDE920441DF082FBFEF775FBFFF7E0FC50
:1025B00000F00CFD28461DF061F91DF073FC134A74
:1025C000134821461DF09AFC124B134A186021460D
:1025D00012481DF093FC124B18601DF075FCFEE7CD
:1025E000AC20012000680140F4210120EC1F0120F3
:1025F000001000A000540040801A06005421012061
:10260000006800406420012000040040348F03086B
:10261000C91F0008E81F0120108F03089B0C000849
:102620007C2101207047000082B00E4B00220092F6
:10263000596C41F480415964596C01F48041009116
:1026400000990192196C41F0805119641B6C03F0E0
:1026500080530193019B0F216FF0010002B01AF02B
:102660008BBB00BF0038024010B5044688B014226E
:10267000002103A835F06AF92268224B9A423ED124
:1026800003F5E833002400941A6C1F4842F080627E
:102690001A641A6C02F080620092009A01941A6C1B
:1026A00042F000721A641A6C02F000720192019AF0
:1026B00002941A6B42F002021A631B6B059403F03A
:1026C0000203029342F22002029B0223CDE903237C
:1026D00003210923CDE9061303A91BF081F9224642
:1026E000052140201AF048FB40201AF077FB4120DA
:1026F000224605211AF040FB41201AF06FFB08B07A
:1027000010BD00BF00680040000402400268094B91
:102710009A4282B00BD100230193074B1A6B42F40B
:1027200080521A631B6B03F480530193019B02B028
:10273000704700BF003002400038024007B50F4B21
:1027400002689A4216D10022A3F5F0430192196B58
:1027500041F4000119631B6B03F40003019305218D
:102760005A20019B1AF008FB5A2003B05DF804EBD5
:102770001AF034BB03B05DF804FB00BF00B00240A8
:1027800010B5044688B01422002103A835F0DEF805
:102790002268184B9A422AD103F54C430024019435
:1027A0005A6C154842F000625A645A6C02F000629A
:1027B0000192019A02941A6B42F400721A631B6B25
:1027C00003F4007302930422029B0223CDE9032346
:1027D00003A90D230793CDE905441BF001F95C2003
:1027E000224605211AF0C8FA5C201AF0F7FA08B060
:1027F00010BD00BF006C01400024024030B504460B
:1028000089B01422002103A835F0A0F822681A4BE1
:102810009A422FD1194C1A4800250195236B43F099
:1028200002032363236B03F002030193019B4FF424
:1028300040721223CDE9032301210323CDE90513BF
:10284000042303A907931BF0CBF80295236C43F4F0
:1028500000132364236C03F400130293029B236A86
:1028600043F400132362236A23F4001323626420D9
:1028700019F048FF09B030BD005400400038024054
:102880000004024008B502680A4B9A4210D10A4A75
:102890000A48136C23F4001313644FF480711BF087
:1028A00085F9BDE8084005484FF400711BF07EB97A
:1028B00008BD00BF00540040003802400004024040
:1028C00010B5044690B03C22002101A835F03EF836
:1028D0002268134B9A4221D1082301934FF4B47319
:1028E00005930024062301A808930B941CF056FCC2
:1028F00008B1FFF797FE0B4B00945A6C42F08062D0
:102900005A645B6C03F08063009358200022052119
:10291000009B1AF031FA58201AF060FA10B010BD7E
:102920000068014000380240F0B5044689B0142226
:10293000002103A835F00AF82268244B9A4243D1BB
:10294000234B2448002400949A6B42F002029A63BD
:102950009A6B02F002020092009A01941A6B42F004
:1029600002021A631A6B02F002020192019A0294A7
:102970001A6B42F020021A631B6B059403F02003CC
:10298000029302260325029B0A27402303A9CDE9CF
:102990000336CDE906571BF023F84FF49863CDE9D1
:1029A00003360D48092303A90793CDE905451BF01C
:1029B00017F84FF440730848079703A9CDE9033689
:1029C000CDE905451BF00CF809B0F0BD001000A0E2
:1029D00000380240000402400014024008B50268BA
:1029E000094B9A420FD1094A0948936B23F002031D
:1029F000936340211BF0DAF8BDE8084005484FF426
:102A0000F8611BF0D3B808BD001000A000380240E8
:102A1000000402400014024007B50F4B02689A42BE
:102A200016D1002203F50D330192196C41F0020119
:102A300019641B6C03F00203019305211D20019B07
:102A40001AF09AF91D2003B05DF804EB1AF0C6B92C
:102A500003B05DF804FB00BF00040040F0B5314B4B
:102A60001C6887B0002C5BD101221A602E4B0094A9
:102A70009A6B2E4842F001029A639B6B039403F019
:102A800001030093022703260C25009B01A94FF6A2
:102A90008373CDE90137CDE904651AF0A1FF48F24F
:102AA00033132348059501A9CDE90137CDE9034644
:102AB0001AF096FF4CF203731E48059501A9CDE963
:102AC0000137CDE903461AF08BFF40F2FF631A4845
:102AD000059501A9CDE90137CDE903461AF080FF3C
:102AE0004FF63F031548059501A9CDE90137CDE91A
:102AF00003461AF075FF4FF47F431148059501A96D
:102B0000CDE90137CDE903461AF06AFF0D230D48E0
:102B1000059501A9CDE90137CDE903461AF060FF1B
:102B200007B0F0BD88860020003802400010024047
:102B300000180240000C0240002002400014024035
:102B4000001C02400008024008B5174B1A6852BB2F
:102B500001221A60154A1648936B23F00103936310
:102B60004FF683711BF022F8124848F233111BF024
:102B70001DF811484CF203711BF018F80F4840F291
:102B8000FF611BF013F80E484FF63F011BF00EF8E3
:102B90000C484FF47F411BF009F8BDE808400A4893
:102BA0000D211BF003B808BD8486002000380240C8
:102BB0000010024000180240000C024000200240B9
:102BC00000140240001C02400008024030B50146DB
:102BD00089B0002236201AF0CFF836201AF0FEF81D
:102BE0000025154B02951A6C144C42F010021A6421
:102BF0001B6C03F01003029301A903A8029B1CF0B5
:102C0000AFFA1CF09DFA0E4B236040F2E733E3600D
:102C100040000C4BB0FBF3F00138606020462561AA
:102C2000A5601CF071FF20B920461CF027FE09B0FA
:102C300030BD0120FBE700BF0038024040220120E8
:102C40000010004040420F007047FEE7FEE7FEE73D
:102C5000FEE7704701481CF04FBE00BF6420012012
:102C600001481CF049BE00BF40220120014819F074
:102C700073BF00BF54210120FFF7F8BF01481BF0CC
:102C80007ABD00BFAC20012001481AF00BBA00BF8A
:102C90008021012001481AF00ABC00BF4820012011
:102CA0000120704708B534F0FDFC162303604FF097
:102CB000FF3008BD08B534F0F5FC16230360FEE7CD
:102CC00070B50E4614460025A54201DB204670BDB6
:102CD000AFF3008070550135F6E770B50E46144627
:102CE0000025A54201DB204670BD705DAFF300807A
:102CF0000135F6E74FF0FF3070474FF400534B605B
:102D000000207047012070470020704708B50A4B2B
:102D10001968024609B909491960186869460244E8
:102D20008A4206D934F0BEFC0C2303604FF0FF301A
:102D300008BD1A60FCE700BF8C860020302301200C
:102D40002DE9F041244E254F0024346025464FF0F4
:102D50000108802138461AF0CBFF20B91DB919F0BF
:102D6000CBFC01240546802138461AF0C1FF00281B
:102D7000EFD0002CEDD019F0BFFC401BB0F5AF7FB9
:102D8000E7D9336823B9C6F8008000242546E0E778
:102D9000012B02D102233360F7E7022B01D1032379
:102DA000F9E7032B01D10423F5E7042B01D1052317
:102DB000F1E7052B01D10623EDE7062B01D107230F
:102DC000E9E7072B01D10823E5E7082B01D1092307
:102DD000E1E7092BD9D1D6E70C8D0020000802408D
:102DE0002DE9F04F374A384FDFF8EC90002585B0D9
:102DF0001570CDE90055354ACDE902550121116024
:102E00002E46A846BA460123672102A88DF808304D
:102E1000FEF74CFE3B78022B02D03B78052B4CD1C1
:102E2000802148461AF064FF80450446834602D05C
:102E300019F062FC064619F05FFC801B322823D98A
:102E4000A54221D0012C3AD1DFF884800A24402108
:102E500048461AF04DFF10B1FF238DF801304FF4B2
:102E6000006140461AF044FF10B1FF238DF8023094
:102E70006421684601258DF80050FEF717FE1E20DC
:102E800019F040FC013CE2D19AF80030072B12D136
:102E900001224FF480610E481AF030FF40F6B8303E
:102EA00019F030FC00220A484FF480611AF026FF26
:102EB000084B00221A60D846A5E7C346E4E725463A
:102EC000E2E700BFF48C0020188D00200C8D00205C
:102ED00000180240148D002000000240F8B502687E
:102EE000294B9A42044601D119F0FAFB2268274B7C
:102EF0009A4233D1264A274B116800292FD000214E
:102F000019601160244A254B1168002936D0002130
:102F100019601160224A234B1168002931D0002129
:102F200019601160204A214D214EDFF89CC000231A
:102F300000210E27107B08B9507B50B1581907FBB0
:102F400003C40160981901600E20013844F8041B85
:102F5000FBD10433282B02F11002EBD1F8BD012282
:102F60001A60144A05231370134A1370134A13701E
:102F7000134A1370134B03221A60C3E701221A602D
:102F8000C8E701221A60CDE70010004000040040AD
:102F9000D88C0020DC8C0020EC8C0020F08C0020F1
:102FA000E48C0020E88C002060880020448A002007
:102FB000008900205188002052880020508800207D
:102FC00053880020588800206C8A002037B50022E2
:102FD00024210A201DF054FD0D4B186001201DF026
:102FE00069FE0C4B0C491860002405252346CDE9E9
:102FF0000054802209481EF001FBCDE90054084925
:103000000848234680221EF0F9FA03B030BD00BF05
:10301000882201208C220120588F0308E12D00080E
:10302000618F0308412D0008704708B509292AD887
:10303000DFE801F00505090D1115191D212515F011
:1030400083FF006808BD15F07FFF4068FAE715F0C0
:103050007BFF8068F6E715F077FFC068F2E715F0B0
:1030600073FF0069EEE715F06FFF4069EAE715F0BE
:103070006BFF8069E6E715F067FFC069E2E715F0CE
:1030800063FF006ADEE70020DCE710B50421044698
:1030900034F0A7FA204610BD00487047808F03081F
:1030A0000120704713B5002451B1036801948DF8D5
:1030B000034001AA9C680DF10303A04702B010BDB4
:1030C0000846FBE7408970478089704780887047D1
:1030D00083798088184480B27047C07900F07F00FF
:1030E0007047C079C0097047704710B50821044681
:1030F00034F077FA204610BD704700F596730868E3
:10310000496803C370477047704741607047704714
:103110000123037270477047704710B4C26841685A
:103120005410034601EB6200D20748BF0A599B685E
:103130005DF8044B48BFD358184743682BB18368E8
:103140002BB9C06800F00100704718467047012095
:10315000704710B50C21044634F043FA204610BDE8
:1031600010B51021044634F03CFA204610BD10B5CD
:103170004FF4AC71044634F034FA204610BD10B55B
:1031800023F0D0FC0368BDE810401B6B184710B556
:103190000446D0F83C0158B10368DB68984738B161
:1031A000D4F83C0103689B6898470023C4F83C317D
:1031B00010BD0000F8B5044617460E4623F0D2FCB9
:1031C000104B0025C4E954760F4E1C60C4E95255DB
:1031D0000E4B306823600E4BC4E950350368294616
:1031E0009B68C4E94E559847284615F05FFE336842
:1031F00093F876200AB1D86C00B998682BF0D3FC0C
:103200002046F8BD081D01209C1C0120049B0308DA
:10321000EC9A0308064BC0F848310023C0F84C3143
:1032200000F5A073C0F84401C0F83C31704700BFFE
:1032300079340008064BC0F848310023C0F84C31FF
:1032400000F5A073C0F84401C0F83C31704700BFDE
:10325000DD350008064BC0F848310023C0F84C317A
:1032600000F5A073C0F84401C0F83C31704700BFBE
:1032700045370008064BC0F848310023C0F84C31F0
:1032800000F5A073C0F84401C0F83C31704700BF9E
:10329000AD380008064BC0F848310023C0F84C3167
:1032A00000F5A073C0F84401C0F83C31704700BF7E
:1032B000153A0008064BC0F848310023C0F84C31DD
:1032C00000F5A073C0F84401C0F83C31704700BF5E
:1032D0007D3B0008064BC0F848310023C0F84C3154
:1032E00000F5A073C0F84401C0F83C31704700BF3E
:1032F000E53C0008064BC0F848310023C0F84C31CB
:1033000000F5A073C0F84401C0F83C31704700BF1D
:103310004D3E0008064BC0F848310023C0F84C3140
:1033200000F5A073C0F84401C0F83C31704700BFFD
:10333000B53F000803685B6A184700002DE9F84FA5
:1033400007469068DDF828A0994603681B6A8846FE
:1033500014469847B0F5595F05D2414B414AA32125
:10336000414834F06DF9606803681B6A98470F287C
:1033700003D83E4B3B4AA421F2E7E06803681B6A8E
:1033800098470B2803D83A4B364AA521E8E723F0A3
:10339000C9FB23F0CDFBD9F8000010B10368DB684E
:1033A0009847D9F8000010B103681B68984738683F
:1033B00010B103685B699847D8F8000010B1036842
:1033C0005B689847386810B103681B689847D8F85D
:1033D000000010B103689B689847E0680021FFF780
:1033E000A9FF4FF0000B234B03600546C0F804B063
:1033F00080F808B0A068036859465B6A984706469B
:1034000015F000FF6068036859465B6A98473146CB
:10341000044615F03DFEC9F80050C8F800403E6073
:10342000E4B1231DCAF800303368C4F808A0304660
:10343000DB68F4639847236820461B689847294651
:10344000304625F054F82B6828461B6998472B68AE
:1034500028465B6998472046BDE8F88F2346E1E798
:10346000A48F030832900308369103087D91030866
:1034700020920308489B030807B5D0F85431009305
:10348000D0F85021044B00F59C710448FFF756FF1B
:1034900003B05DF804FB00BFFC1C0120F81C0120F8
:1034A0002DE9F84F07469068DDF828A09946036893
:1034B0001B6A884614469847B0F56C5F05D2414BAD
:1034C000414AA321414834F0BBF8606803681B6A95
:1034D00098470F2803D83E4B3B4AA421F2E7E06807
:1034E00003681B6A98470B2803D83A4B364AA52134
:1034F000E8E723F017FB23F01BFBD9F8000010B11D
:103500000368DB689847D9F8000010B103681B68AE
:103510009847386810B103685B699847D8F800008D
:1035200010B103685B689847386810B103681B687E
:103530009847D8F8000010B103689B689847E06886
:103540000021FFF7F7FE4FF0000B234B0360054609
:10355000C0F804B080F808B0A068036859465B6AF8
:103560009847064615F04AFF6068036859465B6A4B
:1035700098473146044615F069FEC9F80050C8F86E
:1035800000403E60E4B1231DCAF800303368C4F83F
:1035900008A03046DB68F4639847236820461B6820
:1035A00098472946304624F0A2FF2B6828461B691D
:1035B00098472B6828465B6998472046BDE8F88FF6
:1035C0002346E1E7A48F0308C3920308369103085A
:1035D0007D91030820920308489B030807B5D0F8A3
:1035E00054310093D0F85021044B00F59C710448ED
:1035F000FFF756FF03B05DF804FB00BFFC1C012081
:10360000F81C01202DE9F84F07469068DDF828A046
:10361000994603681B6A88461446984744F2AB23D0
:10362000984205D8414B424AA321424834F008F859
:10363000606803681B6A98470F2803D83E4B3C4AD2
:10364000A421F2E7E06803681B6A98470B2803D8B7
:103650003A4B374AA521E8E723F064FA23F068FAE9
:10366000D9F8000010B10368DB689847D9F800006A
:1036700010B103681B689847386810B103685B692C
:103680009847D8F8000010B103685B68984738681D
:1036900010B103681B689847D8F8000010B10368A0
:1036A0009B689847E0680021FFF744FE4FF0000B4D
:1036B000234B03600546C0F804B080F808B0A0684A
:1036C000036859465B6A9847064616F037F9606802
:1036D000036859465B6A98473146044615F0B6FEC2
:1036E000C9F80050C8F800403E60E4B1231DCAF894
:1036F00000303368C4F808A03046DB68F4639847AC
:10370000236820461B6898472946304624F0EFFE80
:103710002B6828461B6998472B6828465B699847A1
:103720002046BDE8F88F2346E1E700BFA48F0308D9
:10373000C7930308369103087D910308209203087C
:10374000489B030807B5D0F854310093D0F85021B6
:10375000044B00F59C710448FFF754FF03B05DF87B
:1037600004FB00BFFC1C0120F81C01202DE9F84FD0
:1037700007469068DDF828A0994603681B6A8846CA
:103780001446984747F2FB53984205D8414B424AAA
:10379000A321424833F054FF606803681B6A9847CE
:1037A0000F2803D83E4B3C4AA421F2E7E0680368A7
:1037B0001B6A98470B2803D83A4B374AA521E8E7FC
:1037C00023F0B0F923F0B4F9D9F8000010B1036880
:1037D000DB689847D9F8000010B103681B68984768
:1037E000386810B103685B699847D8F8000010B1D9
:1037F00003685B689847386810B103681B6898478E
:10380000D8F8000010B103689B689847E068002171
:10381000FFF790FD4FF0000B234B03600546C0F807
:1038200004B080F808B0A068036859465B6A9847FE
:10383000064616F023FC6068036859465B6A9847A1
:103840003146044616F0A2F8C9F80050C8F8004006
:103850003E60E4B1231DCAF800303368C4F808A004
:103860003046DB68F4639847236820461B68984716
:103870002946304624F03BFE2B6828461B699847B2
:103880002B6828465B6998472046BDE8F88F234699
:10389000E1E700BFA48F0308CB9403083691030827
:1038A0007D91030820920308489B030807B5D0F8D0
:1038B00054310093D0F85021044B00F59C7104481A
:1038C000FFF754FF03B05DF804FB00BFFC1C0120B0
:1038D000F81C01202DE9F84F07469068DDF828A074
:1038E000994603681B6A88461446984747F2FB537B
:1038F000984205D8414B424AA321424833F0A0FEEA
:10390000606803681B6A98470F2803D83E4B3C4AFF
:10391000A421F2E7E06803681B6A98470B2803D8E4
:103920003A4B374AA521E8E723F0FCF823F000F9E9
:10393000D9F8000010B10368DB689847D9F8000097
:1039400010B103681B689847386810B103685B6959
:103950009847D8F8000010B103685B68984738684A
:1039600010B103681B689847D8F8000010B10368CD
:103970009B689847E0680021FFF7DCFC4FF0000BE4
:10398000234B03600546C0F804B080F808B0A06877
:10399000036859465B6A9847064616F011FF60684F
:1039A000036859465B6A98473146044616F08EFB19
:1039B000C9F80050C8F800403E60E4B1231DCAF8C1
:1039C00000303368C4F808A03046DB68F4639847D9
:1039D000236820461B6898472946304624F087FD17
:1039E0002B6828461B6998472B6828465B699847CF
:1039F0002046BDE8F88F2346E1E700BFA48F030807
:103A0000CF950308369103087D910308209203089F
:103A1000489B030807B5D0F854310093D0F85021E3
:103A2000044B00F59C710448FFF754FF03B05DF8A8
:103A300004FB00BFFC1C0120F81C01202DE9F84FFD
:103A400007469068DDF828A0994603681B6A8846F7
:103A50001446984745F29F53984205D8414B424A35
:103A6000A321424833F0ECFD606803681B6A984765
:103A70000F2803D83E4B3C4AA421F2E7E0680368D4
:103A80001B6A98470B2803D83A4B374AA521E8E729
:103A900023F048F823F04CF8D9F8000010B103687F
:103AA000DB689847D9F8000010B103681B68984795
:103AB000386810B103685B699847D8F8000010B106
:103AC00003685B689847386810B103681B689847BB
:103AD000D8F8000010B103689B689847E06800219F
:103AE000FFF728FC4FF0000B234B03600546C0F89E
:103AF00004B080F808B0A068036859465B6A98472C
:103B0000064617F093F86068036859465B6A984761
:103B10003146044616F07CFEC9F80050C8F8004053
:103B20003E60E4B1231DCAF800303368C4F808A031
:103B30003046DB68F4639847236820461B68984743
:103B40002946304624F0D3FC2B6828461B69984749
:103B50002B6828465B6998472046BDE8F88F2346C6
:103B6000E1E700BFA48F0308D3960308369103084A
:103B70007D91030820920308489B030807B5D0F8FD
:103B800054310093D0F85021044B00F59C71044847
:103B9000FFF754FF03B05DF804FB00BFFC1C0120DD
:103BA000F81C01202DE9F84F07469068DDF828A0A1
:103BB000994603681B6A88461446984744F287333F
:103BC000984205D8414B424AA321424833F038FD80
:103BD000606803681B6A98470F2803D83E4B3C4A2D
:103BE000A421F2E7E06803681B6A98470B2803D812
:103BF0003A4B374AA521E8E722F094FF22F098FFDC
:103C0000D9F8000010B10368DB689847D9F80000C4
:103C100010B103681B689847386810B103685B6986
:103C20009847D8F8000010B103685B689847386877
:103C300010B103681B689847D8F8000010B10368FA
:103C40009B689847E0680021FFF774FB4FF0000B7A
:103C5000234B03600546C0F804B080F808B0A068A4
:103C6000036859465B6A9847064617F0D7F96068BB
:103C7000036859465B6A98473146044616F0F6FFDA
:103C8000C9F80050C8F800403E60E4B1231DCAF8EE
:103C900000303368C4F808A03046DB68F463984706
:103CA000236820461B6898472946304624F01FFCAD
:103CB0002B6828461B6998472B6828465B699847FC
:103CC0002046BDE8F88F2346E1E700BFA48F030834
:103CD000D7970308369103087D91030820920308C3
:103CE000489B030807B5D0F854310093D0F8502111
:103CF000044B00F59C710448FFF754FF03B05DF8D6
:103D000004FB00BFFC1C0120F81C01202DE9F84F2A
:103D100007469068DDF828A0994603681B6A884624
:103D20001446984744F26F33984205D8414B424AB3
:103D3000A321424833F084FC606803681B6A9847FB
:103D40000F2803D83E4B3C4AA421F2E7E068036801
:103D50001B6A98470B2803D83A4B374AA521E8E756
:103D600022F0E0FE22F0E4FED9F8000010B1036872
:103D7000DB689847D9F8000010B103681B689847C2
:103D8000386810B103685B699847D8F8000010B133
:103D900003685B689847386810B103681B689847E8
:103DA000D8F8000010B103689B689847E0680021CC
:103DB000FFF7C0FA4FF0000B234B03600546C0F835
:103DC00004B080F808B0A068036859465B6A984759
:103DD000064617F0A3FB6068036859465B6A98477C
:103DE0003146044617F03AF9C9F80050C8F80040C7
:103DF0003E60E4B1231DCAF800303368C4F808A05F
:103E00003046DB68F4639847236820461B68984770
:103E10002946304624F06BFB2B6828461B699847DF
:103E20002B6828465B6998472046BDE8F88F2346F3
:103E3000E1E700BFA48F0308DB980308369103086D
:103E40007D91030820920308489B030807B5D0F82A
:103E500054310093D0F85021044B00F59C71044874
:103E6000FFF754FF03B05DF804FB00BFFC1C01200A
:103E7000F81C01202DE9F84F07469068DDF828A0CE
:103E8000994603681B6A88461446984743F217739D
:103E9000984205D8414B424AA321424833F0D0FB17
:103EA000606803681B6A98470F2803D83E4B3C4A5A
:103EB000A421F2E7E06803681B6A98470B2803D83F
:103EC0003A4B374AA521E8E722F02CFE22F030FEDB
:103ED000D9F8000010B10368DB689847D9F80000F2
:103EE00010B103681B689847386810B103685B69B4
:103EF0009847D8F8000010B103685B6898473868A5
:103F000010B103681B689847D8F8000010B1036827
:103F10009B689847E0680021FFF70CFA4FF0000B10
:103F2000234B03600546C0F804B080F808B0A068D1
:103F3000036859465B6A9847064617F0C7FB6068F6
:103F4000036859465B6A98473146044617F006FBFA
:103F5000C9F80050C8F800403E60E4B1231DCAF81B
:103F600000303368C4F808A03046DB68F463984733
:103F7000236820461B6898472946304624F0B7FA44
:103F80002B6828461B6998472B6828465B69984729
:103F90002046BDE8F88F2346E1E700BFA48F030861
:103FA000DF990308369103087D91030820920308E6
:103FB000489B030807B5D0F854310093D0F850213E
:103FC000044B00F59C710448FFF754FF03B05DF803
:103FD00004FB00BFFC1C0120F81C0120006A704794
:103FE000406A704770478B8880690A68DB0A50F81E
:103FF00023001044704710B5C2B1137BB3B1547B9A
:10400000D27A240204F4E0641443C26998B202EB49
:10401000840213888B4202D192F9020010BD05D8A8
:10402000013880B204320028F3D1F7E70020F5E729
:1040300010B52821044633F0D4FA204610BD000004
:1040400030B589B00446BDF850500695BDF84C50C7
:1040500005959DF8405004959DF83C5003959DF8BA
:10406000385002959DF8345001959DF830500095D8
:1040700023F090FD064B2360119BA361129BE3612B
:10408000159B2362169B6362204609B030BD00BFBA
:104090006C9B03080020704781807047C180704787
:1040A0000181704741817047704770477047704782
:1040B000704710B4C4880368121B84881B6D091BE9
:1040C00012B25DF8044B09B218474FF6FF738381B3
:1040D0004FF0FF3303621368C3611060704770478D
:1040E000704770477047704790F825201AB190F8D4
:1040F000242002B11860704780F82E10704790F8A5
:104100002E0070477047704770470420704703299E
:104110009EBF00EB8101CA64CB65704703299ABF3B
:1041200000EB8101C86C0020704703299ABF00EBA7
:104130008101C86D0020704703299EBF00EB8101FB
:10414000CA66CB67704703299ABF00EB8101C86E2E
:104150000020704703299ABF00EB8101C86F00203F
:10416000704710B58C21044633F03BFA204610BD51
:1041700010B54FF45951044633F033FA204610BDC0
:10418000012908B505D122F0CDFCBDE80840FFF7B4
:1041900051B808BD074A02600022C0E90122C0E907
:1041A0000322C0E90522C0E907224FF4807282840D
:1041B000704700BF04BE030870B503680446DB6A9D
:1041C000154698472368294620461B6BBDE870407A
:1041D000184770B504461D46BDF91060FFF7ECFFA7
:1041E0002368294620465B6B984723683146204662
:1041F0009B6BBDE87040184710B52622044600218D
:1042000033F0A4FB2046FFF7C5FF044B2360FF23D8
:1042100084F826300023A362204610BD04BA0308A8
:1042200070B5FF22134E0272134A0260326892F890
:1042300076100023C0E903330446436009B1D06C13
:1042400000B9906803685B6A98473368B0FA80F5F4
:10425000D86C6D0928B103685B6A9847002808BFCD
:1042600001252DB9054B064A06482C2133F0E8F903
:10427000204670BD9C1C012008B60308BC9B0308A7
:104280001A9C0308539C030810B5262204460021FB
:1042900033F05CFB2046FFF77DFF074B2360074BA5
:1042A000A3624FF6FF73A3854FF47F020023C4E996
:1042B0000C322387204610BD5CB903089C8F03088D
:1042C0002DE9F04F2DED108B044697B023F092FFAF
:1042D00022460025E64BE56342F8403B104608EED7
:1042E000102AFFF789FF04F16C03184604F1980ABD
:1042F0000493E04EDFF894B3DFF89483FFF77CFF7C
:1043000004F1C4075046FFF745FFC4F89860C4F8AD
:10431000C05038461FF05EFAD74BC4F8C43004F5DD
:10432000A8731846C4E94455C4E94655C4E948553C
:10433000C4E94A55C4E94C55C4E94E55C4E9505541
:10434000C4E952550B93FFF76BFF04F5B473C4F83F
:1043500050B11846C4F8645109EE103AFFF794FFC3
:1043600004F5D273184604F5F27909EE903AFFF796
:104370008BFFC4F8A481C4F8E0514846FFF70AFF58
:10438000C4F8E46104F50476C4F80C523046FFF733
:1043900001FFB84BC4F8103204F50F721046C4F890
:1043A00038520592FFF728FF04F51A7210460AEEFC
:1043B000102A1FF0ADFB04F52D7210460A92FFF78C
:1043C0002FFF04F53372C4F8B4B21046C4F8C852D3
:1043D0000AEE902A1FF09CFB04F5467210460992E3
:1043E000FFF71EFF04F54C72C4F818B31046C4F86A
:1043F0002C530BEE102A1FF08BFB04F55F72104656
:104400000892FFF70DFF04F56572C4F87CB31046FF
:10441000C4F890530BEE902AFFF736FF04F5747240
:1044200010460CEE102AFFF72FFF04F20C42104644
:104430000CEE902AFFF728FF04F58962104608EE7B
:10444000902AFFF7A7FE8B4BC4F8483404F274425D
:104450001046C4F870540692FFF7CEFE04F594623D
:10446000104604F59C6B0DEE102AFFF70DFFC4F803
:10447000A084C4F8DC545846FFF78CFE7D4BC4F88A
:10448000E03404F20C531846C4F808550793FFF7BC
:10449000B3FE04F5A76318460DEE903AFFF7F4FE5D
:1044A00004F2745318460EEE103AFFF7EDFE04F5D1
:1044B000B66318460EEE903AFFF7E6FE04F2EC53B0
:1044C00018460FEE103AFFF7DFFE04F5C5631846F5
:1044D0000FEE903AFFF7D8FE04F5CD63C4F82886B6
:1044E0001846C4F864560293FFF7CEFE04F5D56370
:1044F0001846C4F86886C4F8A4560393FFF7C4FEB0
:10450000C4F8A88642F6E0614FF4F07804F5EC6058
:10451000C4F8E45620F0E8FD18EE100A4FF4487392
:104520002A462946CDF80080FFF753FE4FF07F431F
:104530000498A3662A464FF448732946CDF80080B4
:10454000FFF747FE4D4BC4F894302A464FF4E17311
:1045500029465046CDF80080FFF73BFE40F2B913E4
:104560000093142240F2B5130D213846FFF731FEB7
:10457000D4F8F43013B9D4F8F83023B1C4E93D5578
:1045800038461FF03DF94FF48063C4E940333846A4
:104590001FF036F9D4F8FC302BB10023C4F8FC30FE
:1045A00038461FF02DF94FF0FF330B99C4F86431F2
:1045B00038461FF02FFEDFF8DCC0BCE80F000EAD60
:1045C0000FC59CE80F0085E80F000EAA04F586735E
:1045D00004F58E71104690ED007AD2ED017ABEEEB0
:1045E000ED7AFEEEED7A17EE100A43F8040F9942C9
:1045F00002F10802C3ED047AECD138461FF000F94D
:10460000394650461DF0F2FE40F2511219EE100AE2
:10461000B021FFF7D1FD4FF07F48194B0C930025D7
:10462000022319EE100A0CA9C4F89881A4F89C5131
:10463000ADF8343020F082FB19EE101A50461DF010
:10464000D5FE40F26113009319EE900A4FF4D17336
:104650001F221621FFF7BDFD0A4BC4F8D4811B6849
:10466000A4F8D85104F5DD67DBB9074B14E000BFAF
:10467000649E03082CAC0308CC9D0308231107FF9C
:104680009C8F03080C1D0120B59C030898B40308F7
:1046900068BA030820880308064AAE21064832F0AB
:1046A000CFFF064B1B88012B0CD8054B014AAF21CD
:1046B000F4E700BFF79C0308259D0308101D0120A7
:1046C0006C9D0308E34B0121186814F02BFCE24AAF
:1046D00003460A21384625F027FA19EE900AC4F855
:1046E000E0710CA9DD4F0C97ADF8345020F026FB9B
:1046F00019EE901A50461DF079FE4FF4F0735D27C5
:1047000000932A464FF4AF734FF4E1714846FFF728
:1047100060FD304600974FF49C7363221321FFF72E
:1047200058FD4FF49C732A46059800972946FFF7D9
:1047300050FD4FF0FF313046C4F8641205991DF06A
:1047400055FE33213A2324221AEE100A009110213B
:10475000FFF73FFD4FF434514FF44877C4F8A812E7
:10476000BF49C4F8A072C4E9A6771AEE100AC4F8CB
:10477000C812C4F8AC520A99C4F8A4521FF04AFDFA
:1047800030461AEE101A1DF031FE33203A2324224F
:10479000009087211AEE900AFFF71BFDB049C4F87C
:1047A00004734FF43450C4E9BF77C4F80C03C4F861
:1047B0002C131AEE900A0999C4F81053C4F8085340
:1047C0001FF028FD30461AEE901A1DF00FFE332020
:1047D0003A2324220090F3211BEE100AFFF7F9FC84
:1047E0009F49C4F868734FF43450C4E9D877C4F8CB
:1047F0007003C4F890131BEE100A0899C4F87453A0
:10480000C4F86C531FF006FD30461BEE101A1DF065
:10481000EDFD2A461BEE900A6521FFF7CDFC8F4F78
:10482000C4F8C48305231BEE900A0CA9A4F8C8534E
:10483000ADF834300C9720F081FA30461BEE901A18
:104840001DF0D4FD2A461CEE100A0B21FFF7B4FC24
:1048500004231CEE100A0CA9C4F80084A4F8045424
:10486000ADF834300C9720F069FA30461CEE101A7F
:104870001DF0BCFD2A461CEE900AE821FFF79CFCC7
:1048800006231CEE900A0CA9C4F83C84A4F84054FA
:10489000ADF834300C9720F051FA30461CEE901AE7
:1048A0001DF0A4FD3146484641261DF09FFD18EE3F
:1048B000900A00964FF49C7314221321FFF789FC91
:1048C0004FF49C732A46069800962946FFF781FC10
:1048D0004FF0FF3118EE900AC4F89C1406991DF0B1
:1048E00085FD2D230B221DEE100A009308214FF4A5
:1048F0009473FFF76EFC04F2FC631DEE100AC4F81B
:10490000DC340CA90723C4F8D084A4F8D454A4F848
:10491000FC56ADF834300C9720F010FA1DEE101A4A
:1049200018EE900A1DF062FDF92618EE901A48461E
:104930001DF05CFD00964FF49C73D5221321584660
:10494000FFF747FC4FF49C732A46079800962946C8
:10495000FFF73FFC4FF0FF31C4F834155846079974
:104960001DF044FD2A461DEE900A8021FFF724FC2D
:1049700003231DEE900A0CA9C4F86885A4F86C55B1
:10498000ADF834300C9720F0D9F91DEE901A584646
:104990001DF02CFD3E221EEE100A0821FFF70CFC34
:1049A00008261EEE100A0CA9C4F8A485A4F8A85580
:1049B0000C97ADF8346020F0C1F91EEE101A58467D
:1049C0001DF014FD7C2231461EEE900AFFF7F4FB29
:1049D00009231EEE900A0CA9C4F8E085A4F8E4555A
:1049E000ADF834300C9720F0A9F91EEE901A584615
:1049F0001DF0FCFCBB2231461FEE100AFFF7DCFB6A
:104A00000A261FEE100A0CA9C4F81C86A4F820562A
:104A10000C97ADF834602F2720F090F91FEE101A94
:104A200058461DF0E3FC6823BE211FEE900A009754
:104A30003E22FFF7CEFB04F2247105910949C4F828
:104A400058860B68A4F85C56002B3FF40EAE06485F
:104A500003880BE0181D0120BE9D03089C8F0308EE
:104A6000777777FF0C1D0120101D01200C2B7FF69E
:104A70001CAE514A0C21106814F054FA4F4A0346F8
:104A80003146059825F050F8059BC4F864360DF1C1
:104A9000300C4B4B0C9361460B231FEE900AADF884
:104AA000343020F04BF91FEE901A58461DF09EFC52
:104AB0006823BE21029800977C22FFF78AFB4149B8
:104AC000C4F898860B68A4F89C5604F5E76CCDF8FA
:104AD00014C0002B3FF4C9AD3B4803880E2B7FF672
:104AE000E4AD354A0E21106814F01CFA334A03462F
:104AF0003146059825F018F8059BC4F8A4360DF149
:104B0000300C2F4B02980C9361460D23ADF83430D6
:104B100020F014F9029958461DF068FC6823BE2164
:104B200003980097BB22FFF754FB2649A4F8DC56F4
:104B30000B68C4F8D88604F24C75002B3FF495AD91
:104B400021480388102B7FF6B0AD1B4A1021106856
:104B500014F0E8F9194A03463146284624F0E4FFE8
:104B6000174B03980C930CA90F23C4F8E456ADF827
:104B7000343020F0E3F8039958461DF037FC5946CD
:104B800048461DF033FC201D18EE101A02901DF04F
:104B90002DFC049902981DF029FC029851461DF045
:104BA00025FC029849461DF021FC204617B0BDECBB
:104BB000108BBDE8F08F00BF181D0120BE9D0308BB
:104BC0009C8F03080C1D0120101D012070477047A9
:104BD00010B54FF46C51044632F003FD204610BD71
:104BE000012908B505D121F09DFFBDE80840FEF779
:104BF00031BB08BD2DE9F04F2DED108B0446ABB055
:104C000023F0F8FA22460025E84BE56342F8403BE2
:104C1000104608EE102AFFF7EFFA04F16C0304F1D6
:104C2000980A18461393FFF7E7FA5046FFF7B2FACF
:104C300004F1C40BDE4BC4F89830C4F8C050584699
:104C4000FFF722FB04F58073184608EE903AFFF751
:104C50001BFB04F59E7304F5BC78184609EE103A68
:104C6000FFF712FB4046FFF70FFB04F5DA73184617
:104C700009EE903A1EF04CFF04F500731846CD4E35
:104C80002793FFF7CDFA04F50673C4F80062C4F861
:104C9000145218460AEE103A1EF03AFF04F5197342
:104CA00018462693FFF7BCFA04F51F73C4F8646234
:104CB000C4F8785218460AEE903A1EF029FF04F51F
:104CC000327318462593FFF7ABFA04F53873C4F82E
:104CD000C862C4F8DC5218460BEE103A1EF018FFFA
:104CE00004F54B7318462493FFF79AFA04F55173B1
:104CF000C4F82C63C4F8405318460BEE903AFFF703
:104D0000C3FA04F5607318460CEE103AFFF7BCFACC
:104D100004F56F7318460CEE903AFFF7B5FA04F5F8
:104D20007E7318460DEE103AFFF7AEFA04F23443E4
:104D300018460DEE903A1EF0EBFE04F5906318460F
:104D40002393FFF76DFA04F59363C4F88064C4F805
:104D5000945418460EEE103A1EF0DAFE04F2E443C4
:104D600018462293FFF75CFA04F2FC43C4F8E464AB
:104D7000C4F8F85418460EEE903A1EF0C9FE04F539
:104D8000A96318462193FFF74BFA04F5AC63C4F806
:104D90004865C4F85C5518460FEE103A1EF0B8FE90
:104DA00004F2AC5318462093FFF73AFA04F2C453C6
:104DB000C4F8AC65C4F8C05518460FEE903A1EF022
:104DC000A7FE04F5C26318461F93FFF729FA04F5FE
:104DD000C563C4F81066C4F8245618460293FFF75A
:104DE00053FA04F264631846734F1493FFF704FAFE
:104DF00004F5D36304F2D469C4F86476C4F8905619
:104E0000A4F8945618460393FFF73EFA4846FFF776
:104E1000C1F9674BC4F8D43604F5E063C4F8FC5616
:104E2000184604931EF074FE04F24C7318461E9349
:104E3000FFF7F6F904F26473C4F84C67C4F86057DE
:104E4000184605931EF064FE04F5F66318461D939C
:104E5000FFF7E6F904F5F963C4F8B067C4F8C4577E
:104E6000184606931EF054FE04F6140318461C93CD
:104E7000FFF7D6F904F62C03C4F81468C4F82858D0
:104E8000184607931EF044FE04F6780318461B9359
:104E9000FFF7C6F904F50963C4F87868C4F88C58BC
:104EA000184608931EF034FE04F6DC0318461A93E5
:104EB000FFF7B6F904F6F403C4F8DC68C4F8F05858
:104EC00018460993FFF7E0F904F5136318460A93AF
:104ED000FFF7DAF904F66C1318460B93FFF7D4F9D1
:104EE00004F6A81318460C93FFF7CEF904F6E41362
:104EF00018460D93FFF7C8F904F522631846159379
:104F0000FFF77AF904F65423C4F8207AC4F84C5A0F
:104F1000A4F8505A18460E93FFF7B6F904F5296322
:104F200018460F931EF0F4FD04F6DC23184619937F
:104F3000FFF776F904F6F423C4F8DC6AC4F8F05AF3
:104F4000184610931EF0E4FD04F5346318461893D8
:104F5000FFF766F904F65833C4F8406BC4F8545BA5
:104F6000184611931EF0D4FD04F6A4331846179387
:104F7000FFF756F904F6BC33C4F8A46BC4F8B85B69
:104F8000184612931EF0C4FD04F608431846169303
:104F9000FFF746F9C4F8086CC4F81C5C04F54260DD
:104FA0004FF4F07642F6E06108E000BF989E0308F7
:104FB0002CAC030898B4030810BB030820F094F845
:104FC00018EE100A00962A4629464FF44873FFF758
:104FD00000F94FF07F431398A36600962A462946AE
:104FE0004FF44873FFF7F5F8EE4BC4F894304FF4E4
:104FF000EA730093294640F20A2350460C224FF0F0
:10500000FF37FFF7E6F84A2258462621FFF7D4F883
:10501000E54EA4F8F85040F2E32328A95846C4F816
:10502000F470ADF8A43028961FF088FE594650461B
:105030001DF0DCF97F2218EE900A2921FFF7BCF859
:105040004FF4397318EE900AA4F8345128A9C4F823
:105050003071ADF8A43028961FF070FE18EE901A4B
:1050600050461DF0C3F9B22219EE100A3A21FFF79B
:10507000A3F840F2E52319EE100AA4F8705128A90C
:10508000C4F86C71ADF8A43028961FF057FE19EEE5
:10509000101A50461DF0AAF9E32240461521FFF7E9
:1050A0008BF840F2E623A4F8AC5128A94046C4F896
:1050B000A871ADF8A43028961FF040FE4146504636
:1050C0004FF02A084FF420764FF4345B1DF08EF930
:1050D00029234A2219EE900ACDF80080DC21FFF73F
:1050E00078F82799C4F8F85119EE900AC4F8F051ED
:1050F000C4E97966C4F8EC61C4F8F4B1C4F8147278
:105100001FF088F819EE901A50461DF06FF9292308
:105110007F221AEE100ACDF80080DC21FFF759F843
:10512000C4E9955B2699C4F85C521AEE100AC4E9EA
:105130009266C4F85062C4F878721FF06BF81AEEE9
:10514000101A50461DF052F92923B2221AEE900A85
:10515000CDF80080DC21FFF73CF8C4E9AE5B25996F
:10516000C4F8C0521AEE900AC4E9AB66C4F8B4623F
:10517000C4F8DC721FF04EF81AEE901A50461DF07B
:1051800035F92923E3221BEE100ACDF80080DC213B
:10519000FFF71FF8C4E9C75B2499C4F824531BEE3A
:1051A000100AC4E9C466C4F81863C4F840731FF059
:1051B00031F81BEE101A50461DF018F94FF4977293
:1051C0001BEE900A0F21FEF7F7FF774BA4F87853F8
:1051D0001BEE900A289328A940F2E723C4F87473C1
:1051E000ADF8A4301FF0AAFD1BEE901A50461DF03A
:1051F000FDF84FF4B9721CEE100A0F21FEF7DCFF28
:10520000694BA4F8B4531CEE100A289328A94FF454
:105210003A73C4F8B073ADF8A4301FF08FFD1CEEE4
:10522000101A50461DF0E2F84FF498721CEE900AE6
:10523000B521FEF7C1FF5C4BA4F8F0531CEE900AB9
:10524000289328A940F2E923C4F8EC73ADF8A43000
:105250001FF074FD1CEE901A50461DF0C7F84FF475
:10526000B9721DEE100AA321FEF7A6FF4E4BA4F85B
:105270002C541DEE100A289328A940F2EA23C4F802
:105280002874ADF8A4301FF059FD1DEE101A5046D9
:105290001DF0ACF8292340F22B121DEE900ACDF838
:1052A00000805F21FEF795FF2399C4F878541DEE26
:1052B000900AC4F87054C4F86464C4F86864C4F80C
:1052C0006C64C4F874B4C4F894741EF0A3FF1DEEAB
:1052D000901A50461DF08AF8292340F26F121EEEF4
:1052E000100ACDF800805F21FEF773FF2299C4F801
:1052F000DC541EEE100AC4F8D454C4F8C864C4F8D0
:10530000CC64C4F8D064C4F8D8B4C4F8F8741EF0FF
:1053100081FF1EEE101A50461DF068F8292340F256
:105320002B121EEE900ACDF8008040F20511FEF718
:1053300050FF2199C4F840551EEE900AC4F8385524
:10534000C4F82C65C4F83065C4F83465C4F83CB5BD
:10535000C4F85C751EF05EFF1EEE901A50461DF0FC
:1053600045F8292340F26D121FEE100ACDF8008097
:1053700040F20511FEF72DFF2099C4F8A4551FEE49
:10538000100AC4F89C55C4F89065C4F89465C4F834
:105390009865C4F8A0B5C4F8C0751EF03BFF1FEEB9
:1053A000101A03E0231107FF9C8F030850461DF0DD
:1053B0001DF8292340F25D121FEE900ACDF80080FF
:1053C00040F2E111FEF705FF1F99C4F808561FEEE1
:1053D000900AC4F80056C4F8F465C4F8F865C4F837
:1053E000FC65C4F804B6C4F824761EF013FF1FEE63
:1053F000901A50461CF0FAFF4FF4B07202984FF426
:10540000B171FEF7D9FED54B0298A4F85C562893EB
:1054100028A94FF44373C4F85876ADF8A4301FF0B0
:105420008DFC029950461CF0E1FF42211498009136
:105430004FF4D1732A462946FEF7CBFEC84A03989B
:10544000C4F88C264FF00401A4F894160722C4F87F
:1054500090762621FEF7B0FE28A8C04BA4F8CC56C3
:105460002893014640F2DD230398C4F8C876ADF8CE
:10547000A4301FF063FC4FF4CF730093484640F212
:105480000D13422240F21321FEF7A3FE35220498A9
:10549000CDF800802923D721FEF79BFE4FF0FF2394
:1054A000C4F860371E990498C4F84457C4F83C57B0
:1054B000C4F83067C4F83467C4F83867C4F840B734
:1054C0001EF0A8FE049948461CF090FF692205983A
:1054D000CDF800802923D721FEF77BFEA14BC4F82D
:1054E000C4371D990598C4F8A857C4F8A057C4F844
:1054F0009467C4F89867C4F89C67C4F8A4B71EF012
:1055000089FE059948461CF071FF9F220698CDF848
:1055100000802923D721FEF75CFE934BC4F828387E
:105520001C990698C4F80C58C4F80458C4F8F867D5
:10553000C4F8FC67C4F80068C4F808B81EF06AFE36
:10554000069948461CF052FFD2220798CDF80080F9
:105550002923D721FEF73DFE844BC4F88C381B99D4
:105560000798C4F87058C4F86858C4F85C68C4F860
:105570006068C4F86468C4F86CB81EF04BFE079904
:1055800048461CF033FF4FF485720898CDF8008030
:105590002923D721FEF71DFE754BC4F8F0381A9960
:1055A0000898C4F8D458C4F8CC58C4F8C068C4F8F3
:1055B000C468C4F8C868C4F8D0B81EF02BFE0899B7
:1055C00048461CF013FF6C2209980921FEF7F4FDF0
:1055D00028A8624BA4F828592893014640F2DE23FC
:1055E0000998C4F82479ADF8A4301FF0A7FB0999F5
:1055F00048461CF0FBFE38220A986821FEF7DCFDC5
:1056000028A8564BA4F864592893014640F2DF239A
:105610000A98C4F86079ADF8A4301FF08FFB0A999E
:1056200048461CF0E3FEA2220B981421FEF7C4FDAD
:1056300028A84A4BA4F8A059289301464FF4387380
:105640000B98C4F89C79ADF8A4301FF077FB0B9948
:1056500048461CF0CBFED5220C981421FEF7ACFD79
:1056600028A83E4BA4F8DC592893014640F2E123D8
:105670000C98C4F8D879ADF8A4301FF05FFB0C99F2
:1056800048461CF0B3FE40F20D120D984821FEF77B
:1056900093FD28A8314BA4F8185A2893014640F2EC
:1056A000E2230D98C4F8147AADF8A4301FF046FB3D
:1056B0000D9948461CF09AFED023159800934D2270
:1056C000F12340F21911FEF784FD254A0E98C4F823
:1056D000482A4FF00401A4F8501A5B22C4F84C7A0F
:1056E0004FF4A971FEF768FD1C4B0E98A4F8885A78
:1056F000289328A940F20B33C4F8847AADF8A4307B
:105700001FF01CFB0F98CDF80080292394224FF442
:10571000DD71FEF75EFD19990F98C4F8D45AC4F8EC
:10572000CC5AC4F8C06AC4F8C46AC4F8C86AC4F8D9
:10573000D0BAC4F8F07A1EF06DFD1098CDF8008054
:10574000292394224FF4A471FEF743FD1899109871
:10575000C4F8385BC4F8305B0CE000BF9C8F0308D2
:10576000231107FF05D5FAFFCDFA19FFF50AF1FF5E
:105770000000FFFFC4F8246BC4F8286BC4F82C6B3E
:10578000C4F834BBC4F8547B1EF044FD1198CDF826
:1057900000802923DB224FF4A471FEF71AFD17992C
:1057A0001198C4F89C5BC4F8945BC4F8886BC4F887
:1057B0008C6BC4F8906BC4F898BBC4F8B87B1EF02F
:1057C00029FD2923DB221298CDF800804FF4DD71EA
:1057D000FEF7FFFC16991298C4F8005CC4F8F85B59
:1057E000C4F8EC6B251DC4F8F06BC4F8F46BC4F876
:1057F000FCBBC4F81C7C1EF00DFD18EE101A2846E8
:105800001CF0F4FD139928461CF0F0FD5146284683
:105810001CF0ECFD149928461CF0E8FD039928467D
:105820001CF0E4FD494628461CF0E0FD1599284689
:105830001CF0DCFD0E9928461CF0D8FD0F99284677
:105840001CF0D4FD109928461CF0D0FD1199284673
:105850001CF0CCFD284612991CF0C8FD20462BB048
:10586000BDEC108BBDE8F08F7047704710B544F267
:10587000AC21044631F0B5FE204610BD012908B523
:1058800005D121F04FF9BDE80840FDF7F3BC08BD94
:1058900010B50446FEF77EFC024B23600023A36292
:1058A000204610BD2CAC030810B50446FEF7A4FC3E
:1058B000034B23600023E3622386204610BD00BF14
:1058C00010BB030810B50446FEF7DEFC024B236054
:1058D0000023E363204610BD68BA03082DE9F04FAA
:1058E0002DED108B0446C7B022F084FC2246002523
:1058F000DF4BE56342F8403B10460FEE902AFEF77F
:105900007BFC04F16C0318462993FEF775FC04F147
:10591000980318462A93FFF7C7FF04F1CC031846F3
:105920000393FEF7B1FC04F5847318462B93FFF73D
:10593000BBFF04F59E7318460493FEF7A5FC04F51F
:10594000BC7318460593FEF79FFC04F5DA731846FE
:105950000693FFF7B7FF04F5FA73184604F50D79BF
:105960000793FFF7AFFF4846FFF792FF04F5187360
:1059700018462C93FFF798FF04F5257318462D93CE
:10598000FFF792FF04F5327318462E93FFF78CFF52
:1059900004F53F7318462F93FFF786FF04F54C7309
:1059A00018463093FFF780FF04F55973184608EE48
:1059B000903AFFF76DFF04F56473184604F56F7AAB
:1059C0003193FEF719FC5046FEF75EFC04F57E733A
:1059D000184608931EF09CF804F244431846A54E5E
:1059E0004193FEF71DFC04F25C43C4F8446418467E
:1059F000C4F858540993FFF765FF04F29C43184616
:105A00000A93FFF75FFF04F2DC43184609EE103AF1
:105A1000FFF73EFF04F5A16318463293FEF7ECFB57
:105A200004F2345318460B931EF072F804F5B06379
:105A300018464093FEF7F4FB04F5B363C4F88065A1
:105A40001846C4F894550C93FEF71EFC04F2D45388
:105A500018460D93FFF736FF04F2146318460E93B1
:105A6000FFF730FF04F25463184609EE903AFFF74F
:105A70000FFF04F5D06318463393FEF7BDFB04F225
:105A8000AC6318460F93FEF7FFFB04F5DD63184681
:105A900010931EF03DF804F2347318463F93FEF75E
:105AA000BFFB04F24C73C4F834671846C4F8485777
:105AB0001193FFF707FF04F28C73184604F2CC7BB6
:105AC0001293FFF7FFFE5846FFF7E2FE04F5FF636F
:105AD00018463493FEF790FB04F6240318461393FC
