:020000040800F2
:1000000000000520450C0008152D0008172D0008DC
:10001000192D00081B2D00081D2D000800000000F0
:1000200000000000000000000000000061DC01088A
:100030001F2D000800000000F1DC010859D501085F
:10004000950C0008950C0008950C0008950C00080C
:10005000950C0008950C0008950C0008950C0008FC
:10006000950C0008950C0008950C0008950C0008EC
:10007000950C0008950C0008950C0008950C0008DC
:10008000950C0008950C0008950C0008950C0008CC
:10009000950C0008950C0008950C0008212D00080F
:1000A000950C0008950C0008950C0008950C0008AC
:1000B000950C0008292D0008950C0008950C0008E7
:1000C000950C0008950C0008950C0008950C00088C
:1000D000950C0008950C0008950C0008950C00087C
:1000E000950C0008950C0008950C0008950C00086C
:1000F000950C0008950C0008950C0008950C00085C
:10010000950C0008950C0008950C0008950C00084B
:10011000950C0008950C0008352D0008950C00087A
:10012000950C0008950C0008950C0008950C00082B
:10013000950C0008950C0008950C0008950C00081B
:10014000412D00084D2D0008950C0008950C000865
:10015000950C0008950C0008950C0008950C0008FB
:10016000950C0008950C0008950C0008950C0008EB
:10017000950C0008950C0008950C00080000000084
:10018000950C0008950C0008950C0008950C0008CB
:10019000950C0008950C0008950C0008950C0008BB
:1001A000512D0008950C00085D2D0008950C0008E5
:0401B000692D0008AD
:1001C00010B5054C237833B9044B13B10448AFF391
:1001D00000800123237010BD680100200000000092
:1001E0002C5D030808B5034B1BB103490348AFF36B
:1001F000008008BD000000006C0100202C5D030899
:1002000001F0FF01102A2BDB10F0070F08D010F8C7
:10021000013B013A8B422DD010F0070F42B3F6D1CB
:10022000F0B441EA012141EA014122F007047FF0E4
:1002300000070023F0E80256083C85EA010586EA3B
:10024000010685FA47F5A3FA87F586FA47F6A5FA77
:1002500087F68EB9EED1F0BC01F0FF0102F0070283
:1002600032B110F8013B013A83EA010313B1F8D12E
:100270000020704701387047002D06BF354603380F
:10028000073815F0010F07D1013015F4807F02BF48
:10029000013015F4C03F0130F0BC0138704700BF99
:1002A00070B54FF0FF0C4CF4E06C1CEA11541DBF0C
:1002B0001CEA135594EA0C0F95EA0C0F00F0DEF8D7
:1002C0002C4481EA030621EA4C5123EA4C5350EABC
:1002D000013518BF52EA033541F4801143F480130D
:1002E00038D0A0FB02CE4FF00005E1FB02E506F09E
:1002F0000042E0FB03E54FF00006E1FB03569CF0F3
:10030000000F18BF4EF0010EA4F1FF04B6F5007FF8
:1003100064F5407404D25FEA4E0E6D4146EB06066A
:1003200042EAC62141EA55514FEAC52040EA5E50F3
:100330004FEACE2EB4F1FD0C88BFBCF5E06F1ED89D
:10034000BEF1004F08BF5FEA500E50F1000041EBD4
:10035000045170BD06F0004646EA010140EA020081
:1003600081EA0301B4EB5C04C2BFD4EB0C0541EAA3
:10037000045170BD41F480114FF0000E013C00F3B8
:10038000AB8014F1360FDEBF002001F0004170BDDC
:10039000C4F10004203C35DA0C341BDC04F11404F5
:1003A000C4F1200500FA05F320FA04F001FA05F281
:1003B00040EA020001F0004221F0004110EBD3704E
:1003C00021FA04F642EB06015EEA430E08BF20EA7A
:1003D000D37070BDC4F10C04C4F1200500FA04F31D
:1003E00020FA05F001FA04F240EA020001F00041AF
:1003F00010EBD37041F100015EEA430E08BF20EA22
:10040000D37070BDC4F1200500FA05F24EEA020E69
:1004100020FA04F301FA05F243EA020321FA04F098
:1004200001F0004121FA04F220EA020000EBD3704F
:100430005EEA430E08BF20EAD37070BD94F0000F4F
:100440000FD101F00046400041EB010111F4801F83
:1004500008BF013CF7D041EA060195F0000F18BF34
:10046000704703F00046520043EB030313F4801F70
:1004700008BF013DF7D043EA0603704794EA0C0F2A
:100480000CEA135518BF95EA0C0F0CD050EA410640
:1004900018BF52EA4306D1D181EA030101F00041BD
:1004A0004FF0000070BD50EA410606BF10461946E5
:1004B00052EA430619D094EA0C0F02D150EA0136F1
:1004C00013D195EA0C0F05D152EA03361CBF104632
:1004D00019460AD181EA030101F0004141F0FE41D1
:1004E00041F470014FF0000070BD41F0FE4141F455
:1004F000780170BD81F0004102E000BF83F000434D
:1005000030B54FEA41044FEA430594EA050F08BFAE
:1005100090EA020F1FBF54EA000C55EA020C7FEA72
:10052000645C7FEA655C00F0E2804FEA5454D4EBEF
:100530005555B8BF6D420CDD2C4480EA020281EAB9
:10054000030382EA000083EA010180EA020281EAF1
:100550000303362D88BF30BD11F0004F4FEA013143
:100560004FF4801C4CEA113102D0404261EB410152
:1005700013F0004F4FEA03334CEA133302D05242D8
:1005800063EB430394EA050F00F0A780A4F1010494
:10059000D5F1200E0DDB02FA0EFC22FA05F28018CE
:1005A00041F1000103FA0EF2801843FA05F35941B4
:1005B0000EE0A5F120050EF1200E012A03FA0EFC33
:1005C00028BF4CF0020C43FA05F3C01851EBE3715D
:1005D00001F0004507D54FF0000EDCF1000C7EEB7A
:1005E00000006EEB0101B1F5801F1BD3B1F5001FB8
:1005F0000CD349085FEA30004FEA3C0C04F10104D7
:100600004FEA445212F5800F80F09A80BCF1004FFF
:1006100008BF5FEA500C50F1000041EB045141EA81
:10062000050130BD5FEA4C0C404141EB0101013C4A
:1006300028BFB1F5801FE9D291F0000F04BF014639
:100640000020B1FA81F308BF2033A3F10B03B3F10B
:1006500020020CDA0C3208DD02F1140CC2F10C029B
:1006600001FA0CF021FA02F10CE002F11402D8BFF9
:10067000C2F1200C01FA02F120FA0CFCDCBF41EAC5
:100680000C019040E41AA2BF01EB0451294330BD94
:100690006FEA04041F3C1CDA0C340EDC04F1140471
:1006A000C4F1200220FA04F001FA02F340EA030048
:1006B00021FA04F345EA030130BDC4F10C04C4F18E
:1006C000200220FA02F001FA04F340EA030029466E
:1006D00030BD21FA04F0294630BD94F0000F83F4B8
:1006E000801306BF81F480110134013D4EE77FEA9B
:1006F000645C18BF7FEA655C29D094EA050F08BFE7
:1007000090EA020F05D054EA000C04BF19461046C7
:1007100030BD91EA030F1EBF0021002030BD5FEA0B
:10072000545C05D14000494128BF41F0004130BD33
:1007300014F580043CBF01F5801130BD01F0004587
:1007400045F0FE4141F470014FF0000030BD7FEAFA
:10075000645C1ABF194610467FEA655C1CBF0B46F5
:10076000024650EA013406BF52EA033591EA030F0C
:1007700041F4002130BD00BF90F0000F04BF002104
:10078000704730B54FF4806404F132044FF0000537
:100790004FF0000150E700BF90F0000F04BF0021B0
:1007A000704730B54FF4806404F1320410F0004516
:1007B00048BF40424FF000013EE700BF42004FEA11
:1007C000E2014FEA31014FEA02701FBF12F07F438E
:1007D00093F07F4F81F06051704732F07F4208BF45
:1007E000704793F07F4F04BF41F40021704730B54C
:1007F0004FF4607401F0004521F000411CE700BF98
:1008000050EA010208BF704730B54FF000050AE01A
:1008100050EA010208BF704730B511F0004502D51B
:10082000404261EB41014FF4806404F132045FEA1D
:10083000915C3FF4D8AE4FF003025FEADC0C18BFC6
:1008400003325FEADC0C18BF033202EBDC02C2F1B8
:10085000200300FA03FC20FA02F001FA03FE40EA4A
:100860000E0021FA02F11444BDE600BF4A0011D285
:1008700012F5001211D20DD56FF47873B3EB6252FA
:100880000ED44FEAC12343F0004343EA505323FA06
:1008900002F070474FF00000704750EA013002D17B
:1008A0004FF0FF3070474FF0000070474FEA4102B1
:1008B000B2F1E04324BFB3F5001CDCF1FE5C0DD9BE
:1008C00001F0004C4FEAC0024CEA5070B2F1004F08
:1008D00040EB830008BF20F00100704711F0804F0B
:1008E00021D113F13872BCBF01F00040704741F4D0
:1008F00080114FEA5252C2F11802C2F1200C10FAD4
:100900000CF320FA02F018BF40F001004FEAC123B7
:100910004FEAD32303FA0CFC40EA0C0023FA02F35B
:100920004FEA4303CCE77FEA625307D150EA013331
:100930001EBF4FF0FE4040F44000704701F0004001
:1009400040F0FE4040F40000704700BF53B94AB980
:10095000002908BF00281CBF4FF0FF314FF0FF30C7
:1009600000F06EB9ADF1080C6DE904CE00F006F8A8
:10097000DDF804E0DDE9022304B070472DE9F0471B
:10098000089D04468C46002B40F083808A4217461F
:1009900047D9B2FA82F242B1C2F1200024FA00F043
:1009A0009140974040EA010C94404FEA1748230CCD
:1009B000BCFBF8F61FFA87FE08FB16C143EA0143A9
:1009C00006FB0EF1994209D9FB1806F1FF3080F0C1
:1009D0001981994240F21681023E3B445B1AA4B24F
:1009E000B3FBF8F008FB103344EA034400FB0EFEAF
:1009F000A64509D93C1900F1FF3380F00581A645D1
:100A000040F2028102383C4440EA0640A4EB0E0466
:100A100000261DB1D4400023C5E900433146BDE89E
:100A2000F08702B9FFDEB2FA82F2002A50D1CB1B66
:100A30004FEA174E1FFA87F80126B3FBFEFC210C84
:100A40000EFB1C3341EA034108FB0CF38B4207D930
:100A500079180CF1FF3002D28B4200F2E980844613
:100A6000C91AA3B2B1FBFEF00EFB101143EA014418
:100A700008FB00F8A04507D93C1900F1FF3302D26A
:100A8000A04500F2D9801846A4EB080440EA0C40C7
:100A9000BFE78B4209D9002D00F0B1800026C5E9DF
:100AA000000130463146BDE8F087B3FA83F6002EE8
:100AB0004AD18B4202D3824200F2B880841A61EBA1
:100AC000030101208C46002DA8D0C5E9004CA5E704
:100AD000C2F1200320FA03F6974001FA02F04FEA30
:100AE000174ED9403043030CB1FBFEF61FFA87F8CE
:100AF0000EFB161143EA014306FB08F1994204FA82
:100B000002F409D9FB1806F1FF3C80F08D80994270
:100B100040F28A80023E3B445B1A81B2B3FBFEF096
:100B20000EFB103341EA034100FB08F38B4207D967
:100B3000791800F1FF3C73D28B4271D902383944E5
:100B4000CB1A40EA064678E7C6F1200C03FA06F411
:100B500022FA0CF31C4320FA0CF701FA06F34FEAD1
:100B6000144E21FA0CF11F433B0CB1FBFEF91FFAA6
:100B700084F80EFB191143EA014109FB08FA8A4582
:100B800002FA06F200FA06F308D9611809F1FF30FB
:100B900048D28A4546D9A9F102092144A1EB0A01AC
:100BA000BFB2B1FBFEF00EFB101147EA014700FB9C
:100BB00008F8B84507D9E71900F1FF312ED2B8453A
:100BC0002CD90238274440EA0940A7EB0807A0FBCC
:100BD00002894F45C64649461AD317D05DB1B3EBDB
:100BE0000E0267EB010707FA0CFCF2404CEA020226
:100BF000F740C5E9002700263146BDE8F0872E46BC
:100C000028460BE70646E9E61846FDE64345E5D2E9
:100C1000B8EB020E69EB04010138DFE70846D2E7C2
:100C200060468DE78146B9E7664675E730464AE794
:100C3000ACF1020C394413E702383C4424E700BF0E
:100C4000704700BFDFF834D0002103E00C4B5B5845
:100C5000435004310B480C4B42189A42F6D30B4ACE
:100C600002E0002342F8043B094B9A42F9D319F001
:100C700069F834F077F801F061FA70470000052058
:100C800074A903080000002068010020680100200A
:100C9000EC220120FEE700F0EFBD00F05DBE002178
:100CA000084618F0B7BB002018F0EEBB406870474C
:100CB00041607047054A136843F080731360044A2B
:100CC000136843F001031360704700BFFCED00E0C0
:100CD000001000E0511A01EB5301B1FBF3F0704733
:100CE000014B1868704700BF041000E0704710B552
:100CF0000C21044633F0C7FE204610BD036810B532
:100D00001B69044631B19847A26863689B1A18446E
:100D1000606010BD9847A060FBE770477047000017
:100D200008B5FFF7BCFF024B00221A6008BD00BFE8
:100D30008401002070B50D46FFF7B5FF0B4A93788C
:100D400056781178D370C4B213F0010096705170C8
:100D500014700AD016F0010007D011F0010004D081
:100D6000E3075ABF01202870002070BD84010020D5
:100D700010B50421044633F086FE204610BD7047AE
:100D800010B50421044633F07EFE204610BD00005D
:100D900008B54FF4F0714FF4487018F01FFF074B7F
:100DA00010B901221A7008BD1B78002BFBD1044B2F
:100DB000044A0548242133F095FE00BF8801002035
:100DC000D05D0308E35D03080D5E03087FB50B4BA0
:100DD0001C780E4615465CB101A818F03DFF9DF841
:100DE000043043B1BDF806303360BDF80A302B60E3
:100DF000204604B070BD1C46FAE700BF8801002001
:100E000010B1012809D07047084B09481A68B2FA96
:100E100082F2520940211AF0CBBA044B05485A68B5
:100E2000B2FA82F252091021F5E700BF8C010020CE
:100E300000180240000C024010B1012809D0704790
:100E4000084B09481A68003A18BF012240211AF0DD
:100E5000AFBA044B05485A68003A18BF0122102166
:100E6000F5E700BF8C01002000180240000C024092
:100E700010B1012804D07047034840211AF09DBAF0
:100E800002481021FAE700BF00180240000C02409F
:100E900008B530B1012809D00020431E58425841FE
:100EA00008BD044840211AF07DFAF6E702481021F7
:100EB000F9E700BF00180240000C024070B5084D71
:100EC00000240126E0B2FFF7E3FF18B12B68012BE5
:100ED00018BF2E600134052C05F10405F2D170BD58
:100EE0008C010020012380F8741080F87530704761
:100EF0000020704700207047836B0BB108461847ED
:100F000070474FF6FF707047406803689B69184749
:100F100070477047014B1868704700BF9C01002064
:100F20007047000038B50446094DFFF7C7FF20465B
:100F300000F094FD002384F84A302846FFF7BAFEFB
:100F4000012384F86C30034B2561636138BD00BF19
:100F5000A8010020A40100200368044607B59B6F88
:100F60009847236820461B6F984700F017FA2368BC
:100F700020469B6E984700210648009129231522A0
:100F800019F0FFFF00F00AFA236820469B6E98478D
:100F9000F8E700BF0420012010B504461FF016FD3D
:100FA00023682046D3F8A030BDE81040184700F071
:100FB00054BD00F06BBD00F06BBD00F03DBD00F016
:100FC00043BD00F067BD0000024B00221A701EF006
:100FD000EFBE00BF1400002010B504461EF0F4FE62
:100FE00094F84B3013B1024B01221A7010BD00BFB0
:100FF000140000201EF0A2BE10B57C21044633F080
:1010000042FD204610BD90F877301BB14068036860
:101010001B6818471846704730B590F8341090F8A0
:101020007440104B8C421A780DD05AB90E4A0F49B1
:101030000F4814880F4D0C8001881180298004808E
:1010400001221A7030BD002AFCD00948074A0188E5
:101050001180054A074D14882C80118004800022DD
:10106000EFE700BF641C0120601C0120661C01200A
:10107000621C0120681C012010B50C4C216031B9A4
:101080000B4B0C4A0C484FF4257133F02BFDC0E993
:101090000F12003A0949436418BF01220A70003B4D
:1010A000074A18BF0123137010BD00BF9C01002028
:1010B000845E0308BC5E03080A5F03086A1C012003
:1010C0006B1C0120012807B50AD84B7800930B78D8
:1010D00008481522002119F054FF03B05DF804FB05
:1010E00001910B5C0093392203460021014819F05D
:1010F00059FFF2E70420012037B50B4A0B4C0223BD
:101100001525137055700192442200920021392256
:10111000204619F047FF0021009135232A4620463A
:1011200019F02FFF03B030BDB401002004200120CE
:1011300007B50190FFF7E0FF019803B05DF804EBFD
:1011400000F08ABC07B5074B03EB80002A2301900F
:101150000093392204230021034819F023FF03B030
:101160005DF804FB040000200420012070B5154D3B
:1011700004460020FFF744FE2A6892F866300133E7
:1011800082F8663000F0FEF80F4B28681A781B785A
:1011900080F84A2023B10D4D2B7803F0FF0623B1D0
:1011A000BDE870400020FFF747BE1FF00FFC084B62
:1011B00030461E60FFF7C6FF204619F0D2FE01231D
:1011C0002B7070BD6C1C012014000020B6010020A3
:1011D000A0010020304B314A70B505461868304CEC
:1011E000013018602F4B03281E682ADCD4F8041441
:1011F0004FF4C87303FB006321F00801C4F8041422
:1012000093620CBFE823C823023327491B0443F42D
:10121000F1730B61254B4B61A3F5F0735360244BC5
:10122000D36201234B62FFF78DFF1D4AD2F80434CD
:1012300043F008032846C2F80434BDE8704019F0B2
:1012400090BED4F804341B4923F00803C4F80434D6
:10125000154B9662196101F10111596116495160EE
:101260001349D16201225A620020FFF76BFFD4F8C4
:10127000043443F00803C4F804340020FFF7DCFD15
:101280000E4B00221A700E4B186820B10368BDE89F
:101290007040DB69184770BDA001002084680140E0
:1012A000006C01409C01002000680140E301CA007D
:1012B00093018006E201CA000300CA00B6010020C3
:1012C0006C1C012008B5044B0146186801B10121CE
:1012D0001FF096FB012008BD6C1C0120054B064841
:1012E00000225A609A60054A1A60054B0360FFF7B6
:1012F00017BD00BFA8010020A4010020945D0308D1
:10130000BC5D0308012108B5002208461CF0C6F99F
:101310000A4B186028B90A4B0A4A27210A4833F0B9
:10132000E1FB0022042101201CF056FA074B186053
:1013300018B9074B034A2B21F0E708BDBC01002078
:101340001C6003086560030894600308B80100206E
:10135000F2600308024B4FF0FF3118681CF0E8B947
:10136000BC010020014B18681CF00EBABC01002023
:10137000024B002118681CF0DBB900BFBC01002043
:10138000FFF7F0BF03480449006800231A461CF029
:101390005FBA00BFB80100201800002013B5084C48
:1013A00000231A4601A920681CF082FA20684FF039
:1013B000FF33002201A91CF07BFA02B010BD00BF70
:1013C000B80100201CF04CB903685B6C1847012081
:1013D000704703689B6A184782B0002301930D4B46
:1013E0001A6B42F400021A631A6B02F400020192B3
:1013F000019A1A6942F400021A611A6922F4000281
:101400001A61054B054A1A61054B4FF080629A60DC
:1014100002B07047003802403C2101202D14000822
:1014200000E100E040F2EF3070470000024B1B6823
:10143000586803685B6918476C1C012008B50B28C5
:101440000BD8DFE800F01206100A0A0A0A0808089A
:101450000808012008BD0520FCE7054B054A0648A1
:10146000652133F03FFB0020F4E70220F2E700BFE4
:10147000346103084F6103089B61030808B50A281B
:1014800009D8DFE800F010060E080808080606066E
:101490000600012008BD054B054A0648862133F0A9
:1014A00021FB0020F6E70220F4E700BF34610308C7
:1014B000F76103089B6103082DE9F84391F81D804B
:1014C0000C464046FFF7BAFFA77F05463846FFF7B0
:1014D000B5FF06463846FFF7D1FFA18A628B534B12
:1014E000521A1A649A61228B521A1A61E28A58635C
:1014F00042EA01425A6421696268D963DA60D4F829
:1015000000C094F81C90BCF1800F4FEA09629E461F
:101510003BD015D8BCF1200F45EA020079D0BCF1D0
:10152000400F76D0BCF1040F2BD0404B2A4342F43D
:101530000032B845DA6114BF3D4A40F201221EE094
:10154000BCF5807F07D0BCF5007FEED142F40032BD
:1015500042F0090203E042F4003242F00A02DA618A
:10156000E0680202440102F4780204F47C44C00002
:101570002243C0B202431A622E4A5E6259611A6067
:1015800043E040F40030D861F6E7A0682A4342F413
:101590000032041DDC62DA6102785E62596142B198
:1015A000012A1CD0244B254A25484FF4887133F07A
:1015B00099FA4288D969501E21F47F4222F0100224
:1015C00042EA0022DA610125184CE36943F0200366
:1015D000E361E3699B0613D5FFF7F4FEF9E7428860
:1015E000D969501E21F47F4222F0100242EA002203
:1015F000B9F1FF0542F0100218BF0125DA61E3E7F7
:101600001023A3601DB10B4B2360BDE8F883084B8A
:10161000FAE7084B40F40030CEF81C00CEF8246006
:10162000CEF81410CEF80030EFE700BF00B0024053
:101630000102010001020200446203085E62030825
:101640009B610308F8B58E7F0C463046FFF716FF06
:10165000A78AE18A628B1E4B2569586341EA0741DC
:10166000D21B5964DD631A642168082918D19A6174
:101670001A615862217F174A42EA0162DA61E16821
:101680000A02480102F4780200F47C40C9000243D7
:10169000C9B20A431A62104A5D61DD601A60F8BD82
:1016A0000022D8611A61E1681EB99963084B0B4AA0
:1016B000F4E70A02480102F4780200F47C40C90011
:1016C000C9B202430A43217F42EA01629A63EDE70D
:1016D00000B0024009000100010202000102030003
:1016E000054B0360054B4FF08062C3F88820BFF3C1
:1016F0004F8FBFF36F8F7047A862030800E100E0CF
:1017000010B50446FFF7ECFF20464FF4426133F07A
:10171000BAF9204610BD000070B5044625460A4BB4
:101720000C30002660602672667245F8203B60220D
:1017300029461FF09DFA04F54263EE602035AB4266
:10174000FBD1204670BD00BFA8620308012070478E
:101750000C2070470C2303FB0100083070470C235A
:1017600003FB0100083070470120704747F2FC502E
:10177000704747F2FC5303FB01000830704747F203
:10178000FC5303FB01000830704701207047102014
:10179000704700EB01100830704700EB0110083073
:1017A0007047084601F03EBD10B5034B0360044688
:1017B0001EF0D8F8204610BD6063030810B504463B
:1017C000FFF7F2FF2046142133F05DF9204610BDEB
:1017D00010B5034B036004461EF0C4F8204610BD4C
:1017E0002C63030810B50446FFF7F2FF204647F2CA
:1017F000046133F048F9204610BD000010B5034BDA
:10180000036004461EF0AEF8204610BDF8620308DF
:1018100010B50446FFF7F2FF2046182133F033F9E4
:10182000204610BD10B5094B0360044600F5EC409E
:101830003030FFF7B9FF04F12C00FFF7C9FF04F1C6
:101840001400FFF7DBFF204610BD00BF94630308C0
:1018500008B50248FFF7E6FF08BD00BFC40100203D
:1018600010B50446FFF7DEFF204647F2A47133F0BF
:101870000AF9204610BD00002DE9F34101F014FCE7
:10188000054601F015FC0024014623462846224661
:10189000009425F023FE244B244A254D1A6020464F
:1018A00015F0CCF9234825F05BFD2B78BFF35B8F57
:1018B000DB0733D4284633F0E8F878B31E4C1F4FCB
:1018C0001F4B236007F11C0604F1140004F12C08DF
:1018D0006060C4F80880E76026611EF045F8194B87
:1018E000636140461EF040F8174BE36238461EF035
:1018F0003BF8164B3B6007F1140015F02FFA224617
:1019000007F11401304615F01FFA304601F08AFC49
:10191000284633F0C6F80E4833F002F90D4802B0FD
:10192000BDE8F041FFF7FEBAE81C01200886002060
:10193000C00100201C000020C4010020F47700201A
:1019400094630308F86203082C63030860630308C8
:10195000511800088C8500200148FFF7FDBA00BF30
:101960008C85002070B5244C244E254B254D2360DA
:101970003046FFF7D1FE284628F034FE224B0022E5
:101980004FF48071C3E912122049DC60C3E91912D7
:101990004FF080715967012183F878101C491D4C64
:1019A0000B601D491A854FF4507008804FF4F07198
:1019B000C3E90422C3E90622C3E90822C3E90E22CF
:1019C000C3E91022C3E91422C3E9162283F82A20AE
:1019D000DA621A861A6683F86C201A67C3E9016511
:1019E00021800E4C83F8342022700D4C0D4A20804B
:1019F0000D481A60018070BD687900206C79002064
:101A0000745E03080C8600208C8500200100000114
:101A10006C1C0120621C0120601C0120641C012040
:101A2000661C0120585F0308681C01200148FFF76D
:101A300057BE00BF6C790020024B902283F85A23D6
:101A4000704700BF00E100E0024B4FF080629A60F7
:101A5000704700BF00E100E07047704738B50446AA
:101A60001EF0BFF92368DD6D22F0AEFA0146204674
:101A7000A8472368D3F8805000231A464FF040410E
:101A80002046A847012384F84A3038BD1EF05CB9CF
:101A90001EF0B5BA044B4FF08062C3F88820BFF344
:101AA0004F8FBFF36F8F704700E100E07FB50023D9
:101AB0000121CDE903310293642302460093694674
:101AC000034B044818F0BEFA07B05DF804FB00BFF2
:101AD000A01F012010210120A0F5977057289ABF60
:101AE000014B185C00207047A06303080000000051
:101AF0002DE9F04FBA4C89B02346002101AA18F015
:101B0000F1FA019940F28223994211D1A378E07849
:101B100003EB0020FEF740FEADA3D3E90023FEF760
:101B2000BFFBFEF7A3FEAF4B186009B0BDE8F08F16
:101B3000B1F5407F06D1AC4B01221A602278AB4B45
:101B40001A70F2E7A1F59673132B34D8A84B012233
:101B500008461A60FFF7C0FFA64A52F820305C1C06
:101B600013F0010342F82040A34A0ED0CB0716D54C
:101B70000823102111FB0030994C024414F8011B7A
:101B800002F8011B013BF9D1CFE704B202EB0414C8
:101B90001D460133102B04F8015BFAD1E6E700B2D1
:101BA0008F4902EB0012082311F8010B02F8010B18
:101BB000013BF9D1B9E765291ED18D4B01221A608D
:101BC0008E4B22781A706278A37803EB022364228A
:101BD000B3FBF2F38A4A1380E278237903EB022302
:101BE000884A1380884B62791A70A279E37903EBF3
:101BF0000223864A138098E7662927D1844BE07830
:101C000001221A60A37807EE903AF8EE677AF2EEB6
:101C1000046A87EEA67A7F4B83ED007AFEF7BCFD5F
:101C20006DA3D3E90023FEF73BFB7B4B0022FEF7BD
:101C300037FBFEF73BFE794B62791860784B1A70E0
:101C4000784BA2791A70E279774B79E7A1F5AF73F7
:101C5000132B5BD8664B754D012208461A60FFF7BF
:101C60003BFF734A52F820305C1C13F0010F42F81E
:101C70002040704A4FEA80041FD0131911F0010F61
:101C800093ED007ADFED6C6A25D02021382313FB19
:101C90000010534E2844062116F8013B03EB830342
:101CA00007EE903AF8EEE77A013967EEA67A37EE5A
:101CB000277AE0EC017AEFD124E0131900261E60A8
:101CC00003B2C3EBC30305EBC3030E27013F43F885
:101CD000046BFBD1D1E700B2C0EBC000404E05EB76
:101CE000C000082116F8013B03EB830307EE903A8E
:101CF000F8EEE77A013967EEA67A37EE277AE0EC5C
:101D0000017AEFD1224482ED007A0EE7A1F5BE738D
:101D1000092B25D8364B012208461A60FFF7DCFE56
:101D2000464B03EB800300221A6000B2444AC0EB2A
:101D3000C00002EB8000072214F8011B93ED007A2B
:101D400007EE901AF8EE677AF4EEC77AF1EE10FA21
:101D5000C8BFC3ED007A013AE0EC017AECD1E4E6C9
:101D6000B1F5C87F27D12A4BDFF8E0B0DFF8E0A05B
:101D7000294F0FF26409D9E9008901221A6004256C
:101D8000002614F8010BFEF707FD42464B46FEF70E
:101D900087FA3B463246FEF783FAFEF787FDE37883
:101DA0004BF8040B07EE903AF8EE677A013DEAEC47
:101DB000017AE6D1B9E696294CD10B4B01221A6083
:101DC000204B62781A70A2781F4BB9E6AFF30080FF
:101DD000616D8C9DF0127C3F90D1BE500000293F78
:101DE000E08C0020EC8C0020C08C0020F48C0020C3
:101DF000CC8C0020501F012054880020DD8C002056
:101E0000908C0020528800201C89002050880020DF
:101E1000D48C0020BC8C002000007040948C0020EA
:101E20009B8C0020C88C0020C98C0020608A002078
:101E3000781F0120388A00200000803BF4880020B1
:101E400020890020DE8C0020DF8C0020AC8C00205C
:101E50009C8C002040F2911399427FF466AE054BB2
:101E6000A27801211960044B2178197061785970AA
:101E70009A705AE6D48C0020988C00200000000054
:101E80002DE9F04F2DED048B01218BB07448DFF864
:101E9000E4B1744D744F18F09CF90221704818F0A9
:101EA00098F910216E4818F094F900240F23CDE919
:101EB0000534694601236A480494CDE90733CDE926
:101EC0000044CDE9024418F007F8654818F08CF892
:101ED0000FF28419D9E90089F2EE049AB0EE698A0A
:101EE000BA460E2633F024FB0A2290FBF2F302FBE3
:101EF000130307EE903AF8EEE77AB6EE009A87EE13
:101F0000A97A00F00303B4EEC97AF1EE10FA75DB9A
:101F1000404200F0030058BF434207EE903AF8EE0B
:101F2000E77AC7EEA97A17EE900AFEF747FC424619
:101F30004B46FEF7E5FAFEF7B9FC95ED007A4AF854
:101F4000040B07EE900A77EE277A013EC5ED007A82
:101F5000C8D1464B4BF8043B01340A2C08EE903AAA
:101F600005F1040507F13807BAD13BA7D7E90067A7
:101F7000DFF804A1DFF80481DFF80491042533F0D1
:101F8000D7FA90FBF4F304FB130307EE903AF8EE54
:101F9000E77A00F0030387EE887AB4EEC97AF1EEAF
:101FA00010FA41DB404200F0030058BF434207EE05
:101FB000903AF8EEE77AC7EE887A17EE900AFEF7C5
:101FC000FDFB32463B46FEF79BFAFEF76FFC99EDB0
:101FD000007A4AF8040B07EE900A77EE277A013D63
:101FE000C9ED007AE8EC018AC9D1214B4FF07F524C
:101FF0001A600BB0BDEC048BBDE8F08F404200F0DE
:10200000030058BF434207EE903AF8EEE77AC7EE76
:10201000A97A17EE900AFEF7D1FB02460B4640461E
:102020004946FEF76BFA86E7404200F0030058BFCE
:10203000434207EE903AF8EEE77AC7EE887A17EE59
:10204000900AFEF7BBFB02460B4630463946FEF7C8
:1020500055FABAE7AFF300806666666666660E40BC
:1020600010210120388A0020608A00200000D84119
:10207000948C0020F4880020AC8C00209C8C0020E4
:10208000BC8C0020014900201CF08ABFC51200084A
:1020900008B564201BF0F6FAFBE7000030B595B0F8
:1020A0001022002109A832F0A3FE1422002102A868
:1020B00032F09EFE00241F4B00941A6C42F08052B6
:1020C0001A641B6C03F080530093009B1A4B01941D
:1020D0001A6842F440421A601B6803F440430193BB
:1020E0000122019B4FF48033CDE9072302254FF4F1
:1020F00080030821CDE90D534FF4B473CDE90F13DC
:1021000004200623CDE9120307A811951AF010FD4B
:1021100019F060FF0F23CDE9023504944FF480538A
:102120004FF4A054052102A8CDE905431AF0D4FAD2
:1021300015B030BD00380240007000402DE98048E5
:10214000BBB017F00DFEFFF7A9FF142200212DA848
:10215000002432F04DFEC64B03941A6BC54842F082
:1021600010021A631A6B02F010020392039A04948D
:102170001A6B42F002021A631A6B02F00202049216
:10218000049A05941A6B42F040021A631A6B02F02B
:1021900040020592059A06941A6B42F008021A63EF
:1021A0001A6B02F008020692069A07941A6B42F420
:1021B00080721A631A6B02F480720792079A08946D
:1021C0001A6B42F020021A631A6B02F02002089286
:1021D000089A09941A6B42F480621A631A6B02F42B
:1021E00080620992099A0A941A6B42F080021A637B
:1021F0001A6B02F080020A920A9A0B941A6B42F050
:1022000004021A631A6B02F004020B920B9A0C94EC
:102210001A6B42F001021A631A6B02F001020C926F
:102220000C9A0D941A6B42F400721A631B6B03F440
:10223000007322464FF488610D930D9B19F0B8F896
:102240008D480122082119F0B3F88C48224610214C
:1022500019F0AEF822468A488021012719F0A8F823
:102260004FF4806A83482DA91125CDE92DA7CDE92A
:102270002F4418F00FFF08237F482DA94FF00208C4
:10228000CDE92D354FF01009CDE92F4418F002FFAC
:102290007A482F942DA98026CDE92D97CDF8C080BE
:1022A00018F0F8FE77482F942DA94FF0400BCDE998
:1022B0002D6418F0EFFE6F482DA9CDE92DB7CDE9BB
:1022C0002F4818F0E7FE03236D4830932DA9CDE980
:1022D0002D652F9418F0DEFE4FF4881320226A48F3
:1022E0002F942DA9CDE92D2318F0D4FE05212246E7
:1022F000172018F09BF8172018F0CAF86348644BB1
:10230000644D036018F0E6F8634AC5E90A44C5E97C
:102310000C442846C5E90024C5E9024418F0EEF94A
:102320003946284618F0A2FA31462246544819F098
:102330003FF8142017F040FD31463A46504819F056
:1023400037F80A2017F038FD2422214617A832F06A
:102350004FFD1822214611A832F04AFD34222146B1
:102360002DA832F045FD2C2221460DEB060032F05F
:102370003FFD4A4E4A4B10940425C6E900340EA98D
:102380007D233046CDE90E38C6E9025718F036FBFA
:1023900017A93046CDE91774CDE91944CDE91B449E
:1023A000CDE91D441F9418F053FD1C212123CDE9D4
:1023B00011130F201923CDE9130311A93046CDE9DC
:1023C000154418F008FD2946304618F0F3FC42F297
:1023D0001071304618F047FE2146304618F0ABFA2F
:1023E0004FF4807C4FF400734FF4006ECDE92DC3A1
:1023F0004FF48053CDE930E34FF400524FF4804363
:10240000CDE932234FF480314FF40033CDE934135A
:102410004FF480204FF40023CDE936032DA94FF06F
:1024200080733046CDE93838CDF8BCA018F08EFC6A
:10243000C82320A93046CDE92239CDE92445CDE98C
:102440002044CDE92684CDE928442A9718F00CFCD5
:102450002146304618F0F7FB124813490462C0E9E0
:10246000001420234FF4C0714FF4805C1EE000BFC5
:10247000003802400018024000280240000C0240D0
:10248000001C02400008024000000240FC1F012026
:10249000003002403C21012000B002400420012015
:1024A000006C01407C210120400100A0C0E9043BF8
:1024B000C0E906144FF480430721C0E909C3CDE900
:1024C0002E15032330912DA9CDE93138C0E90245FD
:1024D000CDF8B480CDF8CC801AF0E0FC17F068FBA2
:1024E00017F018FB2146342220A832F081FC6F4DF2
:1024F0006F4AAC864FF0CA0EC5E900244FF4F17262
:10250000C5E909E24FF0CB0B40F2E3122846C5E9DA
:102510000BB2C5E90244C5E90447C5E90678C5F828
:10252000208085F8364019F01FFCFF21C8234FF4A6
:10253000F072CDE925144FF0050B4FF04041CDE985
:102540002A32CDE92328CDE928B1224620A9284600
:10255000CDE921342094CDF89CA0ADF8B0408DF8A1
:10256000B24019F0CDFC2A68936923F0010393610E
:10257000304618F0D3FC3946404616F08DFC28232F
:10258000152221460094304618F0FBFC2DA9304658
:10259000CDE92D44CDE92F44CDE93144CDE9334493
:1025A000CDE93544379418F0D1FB4FF448712246F9
:1025B000284619F0D3FC2A683E4893693E4D3B43B8
:1025C00093613E4B0462C0E900371B23C0E9043A23
:1025D000C0E90279C0E9064419F014FE17F060F969
:1025E00017F094F817F00AF8354A364B2C62C5E913
:1025F000002328464FF48043C5E90434C5E902446A
:10260000C5E9064419F0CCF8284619F071F92E48AE
:102610002E4B84614FF46021C0E9003B84834FF46A
:102620008013C0E90413C0E9024417F0D9FB4A46FD
:1026300021462DA832F0DCFB254D2648AC604AF639
:10264000C873C5E9000341F270732846C5E9033435
:10265000CDE92044AC611AF0BFFD4FF480532DA9A1
:1026600028462D931AF0EEFD20A92846CDE92044F6
:102670001AF084FEFEF70FFBFFF702FC00F0AEFC41
:1026800028461AF063FC1AF075FF134A13482146D6
:102690001AF09CFF124B134A1860214612481AF098
:1026A00095FF124B18601AF077FFFEE768200120B3
:1026B00000680140B0210120A81F0120001000A0E7
:1026C00000540040801A06001021012000680040DC
:1026D00020200120000400403864030891200008F5
:1026E000A41F0120146403089B0C0008382101205A
:1026F0007047000082B00E4B00220092596C41F4EA
:1027000080415964596C01F4804100910099019213
:10271000196C41F0805119641B6C03F080530193D4
:10272000019B0F216FF0010002B017F07FBE00BFC8
:102730000038024010B5044688B01422002103A8D6
:1027400032F056FB2268224B9A423ED103F5E83321
:10275000002400941A6C1F4842F080621A641A6CBC
:1027600002F080620092009A01941A6C42F00072AA
:102770001A641A6C02F000720192019A02941A6BA8
:1027800042F002021A631B6B059403F002030293EA
:1027900042F22002029B0223CDE9032303210923F5
:1027A000CDE9061303A918F075FC22460521402047
:1027B00017F03CFE402017F06BFE41202246052119
:1027C00017F034FE412017F063FE08B010BD00BFC3
:1027D00000680040000402400268094B9A4282B03F
:1027E0000BD100230193074B1A6B42F480521A63FA
:1027F0001B6B03F480530193019B02B0704700BF31
:10280000003002400038024007B50F4B02689A4280
:1028100016D10022A3F5F0430192196B41F4000197
:1028200019631B6B03F40003019305215A20019BDC
:1028300017F0FCFD5A2003B05DF804EB17F028BE3A
:1028400003B05DF804FB00BF00B0024010B50446C1
:1028500088B01422002103A832F0CAFA2268184B6B
:102860009A422AD103F54C43002401945A6C15482E
:1028700042F000625A645A6C02F000620192019ABE
:1028800002941A6B42F400721A631B6B03F4007318
:1028900002930422029B0223CDE9032303A90D2303
:1028A0000793CDE9054418F0F5FB5C20224605218D
:1028B00017F0BCFD5C2017F0EBFD08B010BD00BFA9
:1028C000006C01400024024030B5044689B0142257
:1028D000002103A832F08CFA22681A4B9A422FD1B9
:1028E000194C1A4800250195236B43F0020323631A
:1028F000236B03F002030193019B4FF440721223F8
:10290000CDE9032301210323CDE90513042303A902
:10291000079318F0BFFB0295236C43F40013236464
:10292000236C03F400130293029B236A43F4001305
:102930002362236A23F400132362642017F03CFA15
:1029400009B030BD0054004000380240000402408D
:1029500008B502680A4B9A4210D10A4A0A48136C19
:1029600023F4001313644FF4807118F079FCBDE870
:10297000084005484FF4007118F072BC08BD00BF54
:1029800000540040003802400004024010B50446E4
:1029900090B03C22002101A832F02AFA2268134BA1
:1029A0009A4221D1082301934FF4B4730593002474
:1029B000062301A808930B9419F058FF08B1FFF7FC
:1029C00097FE0B4B00945A6C42F080625A645B6C29
:1029D00003F080630093582000220521009B17F02C
:1029E00025FD582017F054FD10B010BD00680140BF
:1029F00000380240F0B5044689B01422002103A833
:102A000032F0F6F92268244B9A4243D1234B2448F2
:102A1000002400949A6B42F002029A639A6B02F0CF
:102A200002020092009A01941A6B42F002021A63A9
:102A30001A6B02F002020192019A02941A6B42F0A0
:102A400020021A631B6B059403F0200302930226F5
:102A50000325029B0A27402303A9CDE90336CDE9CC
:102A6000065718F017FB4FF49863CDE903360D486D
:102A7000092303A90793CDE9054518F00BFB4FF493
:102A800040730848079703A9CDE90336CDE905450A
:102A900018F000FB09B0F0BD001000A000380240A3
:102AA000000402400014024008B50268094B9A4233
:102AB0000FD1094A0948936B23F002039363402125
:102AC00018F0CEFBBDE8084005484FF4F86118F057
:102AD000C7BB08BD001000A000380240000402403F
:102AE0000014024007B50F4B02689A4216D100222B
:102AF00003F50D330192196C41F0020119641B6C4E
:102B000003F00203019305211D20019B17F08EFCA9
:102B10001D2003B05DF804EB17F0BABC03B05DF8FC
:102B200004FB00BF00040040F0B5314B1C6887B0C7
:102B3000002C5BD101221A602E4B00949A6B2E4818
:102B400042F001029A639B6B039403F0010300932C
:102B5000022703260C25009B01A94FF68373CDE9BC
:102B60000137CDE9046518F095FA48F2331323488C
:102B7000059501A9CDE90137CDE9034618F08AFA98
:102B80004CF203731E48059501A9CDE90137CDE943
:102B9000034618F07FFA40F2FF631A48059501A931
:102BA000CDE90137CDE9034618F074FA4FF63F033B
:102BB0001548059501A9CDE90137CDE9034618F07F
:102BC00069FA4FF47F431148059501A9CDE9013712
:102BD000CDE9034618F05EFA0D230D48059501A9CD
:102BE000CDE90137CDE9034618F054FA07B0F0BD3E
:102BF0008886002000380240001002400018024081
:102C0000000C02400020024000140240001C024060
:102C10000008024008B5174B1A6852BB01221A601F
:102C2000154A1648936B23F0010393634FF68371A3
:102C300018F016FB124848F2331118F011FB114836
:102C40004CF2037118F00CFB0F4840F2FF6118F0D2
:102C500007FB0E484FF63F0118F002FB0C484FF4FB
:102C60007F4118F0FDFABDE808400A480D2118F030
:102C7000F7BA08BD848600200038024000100240E8
:102C800000180240000C02400020024000140240E4
:102C9000001C02400008024030B5014689B0002205
:102CA000362017F0C3FB362017F0F2FB0025154B3A
:102CB00002951A6C144C42F010021A641B6C03F05B
:102CC0001003029301A903A8029B19F0B1FD19F0AA
:102CD0009FFD0E4B236040F2E733E36040000C4B56
:102CE000B0FBF3F00138606020462561A5601AF062
:102CF00073FA20B920461AF029F909B030BD012035
:102D0000FBE700BF00380240FC210120001000401A
:102D100040420F007047FEE7FEE7FEE7FEE7704720
:102D2000202018F055BB000001481AF04DB900BF33
:102D30002020012001481AF047B900BFFC210120E2
:102D4000014817F063BA00BF10210120FFF7F8BF58
:102D5000014819F078B800BF68200120014817F039
:102D6000FBBC00BF3C210120014817F0FABE00BFA8
:102D7000042001200120704708B531F0E5FE16233C
:102D800003604FF0FF3008BD08B531F0DDFE1623BB
:102D90000360FEE770B50E4614460025A54201DB30
:102DA000204670BDAFF3008070550135F6E770B571
:102DB0000E4614460025A54201DB204670BD705D1D
:102DC000AFF300800135F6E74FF0FF3070474FF466
:102DD00000534B600020704701207047002070476F
:102DE00008B50A4B1968024609B9094919601868FB
:102DF000694602448A4206D931F0A6FE0C230360DC
:102E00004FF0FF3008BD1A60FCE700BF8C86002041
:102E1000F02201202DE9F047304FDFF8C890DFF8AD
:102E2000C8A000263E603446B0463546802148465C
:102E300018F0B8FA20B91DB916F0B8FF01240546FC
:102E40008021484618F0AEFA60B15CB116F0AEFFD2
:102E5000401BB0F5AF7F05D93B6813BB01233B6036
:102E6000002425462021504618F09CFA30B9B8F1CC
:102E7000000F03D116F09AFF01268046202150460C
:102E800018F090FA0028D1D0002ECFD016F08EFF87
:102E9000A0EB0800FA28C9D9114B1E600026B046E5
:102EA000C4E75A1E012A01D80323D8E7032B01D116
:102EB0000423D4E7042B01D10523D0E7052B01D14E
:102EC0000623CCE7062B01D10723C8E7072B01D146
:102ED0000823C4E7082BC3D1C0E700BFE88C00205B
:102EE000F08C0020000802400000024083B5184B1F
:102EF000184D194E00221A70184A012313608DF8DC
:102F00000430174C27462378022B02D02378052B58
:102F100008D12B6833B101A8FEF7C8FD4FF47A70D1
:102F20001CF01AF83B78072BEDD101224FF4806199
:102F3000304618F03DFA40F6B83016F03DFF00225A
:102F40004FF48061304618F033FA00232B60D8E745
:102F5000DC8C0020F08C002000180240E88C00205F
:102F6000F48C00200268154B9A4210B5044601D13A
:102F700016F010FF2268124B9A4214D1114A124BDC
:102F8000116889B1002119601160104A104B116855
:102F900069B10021196011600E4A0F4B116849B1E7
:102FA00000211960116010BD01221A60EDE70122B5
:102FB0001A60F1E701221A60F5E700BF0010004037
:102FC00000040040C08C0020C48C0020D48C002061
:102FD000D88C0020CC8C0020D08C002037B500226B
:102FE00024210A201BF0B4F80D4B186001201BF0BF
:102FF000C9F90C4B0C491860002405252346CDE97E
:103000000054802209481BF061FECDE900540849B4
:103010000848234680221BF059FE03B030BD00BF94
:1030200044220120482201205C640308ED2E0008A0
:1030300065640308152E0008704708B509292AD8C9
:10304000DFE801F00505090D1115191D212513F003
:1030500043FE006808BD13F03FFE4068FAE713F036
:103060003BFE8068F6E713F037FEC068F2E713F026
:1030700033FE0069EEE713F02FFE4069EAE713F034
:103080002BFE8069E6E713F027FEC069E2E713F044
:1030900023FE006ADEE70020DCE710B504210446C9
:1030A00031F0F1FC204610BD0048704784640308ED
:1030B0000120704713B5002451B1036801948DF8C5
:1030C000034001AA9C680DF10303A04702B010BDA4
:1030D0000846FBE7408970478089704780887047C1
:1030E00083798088184480B27047C07900F07F00EF
:1030F0007047C079C0097047704710B50821044671
:1031000031F0C1FC204610BD704700F59673086889
:10311000496803C370477047704741607047704704
:103120000123037270477047704710B4C26841684A
:103130005410034601EB6200D20748BF0A599B684E
:103140005DF8044B48BFD358184743682BB18368D8
:103150002BB9C06800F00100704718467047012085
:10316000704710B50C21044631F08DFC204610BD8F
:1031700010B51021044631F086FC204610BD10B574
:103180004FF4AC71044631F07EFC204610BD10B502
:1031900020F01AFF0368BDE810401B6B184710B5FC
:1031A0000446D0F83C0158B10368DB68984738B151
:1031B000D4F83C0103689B6898470023C4F83C316D
:1031C00010BD0000F8B5044617460E4620F01CFF5F
:1031D000104B0025C4E954760F4E1C60C4E95255CB
:1031E0000E4B306823600E4BC4E950350368294606
:1031F0009B68C4E94E559847284613F01FFD336875
:1032000093F876200AB1D86C00B9986828F01DFFB1
:103210002046F8BDD81C01206C1C0120006E03085C
:10322000E86D0308064BC0F848310023C0F84C3164
:1032300000F5A073C0F84401C0F83C31704700BFEE
:103240004D340008064BC0F848310023C0F84C311B
:1032500000F5A073C0F84401C0F83C31704700BFCE
:10326000B5350008064BC0F848310023C0F84C3192
:1032700000F5A073C0F84401C0F83C31704700BFAE
:103280001D370008064BC0F848310023C0F84C3108
:1032900000F5A073C0F84401C0F83C31704700BF8E
:1032A00085380008064BC0F848310023C0F84C317F
:1032B00000F5A073C0F84401C0F83C31704700BF6E
:1032C000ED390008064BC0F848310023C0F84C31F6
:1032D00000F5A073C0F84401C0F83C31704700BF4E
:1032E000553B0008064BC0F848310023C0F84C316C
:1032F00000F5A073C0F84401C0F83C31704700BF2E
:10330000BD3C000803685B6A184700002DE9F84FD0
:1033100007469068DDF828A0994603681B6A88462E
:103320001446984743F2C753984205D8414B424A46
:10333000A321424831F0D6FB606803681B6A9847B6
:103340000F2803D83E4B3C4AA421F2E7E06803680B
:103350001B6A98470B2803D83A4B374AA521E8E760
:1033600020F032FE20F036FED9F8000010B10368DC
:10337000DB689847D9F8000010B103681B689847CC
:10338000386810B103685B699847D8F8000010B13D
:1033900003685B689847386810B103681B689847F2
:1033A000D8F8000010B103689B689847E0680021D6
:1033B000FFF7A8FF4FF0000B234B03600546C0F852
:1033C00004B080F808B0A068036859465B6A984763
:1033D000064613F0BDFD6068036859465B6A98476E
:1033E0003146044613F008FDC9F80050C8F8004003
:1033F0003E60E4B1231DCAF800303368C4F808A069
:103400003046DB68F4639847236820461B6898477A
:103410002946304622F0BDFA2B6828461B6998479A
:103420002B6828465B6998472046BDE8F88F2346FD
:10343000E1E700BFA8640308366503083A6603089D
:103440008166030824670308446E030807B5D0F8B3
:1034500054310093D0F85021044B00F59C7104487E
:10346000FFF754FF03B05DF804FB00BFCC1C012044
:10347000C81C01202DE9F84F07469068DDF828A008
:10348000994603681B6A88461446984744F2AB2362
:10349000984205D8414B424AA321424831F022FBD1
:1034A000606803681B6A98470F2803D83E4B3C4A64
:1034B000A421F2E7E06803681B6A98470B2803D849
:1034C0003A4B374AA521E8E720F07EFD20F082FD47
:1034D000D9F8000010B10368DB689847D9F80000FC
:1034E00010B103681B689847386810B103685B69BE
:1034F0009847D8F8000010B103685B6898473868AF
:1035000010B103681B689847D8F8000010B1036831
:103510009B689847E0680021FFF7F4FE4FF0000B2E
:10352000234B03600546C0F804B080F808B0A068DB
:10353000036859465B6A9847064613F059FF60686E
:10354000036859465B6A98473146044613F02CFDE0
:10355000C9F80050C8F800403E60E4B1231DCAF825
:1035600000303368C4F808A03046DB68F46398473D
:10357000236820461B6898472946304622F009FAFE
:103580002B6828461B6998472B6828465B69984733
:103590002046BDE8F88F2346E1E700BFA864030892
:1035A000C76703083A6603088166030824670308AF
:1035B000446E030807B5D0F854310093D0F8502179
:1035C000044B00F59C710448FFF754FF03B05DF80D
:1035D00004FB00BFCC1C0120C81C01202DE9F84FC2
:1035E00007469068DDF828A0994603681B6A88465C
:1035F0001446984747F2FB53984205D8414B424A3C
:10360000A321424831F06EFA606803681B6A98474C
:103610000F2803D83E4B3C4AA421F2E7E068036838
:103620001B6A98470B2803D83A4B374AA521E8E78D
:1036300020F0CAFC20F0CEFCD9F8000010B10368DD
:10364000DB689847D9F8000010B103681B689847F9
:10365000386810B103685B699847D8F8000010B16A
:1036600003685B689847386810B103681B6898471F
:10367000D8F8000010B103689B689847E068002103
:10368000FFF740FE4FF0000B234B03600546C0F8E8
:1036900004B080F808B0A068036859465B6A984790
:1036A000064614F045FA6068036859465B6A984715
:1036B0003146044613F0C4FEC9F80050C8F8004073
:1036C0003E60E4B1231DCAF800303368C4F808A096
:1036D0003046DB68F4639847236820461B689847A8
:1036E0002946304622F055F92B6828461B69984731
:1036F0002B6828465B6998472046BDE8F88F23462B
:10370000E1E700BFA8640308CB6803083A66030832
:103710008166030824670308446E030807B5D0F8E0
:1037200054310093D0F85021044B00F59C710448AB
:10373000FFF754FF03B05DF804FB00BFCC1C012071
:10374000C81C01202DE9F84F07469068DDF828A035
:10375000994603681B6A88461446984747F2FB530C
:10376000984205D8414B424AA321424831F0BAF968
:10377000606803681B6A98470F2803D83E4B3C4A91
:10378000A421F2E7E06803681B6A98470B2803D876
:103790003A4B374AA521E8E720F016FC20F01AFC46
:1037A000D9F8000010B10368DB689847D9F8000029
:1037B00010B103681B689847386810B103685B69EB
:1037C0009847D8F8000010B103685B6898473868DC
:1037D00010B103681B689847D8F8000010B103685F
:1037E0009B689847E0680021FFF78CFD4FF0000BC5
:1037F000234B03600546C0F804B080F808B0A06809
:10380000036859465B6A9847064614F033FD6068C2
:10381000036859465B6A98473146044614F0B0F98C
:10382000C9F80050C8F800403E60E4B1231DCAF852
:1038300000303368C4F808A03046DB68F46398476A
:10384000236820461B6898472946304622F0A1F895
:103850002B6828461B6998472B6828465B69984760
:103860002046BDE8F88F2346E1E700BFA8640308BF
:10387000CF6903083A6603088166030824670308D2
:10388000446E030807B5D0F854310093D0F85021A6
:10389000044B00F59C710448FFF754FF03B05DF83A
:1038A00004FB00BFCC1C0120C81C01202DE9F84FEF
:1038B00007469068DDF828A0994603681B6A884689
:1038C0001446984745F29F53984205D8414B424AC7
:1038D000A321424831F006F9606803681B6A9847E3
:1038E0000F2803D83E4B3C4AA421F2E7E068036866
:1038F0001B6A98470B2803D83A4B374AA521E8E7BB
:1039000020F062FB20F066FBD9F8000010B10368DC
:10391000DB689847D9F8000010B103681B68984726
:10392000386810B103685B699847D8F8000010B197
:1039300003685B689847386810B103681B6898474C
:10394000D8F8000010B103689B689847E068002130
:10395000FFF7D8FC4FF0000B234B03600546C0F87F
:1039600004B080F808B0A068036859465B6A9847BD
:10397000064614F0B5FE6068036859465B6A9847CE
:103980003146044614F09EFCC9F80050C8F80040C7
:103990003E60E4B1231DCAF800303368C4F808A0C3
:1039A0003046DB68F4639847236820461B689847D5
:1039B0002946304621F0EDFF2B6828461B699847C1
:1039C0002B6828465B6998472046BDE8F88F234658
:1039D000E1E700BFA8640308D36A03083A66030856
:1039E0008166030824670308446E030807B5D0F80E
:1039F00054310093D0F85021044B00F59C710448D9
:103A0000FFF754FF03B05DF804FB00BFCC1C01209E
:103A1000C81C01202DE9F84F07469068DDF828A062
:103A2000994603681B6A88461446984744F28733D0
:103A3000984205D8414B424AA321424831F052F8FE
:103A4000606803681B6A98470F2803D83E4B3C4ABE
:103A5000A421F2E7E06803681B6A98470B2803D8A3
:103A60003A4B374AA521E8E720F0AEFA20F0B2FA47
:103A7000D9F8000010B10368DB689847D9F8000056
:103A800010B103681B689847386810B103685B6918
:103A90009847D8F8000010B103685B689847386809
:103AA00010B103681B689847D8F8000010B103688C
:103AB0009B689847E0680021FFF724FC4FF0000B5B
:103AC000234B03600546C0F804B080F808B0A06836
:103AD000036859465B6A9847064614F0F9FF606828
:103AE000036859465B6A98473146044614F018FE4D
:103AF000C9F80050C8F800403E60E4B1231DCAF880
:103B000000303368C4F808A03046DB68F463984797
:103B1000236820461B6898472946304621F039FF24
:103B20002B6828461B6998472B6828465B6998478D
:103B30002046BDE8F88F2346E1E700BFA8640308EC
:103B4000D76B03083A6603088166030824670308F5
:103B5000446E030807B5D0F854310093D0F85021D3
:103B6000044B00F59C710448FFF754FF03B05DF867
:103B700004FB00BFCC1C0120C81C01202DE9F84F1C
:103B800007469068DDF828A0994603681B6A8846B6
:103B90001446984743F69333984205D8414B424A1E
:103BA000A321424830F09EFF606803681B6A984773
:103BB0000F2803D83E4B3C4AA421F2E7E068036893
:103BC0001B6A98470B2803D83A4B374AA521E8E7E8
:103BD00020F0FAF920F0FEF9D9F8000010B10368DE
:103BE000DB689847D9F8000010B103681B68984754
:103BF000386810B103685B699847D8F8000010B1C5
:103C000003685B689847386810B103681B68984779
:103C1000D8F8000010B103689B689847E06800215D
:103C2000FFF770FB4FF0000B234B03600546C0F815
:103C300004B080F808B0A068036859465B6A9847EA
:103C4000064615F09DF86068036859465B6A984718
:103C50003146044614F05CFFC9F80050C8F8004033
:103C60003E60E4B1231DCAF800303368C4F808A0F0
:103C70003046DB68F4639847236820461B68984702
:103C80002946304621F085FE2B6828461B69984757
:103C90002B6828465B6998472046BDE8F88F234685
:103CA000E1E700BFA8640308DB6C03083A66030879
:103CB0008166030824670308446E030807B5D0F83B
:103CC00054310093D0F85021044B00F59C71044806
:103CD000FFF754FF03B05DF804FB00BFCC1C0120CC
:103CE000C81C0120006A7047406A704770478B8883
:103CF00080690A68DB0A50F823001044704710B549
:103D0000C2B1137BB3B1547BD27A240204F4E064D1
:103D10001443C26998B202EB840213888B4202D129
:103D200092F9020010BD05D8013880B20432002893
:103D3000F3D1F7E70020F5E710B52821044630F06D
:103D4000A2FE204610BD000030B589B00446BDF883
:103D500050500695BDF84C5005959DF8405004957F
:103D60009DF83C5003959DF8385002959DF83450CD
:103D700001959DF83050009521F05EF9064B2360C7
:103D8000119BA361129BE361159B2362169B6362E7
:103D9000204609B030BD00BF686E030800207047A0
:103DA00081807047C18070470181704741817047B1
:103DB0007047704770477047704710B4C4880368F5
:103DC000121B84881B6D091B12B25DF8044B09B2EB
:103DD00018474FF6FF7383814FF0FF330362136878
:103DE000C3611060704770477047704770477047F5
:103DF00090F825201AB190F8242002B1186070477D
:103E00007047704710B543F2C851044630F03BFE8E
:103E1000204610BD012908B505D120F0D5F8BDE830
:103E20000840FFF70FBA08BD074A02600022C0E948
:103E30000122C0E90322C0E90522C0E907224FF4AC
:103E400080728284704700BF208E030870B50368BB
:103E50000446DB6A154698472368294620461B6BB3
:103E6000BDE87040184770B504461D46BDF91060A6
:103E7000FFF7ECFF2368294620465B6B98472368D1
:103E8000314620469B6BBDE87040184710B526228E
:103E90000446002130F0ACFF2046FFF7C5FF044B7D
:103EA0002360FF2384F826300023A362204610BD40
:103EB000208A030810B526220446002130F098FF1E
:103EC0002046FFF7B1FF074B2360074BA3624FF675
:103ED000FF73A3854FF47F020023C4E90C322387CC
:103EE000204610BD78890308A064030870B5FF223E
:103EF000134E0272134A0260326892F87610002361
:103F0000C0E903330446436009B1D06C00B990683E
:103F100003685B6A98473368B0FA80F5D86C6D091E
:103F200028B103685B6A9847002808BF01252DB9AE
:103F3000054B064A06482C2130F0D4FD204670BDC2
:103F40006C1C01206C850308B86E0308166F03080B
:103F50004F6F03082DE9F04F2DED108B04468FB005
:103F600021F09AFB22460025AC4BE56342F8403B2A
:103F7000104609EE102AFFF789FF04F16C0318467A
:103F80000593FFF783FF04F19803DFF8B482A44F91
:103F9000DFF8B09204F1C40B184608EE103AFFF7B0
:103FA00043FFC4F898805846C4F8C050FFF76EFF2E
:103FB00004F1F00318460AEE103AFFF77BFF04F510
:103FC0009873C4F8F0701846C4F82C510AEE903A71
:103FD000FFF770FF04F5B673184604F5CC7608EECB
:103FE000903AFFF721FFC4F86C81C4F89451304631
:103FF000FFF71AFF04F5E273C4F898811846C4F875
:10400000C0510693FFF742FF04F5F87318460BEE14
:10401000103A1CF0DDFF04F50F7318460B93FFF701
:1040200065FF04F51573C4F83C921846C4F8505265
:104030000BEE903A1CF0CCFF04F5287318460A9357
:10404000FFF754FF04F52E73C4F8A0921846C4F885
:10405000B4520CEE103A1CF0BBFF04F54173184645
:104060000993FFF743FF04F54773C4F80493184618
:10407000C4F818530CEE903AFFF71CFF04F5567382
:1040800018460DEE103AFFF715FF04F56573184654
:104090000DEE903AFFF70EFF04F57473184609EE23
:1040A000903AFFF7C1FE04F57F73C4F8D083184639
:1040B000C4F8F8530793FFF7E9FE04F58563184643
:1040C00004F58D690EEE103AFFF7F4FEC4F828747B
:1040D000C4F864544846FFF7A7FE04F29443C4F8BA
:1040E00068841846C4F890540893FFF7CFFE04F58F
:1040F000986318460EEE903AFFF7DCFE04F2FC439C
:1041000018460FEE103AFFF7D5FE04F5A7631846E0
:1041100004F274580FEE903AFFF7CCFE4046FFF7DA
:10412000C9FE04F5B66318460293FFF7C3FE04F513
:10413000BE63C4F8B0751846C4F8EC550393FFF796
:10414000B9FE04F5C6631846C4F8F075C4F82C56D9
:104150000493FFF7AFFEC4F8307642F6E0614FF407
:10416000F07704F5DD60C4F86C561EF00FFA4FF0DE
:104170007F4A19EE100A4FF448732A4629460097E1
:10418000FFF771FE0598C4F868A04FF448732A46FB
:1041900029460097FFF767FE224BC4F8943018EECB
:1041A000100A4FF4E1732A4629460097FFF75BFE99
:1041B00040F2B9131422584600930D2140F2B51372
:1041C000FFF751FE4FF0FF33594618EE100AC4F8BE
:1041D000EC301BF073FC40F2611300931AEE100AEE
:1041E0004FF4D1731F221421FFF73DFE0E4BC4F88C
:1041F00020A11B68A4F8245104F5CE6B2BB90B4BFE
:104200000B4AAE210B4830F06DFC0B4B1B88012B89
:104210001AD80A4B064AAF21F4E700BFC87003085A
:10422000848A0308231107FFDC1C0120B16F0308F7
:10423000F36F030821700308E01C01206870030875
:10424000E07C03084C850308EB4B0121186812F051
:1042500031FDEA4A03460A21584622F0B7FE1AEE1B
:10426000100AC4F82CB10CA9DFF898B3CDF830B01F
:10427000ADF834501DF0B5FF1AEE101A18EE100A02
:104280001BF01CFC40F251121AEE900AB021FFF70D
:10429000DDFD02231AEE900A0CA9C4F860A1A4F86F
:1042A0006451ADF83430CDF830B01DF09AFF1AEEFD
:1042B000901A18EE100A1BF001FC18EE900A0097F5
:1042C0004FF4AF735D272A464FF4E171FFF7CBFD42
:1042D000304600974FF49C7363221321FFF7C3FD10
:1042E0004FF49C73069800972A462946FFF7BBFDBA
:1042F0004FF0FF3230460699C4F8EC211BF0DEFB8C
:1043000033223A231BEE100A009210212422FFF7D9
:10431000AAFD4FF434524FF44877C4F83022B84A1B
:10432000C4F85022C4E988770B99C4F828721BEEB0
:10433000100AC4F83452C4F82C521DF0CBF93046A0
:104340001BEE101A1BF0BAFB33213A231BEE900A26
:10435000009124228421FFF786FDA94AC4F8B422E3
:104360004FF43451C4E9A1771BEE900AC4F88C7263
:10437000C4F89412C4F898520A99C4F890521DF0E7
:10438000A9F930461BEE901A1BF098FB33213A2313
:104390001CEE100A00912422F321FFF764FD984AD5
:1043A000C4F818234FF43451C4E9BA771CEE100A4C
:1043B000C4F8F072C4F8F812C4F8FC520999C4F8B1
:1043C000F4521DF087F930461CEE101A1BF076FBF4
:1043D0002A461CEE900A6521FFF738FD05231CEEE6
:1043E000900A0CA9C4F84CA3A4F85053ADF834308B
:1043F000CDF830B01DF0F5FE30461CEE901A1BF0E3
:104400005DFB2A461DEE100A0B21FFF71FFD04235A
:104410001DEE100A0CA9C4F888A3A4F88C53ADF8BB
:104420003430CDF830B01DF0DCFE30461DEE101AF1
:104430001BF044FB2A461DEE900AE821FFF706FD1B
:1044400006231DEE900A0CA9C4F8C4A3A4F8C8530F
:10445000ADF83430CDF830B01DF0C3FE30461DEE5F
:10446000901A1BF02BFB314618EE900A41261BF0E8
:1044700025FB19EE900A00964FF49C731422132129
:10448000FFF7F1FC4FF49C73079800962A462946E3
:10449000FFF7E9FC4FF0FF320799C4F8242419EE26
:1044A000900A1BF00BFB2D230B221EEE100A00932B
:1044B00008214FF49473FFF7D6FC04F284631EEED8
:1044C000100AC4F864340CA90723C4F858A4A4F84B
:1044D0005C54A4F88456ADF83430CDF830B01DF0FB
:1044E00080FE1EEE101A19EE900A1BF0E7FAF9266C
:1044F00019EE901A18EE900A1BF0E0FA00964FF4AD
:104500009C73D52213214846FFF7ADFC4FF49C73F2
:10451000089800962A462946FFF7A5FC4FF0FF327F
:104520000899C4F8BC2448461BF0C8FA2A461EEE77
:10453000900A8021FFF78AFC03231EEE900A0CA943
:10454000C4F8F0A4A4F8F454ADF83430CDF830B089
:104550001DF047FE1EEE901A48461BF0AFFA3E22B1
:104560001FEE100A0821FFF771FC08261FEE100A43
:104570000CA9C4F82CA5A4F83055ADF83460CDF8DA
:1045800030B01DF02EFE1FEE101A48461BF096FAB2
:104590007C2231461FEE900AFFF758FC09231FEEDC
:1045A000900A0CA9C4F868A5A4F86C55ADF834308D
:1045B000CDF830B01DF015FE1FEE901A48461BF0E6
:1045C0007DFABB2231464046FFF740FC0A264046B2
:1045D0000CA9C4F8A4A5A4F8A855CDF830B0ADF83E
:1045E00034602F271DF0FDFD414648461BF066FA5A
:1045F00068233E22029807E0E81C0120BA700308F5
:10460000777777FFA06403080097BE21FFF72BFCA4
:10461000564AC4F8E0A51368A4F8E45504F2AC685F
:10462000002B3FF4ECAD52490B880C2B7FF6F1AD1B
:10463000504B0C21186812F03DFB4F4A034631469F
:10464000404622F0C3FC0CA80B230146C4F8EC85BD
:104650000298ADF83430CDF830B01DF0C2FD0299AB
:1046600048461BF02BFA68237C2203980097BE2152
:10467000FFF7F9FB3D4AC4F820A61368A4F82456B6
:1046800004F5D868002B3FF4BAAD39490B880E2BDE
:104690007FF6BFAD374B0E21186812F00BFB364A80
:1046A00003463146404622F091FC0CA80D230146FA
:1046B000C4F82C860398ADF83430CDF830B01DF036
:1046C00090FD039948461BF0F9F96823BB22049832
:1046D0000097BE21FFF7C7FB244AA4F8645613686D
:1046E000C4F860A604F2D465002B3FF488AD2049DD
:1046F0000B88102B7FF68DAD1E4B1021186812F021
:10470000D9FA1D4A03463146284622F05FFC0F23A2
:104710000498C4F86C560CA9ADF83430CDF830B01C
:104720001DF05FFD049948461BF0C8F918EE900A89
:1047300049461BF0C3F9201D19EE101A02901BF018
:10474000BDF9059902981BF0B9F918EE101A0298F4
:104750001BF0B4F9029818EE901A1BF0AFF920463E
:104760000FB0BDEC108BBDE8F08F00BFDC1C01204A
:10477000E01C0120E81C0120BA70030870B5036832
:1047800004465B6B154698472368294620469B6B79
:10479000BDE8704018477047704710B544F2AC212F
:1047A000044630F070F9204610BD012908B505D146
:1047B0001FF00AFCBDE80840FEF754BD08BD00002C
:1047C00010B50446FFF730FB024B23600023A362C1
:1047D000204610BDE07C030810B50446FFF756FBE9
:1047E000034B23600023E3622386204610BD00BFF5
:1047F0002C8B030810B50446FFF75CFB024B2360CB
:104800000023E363204610BD848A03082DE9F04F9E
:104810002DED108B0446C7B020F03EFF2246002548
:10482000DF4BE56342F8403B10460FEE902AFFF75E
:104830002DFB04F16C0318462993FFF727FB04F1C5
:10484000980318462A93FFF7C7FF04F1CC031846D4
:104850000393FFF72FFB04F5847318462B93FFF7A0
:10486000BBFF04F59E7318460493FFF723FB04F582
:10487000BC7318460593FFF71DFB04F5DA73184661
:104880000693FFF7B7FF04F5FA73184604F50D79A0
:104890000793FFF7AFFF4846FFF792FF04F5187341
:1048A00018462C93FFF798FF04F5257318462D93AF
:1048B000FFF792FF04F5327318462E93FFF78CFF33
:1048C00004F53F7318462F93FFF786FF04F54C73EA
:1048D00018463093FFF780FF04F55973184608EE29
:1048E000903AFFF76DFF04F56473184604F56F7A8C
:1048F0003193FFF7CBFA5046FFF7DCFA04F57E73ED
:10490000184608931CF064FB04F244431846A54E75
:104910004193FFF7EBFA04F25C43C4F84464184691
:10492000C4F858540993FFF765FF04F29C431846F6
:104930000A93FFF75FFF04F2DC43184609EE103AD2
:10494000FFF73EFF04F5A16318463293FFF79EFA86
:1049500004F2345318460B931CF03AFB04F5B06391
:1049600018464093FFF7C2FA04F5B363C4F88065B4
:104970001846C4F894550C93FFF79CFA04F2D453EC
:1049800018460D93FFF736FF04F2146318460E9392
:10499000FFF730FF04F25463184609EE903AFFF730
:1049A0000FFF04F5D06318463393FFF76FFA04F254
:1049B000AC6318460F93FFF77DFA04F5DD631846E4
:1049C00010931CF005FB04F2347318463F93FFF775
:1049D0008DFA04F24C73C4F834671846C4F848578B
:1049E0001193FFF707FF04F28C73184604F2CC7B97
:1049F0001293FFF7FFFE5846FFF7E2FE04F5FF6350
:104A000018463493FFF742FA04F62403184613932A
:104A1000FFF750FA04F50663184614931CF0D8FA11
:104A200004F6AC0318463E93FFF760FA04F6C4039D
:104A3000C4F8AC681846C4F8C0581593FFF7DAFEFE
:104A400004F6041318461693FFF7D4FE04F6441335
:104A500018460AEE103AFFF7B3FE04F5176318463E
:104A60003593FFF713FA04F69C1318461793FFF7D4
:104A700021FA04F6D813184618931CF0A9FA04F684
:104A8000242318463D93FFF731FA04F63C23C4F87B
:104A9000246A1846C4F8385A1993FFF7ABFE04F697
:104AA0007C2318461A93FFF7A5FE04F6BC2318468C
:104AB0000AEE903AFFF784FE04F6E8231846369390
:104AC000FFF7E4F904F6143318461B93FFF7F2F9E5
:104AD00004F5356318461C931CF07AFA04F69C33EF
:104AE00018463C93FFF702FA04F6B433C4F89C6B03
:104AF0001846C4F8B05B1D93FFF77CFE04F6F43350
:104B000018461E93FFF776FE04F6344318460BEE64
:104B1000103AFFF755FE04F5466318463793FFF742
:104B2000B5F904F68C4318461F93FFF7C3F904F652
:104B3000C843184620931CF04BFA04F61453184649
:104B40003B93FFF7D3F904F62C53C4F8146D1846C1
:104B5000C4F8285D2193FFF74DFE04F66C53184608
:104B60002293FFF747FE04F6AC5318460BEE903A3B
:104B7000FFF726FE04F6D85318463893FFF786F958
:104B800004F6046318462393FFF794F904F564636D
:104B9000184624931CF01CFA04F68C63184603E0B4
:104BA000FC7003084C8503083A93FFF79FF904F65D
:104BB000A463C4F88C6E1846C4F8A05E2593FFF772
:104BC00019FE04F6E46318462693FFF713FE04F675
:104BD000247318460CEE103AFFF7F2FD04F57563E6
:104BE00018463993FFF752F904F67C731846279359
:104BF000FFF760F904F6B87341F2040718462893EA
:104C00001CF0E6F9E31918464393FFF76FF941F2F8
:104C10001803E651E55004F580531C3318460CEE9A
:104C2000903AFFF7E7FD04F582531C3318460DEE6A
:104C3000103AFFF7DFFD04F584531C33184608EEE5
:104C4000103AFFF7BDFD04F586530833184602936A
:104C5000FFF71CF904F58753143318460DEE903A0C
:104C6000FFF728F904F58953103341F27C171846F1
:104C70000EEE103A1CF0ACF9E31918464293FFF718
:104C800035F941F29013E651E55004F58C53143395
:104C900018460EEE903AFFF7ADFD04F58E5314332F
:104CA00018460FEE103AFFF7A5FD04F59E5042F6A8
:104CB000E0610C301DF06AFC4FF4F0731FEE900AB7
:104CC00000932A464FF448732946FFF7CCF84FF07B
:104CD0007F43A3664FF4F073299800932A464FF45C
:104CE00048732946FFF7BFF8DFF820812A98C4F8F7
:104CF00094804F2300932A46DF232946FFF7B3F819
:104D000004264FF0FF330D220398C4F8C430A4F8F2
:104D1000C8601C21C4F8C080FFF798F84FF0FF333B
:104D2000314F0398C4F8FC3044A91123A4F8005172
:104D30004497ADF814311DF054FA60232B9800937A
:104D400042224FF40C73F021FFF78DF84FF0FF3340
:104D50005B220498C4F83431A4F83861F921234E59
:104D6000C4F83081FFF772F812230498C4F86C611C
:104D700044A9A4F87051ADF8143144971DF031FAEC
:104D80005B2205984FF40371FFF760F81323059831
:104D9000C4F8A86144A9A4F8AC514497ADF8143103
:104DA0001DF01FFA2F2300930698114F68235B22F2
:104DB00040F29511FFF757F80E4BC4F8E4313B6809
:104DC000A4F8E85104F5905614362BB90A4B0B4A57
:104DD000AE210B482FF086FE0A4B1B88152B17D8E7
:104DE000094B064AAF21F4E7A0640308F2F2FAFF88
:104DF000DC1C0120FAFAFCFFB16F0308F36F030813
:104E000021700308E01C012068700308231107FFCC
:104E1000D74B1521186811F04DFFD64A03460A21D9
:104E2000304622F0D3F8D44A0698C4F8F06114232F
:104E300044A94492ADF814311DF0D3F92F2000900D
:104E40005F2307985B224FF42A71FFF70CF83B6849
:104E5000A4F828524FF0FF3004F59156C4F824020C
:104E60000836002BB2D0C54A1388172BB8D9C04BCF
:104E70001721186811F01EFFBE4A03460A2130466A
:104E800022F0A4F8BC49C4F8306244A81623449127
:104E900001460798ADF814311DF0A3F94FF497704F
:104EA00000904FF44873B22229464846FEF7DBFFD4
:104EB0004FF497700526A0232A46009029462C9887
:104EC000FEF7D1FFC4E9A2882C99A4F89062484665
:104ED0001AF0F4FDA0234FF4977019462A4600906B
:104EE0002D98FEF7C0FFC4E9AF882D99A4F8C462DD
:104EF00048461AF0E3FD4FF49770A0232A4600902D
:104F00004FF4A0712E98FEF7AEFFC4E9BC882E992D
:104F1000A4F8F86248461AF0D1FD4FF49770A02328
:104F20002A4600904FF4F0712F98FEF79CFFC4E9D9
:104F3000C9882F99A4F82C6348461AF0BFFD4FF496
:104F40009770A0232A4600904FF420713098FEF706
:104F50008AFFC4E9D6883099A4F8606348461AF0FD
:104F6000ADFD97200090A02318EE900A2A4629460E
:104F7000FEF779FF6C2096232B2200903146319862
:104F8000FEF771FF4FF0FF303199C4F8B80318EE07
:104F9000900A1AF093FD0E2250461821FEF756FF94
:104FA0004FF0FF307449C4F8EC0344A8182344912F
:104FB000A4F8F05301465046ADF814314FF05008B4
:104FC0001DF00FF9514618EE900A1AF077FD43468E
:104FD0006FF00F020898CDF800804F21FEF743FFD5
:104FE0004FF4A060C4F82804C4F82C044FF4F07007
:104FF000C4F830044FF43450C4F83804A0F5A0408D
:105000004199C4F85804C4F83C540898C4F834547E
:105010001CF060FB089918EE900A1AF04FFD4FF053
:105020002F0CCDF800C0852309982C220E21FEF705
:105030001AFF3B68A4F890544FF07F4C04F5915A46
:10504000C4F88CC40AF11C0A002B3FF4BFAE4B4AD3
:105050001388232B7FF6C4AE454B2321186811F02B
:1050600029FE444A03460A21504621F0AFFF0DF5C0
:10507000887C41490998C4F898A422234491614648
:10508000ADF814311DF0ADF8099918EE900A1AF038
:1050900015FD4FF02F0CCDF800C051230A98612266
:1050A0002421FEF7E0FE3B68A4F8D0544FF07F4C7B
:1050B00004F5925AC4F8CCC40AF1100A002B3FF44C
:1050C00085AE2E4A1388252B7FF68AAE284B2521E4
:1050D000186811F0EFFD274A03460A21504621F0D7
:1050E00075FF0DF5887C24490A98C4F8D8A444912A
:1050F0004FF0240A6146ADF814A11DF072F80A9928
:1051000018EE900A1AF0DAFC18EE901A48461AF0D7
:10511000D5FC4FF0970C6246294619EE100ACDF8DF
:1051200000C0A023FEF79FFE4FF06C0C9623524662
:1051300031463298CDF800C0FEF795FE4FF0FF3CA7
:10514000C4F830C532990C4E19EE100A1AF0B6FCAC
:1051500043466FF014020B98CDF800804F21FEF704
:1051600082FE4FF4A06CC4F864C5C4F868C507E0BB
:10517000E81C0120BA700308A0640308E01C0120A9
:105180004FF4F07CD448C4F86CC54FF4345CC4F8D8
:1051900074C54099C4F87855C4F87055C4F894059E
:1051A0000B981CF097FA0B9919EE100A1AF086FC6E
:1051B000292307220C98009306216523FEF753FE4E
:1051C0004FF0FF3C1923C4F8C8C50C98A4F8CC557F
:1051D00044A9ADF8143144961DF003F80C9919EE6A
:1051E000100A1AF06BFC2F21009185230E210D98D7
:1051F0005246FEF738FE3B68A4F808564FF07F4150
:1052000004F59355C4F804160435002B3FF4DEADC5
:10521000B24A1388272B7FF6E3ADB14B27211868DC
:1052200011F048FDAF4A03460A21284621F0CEFE80
:1052300026230D98C4F8105644A9ADF814314496AD
:105240004FF02F081CF0CDFFA74E0D9919EE100A54
:105250001AF034FC85230E210E98CDF800805A22D6
:10526000FEF701FE33684FF07F41002504F59357A8
:10527000C4F84416A4F848561837002B3FF4A6ADDE
:10528000964A1388292B7FF6ABAD954B29211868D8
:1052900011F010FD934A03460A21384621F096FE8C
:1052A00028230E98C4F8507644A9904FADF81431D5
:1052B00044971CF096FF0E9919EE100A1AF0FEFBA7
:1052C00019EE101A48461AF0F9FB9721A0230A4656
:1052D00019EE900A00911946FEF7C5FD6C21524661
:1052E0009623339800910521FEF7BDFD4FF0FF3165
:1052F00019EE900AC4F8A81633991AF0DFFB292199
:1053000007220F98009165230621FEF7ACFD4FF0B0
:10531000FF311A230F98C4F8DC16A4F8E05644A90C
:10532000ADF8143144971CF05CFF50270F9919EE2B
:10533000900A1AF0C3FB3B466FF0140210980097D6
:105340004F21FEF790FD4FF4A061C4F81817C4F880
:105350001C174FF4F0716048C4F820174FF4345113
:10536000C4F82817C4F848073F991098C4F82C5778
:10537000C4F824571CF0AEF9109919EE900A1AF0EF
:105380009DFB882352460C211198CDF80080FEF732
:105390006AFD3368A4F880574FF07F4104F5945AB2
:1053A000C4F87C170AF10C0A002B3FF40FAD4B4AEE
:1053B0001388312B7FF614AD494B3121186811F059
:1053C00079FC484A03460A21504621F0FFFD0DF5BD
:1053D000887C46491198C4F888A7302344916146D7
:1053E000ADF814311CF0FDFE119919EE900A1AF077
:1053F00065FB75231298CDF800805A221521FEF71F
:1054000032FD3368A4F8C0574FF07F4CC4F8BCC7D6
:1054100004F5955A002B3FF4D9AC304A1388434524
:105420007FF6DEAC2E4B4146186811F043FC2D4A46
:1054300003460A21504621F0C9FD0DF5887C2B4911
:10544000129844912E236146C4F8C8A7ADF81431D0
:105450001CF0C7FE129919EE900A1AF02FFB19EEF4
:10546000901A48461AF02AFB4FF0970CCDF800C06E
:10547000A02307229F215846FEF7F5FC4FF06C0C45
:10548000962324223498CDF800C00621FEF7EBFCC9
:105490004FF0FF3C3499C4F820C858461AF00EFB70
:1054A0004FF0290C07221398CDF800C06523062180
:1054B000FEF7D9FC4FF0FF3C0C49C4F854C80DF579
:1054C000887C1B2313984491A4F858586146ADF882
:1054D00014311CF086FE0BE000DDFFFFE01C012014
:1054E000E81C0120BA700308DC1C0120A06403083A
:1054F000139958461AF0E2FA3B466FF01602394605
:10550000149800974FF4A067FEF7ADFCC4F89078AC
:10551000C4F894784FF4F077D448C4F898784FF4EE
:1055200034573E99C4F8A078C4F8C008C4F8A45809
:105530001498C4F89C581CF0CDF8149958461AF0E9
:10554000BDFA4E231598CDF800805A222921FEF786
:105550008AFC4FF07F473368C4F8F4785746A4F8C4
:10556000F8581437002B3FF431ACC14A13882D2B67
:105570007FF636ACBF4B2D21186811F09BFBBE4A5D
:1055800003460A21384621F021FDBC491598449173
:105590002C2344A9C4F80079ADF814311CF021FE85
:1055A000159958461AF08AFA88230D211698CDF8D5
:1055B00000802522FEF757FC3368A4F838594FF0D5
:1055C0007F4104F59655C4F834190835002B3FF493
:1055D000FDABA74A13882B2B7FF602ACA54BA74E39
:1055E0001868DFF89CA22B2111F064FBA24A034645
:1055F0000A21284621F0EAFC2A231698C4F84059CB
:1056000044A9ADF8143144961CF0EBFD58461699A8
:105610001AF054FA594648461AF050FA97211AEEF1
:10562000100A0091A02307224FF4A071FEF71BFC83
:105630006C2196232422359800910521FEF713FC56
:105640004FF0FF311AEE100AC4F8981935991AF084
:1056500035FA292107221798009165230621FEF7C4
:1056600002FC00254FF0FF311C231798C4F8CC1919
:10567000A4F8D05944A9ADF814314FF0500844961D
:105680001CF0AFFD17991AEE100A1AF017FA4346EC
:105690006FF016021898CDF800805121FEF7E3FB59
:1056A0004FF4F0717148C4F8101A4FF4A0674FF42A
:1056B0003451C4F8181AC4F8380A3D991898C4F837
:1056C000087AC4F80C7AC4F81C5AC4F8145A1CF0AE
:1056D00001F818991AEE100A1AF0F0F92F2100912A
:1056E0007223172119985A22FEF7BDFBDAF8003011
:1056F000A4F8705A4FF07F4104F5965BC4F86C1A19
:105700000BF11C0B002B3FF461AB594A1388352B6E
:105710007FF666AB574B3521186811F0CBFA564A25
:1057200003460A21584621F051FC34231998C4F845
:1057300078BA44A9ADF8143144961CF052FD199979
:105740001AEE100A1AF0BAF92F2100918E230721C0
:105750001A982422FEF787FBDAF80030A4F8B05A32
:105760004FF07F4104F5975BC4F8AC1A0BF1100BB6
:10577000002B3FF42BAB3E4A1388332B7FF630AB24
:105780003C4B3321186811F095FA3B4A03460A2135
:10579000584621F01BFC32231A98C4F8B8BA44A921
:1057A000ADF8143144961CF01CFD1A991AEE100A3B
:1057B0001AF084F91AEE101A48461AF07FF9972168
:1057C0000A461AEE900A0091A02340F24111FEF71A
:1057D0004AFB6C2196232422369800910421FEF77F
:1057E00042FB4FF0FF311AEE900AC4F8101B3699B5
:1057F0001AF064F9292107221B98009165230621DC
:10580000FEF731FB4FF0FF311D231B98C4F8441BFA
:10581000A4F8485B44A9ADF8143144961CF0E1FCAF
:105820001B991AEE900A1AF049F943466FF01402D8
:105830001C98CDF800805121FEF715FB4FF4F07154
:105840000A48C4F8881B4FF43451C4F8901BC4F8BC
:10585000B00B3C991C98C4F8807BC4F8847BC4F8D6
:10586000945BC4F88C5B1BF035FF0BE000DDFFFFA1
:10587000E01C0120E81C0120BA700308A0640308A2
:10588000DC1C01201C991AEE900A1AF017F92F213E
:10589000009185230F211D985A22FEF7E4FADAF8C9
:1058A0000030A4F8E85B4FF07F4104F5985BC4F842
:1058B000E41B0BF1040B002B3FF488AAD64A138893
:1058C000392B7FF68DAAD54B3921186811F0F2F9E2
:1058D000D34A03460A21584621F078FB38231D9805
:1058E000C4F8F0BB44A9ADF8143144961CF079FC1F
:1058F0001D991AEE900A1AF0E1F82F2100918523E4
:105900000F211E982422FEF7AEFADAF80030A4F830
:10591000285C4FF07F4104F5985BC4F8241C0BF120
:10592000180B002B3FF452AABB4A1388372B7FF683
:1059300057AABA4B3721186811F0BCF9B84A034688
:105940000A21584621F042FB36231E98C4F830BC89
:1059500044A9ADF8143144961CF043FC1E991AEE8C
:10596000900A1AF0ABF81AEE901A48461AF0A6F808
:1059700097211BEE100A0091A023072240F2E111AB
:10598000FEF771FA6C2196232422379800910421A6
:10599000FEF769FA4FF0FF311BEE100AC4F8881CBD
:1059A00037991AF08BF8292107221F980091652357
:1059B0000621FEF758FA4FF0FF311E231F98C4F856
:1059C000BC1CA4F8C05C44A9ADF8143144961CF08A
:1059D00008FC1F991BEE100A1AF070F843466FF08E
:1059E00016022098CDF800805121FEF73CFA4FF4C2
:1059F000F0718C48C4F8001D4FF43451C4F80C5DAC
:105A0000C4F8045DC4F8081DC4F8280D3B9920981B
:105A1000C4F8F87CC4F8FC7C1BF05CFE20991BEEFB
:105A2000100A1AF04BF82F21009190230A21219897
:105A30002422FEF718FADAF80030A4F8605D4FF07F
:105A40007F4104F59955C4F85C1D0C35002B3FF4DB
:105A5000BDA9714A13883D2B7FF6C2A96F4B3D212A
:105A6000186811F027F96E4A03460A21284621F0EA
:105A7000ADFA3C232198C4F8685D44A9ADF814310F
:105A800044961CF0AEFB21991BEE100A1AF016F892
:105A90002F22009269235A2222981C21FEF7E3F953
:105AA000DAF800304FF07F420025B046C4F89C2D54
:105AB000A4F8A05D04F59A575646002B3FF486A93A
:105AC000DFF854B1BBF800303B2B7FF689A9534B6C
:105AD0003B21186811F0EEF8514A03460A21384676
