:020000040800F2
:1000000000000520990500088D1F00088F1F0008BB
:10001000911F0008931F0008951F000800000000B2
:1000200000000000000000000000000001A4010822
:10003000971F00080000000091A40108FD9C010822
:10004000E9050008E9050008E9050008E9050008D8
:10005000E9050008E9050008E9050008E9050008C8
:10006000E9050008E9050008E9050008E9050008B8
:10007000E9050008E9050008E9050008E9050008A8
:10008000E9050008E9050008E9050008E905000898
:10009000E9050008E9050008E9050008E905000888
:1000A000E9050008E9050008E9050008E905000878
:1000B000E9050008E9050008E9050008E905000868
:1000C000E9050008E9050008E9050008E905000858
:1000D000E9050008E9050008E9050008E905000848
:1000E000E9050008E9050008E9050008E905000838
:1000F000E9050008E9050008E9050008E905000828
:10010000E9050008E9050008E9050008E905000817
:10011000E9050008E9050008991F0008E90500083D
:10012000E9050008E9050008E9050008E9050008F7
:10013000E9050008E9050008E9050008E9050008E7
:10014000A51F0008B11F0008E9050008E90500081F
:10015000E9050008E9050008E9050008E9050008C7
:10016000E9050008E9050008E9050008E9050008B7
:10017000E9050008E9050008E9050008000000009D
:10018000E9050008E9050008E9050008E905000897
:10019000E9050008E9050008E9050008E905000887
:1001A000B51F0008E9050008C11F0008E90500089F
:0401B000CD1F000857
:1001C00010B5054C237833B9044B13B10448AFF391
:1001D00000800123237010BD640100200000000096
:1001E0009820030808B5034B1BB103490348AFF33C
:1001F000008008BD0000000068010020982003086E
:1002000001F0FF01102A2BDB10F0070F08D010F8C7
:10021000013B013A8B422DD010F0070F42B3F6D1CB
:10022000F0B441EA012141EA014122F007047FF0E4
:1002300000070023F0E80256083C85EA010586EA3B
:10024000010685FA47F5A3FA87F586FA47F6A5FA77
:1002500087F68EB9EED1F0BC01F0FF0102F0070283
:1002600032B110F8013B013A83EA010313B1F8D12E
:100270000020704701387047002D06BF354603380F
:10028000073815F0010F07D1013015F4807F02BF48
:10029000013015F4C03F0130F0BC0138704700BF99
:1002A00053B94AB9002908BF00281CBF4FF0FF31DD
:1002B0004FF0FF3000F06EB9ADF1080C6DE904CEDF
:1002C00000F006F8DDF804E0DDE9022304B0704731
:1002D0002DE9F047089D04468C46002B40F08380B2
:1002E0008A42174647D9B2FA82F242B1C2F12000DF
:1002F00024FA00F09140974040EA010C94404FEA04
:100300001748230CBCFBF8F61FFA87FE08FB16C142
:1003100043EA014306FB0EF1994209D9FB1806F1A5
:10032000FF3080F01981994240F21681023E3B4431
:100330005B1AA4B2B3FBF8F008FB103344EA0344A1
:1003400000FB0EFEA64509D93C1900F1FF3380F0F1
:100350000581A64540F2028102383C4440EA06404D
:10036000A4EB0E0400261DB1D4400023C5E90043D0
:100370003146BDE8F08702B9FFDEB2FA82F2002A08
:1003800050D1CB1B4FEA174E1FFA87F80126B3FB5B
:10039000FEFC210C0EFB1C3341EA034108FB0CF36D
:1003A0008B4207D979180CF1FF3002D28B4200F250
:1003B000E9808446C91AA3B2B1FBFEF00EFB10110E
:1003C00043EA014408FB00F8A04507D93C1900F1B5
:1003D000FF3302D2A04500F2D9801846A4EB0804EE
:1003E00040EA0C40BFE78B4209D9002D00F0B180F4
:1003F0000026C5E9000130463146BDE8F087B3FA72
:1004000083F6002E4AD18B4202D3824200F2B8809A
:10041000841A61EB030101208C46002DA8D0C5E9A8
:10042000004CA5E7C2F1200320FA03F6974001FA39
:1004300002F04FEA174ED9403043030CB1FBFEF6F1
:100440001FFA87F80EFB161143EA014306FB08F179
:10045000994204FA02F409D9FB1806F1FF3C80F036
:100460008D80994240F28A80023E3B445B1A81B201
:10047000B3FBFEF00EFB103341EA034100FB08F32F
:100480008B4207D9791800F1FF3C73D28B4271D9A6
:1004900002383944CB1A40EA064678E7C6F1200C08
:1004A00003FA06F422FA0CF31C4320FA0CF701FAC3
:1004B00006F34FEA144E21FA0CF11F433B0CB1FB3B
:1004C000FEF91FFA84F80EFB191143EA014109FBFA
:1004D00008FA8A4502FA06F200FA06F308D961180A
:1004E00009F1FF3048D28A4546D9A9F102092144D1
:1004F000A1EB0A01BFB2B1FBFEF00EFB101147EAFF
:10050000014700FB08F8B84507D9E71900F1FF31AA
:100510002ED2B8452CD90238274440EA0940A7EB2F
:100520000807A0FB02894F45C64649461AD317D093
:100530005DB1B3EB0E0267EB010707FA0CFCF2406A
:100540004CEA0202F740C5E9002700263146BDE823
:10055000F0872E4628460BE70646E9E61846FDE6F4
:100560004345E5D2B8EB020E69EB04010138DFE741
:100570000846D2E760468DE78146B9E7664675E7EB
:1005800030464AE7ACF1020C394413E702383C44E8
:1005900024E700BF704700BFDFF834D0002103E03C
:1005A0000C4B5B58435004310B480C4B42189A4299
:1005B000F6D30B4A02E0002342F8043B094B9A426F
:1005C000F9D316F011FA30F0C3FD00F075FF704753
:1005D000000005204C690308000000206401002091
:1005E00064010020F81C0120FEE700F0EFBD00F0E0
:1005F0005DBE0021084615F05FBD002015F096BDD8
:100600004068704741607047054A136843F0807343
:100610001360044A136843F001031360704700BF7E
:10062000FCED00E0001000E0511A01EB5301B1FBBA
:10063000F3F07047014B1868704700BF041000E0EA
:10064000704710B50C21044630F013FC204610BD55
:10065000036810B51B69044631B19847A268636806
:100660009B1A1844606010BD9847A060FBE7704774
:100670007047000008B5FFF7BCFF024B00221A606C
:1006800008BD00BF8001002070B50D46FFF7B5FF23
:100690000B4A937856781178D370C4B213F00100E6
:1006A0009670517014700AD016F0010007D011F046
:1006B000010004D0E3075ABF01202870002070BD5C
:1006C0008001002010B50421044630F0D2FB204602
:1006D00010BD704710B50421044630F0CAFB204617
:1006E00010BD000008B54FF4F0714FF4487016F0DB
:1006F000C7F8074B10B901221A7008BD1B78002BF0
:10070000FBD1044B044A0548242130F0E1FB00BF33
:10071000840100203C2103084F21030879210308AC
:100720007FB50B4B1C780E4615465CB101A816F040
:10073000E5F89DF8043043B1BDF806303360BDF8EC
:100740000A302B60204604B070BD1C46FAE700BF9B
:100750008401002010B1012809D07047084B0948D6
:100760001A68B2FA82F25209402117F0E5BA044B36
:1007700005485A68B2FA82F252091021F5E700BF23
:100780008801002000180240000C024010B101282E
:1007900009D07047084B09481A68003A18BF01226F
:1007A000402117F0C9BA044B05485A68003A18BFEF
:1007B00001221021F5E700BF880100200018024047
:1007C000000C024010B1012804D0704703484021BA
:1007D00017F0B7BA02481021FAE700BF001802402C
:1007E000000C024008B530B1012809D00020431E9A
:1007F0005842584108BD0448402117F097FAF6E7DF
:1008000002481021F9E700BF00180240000C024026
:1008100070B5084D00240126E0B2FFF7E3FF18B1E0
:100820002B68012B18BF2E600134052C05F104053F
:10083000F2D170BD88010020012380F8741080F887
:10084000753070470020704700207047836B0BB1F4
:100850000846184770474FF6FF70704740680368B6
:100860009B69184770477047014B1868704700BF75
:10087000980100207047000038B50446094DFFF785
:10088000C7FF204600F094FD002384F84A30284634
:10089000FFF7BAFE012384F86C30034B25616361D6
:1008A00038BD00BFA4010020A00100200368044659
:1008B00007B59B6F9847236820461B6F984700F049
:1008C00017FA236820469B6E98470021064800913E
:1008D0002923152217F019F800F00AFA2368204698
:1008E0009B6E9847F8E700BF601A012010B50446D8
:1008F0001CF01EFC23682046D3F8A030BDE8104051
:10090000184700F054BD00F06BBD00F06BBD00F067
:100910003DBD00F043BD00F067BD0000024B00226A
:100920001A701BF0F7BD00BF1400002010B504467C
:100930001BF0FCFD94F84B3013B1024B01221A70EE
:1009400010BD00BF140000201BF0AABD10B57C2113
:10095000044630F08EFA204610BD90F877301BB177
:10096000406803681B6818471846704730B590F810
:10097000341090F87440104B8C421A780DD05AB94C
:100980000E4A0F490F4814880F4D0C8001881180C2
:100990002980048001221A7030BD002AFCD0094849
:1009A000074A01881180054A074D14882C80118060
:1009B00004800022EFE700BF3C1701203817012018
:1009C0003E1701203A1701204017012010B50C4CAA
:1009D000216031B90B4B0C4A0C484FF4257130F0B3
:1009E00077FAC0E90F12003A0949436418BF01229F
:1009F0000A70003B074A18BF0123137010BD00BFE7
:100A000098010020F0210308282203087622030819
:100A10004217012043170120012807B50AD84B7857
:100A200000930B7808481522002116F06EFF03B0E2
:100A30005DF804FB01910B5C009339220346002111
:100A4000014816F073FFF2E7601A012037B50B4A30
:100A50000B4C02231525137055700192442200920D
:100A600000213922204616F061FF00210091352334
:100A70002A46204616F049FF03B030BDB0010020E1
:100A8000601A012007B50190FFF7E0FF019803B05D
:100A90005DF804EB00F08ABC07B5074B03EB800060
:100AA0002A2301900093392204230021034816F0E1
:100AB0003DFF03B05DF804FB04000020601A012034
:100AC00070B5154D04460020FFF744FE2A6892F8E1
:100AD0006630013382F8663000F0FEF80F4B28686C
:100AE0001A781B7880F84A2023B10D4D2B7803F03B
:100AF000FF0623B1BDE870400020FFF747BE1CF0A1
:100B000017FB084B30461E60FFF7C6FF204616F065
:100B1000ECFE01232B7070BD44170120140000204F
:100B2000B20100209C010020304B314A70B50546CF
:100B30001868304C013018602F4B03281E682ADCDF
:100B4000D4F804144FF4C87303FB006321F00801C8
:100B5000C4F8041493620CBFE823C8230233274966
:100B60001B0443F4F1730B61254B4B61A3F5F07348
:100B70005360244BD36201234B62FFF78DFF1D4A64
:100B8000D2F8043443F008032846C2F80434BDE820
:100B9000704016F0AABED4F804341B4923F00803B1
:100BA000C4F80434154B9662196101F101115961C1
:100BB000164951601349D16201225A620020FFF7A1
:100BC0006BFFD4F8043443F00803C4F80434002065
:100BD000FFF7DCFD0E4B00221A700E4B186820B197
:100BE0000368BDE87040DB69184770BD9C010020B8
:100BF00084680140006C01409801002000680140B9
:100C0000E301CA0093018006E201CA000300CA00A2
:100C1000B20100204417012008B5044B01461868B2
:100C200001B101211CF09EFA012008BD44170120EA
:100C3000054B064800225A609A60054A1A60054B27
:100C40000360FFF717BD00BFA4010020A001002032
:100C50000021030828210308012108B500220846C5
:100C600019F0EEF80A4B186028B90A4B0A4A2721F6
:100C70000A4830F02DF900220421012019F07EF9F4
:100C8000074B186018B9074B034A2B21F0E708BD42
:100C9000B801002088230308D12303080024030897
:100CA000B40100205E240308024B4FF0FF311868A6
:100CB00019F010B9B8010020014B186819F036B9C5
:100CC000B8010020024B0021186819F003B900BFD9
:100CD000B8010020FFF7F0BF034804490068002373
:100CE0001A4619F087B900BFB4010020180000208F
:100CF00013B5084C00231A4601A9206819F0AAF977
:100D000020684FF0FF33002201A919F0A3F902B0C7
:100D100010BD00BFB401002019F074B803685B6C0B
:100D200018470120704703689B6A184782B0002368
:100D300001930D4B1A6B42F400021A631A6B02F412
:100D400000020192019A1A6942F400021A611A69BA
:100D500022F400021A61054B054A1A61054B4FF057
:100D600080629A6002B0704700380240501B012038
:100D7000810D000800E100E040F2EF307047000014
:100D8000024B1B68586803685B69184744170120C9
:100D900008B50B280BD8DFE800F01206100A0A0A83
:100DA0000A0808080808012008BD0520FCE7054BD3
:100DB000054A0648652130F08BF80020F4E7022050
:100DC000F2E700BFA0240308BB240308072503089B
:100DD00008B50A2809D8DFE800F010060E08080850
:100DE000080606060600012008BD054B054A064810
:100DF000862130F06DF80020F6E70220F4E700BF0E
:100E0000A024030863250308072503082DE9F843F8
:100E100091F81D800C464046FFF7BAFFA77F0546B4
:100E20003846FFF7B5FF06463846FFF7D1FFA18ADF
:100E3000628B534B521A1A649A61228B521A1A61AE
:100E4000E28A586342EA01425A6421696268D963BE
:100E5000DA60D4F800C094F81C90BCF1800F4FEA1F
:100E600009629E463BD015D8BCF1200F45EA02002E
:100E700079D0BCF1400F76D0BCF1040F2BD0404BA1
:100E80002A4342F40032B845DA6114BF3D4A40F2C9
:100E900001221EE0BCF5807F07D0BCF5007FEED1BB
:100EA00042F4003242F0090203E042F4003242F020
:100EB0000A02DA61E0680202440102F4780204F4F2
:100EC0007C44C0002243C0B202431A622E4A5E62D2
:100ED00059611A6043E040F40030D861F6E7A06839
:100EE0002A4342F40032041DDC62DA6102785E6259
:100EF000596142B1012A1CD0244B254A25484FF4A0
:100F000088712FF0E5FF4288D969501E21F47F4295
:100F100022F0100242EA0022DA610125184CE3694E
:100F200043F02003E361E3699B0613D5FFF7F4FE6A
:100F3000F9E74288D969501E21F47F4222F010025D
:100F400042EA0022B9F1FF0542F0100218BF012564
:100F5000DA61E3E71023A3601DB10B4B2360BDE80A
:100F6000F883084BFAE7084B40F40030CEF81C0039
:100F7000CEF82460CEF81410CEF80030EFE700BFB2
:100F800000B002400102010001020200B025030886
:100F9000CA25030807250308F8B58E7F0C4630469E
:100FA000FFF716FFA78AE18A628B1E4B25695863FB
:100FB00041EA0741D21B5964DD631A64216808299C
:100FC00018D19A611A615862217F174A42EA016278
:100FD000DA61E1680A02480102F4780200F47C4018
:100FE000C9000243C9B20A431A62104A5D61DD605A
:100FF0001A60F8BD0022D8611A61E1681EB99963D0
:10100000084B0B4AF4E70A02480102F4780200F4A4
:101010007C40C900C9B202430A43217F42EA01620F
:101020009A63EDE700B002400900010001020200EE
:1010300001020300054B0360054B4FF08062C3F8CB
:101040008820BFF34F8FBFF36F8F704714260308BC
:1010500000E100E010B50446FFF7ECFF20464FF436
:1010600042612FF006FF204610BD000070B5044617
:1010700025460A4B0C30002660602672667245F8E1
:10108000203B602229461CF0A5F904F54263EE607E
:101090002035AB42FBD1204670BD00BF14260308AB
:1010A000012070470C2070470C2303FB010008301F
:1010B00070470C2303FB0100083070470120704784
:1010C00047F2D850704747F2D85303FB010008306D
:1010D000704747F2D85303FB0100083070470120E6
:1010E00070471020704700EB01100830704700EB8C
:1010F000011008307047084601F0ACB810B5034B3A
:10110000036004461AF0E0FF204610BDCC26030819
:1011100010B50446FFF7F2FF204614212FF0A9FE78
:10112000204610BD10B5034B036004461AF0CCFFF7
:10113000204610BD9826030810B50446FFF7F2FFBD
:10114000204647F2E0512FF094FE204610BD0000EB
:1011500010B5034B036004461AF0B6FF204610BDDD
:101160006426030810B50446FFF7F2FF2046182155
:101170002FF07FFE204610BD10B5094B03600446DA
:1011800000F5EC400C30FFF7B9FF04F12C00FFF73D
:10119000C9FF04F11400FFF7DBFF204610BD00BFBC
:1011A0000027030808B50248FFF7E6FF08BD00BFA7
:1011B000C001002010B50446FFF7DEFF204647F2CD
:1011C0007C712FF056FE204610BD00002DE9F34142
:1011D00000F082FF054600F083FF0024014623460D
:1011E00028462246009422F06FFB244B244A254DCA
:1011F0001A60204614F0DEF9234822F0A7FA2B7873
:10120000BFF35B8FDB0733D428462FF034FE78B36F
:101210001E4C1F4F1F4B236007F1180604F11400EA
:1012200004F12C086060C4F80880E76026611AF0B9
:101230004DFF194B636140461AF048FF174BE362BC
:1012400038461AF043FF164B3B6007F1140014F0C8
:101250003BFA224607F11401304614F02BFA3046CF
:1012600000F0F8FF28462FF012FE0E482FF04EFE39
:101270000D4802B0BDE8F041FFF7FEBAC0170120EB
:10128000DC850020BC0100201C000020C0010020E3
:10129000CC7700200027030864260308982603085B
:1012A000CC260308A5110008608500200148FFF73F
:1012B000FDBA00BF6085002070B5244C244E254B3C
:1012C000254D23603046FFF7D1FE284625F080FBF0
:1012D000224B00224FF48071C3E912122049DC60D6
:1012E000C3E919124FF080715967012183F8781012
:1012F0001C491D4C0B601D491A854FF45070088025
:101300004FF4F071C3E90422C3E90622C3E90822BD
:10131000C3E90E22C3E91022C3E91422C3E916224D
:1013200083F82A20DA621A861A6683F86C201A6714
:10133000C3E9016521800E4C83F8342022700D4CE6
:101340000D4A20800D481A60018070BD3C79002054
:1013500040790020E0210308E0850020608500201E
:1013600001000001441701203A170120381701201D
:101370003C1701203E170120C4220308401701201A
:101380000148FFF757BE00BF40790020024B902272
:1013900083F85A23704700BF00E100E0024B4FF092
:1013A00080629A60704700BF00E100E070477047BC
:1013B00038B504461BF0C7F82368DD6D1FF0B6F999
:1013C00001462046A8472368D3F8805000231A46D8
:1013D0004FF040412046A847012384F84A3038BDE9
:1013E0001BF064B81BF0BDB9044B4FF08062C3F82A
:1013F0008820BFF34F8FBFF36F8F704700E100E08D
:10140000014900201AF07EB9190C000808B56420C3
:1014100018F00AFDFBE7000030B595B0102200215E
:1014200009A82FF0DBFE1422002102A82FF0D6FE1F
:1014300000241F4B00941A6C42F080521A641B6CFB
:1014400003F080530093009B1A4B01941A6842F4F6
:1014500040421A601B6803F4404301930122019B40
:101460004FF48033CDE9072302254FF48003082190
:10147000CDE90D534FF4B473CDE90F1304200623C7
:10148000CDE9120307A8119518F008F817F058FADB
:101490000F23CDE9023504944FF480534FF4A05448
:1014A000052102A8CDE9054317F0CCFD15B030BDEC
:1014B00000380240007000402DE98048B9B015F0B6
:1014C000A1FAFFF7A9FF142200212BA800242FF076
:1014D00085FEC94B02941A6BC84842F010021A6389
:1014E0001A6B02F010020292029A03941A6B42F0F5
:1014F00002021A631A6B02F002020392039A049426
:101500001A6B42F040021A631A6B02F04002049216
:10151000049A05941A6B42F008021A631A6B02F0DF
:1015200008020592059A06941A6B42F480721A63B7
:101530001A6B02F480720692069A07941A6B42F0B4
:1015400020021A631A6B02F020020792079A08948D
:101550001A6B42F480621A631A6B02F4806208927A
:10156000089A09941A6B42F080021A631A6B02F00F
:1015700080020992099A0A941A6B42F004021A63D3
:101580001A6B02F004020A920A9A0B941A6B42F444
:1015900000721A631B6B03F400730B930122082182
:1015A0000B9B16F0C9FB96482246102116F0C4FB8F
:1015B00094482246402116F0BFFB224692488021E3
:1015C00016F0BAFB112608238C482BA901274FF0EF
:1015D0000208CDE92B364FF01009CDE92D4416F065
:1015E0001DFA87482D942BA9CDE92B97CDF8B8800B
:1015F00016F014FA402383482BA98025CDE92B3718
:10160000CDE92D4816F00AFA2BA903237E482E9324
:10161000CDE92B562D9416F001FA7C487C4E7D4B7B
:10162000036015F01BFC7C4BC6E90A44C6E90C4478
:101630003046C6E90034C6E9024415F023FD3946B8
:10164000304615F0D7FD294622466F48734E16F0F6
:1016500073FB142015F002FA29463A466A4816F040
:101660006BFB0A2015F0FAF92422214615A82FF069
:10167000B5FD182221460FA82FF0B0FD34222146D7
:101680002BA82FF0ABFD2C2221461EA82FF0A6FD83
:10169000634B0E940425C6E900340CA97D23304623
:1016A000C6E90257CDE90C3815F06CFE15A9304695
:1016B000CDE91574CDE91744CDE91944CDE91B44B2
:1016C0001D9416F089F81C222123CDE90F230F2148
:1016D0001923CDE9111330460FA9CDE9134416F0B3
:1016E0003EF82946304616F029F842F2107130468D
:1016F00016F07DF92146304615F0E1FD4FF480707B
:101700004FF40073CDE92B034FF4806B4FF400636B
:101710004FF48052CDE92DB34FF40053CDE92F2380
:101720004FF4804A4FF480334FF4003CCDE931A3AD
:101730004FF48023CDE933C34FF4002E4FF0807374
:101740002BA93046CDE935E3CDF8DC8015F0C2FF9A
:10175000C8231EA93046CDE92039CDE92245CDE97F
:101760001E44CDE92484CDE92644289715F040FF96
:101770002146304615F02BFF2A482B490462C0E968
:10178000001440232021C0E904134FF4C071C0E9C4
:101790000614072103234FF48052CDE92C152E9116
:1017A0002BA9CDE92F38C0E9092AC0E90245CDF8B7
:1017B000AC80CDF8C48018F027F815F04BF814F081
:1017C000FBFF342221461EA8184D2FF007FD184AB2
:1017D000AC86C5E90024CA234FF4F172C5E9093289
:1017E000CB2140F2E3122846C5E90B12C5E90244B9
:1017F000C5E904471EE000BF00380240002802404F
:10180000000C024000180240001C0240581A01203F
:10181000501B01200030024000B00240601A01203D
:10182000006C0140901B0120400100A07C1A0120A7
:1018300000680140C5E90678C5F8208085F8364083
:1018400016F048FFFF21C8234FF4F072CDE92314AE
:1018500005204FF04041CDE92601CDE928321EA9EF
:10186000CDE9212828462246CDE91F341E94CDF823
:1018700094B0ADF8A8408DF8AA4016F0F7FF2A689A
:10188000936923F001039361304616F00BF8394653
:10189000404614F053F9282315222146304600947F
:1018A00016F033F82BA93046CDE92B44CDE92D4471
:1018B000CDE92F44CDE93144CDE93344359415F0D9
:1018C00009FF4FF448712246284616F0FDFF2A68AA
:1018D00024489369244D254E3B439361244B046275
:1018E000C0E900371B23C0E9043BC0E90279C0E925
:1018F000064417F03DF914F025FE14F059FD14F0DC
:10190000CFFC1C4B2C622846C5E90063C5E90244A4
:10191000C5E904A4C5E9064416F0F8FB284616F00C
:101920009DFC1548154B84618483C0E90039C0E9EA
:101930000244C0E9044415F0A5F8FEF756FE18F07D
:10194000EBF90F4A0F48214618F012FA0E4B0F4AD6
:10195000186021460E4818F00BFA0E4B186018F06C
:10196000EDF9FEE7C41B0120041A012000540040D9
:10197000001000A0801A0600241B0120006800400F
:101980004C2703080D140008001A0120282703081B
:10199000EF0500084C1B01200268034B9A4201D15D
:1019A00015F04AB8704700BF0010004070470000B3
:1019B00082B00E4B00220092596C41F48041596470
:1019C000596C01F48041009100990192196C41F029
:1019D000805119641B6C03F080530193019B0F210C
:1019E0006FF0010002B015F0E5B900BF0038024009
:1019F00010B5044688B01422002103A82FF0EEFB96
:101A00002268224B9A423ED103F5E8330024009429
:101A10001A6C1F4842F080621A641A6C02F08062ED
:101A20000092009A01941A6C42F000721A641A6CC7
:101A300002F000720192019A02941A6B42F00202C3
:101A40001A631B6B059403F00203029342F2200217
:101A5000029B0223CDE9032303210923CDE90613C9
:101A600003A915F0DBFF22460521402015F0A2F95D
:101A7000402015F0D1F941202246052115F09AF9B0
:101A8000412015F0C9F908B010BD00BF0068004042
:101A9000000402400268094B9A4282B00BD1002335
:101AA0000193074B1A6B42F480521A631B6B03F4C9
:101AB00080530193019B02B0704700BF0030024089
:101AC0000038024007B50F4B02689A4216D1002237
:101AD000A3F5F0430192196B41F4000119631B6BEC
:101AE00003F40003019305215A20019B15F062F9CC
:101AF0005A2003B05DF804EB15F08EB903B05DF821
:101B000004FB00BF00B0024010B5044688B01422A8
:101B1000002103A82FF062FB2268184B9A422AD1B9
:101B200003F54C43002401945A6C154842F00062BE
:101B30005A645A6C02F000620192019A02941A6B84
:101B400042F400721A631B6B03F4007302930422C5
:101B5000029B0223CDE9032303A90D230793CDE9BB
:101B6000054415F05BFF5C202246052115F022F9A3
:101B70005C2015F051F908B010BD00BF006C0140A9
:101B80000024024030B5044689B01422002103A885
:101B90002FF024FB22681A4B9A422FD1194C1A4875
:101BA00000250195236B43F002032363236B03F0AD
:101BB00002030193019B4FF440721223CDE90323EA
:101BC00001210323CDE90513042303A9079315F08D
:101BD00025FF0295236C43F400132364236C03F464
:101BE00000130293029B236A43F400132362236AC7
:101BF00023F400132362642014F030FF09B030BDD9
:101C000000540040003802400004024008B5026859
:101C10000A4B9A4210D10A4A0A48136C23F4001363
:101C200013644FF4807115F0DFFFBDE808400548EC
:101C30004FF4007115F0D8BF08BD00BF005400403C
:101C4000003802400004024010B5044690B03C2227
:101C5000002101A82FF0C2FA2268134B9A4221D129
:101C6000082301934FF4B47305930024062301A8BD
:101C700008930B9417F0B0FA08B1FFF797FE0B4BDF
:101C800000945A6C42F080625A645B6C03F080638B
:101C90000093582000220521009B15F08BF8582056
:101CA00015F0BAF810B010BD0068014000380240CD
:101CB000F0B5044689B01422002103A82FF08EFA53
:101CC0002268244B9A4243D1234B24480024009499
:101CD0009A6B42F002029A639A6B02F0020200923F
:101CE000009A01941A6B42F002021A631A6B02F016
:101CF00002020192019A02941A6B42F020021A63C6
:101D00001B6B059403F02003029302260325029B1C
:101D10000A27402303A9CDE90336CDE9065715F07C
:101D20007DFE4FF49863CDE903360D48092303A9DE
:101D30000793CDE9054515F071FE4FF4407308484F
:101D4000079703A9CDE90336CDE9054515F066FEF1
:101D500009B0F0BD001000A00038024000040240AD
:101D60000014024008B50268094B9A420FD1094A93
:101D70000948936B23F002039363402115F034FF6D
:101D8000BDE8084005484FF4F86115F02DBF08BDC7
:101D9000001000A00038024000040240001402407D
:101DA000F0B5314B1C6887B0002C5BD101221A6062
:101DB0002E4B00949A6B2E4842F001029A639B6B63
:101DC000039403F001030093022703260C25009BD4
:101DD00001A94FF68373CDE90137CDE9046515F00C
:101DE0001DFE48F233132348059501A9CDE90137BB
:101DF000CDE9034615F012FE4CF203731E4805951B
:101E000001A9CDE90137CDE9034615F007FE40F2FF
:101E1000FF631A48059501A9CDE90137CDE90346CD
:101E200015F0FCFD4FF63F031548059501A9CDE9D6
:101E30000137CDE9034615F0F1FD4FF47F4311481A
:101E4000059501A9CDE90137CDE9034615F0E6FD79
:101E50000D230D48059501A9CDE90137CDE90346CC
:101E600015F0DCFD07B0F0BD5C86002000380240B4
:101E70000010024000180240000C02400020024006
:101E800000140240001C02400008024008B5174B35
:101E90001A6852BB01221A60154A1648936B23F048
:101EA000010393634FF6837115F09EFE124848F2CA
:101EB000331115F099FE11484CF2037115F094FEA0
:101EC0000F4840F2FF6115F08FFE0E484FF63F01BC
:101ED00015F08AFE0C484FF47F4115F085FEBDE8F1
:101EE00008400A480D2115F07FBE08BD5886002025
:101EF000003802400010024000180240000C02406E
:101F00000020024000140240001C02400008024071
:101F100030B5014689B00022362014F04BFF362040
:101F200014F07AFF0025154B02951A6C144C42F000
:101F300010021A641B6C03F01003029301A903A89A
:101F4000029B17F02BF917F019F90E4B236040F2A2
:101F5000E733E36040000C4BB0FBF3F00138606006
:101F600020462561A56017F0EDFD20B9204617F049
:101F7000A3FC09B030BD0120FBE700BF00380240E0
:101F8000101C01200010004040420F007047FEE787
:101F9000FEE7FEE7FEE77047014817F0CBBC00BF45
:101FA000101C0120014814F0F5BD00BF241B0120C6
:101FB000FFF7F8BF014816F0FCBB00BF7C1A0120F8
:101FC000014815F08DB800BF501B0120014815F0E5
:101FD0008CBA00BF601A01200120704708B52EF0AE
:101FE000A9FF162303604FF0FF3008BD08B52EF09F
:101FF000A1FF16230360FEE770B50E4614460025C8
:10200000A54201DB204670BDAFF30080705501355D
:10201000F6E770B50E4614460025A54201DB2046C2
:1020200070BD705DAFF300800135F6E74FF0FF3013
:1020300070474FF400534B600020704701207047F9
:102040000020704708B50A4B1968024609B90949CA
:1020500019601868694602448A4206D92EF06AFF60
:102060000C2303604FF0FF3008BD1A60FCE700BF8F
:1020700060860020F81C0120704708B5072921D888
:10208000DFE801F00404080C1014181C13F0E0FA47
:10209000006808BD13F0DCFA4068FAE713F0D8FADC
:1020A0008068F6E713F0D4FAC068F2E713F0D0FACC
:1020B0000069EEE713F0CCFA4069EAE713F0C8FADA
:1020C0008069E6E70020E4E710B5042104462EF01D
:1020D000D0FE204610BD000000487047842703084A
:1020E0000120704713B5002451B1036801948DF8A5
:1020F000034001AA9C680DF10303A04702B010BD84
:102100000846FBE7408970478089704780887047A0
:1021100083798088184480B27047C07900F07F00CE
:102120007047C079C0097047704710B50821044650
:102130002EF09FFE204610BD704700F5967308688C
:10214000496803C3704770477047416070477047E4
:102150000123037270477047704710B4C26841682A
:102160005410034601EB6200D20748BF0A599B682E
:102170005DF8044B48BFD358184743682BB18368B8
:102180002BB9C06800F00100704718467047012065
:10219000704710B50C2104462EF06BFE204610BD92
:1021A00010B5102104462EF064FE204610BD10B577
:1021B0004FF4AC7104462EF05CFE204610BD10B505
:1021C0001EF0B4FA0368BDE810401B6B184710B549
:1021D0000446D0F83C0158B10368DB68984738B131
:1021E000D4F83C0103689B6898470023C4F83C314D
:1021F00010BD0000F8B5044617460E461EF0B6FAAC
:10220000104B0025C4E954760F4E1C60C4E95255AA
:102210000E4B306823600E4BC4E9503503682946E5
:102220009B68C4E94E559847284613F0C3F93368B4
:1022300093F876200AB1D86C00B9986826F0FBF8BC
:102240002046F8BDB01701204417012000310308D3
:10225000E8300308064BC0F848310023C0F84C3181
:1022600000F5A073C0F84401C0F83C31704700BFCE
:102270007D240008064BC0F848310023C0F84C31DB
:1022800000F5A073C0F84401C0F83C31704700BFAE
:10229000E1250008064BC0F848310023C0F84C3156
:1022A00000F5A073C0F84401C0F83C31704700BF8E
:1022B00049270008064BC0F848310023C0F84C31CC
:1022C00000F5A073C0F84401C0F83C31704700BF6E
:1022D000B1280008064BC0F848310023C0F84C3143
:1022E00000F5A073C0F84401C0F83C31704700BF4E
:1022F000192A0008064BC0F848310023C0F84C31B9
:1023000000F5A073C0F84401C0F83C31704700BF2D
:10231000812B0008064BC0F848310023C0F84C312F
:1023200000F5A073C0F84401C0F83C31704700BF0D
:10233000E92C000803685B6A184700002DE9F84F94
:1023400007469068DDF828A0994603681B6A88460E
:102350001446984743F2A363984205D8414B424A3A
:10236000A32142482EF0B4FD606803681B6A9847B9
:102370000F2803D83E4B3C4AA421F2E7E0680368EB
:102380001B6A98470B2803D83A4B374AA521E8E740
:102390001EF0CCF91EF0D0F9D9F8000010B1036896
:1023A000DB689847D9F8000010B103681B689847AC
:1023B000386810B103685B699847D8F8000010B11D
:1023C00003685B689847386810B103681B689847D2
:1023D000D8F8000010B103689B689847E0680021B6
:1023E000FFF7A8FF4FF0000B234B03600546C0F832
:1023F00004B080F808B0A068036859465B6A984743
:10240000064613F0E3F96068036859465B6A98472B
:102410003146044613F06AF9C9F80050C8F8004084
:102420003E60E4B1231DCAF800303368C4F808A048
:102430003046DB68F4639847236820461B6898475A
:10244000294630461FF057FE2B6828461B699847DF
:102450002B6828465B6998472046BDE8F88F2346DD
:10246000E1E700BFA8270308362803083A29030834
:1024700081290308242A03084431030807B5D0F84A
:1024800054310093D0F85021044B00F59C7104485E
:10249000FFF754FF03B05DF804FB00BFA417012051
:1024A000A01701202DE9F84F07469068DDF828A015
:1024B000994603681B6A884614469847972805D8AA
:1024C000414B424AA32142482EF002FD6068036856
:1024D0001B6A98470F2803D83E4B3C4AA421F2E7D9
:1024E000E06803681B6A98470B2803D83A4B374AC1
:1024F000A521E8E71EF01AF91EF01EF9D9F8000030
:1025000010B10368DB689847D9F8000010B1036880
:102510001B689847386810B103685B699847D8F81A
:10252000000010B103685B689847386810B1036811
:102530001B689847D8F8000010B103689B6898475B
:10254000E0680021FFF7F6FE4FF0000B234B03601D
:102550000546C0F804B080F808B0A0680368594682
:102560005B6A9847064613F063F96068036859464A
:102570005B6A98473146044613F040F9C9F80050A9
:10258000C8F800403E60E4B1231DCAF8003033684B
:10259000C4F808A03046DB68F463984723682046F7
:1025A0001B689847294630461FF0A5FD2B68284632
:1025B0001B6998472B6828465B6998472046BDE809
:1025C000F88F2346E1E700BFA8270308C72A0308BE
:1025D0003A29030881290308242A030844310308FF
:1025E00007B5D0F854310093D0F85021044B00F5D2
:1025F0009C710448FFF756FF03B05DF804FB00BF71
:10260000A4170120A01701202DE9F84F0746906874
:10261000DDF828A0994603681B6A88461446984747
:1026200044F60323984205D8414B424AA32142482D
:102630002EF04EFC606803681B6A98470F2803D889
:102640003E4B3C4AA421F2E7E06803681B6A9847C6
:102650000B2803D83A4B374AA521E8E71EF066F865
:102660001EF06AF8D9F8000010B10368DB689847DB
:10267000D9F8000010B103681B689847386810B19A
:1026800003685B699847D8F8000010B103685B687D
:102690009847386810B103681B689847D8F800005D
:1026A00010B103689B689847E0680021FFF742FE7D
:1026B0004FF0000B234B03600546C0F804B080F8D0
:1026C00008B0A068036859465B6A9847064613F04D
:1026D000E1F86068036859465B6A984731460446EA
:1026E00013F0BEF8C9F80050C8F800403E60E4B1ED
:1026F000231DCAF800303368C4F808A03046DB68F0
:10270000F4639847236820461B689847294630465B
:102710001FF0F1FC2B6828461B6998472B68284658
:102720005B6998472046BDE8F88F2346E1E700BF84
:10273000A8270308CB2B03083A290308812903089B
:10274000242A03084431030807B5D0F85431009314
:10275000D0F85021044B00F59C710448FFF754FF5A
:1027600003B05DF804FB00BFA4170120A0170120EF
:102770002DE9F84F07469068DDF828A099460368D0
:102780001B6A88461446984747F2D753984205D8A3
:10279000414B424AA32142482EF09AFB60680368ED
:1027A0001B6A98470F2803D83E4B3C4AA421F2E706
:1027B000E06803681B6A98470B2803D83A4B374AEE
:1027C000A521E8E71DF0B2FF1DF0B6FFD9F8000023
:1027D00010B10368DB689847D9F8000010B10368AE
:1027E0001B689847386810B103685B699847D8F848
:1027F000000010B103685B689847386810B103683F
:102800001B689847D8F8000010B103689B68984788
:10281000E0680021FFF78EFD4FF0000B234B0360B3
:102820000546C0F804B080F808B0A06803685946AF
:102830005B6A9847064613F05FF86068036859467C
:102840005B6A98473146044613F03CF8C9F80050DB
:10285000C8F800403E60E4B1231DCAF80030336878
:10286000C4F808A03046DB68F46398472368204624
:102870001B689847294630461FF03DFC2B682846C8
:102880001B6998472B6828465B6998472046BDE836
:10289000F88F2346E1E700BFA8270308CF2C0308E1
:1028A0003A29030881290308242A0308443103082C
:1028B00007B5D0F854310093D0F85021044B00F5FF
:1028C0009C710448FFF754FF03B05DF804FB00BFA0
:1028D000A4170120A01701202DE9F84F07469068A2
:1028E000DDF828A0994603681B6A88461446984775
:1028F00047F2D753984205D8414B424AA321424858
:102900002EF0E6FA606803681B6A98470F2803D820
:102910003E4B3C4AA421F2E7E06803681B6A9847F3
:102920000B2803D83A4B374AA521E8E71DF0FEFEF5
:102930001DF002FFD9F8000010B10368DB6898476A
:10294000D9F8000010B103681B689847386810B1C7
:1029500003685B699847D8F8000010B103685B68AA
:102960009847386810B103681B689847D8F800008A
:1029700010B103689B689847E0680021FFF7DAFC14
:102980004FF0000B234B03600546C0F804B080F8FD
:1029900008B0A068036859465B6A9847064612F07B
:1029A000DDFF6068036859465B6A98473146044614
:1029B00012F0BAFFC9F80050C8F800403E60E4B118
:1029C000231DCAF800303368C4F808A03046DB681D
:1029D000F4639847236820461B6898472946304689
:1029E0001FF089FB2B6828461B6998472B682846EF
:1029F0005B6998472046BDE8F88F2346E1E700BFB2
:102A0000A8270308D32D03083A29030881290308BE
:102A1000242A03084431030807B5D0F85431009341
:102A2000D0F85021044B00F59C710448FFF754FF87
:102A300003B05DF804FB00BFA4170120A01701201C
:102A40002DE9F84F07469068DDF828A099460368FD
:102A50001B6A88461446984745F2D353984205D8D6
:102A6000414B424AA32142482EF032FA6068036883
:102A70001B6A98470F2803D83E4B3C4AA421F2E733
:102A8000E06803681B6A98470B2803D83A4B374A1B
:102A9000A521E8E71DF04AFE1DF04EFED9F8000022
:102AA00010B10368DB689847D9F8000010B10368DB
:102AB0001B689847386810B103685B699847D8F875
:102AC000000010B103685B689847386810B103686C
:102AD0001B689847D8F8000010B103689B689847B6
:102AE000E0680021FFF726FC4FF0000B234B03604A
:102AF0000546C0F804B080F808B0A06803685946DD
:102B00005B6A9847064612F05BFF606803685946A7
:102B10005B6A98473146044612F038FFC9F8005006
:102B2000C8F800403E60E4B1231DCAF800303368A5
:102B3000C4F808A03046DB68F46398472368204651
:102B40001B689847294630461FF0D5FA2B6828465F
:102B50001B6998472B6828465B6998472046BDE863
:102B6000F88F2346E1E700BFA8270308D72E030804
:102B70003A29030881290308242A03084431030859
:102B800007B5D0F854310093D0F85021044B00F52C
:102B90009C710448FFF754FF03B05DF804FB00BFCD
:102BA000A4170120A01701202DE9F84F07469068CF
:102BB000DDF828A0994603681B6A884614469847A2
:102BC00044F2B753984205D8414B424AA3214248A8
:102BD0002EF07EF9606803681B6A98470F2803D8B7
:102BE0003E4B3C4AA421F2E7E06803681B6A984721
:102BF0000B2803D83A4B374AA521E8E71DF096FD8C
:102C00001DF09AFDD9F8000010B10368DB68984701
:102C1000D9F8000010B103681B689847386810B1F4
:102C200003685B699847D8F8000010B103685B68D7
:102C30009847386810B103681B689847D8F80000B7
:102C400010B103689B689847E0680021FFF772FBAA
:102C50004FF0000B234B03600546C0F804B080F82A
:102C600008B0A068036859465B6A9847064612F0A8
:102C7000D9FE6068036859465B6A98473146044646
:102C800012F0B6FEC9F80050C8F800403E60E4B14A
:102C9000231DCAF800303368C4F808A03046DB684A
:102CA000F4639847236820461B68984729463046B6
:102CB0001FF021FA2B6828461B6998472B68284685
:102CC0005B6998472046BDE8F88F2346E1E700BFDF
:102CD000A8270308DB2F03083A29030881290308E2
:102CE000242A03084431030807B5D0F8543100936F
:102CF000D0F85021044B00F59C710448FFF754FFB5
:102D000003B05DF804FB00BFA4170120A017012049
:102D1000006A7047406A704770478B8880690A680C
:102D2000DB0A50F823001044704710B5C2B1137B82
:102D3000B3B1547BD27A240204F4E0641443C26930
:102D400098B202EB840213888B4202D192F90200FE
:102D500010BD05D8013880B204320028F3D1F7E75E
:102D60000020F5E710B5282104462EF082F8204611
:102D700010BD000030B589B00446BDF8505006952E
:102D8000BDF84C5005959DF8405004959DF83C5079
:102D900003959DF8385002959DF8345001959DF8A3
:102DA000305000951EF0FAFC064B2360119BA36186
:102DB000129BE361159B2362169B6362204609B058
:102DC00030BD00BF68310308002070478180704724
:102DD000C1807047018170474181704770477047DB
:102DE00070477047704710B4C4880368121B84880A
:102DF0001B6D091B12B25DF8044B09B218474FF660
:102E0000FF7383814FF0FF3303621368C361106067
:102E100070477047704770477047704790F825209B
:102E20001AB190F8242002B11860704770477047BB
:102E300010B543F2A46104462EF01BF8204610BDE5
:102E4000012908B505D11DF071FCBDE80840FFF768
:102E500011BA08BD074A02600022C0E90122C0E998
:102E60000322C0E90522C0E907224FF48072828460
:102E7000704700BF1C50030870B503680446DB6A46
:102E8000154698472368294620461B6BBDE87040CD
:102E9000184770B504461D46BDF91060FFF7ECFFFA
:102EA0002368294620465B6B9847236831462046B5
:102EB0009B6BBDE87040184710B5262204460021E0
:102EC0002EF08CF92046FFF7C5FF044B2360FF234B
:102ED00084F826300023A362204610BD1C4C030852
:102EE00010B52622044600212EF078F92046FFF77F
:102EF000B1FF074B2360074BA3624FF6FF73A38517
:102F00004FF47F020023C4E90C322387204610BD12
:102F1000744B0308A027030870B5FF22134E0272FA
:102F2000134A0260326892F876100023C0E9033336
:102F30000446436009B1D06C00B9906803685B6ACD
:102F400098473368B0FA80F5D86C6D0928B10368EA
:102F50005B6A9847002808BF01252DB9054B064A32
:102F600006482C212DF0B4FF204670BD44170120E7
:102F700068470308B8310308163203084F320308C4
:102F80002DE9F04F2DED108B044693B01EF036FF67
:102F900022460025B84BE56342F8403B104609EE57
:102FA000902AFFF789FF04F16C0318460993FFF795
:102FB00083FF04F19803DFF8E482B04FDFF8E0927A
:102FC00004F1C40B184608EE103AFFF743FFC4F8AB
:102FD00098805846C4F8C050FFF76EFF04F1F00324
:102FE00018460AEE103AFFF77BFF04F59873C4F811
:102FF000F0701846C4F82C510AEE903AFFF770FFB3
:1030000004F5B673184604F5CC7608EE903AFFF74F
:1030100021FFC4F86C81C4F894513046FFF71AFFC1
:1030200004F5E273C4F898811846C4F8C0510A93B5
:10303000FFF742FF04F5F87318460BEE103A1AF04A
:1030400079FB04F50F7318460F93FFF765FF04F53E
:103050001573C4F83C921846C4F850520BEE903ADF
:103060001AF068FB04F5287318460E93FFF754FF17
:1030700004F52E73C4F8A0921846C4F8B4520CEEAE
:10308000103A1AF057FB04F5417318460D93FFF7F9
:1030900043FF04F54773C4F804931846C4F8185363
:1030A0000CEE903AFFF71CFF04F5567318460DEE30
:1030B000103AFFF715FF04F5657318460DEE903AC8
:1030C000FFF70EFF04F57473184609EE103AFFF788
:1030D000C1FE04F57F73C4F8D0831846C4F8F853D2
:1030E0000B93FFF7E9FE04F5856318460EEE103AE0
:1030F000FFF7F6FE04F26443184604F2A4490EEE0C
:10310000903AFFF7EDFEC4F86474C4F8A054484642
:10311000FFF7A0FE04F59A63C4F8A4841846C4F827
:10312000CC540C93FFF7C8FE04F2FC4318460FEE94
:10313000103AFFF7D5FE04F5A76318460FEE903A54
:10314000FFF7CEFE04F27453184604F5B6680293F6
:10315000FFF7C6FE4046FFF7C3FE04F2EC531846E5
:103160000393FFF7BDFE04F22C63C4F8EC75184618
:10317000C4F828560493FFF7B3FE04F26C63C4F856
:103180002C761846C4F868560593FFF7A9FE04F29A
:10319000AC63C4F86C761846C4F8A8560693FFF7DB
:1031A0009FFE04F5DD6318460793FFF799FE04F2CE
:1031B0002473184608934FF4F077FFF791FE42F618
:1031C000E06104F2C4701BF093FD4FF07F4A19EEEA
:1031D000900A4FF448732A4629460097FFF759FE94
:1031E0000998C4F868A04FF448732A462946009706
:1031F000FFF74FFE224BC4F8943018EE100A4FF43C
:10320000E1732A4629460097FFF743FE40F2B913BF
:103210001422584600930D2140F2B513FFF739FEF2
:103220004FF0FF33594618EE100AC4F8EC3018F08E
:10323000F7FF40F2611300931AEE100A4FF4D173B6
:103240001F221421FFF725FE0E4BC4F820A11B6896
:10325000A4F8245104F5EC6B2BB90B4B0B4AAE21AF
:103260000B482DF035FE0B4B1B88012B1AD80A4B4F
:10327000064AAF21F4E700BFC8330308804C0308B7
:10328000231107FFB4170120B1320308F3320308FA
:1032900021330308B817012068330308DC3E030814
:1032A00048470308EA4B0121186812F0BFF9E94AC0
:1032B00003460A21584620F03BFA1AEE100AC4F8D9
:1032C0002CB110A9DFF894B3CDF840B0ADF844505C
:1032D0001BF039FB1AEE101A18EE100A18F0A0FFB6
:1032E00040F251121AEE900AB021FFF7C5FD0223F9
:1032F0001AEE900A10A9C4F860A1A4F86451ADF8C0
:103300004430CDF840B01BF01EFB1AEE901A18EEB8
:10331000100A18F085FF18EE900A00974FF4AF736B
:103320005D272A464FF4E171FFF7B3FD3046009761
:103330004FF49C7363221321FFF7ABFD4FF49C7392
:103340000A9800972A462946FFF7A3FD4FF0FF325F
:1033500030460A99C4F8EC2118F062FF33223A2370
:103360001BEE100A00920F212422FFF792FD4FF46A
:1033700034524FF44877C4F83022B74AC4F8502288
:10338000C4E988770F99C4F828721BEE100AC4F8B4
:103390003452C4F82C521AF04FFD30461BEE101A6E
:1033A00018F03EFF33213A231BEE900A00912422AD
:1033B0007921FFF76EFDA84AC4F8B4224FF43451C6
:1033C000C4E9A1771BEE900AC4F88C72C4F8941279
:1033D000C4F898520E99C4F890521AF02DFD304658
:1033E0001BEE901A18F01CFF33213A231CEE100A32
:1033F00000912422F621FFF74CFD974AC4F81823C8
:103400004FF43451C4E9BA771CEE100AC4F8F072D4
:10341000C4F8F812C4F8FC520D99C4F8F4521AF02A
:103420000BFD30461CEE101A18F0FAFE2A461CEE70
:10343000900A5F21FFF720FD05231CEE900A10A9DA
:10344000C4F84CA3A4F85053ADF84430CDF840B0C4
:103450001BF079FA30461CEE901A18F0E1FE2A466D
:103460001DEE100A2946FFF707FD04231DEE100A82
:1034700010A9C4F888A3A4F88C53ADF84430CDF853
:1034800040B01BF060FA30461DEE101A18F0C8FE6E
:103490002A461DEE900AE821FFF7EEFC06231DEEFA
:1034A000900A10A9C4F8C4A3A4F8C853ADF84430D6
:1034B000CDF840B01BF047FA30461DEE901A18F0D8
:1034C000AFFE314618EE900A412618F0A9FE19EE1B
:1034D000100A00964FF49C7314221321FFF7D9FCB5
:1034E0004FF49C730B9800962A462946FFF7D1FCAF
:1034F0004FF0FF320B99C4F8242419EE100A18F08B
:103500008FFE0B221EEE100A2946FFF7B5FC07239B
:103510001EEE100A10A9C4F858A4A4F85C54ADF823
:103520004430CDF840B01BF00EFA1EEE101A19EE22
:10353000100A18F075FE24230B221EEE900A009349
:103540006721C923FFF7A5FC04F274730826C4F8A9
:10355000A0341EEE900A10A9C4F894A4A4F89854BC
:10356000A4F87457ADF84460CDF840B01BF0EBF907
:103570001EEE901A19EE100A18F052FEF92719EEF5
:10358000101A18EE900A18F04BFE00974FF49C7337
:10359000D52213214846FFF77CFC4FF49C730C980E
:1035A00000972A462946FFF774FC4FF0FF320C992A
:1035B000C4F8F824484618F033FE2A461FEE100AD5
:1035C0008021FFF759FC03231FEE100A10A9C4F84D
:1035D0002CA5A4F83055ADF84430CDF840B01BF020
:1035E000B2F91FEE101A484618F01AFE3E22314674
:1035F0001FEE900AFFF740FC09231FEE900A10A966
:10360000C4F868A5A4F86C55ADF84430CDF840B0C6
:103610001BF099F91FEE901A484618F001FE7C2223
:1036200031460298FFF728FC0A270298C4F8A4A59F
:1036300010A9A4F8A855CDF840B0ADF844701BF01F
:1036400082F90299484618F0EBFDBB22314607E0AB
:10365000C0170120BA330308777777FFA027030844
:103660004046FFF709FC0B23404610A9C4F8E0A52B
:10367000A4F8E455ADF84430CDF840B02F261BF047
:1036800062F94146484618F0CBFD2B233E220398B1
:103690000096CD21FFF7FDFB7B4AC4F81CA61368FA
:1036A000A4F8205604F5F168002B3FF4D6AD774915
:1036B0000B880D2B7FF6DBAD754B0D21186811F0D3
:1036C000B5FF744A03463946404620F031F810A849
:1036D0000C230146C4F828860398ADF84430CDF891
:1036E00040B01BF030F90399484618F099FD2B23A0
:1036F0007C2204980096CD21FFF7CBFB624AC4F8E8
:103700005CA61368A4F8605604F29C78002B3FF482
:10371000A4AD5E490B880F2B7FF6A9AD5C4B0F2142
:10372000186811F083FF5B4A0346394640461FF094
:10373000FFFF10A80E230146C4F868860498ADF870
:103740004430CDF840B01BF0FEF80499484618F01C
:1037500067FD2B23BB2205980096CD21FFF799FB2F
:10376000494AC4F89CA61368A4F8A05604F5F66864
:10377000002B3FF472AD45490B88112B7FF677ADD6
:10378000434B1121186811F051FF424A0346394654
:1037900040461FF0CDFF10230598C4F8A88610A955
:1037A000ADF84430CDF840B01BF0CDF8059948464F
:1037B00018F036FD3E22069800961C234FF48671C1
:1037C000FFF767FB12230698C4F8DCA610A9A4F83B
:1037D000E056ADF84430CDF840B01BF0B4F806998F
:1037E000484618F01DFD7C22079800961C234FF4D4
:1037F0008671FFF74EFB13230798C4F818A710A98A
:10380000A4F81C57ADF84430CDF840B01BF09BF83D
:103810000799484618F004FDBB2208980096232318
:1038200040F20511FFF735FB14230898C4F854A79C
:1038300010A9A4F85857ADF84430CDF840B01BF0AB
:1038400082F80899484618F0EBFC18EE900A4946B1
:1038500018F0E6FC201D19EE901A029018F0E0FC1A
:103860000999029818F0DCFC18EE101A029818F06A
:10387000D7FC029818EE901A18F0D2FC204613B02C
:10388000BDEC108BBDE8F08FB4170120B8170120F4
:10389000C0170120BA3303087047704710B598214C
:1038A00004462DF0E6FA204610BD012908B505D1E1
:1038B0001CF03CFFBDE80840FEF7ECBC08BD70B54D
:1038C000036804465B6B15469847236829462046E3
:1038D0009B6BBDE870401847F7B5044625461EF0BF
:1038E0008DFA00261A4BE66345F8403B04F16C075D
:1038F0002846FFF7E1FA3846FFF7DEFA3146284658
:10390000FFF764FA31462846FFF762FA28464FF47B
:10391000F0724FF44871FFF7D2FF4FF07F434FF43E
:10392000F072A366384626674FF44871FFF7C7FF69
:10393000084BC4F89430201D2946019018F070FC03
:103940000198394618F06CFC204603B0F0BD00BF6A
:10395000FC330308231107FF7047704710B544F686
:10396000042104462DF085FA204610BD012908B532
:1039700005D11CF0DBFEBDE80840FEF79BBC08BD8E
:1039800010B50446FFF766FA024B23600023A362DA
:10399000204610BDDC3E030810B50446FFF78CFA44
:1039A000034B23600023E3622386204610BD00BF43
:1039B000284D030810B50446FFF792FA024B236026
:1039C0000023E363204610BD804C030810B4046C50
:1039D000B4EB411F4FEA411204D05DF8044B02647E
:1039E0001AF000BC5DF8044B704700002DE9F04F61
:1039F0002DED108B0446E5B01EF000FA224600259E
:103A0000DD4BE56342F8403B10464492FFF754FA21
:103A100004F16C0318464593FFF74EFA04F198033E
:103A200018464693FFF7B8FF04F1CC0318461A93E3
:103A3000FFF756FA04F5847318464793FFF7ACFF77
:103A400004F59E7318461B93FFF74AFA04F5BC73FE
:103A500018461C93FFF744FA04F5DA7318461D93D1
:103A6000FFF7A8FF04F5FA7318461E93FFF738FA1C
:103A700004F50C7318461F93FFF79CFF04F51C73A5
:103A800018462093FFF72CFA04F52B73184608EE1E
:103A9000103AFFF775FF04F5367318464893FFF7A1
:103AA0007BFF04F5437318464993FFF775FF04F550
:103AB000507318464A93FFF76FFF04F55D7318467D
:103AC0004B93FFF769FF04F56A73184604F577789E
:103AD0004C93FFF761FF4046FFF752FF04F5816307
:103AE00018464D93FFF7E8F904F234431846219342
:103AF000FFF7F6F904F58E631846229319F01AFEC3
:103B000004F2BC4318469D4E5993FFF705FA04F2A0
:103B1000D443C4F8BC641846C4F8D0541093FFF7DB
:103B200049FF04F2145318462393FFF7D9F904F51B
:103B3000AA6318462493FFF73DFF04F5B2631846C5
:103B400004F2CC5A2593FFF7CBF95046FFF718FF44
:103B500004F5BF6318464E93FFF7AEF904F22463F1
:103B60001846269319F0E6FD04F5CE6318465893DF
:103B7000FFF7D2F904F5D163C4F870661846C4F8AB
:103B800084562793FFF7ACF904F2C46318461193E7
:103B9000FFF710FF04F2047318462893FFF70AFF9B
:103BA00004F2447318462993FFF79AF904F5F06379
:103BB00018462A93FFF794F904F2BC7318460AEEEC
:103BC000103AFFF7DDFE04F5FD6318464F93FFF74B
:103BD00073F904F6140318462B93FFF781F904F5E3
:103BE000056318462C9319F0A5FD04F69C031846AE
:103BF0005793FFF791F904F6B403C4F89C6818468C
:103C0000C4F8B0581293FFF7D5FE04F6F403184633
:103C10002D93FFF7CFFE04F6341318462E93FFF7CB
:103C20005FF904F51763184604F6AC1B2F93FFF7F2
:103C300057F95846FFF7A4FE04F6D81318465093D8
:103C4000FFF73AF904F6042318463093FFF748F9D2
:103C500004F524631846319319F06CFD04F68C23A7
:103C600018465693FFF758F904F6A423C4F88C6A53
:103C70001846C4F8A05A3293FFF732F904F52E63C0
:103C800018463393FFF72CF904F61C331846349387
:103C9000FFF790FE04F65C3318461393FFF78AFE95
:103CA00004F69C3318460AEE903AFFF769FE04F6D4
:103CB000C83318465193FFF7FFF804F6F43318465B
:103CC0003593FFF70DF904F543631846369319F061
:103CD00031FD04F67C4318465593FFF71DF904F6B1
:103CE0009443C4F87C6C1846C4F8905C3793FFF793
:103CF000F7F804F54D6318463893FFF7F1F804F62A
:103D00000C5318463993FFF755FE04F64C531846EA
:103D10001493FFF74FFE04F68C5318460BEE103A3F
:103D2000FFF72EFE04F6B85318465293FFF7C4F877
:103D300004F6E45318463A93FFF7D2F804F56263A9
:103D400018463B9319F0F6FC04F66C63184654933E
:103D5000FFF7E2F804F68463C4F86C6E1846C4F802
:103D6000805E3C93FFF726FE04F6C46318463D933D
:103D7000FFF7B6F804E000BF3034030848470308F3
:103D800004F5706318463E93FFF7AAF804F63C73F7
:103D900018461593FFF70EFE04F67C7318460BEEDB
:103DA000903AFFF7EDFD04F6A87318465393FFF71A
:103DB00083F804F6D47318463F93FFF791F804F59F
:103DC0008053103341F25C071846049319F0B2FC9B
:103DD000E31918466193FFF79FF841F27003E6512B
:103DE000E55004F58353143318460DEE903AFFF76F
:103DF000E1FD04F58553143318460EEE903AFFF7B3
:103E00006FF804F58753103318460FEE103AFFF79A
:103E100067F804F589530C3318460FEE903AFFF714
:103E2000C9FD04F58B530C33184608EE903AFFF7A2
:103E3000A7FD04F58C53183318461693FFF73CF88A
:103E400004F58E53043318460593FFF749F804F53B
:103E5000905341F24C271846409319F06BFCE3193C
:103E600018466093FFF758F804F59353E65104336E
:103E700043F8045C18460693FFF79CFD04F5955340
:103E8000043318460793FFF72BF804F597531846A9
:103E90004193FFF725F804F598531C331846029315
:103EA000FFF788FD04F59A531C33184609EE103AC3
:103EB000FFF766FD04F59C53083318461793FEF789
:103EC000FBFF04F59D53143318460893FFF708F8D9
:103ED00004F59F53103341F23C471846099319F0FB
:103EE00029FCE31918465F93FFF716F841F2504397
:103EF000E651E55004F5A253143318460A93FEF731
:103F0000EFFF04F5A453103318460393FFF752FD57
:103F100004F5A653103318460B93FEF7E1FF04F5A2
:103F2000A8530C3318460C93FFF744FD04F5AA532D
:103F30000C33184609EE903AFFF722FD04F5AB5317
:103F4000183318461893FEF7B7FF04F5AD53043342
:103F500018460D93FEF7C4FF04F5AF5341F22C67EA
:103F60001846429319F0E6FBE31918465E93FEF7F4
:103F7000D3FF04F5B253E651043343F8045C18460A
:103F80000E93FFF717FD04F5B453043318460F934F
:103F9000FEF7A6FF04F5B65318461993FFF70AFD7E
:103FA00004F5B85318464393FEF79AFF04F5B95346
:103FB0001C3341F2B07718460CEE103A1AF0F2F8C2
:103FC000E31918465D93FEF7A7FF41F2C473E6516B
:103FD000E55004F5BE53083341F63C0718460CEE95
:103FE000903A1AF0DFF8E31918465C93FEF794FF55
:103FF00041F65003E651E55004F5C253143341F63F
:10400000C80718460DEE103A1AF0CCF8E319184616
:104010005B93FEF781FF41F6DC03E651E55004F5C2
:10402000C75341F6541718460EEE103A1AF0BAF874
:10403000E31918465A93FEF76FFF41F6681304F52B
:10404000D950E65142F6E061E55004301AF050FED6
:104050004FF4F073449800932A464FF4487329466E
:10406000FEF717FF4FF07F43A3664FF4F0734598B8
:1040700000932A464FF448732946FEF70AFFA7F536
:1040800079076FF403631F445423469800932A462C
:10409000EF232946C4F89470FEF7FBFE4FF00509A4
:1040A0004FF0FF3313221A98C4F8C430A4F8C89014
:1040B0002E21C4F8C070FEF7DFFE4FF0FF33344E00
:1040C0001A98C4F8FC3062A91523A4F80051ADF881
:1040D0008C3162961AF037FC602347980093422295
:1040E00040F2052340F21B11FEF7D3FE4FF0FF33E1
:1040F0005B221B98C4F83431A4F838914FF49571C1
:10410000DFF8AC90C4F83071FEF7B6FE16231B98AA
:10411000C4F86C9162A9A4F87051ADF88C31629624
:104120001AF011FC5B221C9840F21D21FEF7A4FE40
:1041300017231C98C4F8A89162A9A4F8AC51ADF853
:104140008C3162961AF0FFFB2F2300931D982323D6
:104150005B224FF4E671FEF79CFE0E4BC4F8E4318F
:104160000D4BA4F8E8511B6804F5CB5909F10C0973
:104170002BB90A4B0A4AAE210A482CF0A9FE0A4B79
:104180001B88192B16D8094B054AAF21F4E700BF4D
:10419000A0270308FAFAFCFFB4170120B132030884
:1041A000F332030821330308B817012068330308EA
:1041B000F2F2FAFFD24B1921186811F037FAD14AFE
:1041C00003460A2148461FF0B3FA4FF018011D9824
:1041D000C4F8F091ADF88C1162A962961AF0B3FBA5
:1041E0005B221E9840F2EF11FEF746FE4FF0FF31C2
:1041F0001A231E98C4F82412A4F8285262A9ADF814
:104200008C3162961AF09FFB2F210091242340F2FB
:10421000B9211F985B22FEF73CFE4FF0FF31C4F836
:104220006012B949A4F864520B6804F5CC59002B0C
:104230009FD0B64B1B881C2BA5D9B14A1C211068F6
:1042400011F0F4F9AF4A03460A2148461FF070FA0C
:1042500062A81B230146C4F86C921F98ADF88C31FC
:1042600062961AF070FB5B22209840F2DD21FEF787
:1042700003FE4FF0FF30C4F8A00262A84FF4977914
:104280001D230146A4F8A4522098ADF88C31629603
:104290001AF059FB18EE100ACDF800904FF448734D
:1042A000B2222946FEF7F5FDA0232A464898CDF80C
:1042B00000902946FEF7EDFD4FF00500C4E9C077F8
:1042C0004899A4F8080318EE100A17F0A9FFA023D4
:1042D00019462A464998CDF80090FEF7DAFD4FF0CE
:1042E0000500C4E9CD774999A4F83C0318EE100AFB
:1042F00017F096FFA0232A464A98CDF800904FF475
:10430000A071FEF7C6FD4FF00500C4E9DA774A99BF
:10431000A4F8700318EE100A17F082FFA0232A46B3
:104320004B98CDF800904FF4F071FEF7B2FD4FF0CE
:104330000500C4E9E7774B99A4F8A40318EE100A26
:1043400017F06EFFA0232A464C98CDF800904FF44A
:104350002071FEF79EFD4FF00500C4E9F4774C99FB
:10436000A4F8D80318EE100A17F05AFF972000900F
:10437000A0232A4629464046FEF78BFD6C20962353
:104380002B22009005214D98FEF783FD4FF0FF3062
:104390004D99C4F83004404617F042FF0E22219890
:1043A0001821FEF769FD4FF0FF30C4F8640462A8DD
:1043B0001E230146A4F868542198ADF88C314FF0C3
:1043C000500962961AF0BFFA2199404617F028FF6B
:1043D0004B466FF00F022298CDF800904F21FEF768
:1043E00058FD4FF4F070C4F8A8044FF434504FF463
:1043F000A067C4F8B0044FF0FF305999C4F8D00456
:10440000C4F8A0742298C4F8A474C4F8B454C4F8CE
:10441000AC5419F011FD2299404617F001FF109895
:1044200021212C22FEF728FD3749A4F808554FF02A
:104430007F40C4F804050B6804F5CC50143021907B
:10444000002B3FF496AE314B1B88292B7FF69BAE99
:104450002B4A2921106811F0E9F82A4A03460A215B
:1044600021981FF065F92198C4F8100510981AF0EA
:104470004DFA62A8282301461098ADF88C31629657
:104480001AF061FA1099404617F0CAFE612223988B
:104490005C21FEF7F1FC4FF07F40C4F8440562A8B0
:1044A0002D230146A4F848552398ADF88C31629627
:1044B0001AF049FA2399404617F0B2FE2F200090D7
:1044C0002C23249826216122FEF7E3FC0E49A4F850
:1044D00084554FF07F40C4F880050B6804F5CD503B
:1044E00008301090002B3FF444AE084B1B882B2B58
:1044F0007FF649AE024A2B21106811F097F807E0C9
:10450000C0170120BA330308B4170120B8170120DF
:10451000D24A03460A2110981FF00AF91098C4F8ED
:104520008C0562A82A2301462498ADF88C31629646
:104530001AF009FA2499404617F072FE2C222598A9
:104540006021FEF799FC4FF07F40C4F8C00562A8D7
:1045500033230146A4F8C4552598ADF88C316296F2
:104560001AF0F1F92599404617F05AFE18EE100A94
:10457000414617F055FE9720024629460090A02399
:104580005046FEF786FC6C209623242200900521DD
:104590004E98FEF77EFC4FF0FF304E99C4F820068F
:1045A000504617F03DFE4B466FF014022698CDF8AA
:1045B00000904F21FEF76DFC4FF4F070C4F85C06DC
:1045C0004FF43450C4F864064FF0FF305899C4F8E3
:1045D0006856C4F86056C4F88406C4F85476269821
:1045E000C4F8587619F028FC2699504617F018FEA2
:1045F000292307222798009306216523FEF749FC0B
:104600004FF0FF30C4F8B80662A81F230146A4F893
:10461000BC562798ADF88C3162961AF094F9279918
:10462000504617F0FDFD119821212422FEF724FCAD
:104630008B49A4F8F8560B684FF07F4004F5CD5530
:10464000C4F8F4061C35002B3FF493AD854B1B8852
:104650002F2B7FF698AD844A844E1068DFF80092C5
:104660002F2110F0E3FF7D4A03460A2128461FF060
:104670005FF81198C4F800571AF048F94FF02E016E
:104680001198ADF88C1162A962961AF05CF9119933
:10469000504617F0C5FD2F2100912C2328985A224F
:1046A0002621FEF7F6FBD9F800304FF07F470025B2
:1046B00004F5CE58C4F83477A4F8385708F1100838
:1046C000002B3FF456AD674B1B88312B7FF65BAD5B
:1046D000654A3121106810F0A9FF604A03460A219B
:1046E00040461FF025F830232898C4F8408762A977
:1046F000ADF88C3162961AF026F95046289917F0D9
:104700008FFD5A2229985C21FEF7B6FB32232998A7
:10471000C4F8747762A9A4F87857ADF88C31629622
:104720001AF011F95046299917F07AFD24222A9897
:104730006021FEF7A1FB4FF02C012A98ADF88C11F7
:10474000C4F8B07762A9A4F8B45762961AF0FBF8DF
:1047500050462A9917F064FD514618EE100A17F0DA
:104760005FFD9721A0230A461AEE100A0091194610
:10477000FEF78FFB6C21962324224FF0FF384F98D1
:1047800000910521FEF785FB4F99C4F810881AEEB9
:10479000100A17F045FD292107222B980091652367
:1047A0000621FEF776FB20232B98C4F8448862A9E3
:1047B000A4F84858ADF88C3162961AF0C4F82B99D9
:1047C0001AEE100A17F02CFD50210B466FF0140260
:1047D0002C9800914F21FEF75CFB4FF4A061C4F8C8
:1047E0008018C4F884184FF4F071C4F888184FF496
:1047F00034512C98C4F89018C4F894585799C4F8B8
:104800008C58C4F8B08819F017FB2C991AEE100ACE
:1048100017F006FD129824222921FEF72DFBD9F866
:104820000030C4F8E47804F5CF5AA4F8E8580AF147
:10483000040A002B3FF49DAC0A4B1B883D2B7FF6EE
:10484000A2AC094A3D21106810F0F0FE034A03466D
:104850000A2150461EF06CFF129809E0BA33030893
:10486000B4170120B8170120C0170120A0270308A2
:10487000C4F8F0A81AF04AF83C231298ADF88C312D
:1048800062A962961AF05FF812991AEE100A17F0F0
:10489000C7FC2F2100912C232D985A222E21FEF7A0
:1048A000F8FAD9F80030C4F8247904F5CF5AA4F8FE
:1048B00028590AF1180A002B3FF45BACD34B1B8834
:1048C0003B2B7FF660ACD24A3B21106810F0AEFE65
:1048D000D04A03460A2150461EF02AFF3A232D985B
:1048E000C4F830A962A9ADF88C3162961AF02BF8A1
:1048F0002D991AEE100A17F093FC5A222E98602177
:10490000FEF7BAFA3F232E98C4F8647962A9A4F896
:104910006859ADF88C3162961AF015F82E991AEE96
:10492000100A17F07DFC24222F986921FEF7A4FAC3
:104930003E232F98C4F8A07962A9A4F8A459ADF831
:104940008C31629619F0FFFF2F991AEE100A17F0BA
:1049500067FC1AEE101A18EE100A17F061FC972186
:104960000091A02307229F215846FEF792FA6C215E
:1049700096232422509800910621FEF78AFA509936
:10498000C4F8008A584617F04BFC292107223098BA
:10499000009165230621FEF77CFA21233098C4F8A4
:1049A000348A62A9A4F8385AADF88C31629619F0AD
:1049B000CAFF3099584617F033FC50210B466FF070
:1049C000160231980091FEF764FA4FF4A061C4F822
:1049D000701AC4F8741A4FF4F071C4F8781A4FF4CE
:1049E00034513198C4F8801AC4F8A08A5699C4F892
:1049F000845AC4F87C5A19F01FFA3199584617F0B6
:104A00000FFC5A2232986121FEF736FA3923329888
:104A1000C4F8D47A62A9A4F8D85AADF88C31629659
:104A200019F091FF3299584617F0FAFB2522339876
:104A30006A21FEF721FA38233398C4F8107B62A963
:104A4000A4F8145BADF88C31629619F07CFF3399B1
:104A5000584617F0E5FB2F2100912C2334985A2259
:104A60002A21FEF716FAD9F80030C4F84C7B04F579
:104A7000D058A4F8505B08F10C08002B3FF479AB38
:104A8000624B1B88372B7FF67EAB614A372110685B
:104A900010F0CCFD5F4A03460A2140461EF048FE56
:104AA00036233498C4F8588B62A9ADF88C316296DD
:104AB00019F049FF3499584617F0B2FB1398252294
:104AC0002A21FEF7D9F9D9F80030A4F8905BC4F890
:104AD0008C7B04F5D155002B3FF44BAB4B4B1B8823
:104AE000352B7FF650AB4A4ADFF82CA110683521F0
:104AF00010F09CFD474A03460A2128461EF018FE86
:104B00001398C4F8985B19F001FF34231398ADF89B
:104B10008C3162A9629619F016FF5846139917F066
:104B20007FFB594618EE100A17F07AFB97211AEE10
:104B3000900A0091A02307224FF4A071FEF7A9F973
:104B40006C21962324224FF0FF38519800910521C3
:104B5000FEF79FF95199C4F8F08B1AEE900A17F0FE
:104B60005FFB292100250722359800916523062146
:104B7000FEF78FF922233598C4F8248C62A9A4F893
:104B8000285CADF88C314FF05009629619F0DBFECD
:104B900035991AEE900A17F043FB4B466FF0160258
:104BA0003698CDF800905121FEF773F94FF4A061CB
:104BB000C4F8601CC4F8641C4FF4F071C4F8681C9D
:104BC0004FF434513698C4F8701CC4F8745C55998D
:104BD000C4F86C5CC4F8908C19F02EF936991AEE72
:104BE000900A17F01DFB5A2211463798FEF744F938
:104BF00045233798C4F8C47C62A9A4F8C85CADF812
:104C00008C31629619F09FFE08E000BFB8170120B2
:104C1000C0170120BA330308B417012037991AEEE0
:104C2000900A17F0FDFA242238986A21FEF724F939
:104C300044233898C4F8007D62A9A4F8045DADF857
:104C40008C31629619F07FFE38991AEE900A17F0AF
:104C5000E7FA2C232F210091399819465A22FEF7A2
:104C600018F9DAF80030C4F83C7D04F5D15BA4F8FB
:104C7000405D0BF1140B002B3FF47BAAD24B1B8839
:104C8000432B7FF680AAD14A4321106810F0CEFC56
:104C9000CF4A03460A2158461EF04AFD422339985E
:104CA000C4F848BD62A9ADF88C31629619F04BFE8C
:104CB00039991AEE900A17F0B3FA14982422272192
:104CC000FEF7DAF8DAF80030C4F87C7D04F5D25B40
:104CD000A4F8805D0BF1080B002B3FF44AAABA4BF5
:104CE0001B88412B7FF64FAAB84A4121106810F06B
:104CF0009DFCB74A03460A2158461EF019FD149838
:104D0000C4F888BD19F002FE40231498ADF88C3128
:104D100062A9629619F017FE14991AEE900A17F01C
:104D20007FFA1AEE901A18EE100A17F079FA972106
:104D30000A461BEE100A0091A02340F24111FEF733
:104D4000A8F86C2196232422529800910421FEF7A2
:104D5000A0F85299C4F8E08D1BEE100A17F060FA23
:104D6000292107223A98009165230621FEF791F840
:104D700023233A98C4F8148E62A9A4F8185EADF8FB
:104D80008C31629619F0DFFD3A991BEE100A17F08C
:104D900047FA4B466FF014023B98CDF80090512132
:104DA000FEF777F84FF4A061C4F8501EC4F8541E03
:104DB0004FF4F071C4F8581E4FF434513B98C4F8C6
:104DC000601EC4F8645E5499C4F85C5EC4F8808EBA
:104DD00019F032F83B991BEE100A17F021FA2F2137
:104DE00000912C233C985A222B21FEF752F8DAF836
:104DF0000030C4F8B47E04F5D25BA4F8B85E0BF1C1
:104E00001C0B002B3FF4B5A96F4B1B884B2B7FF677
:104E1000BAA96E4A4B21106810F008FC6C4A034690
:104E20000A2158461EF084FC4A233C98C4F8C0BEB0
:104E300062A9ADF88C31629619F085FD3C991BEEA4
:104E4000100A17F0EDF924223D986921FEF714F8B5
:104E500049233D98C4F8F47E62A9A4F8F85EADF841
:104E60008C31629619F06FFD3D991BEE100A17F018
:104E7000D7F95A223E985B21FDF7FEFF48233E9862
:104E8000C4F8307F62A9A4F8345FADF88C31629623
:104E900019F059FD3E991BEE100A17F0C1F915984B
:104EA00024222621FDF7E8FFDAF80030C4F86C7FF1
:104EB00004F5D35BA4F8705F0BF1100B002B3FF4EB
:104EC00058A9414B1B88472B7FF65DA93F4A4721D4
:104ED000106810F0ABFB3E4A03460A2158461EF00C
:104EE00027FC1598C4F878BF19F010FD46231598D3
:104EF000ADF88C3162A9629619F025FD15991BEE6B
:104F0000100A17F08DF91BEE101A18EE100A17F0A0
:104F100087F997211BEE900A0091A023072240F207
:104F2000E111FDF7B6FF6C219623242253980091DE
:104F30000421FDF7AEFF5399C4F8D08F1BEE900A01
:104F400017F06EF9292107223F9800916523062169
:104F5000FDF79FFF41F204033F9844F8038041F2BC
:104F600008036296E552242662A9ADF88C6119F017
:104F7000EAFC3F991BEE900A17F052F96FF0160207
:104F80000498CDF800904B465121FDF782FF04F5BF
:104F900082534FF4A061196041F244030498E15038
:104FA00041F248034FF4F071E15041F254034FF4E1
:104FB0003451E55041F24C03E55041F25003E150C9
:104FC00041F2700306E000BFB8170120C0170120AE
:104FD000BA330308619944F8038018F02DFF04994F
:104FE0001BEE900A17F01CF92A211DEE900A32469A
:104FF000FDF742FF41F2A4031DEE901AE750DAF8E4
:1050000000308D8604F5D4550435002B3FF4B1A84B
:10501000D14B1B88512B7FF6B6A8D04AD04E1068D2
:10502000512110F003FBCF4A03460A2128461EF007
:105030007FFB41F2B0031DEE900AE55019F066FCCB
:105040001DEE900A62A9ADF88C91629619F07BFC76
:105050001DEE901A1BEE900A17F0E2F85A221EEE8F
:10506000900A6121FDF708FF1EEE901A41F2E40359
:105070000025E7501EEE900A4F238D8662A9ADF8F9
:105080008C31629619F05FFC1EEE901A1BEE900AAE
:1050900017F0C6F825221FEE100A6B21FDF7ECFE73
:1050A00004F589531FEE101A1F608D864FF04E01D4
:1050B0001FEE100AADF88C1162A9629619F043FC3C
:1050C0001FEE101A1BEE900A17F0AAF82F2100917C
:1050D0002C231FEE900A5A22FDF7DBFECA4641F24E
:1050E0005C13DFF88492E7501FEE901AD9F8003075
:1050F0008D8604F5D45808F11808002B3FF439A820
:10510000954B1B884D2B7FF63EA8944A4D21106885
:1051100010F08CFA934A03460A2140461EF008FB21
:1051200041F268131FEE900A44F8038062A94C23F1
:10513000ADF88C31629619F006FC1FEE901A1BEE4A
:10514000900A17F06DF81BEE901A18EE100A17F07F
:1051500067F897210A4618EE900A0091A0234FF4B1
:10516000F071FDF796FE6C2124221698009196238B
:105170000521FDF78EFE04F58E534FF0FF3816998A
:10518000C3F8008018EE900A17F04AF82921072288
:105190000598009165230B21FDF77BFE41F2F41386
:1051A0004FF0250144F8038004F58E5305981D87C0
:1051B000ADF88C1162A9629619F0C5FB059918EE3D
:1051C000900A17F02DF86FF014024098CDF800A067
:1051D00053465221FDF75DFE41F230234FF4A061AA
:1051E000E15041F234234098E15041F238234FF42A
:1051F000F071E15041F244234FF43451E55041F253
:105200003C2304F5D55BE55004F592530BF10C0BF0
:10521000196004F593536099C3F8008018F00CFEF0
:10522000409918EE900A16F0FBFF2F2100912C23D5
:1052300006985A223021FDF72CFE41F29423E750C4
:1052400004F593531D87D9F80030002B3EF491AF3D
:10525000414B1B88572B7EF696AF404A572110686A
:1052600010F0E4F93F4A03460A2158461EF060FA5E
:1052700004F595530698C3F800B062A95623ADF81B
:105280008C31629619F05FFB069918EE900A16F0C1
:10529000C7FF242207986C21FDF7EEFD41F2D423CD
:1052A0000798E75004F5955362A91D875523ADF87B
:1052B0008C31629619F047FB079918EE900A16F0A8
:1052C000AFFF5A2241986221FDF7D6FD41F210331B
:1052D0004198E75004F5975362A99D865423ADF891
:1052E0008C31629619F02FFB419918EE900A16F056
:1052F00097FF029824222B21FDF7BEFD41F24C338B
:1053000004F5D65BE75004F59853A3F85050D9F84C
:105310000030002B3EF42DAF0F4B1B88532B7EF635
:1053200032AF0E4A5321106810F080F90D4A03463F
:105330000A2158461EF0FCF941F25833029844F80D
:1053400003B019F0E3FA52230298ADF88C3162A948
:10535000629619F0F8FA09E0B8170120C017012089
:10536000A0270308BA330308B4170120029918EEE6
:10537000900A16F055FF18EE901A18EE100A16F063
:105380004FFF972119EE100A0091A023072240F247
:105390008121FDF77EFD6C21242217980091962330
:1053A0000421FDF776FD41F2B033179944F80380EC
:1053B00019EE100A16F034FF2921072208980091EF
:1053C00065230521FDF765FD41F2E433089844F8B3
:1053D000038004F59D5362A9A3F848502623ADF835
:1053E0008C31629619F0AFFA089919EE100A16F08E
:1053F00017FF6FF016020998CDF800A053464E2112
:10540000FDF747FD04F5A1534FF4A061196041F287
:1054100024430998E15041F228434FF4F071E150E0
:1054200041F234434FF43451E55041F22C43E550FE
:1054300041F23043E15041F250435F9944F8038018
:1054400018F0FAFC099919EE100A16F0E9FE5A2232
:105450000A986621FDF710FD41F284430A98E7504F
:1054600004F5A25362A9A3F848505B23ADF88C3130
:10547000629619F068FA0A9919EE100A16F0D0FE31
:10548000039824222F21FDF7F7FC04F5A6530BF116
:1054900014081F6004F5A453A3F84450D9F8003051
:1054A000002B3EF466AECF4B1B885D2B7EF66BAEB9
:1054B000CD4A5D21106810F0B9F8CC4A03460A21A4
:1054C00040461EF035F941F2CC43039844F803807E
:1054D00019F01CFA5C230398ADF88C3162A962962E
:1054E00019F031FA039919EE100A16F099FE2522E7
:1054F0000B986B21FDF7C0FC04F5A8530B981F60B7
:1055000004F5A6536296A3F844505A2662A9ADF852
:105510008C6119F018FA0B9919EE100A16F080FE3A
:105520002F2200922C230C9832463421FDF7B1FC37
:1055300041F23C53E75004F5A853A3F84050D9F882
:10554000003004F5D7550835002B3EF412AEA54BBC
:105550001B88592B7EF617AEDFF88C92A44ED9F833
:105560000000592110F062F8A04A03460A2128469B
:105570001EF0DEF841F248530C98E55062A958231A
:10558000ADF88C31629619F0DEF90C9919EE100A1B
:1055900016F046FE19EE101A18EE100A16F040FE2C
:1055A000972219EE900A0092A0234FF420714FF039
:1055B0006C0BFDF76EFC24221898CDF800B09623F2
:1055C0000521FDF766FC04F5AD534FF0FF371F6072
:1055D000189919EE900A16F023FE292307220D9838
:1055E00000936FF003017B23FDF753FC41F2D4538A
:1055F0000025E75004F5AD530D981D8762A92723B8
:10560000ADF88C31629619F09EF90D9919EE900A59
:1056100016F006FE53464298CDF800A06FF0140233
:105620005221FDF736FC41F210624FF4A063A35003
:1056300041F214625E99A35041F218634FF4F07284
:10564000E25041F224634FF43452E55041F21C63BE
:105650004298E55004F5B153DFF898A11A6004F5BB
:10566000B25304F5D7581F6018F0E6FB429919EEC3
:10567000900A16F0D5FD2F2300930E982C235A2262
:105680003521FDF706FC41F274634FF07F47E75088
:1056900004F5B25308F11C081D87DAF80030002B1E
:1056A0003EF467AD4F4B1B88632B7EF66CAD6321D8
:1056B000D9F800000FF0BAFF4C4A03460A214046D1
:1056C0001EF036F804F5B4530E98C3F8008062A9B2
:1056D0006223ADF88C31629619F035F90E9919EE06
:1056E000900A16F09DFD24220F985946FDF7C4FB41
:1056F00041F2B4630F98E75004F5B45362A91D87D3
:105700006123ADF88C31629619F01DF90F9919EEED
:10571000900A16F085FD199824223021FDF7ACFB84
:1057200041F2F06304F5D858E75004F5B65308F198
:1057300010089D86DAF80030002B3EF41AAD294B94
:105740001B88602B7EF61FADD9F8000060210FF09A
:105750006DFF264A03460A2140461DF0E9FF41F24B
:10576000FC63199844F8038019F0D0F85F23199866
:10577000ADF88C3162A9629619F0E5F8199919EE25
:10578000900A16F04DFD5A2243986721FDF774FBED
:1057900041F230734398E75004F5B85362A99D86EF
:1057A0005E23ADF88C31629619F0CDF8439919EE6D
:1057B000900A16F035FD4FF49D7719EE901A18EE09
:1057C000100A16F02DFD1CEE100AA22200972123CC
:1057D0009B21FDF75EFB41F2C4734FF0FF26E650BC
:1057E0005D9909E0B8170120C0170120BA330308FA
:1057F000A0270308B41701201CEE100A18F01CFBA8
:105800001CEE100A29464FF4086218F0F9FD4FF417
:1058100017521CEE100A294618F0FDFD1CEE100A66
:105820001421FEF7D3F81CEE100A022118F0FEFD39
:105830001CEE900AA2220097212340F23B11FDF7B3
:1058400028FB41F650035C99E6501CEE900A18F0D4
:10585000F3FA1CEE900A29464FF4086218F0D0FDC6
:105860004FF417521CEE900A294618F0D4FD1CEE96
:10587000900A1421FEF7AAF81CEE900A022118F0F3
:10588000D5FD1DEE100AA2220097212340F2DB1164
:10589000FDF7FFFA41F6DC035B99E6501DEE100AB6
:1058A00018F0CAFA1DEE100A29464FF4086218F0E3
:1058B000A7FD4FF417521DEE100A294618F0ABFD54
:1058C0001DEE100A1421FEF781F81DEE100A0221C8
:1058D00018F0ACFD1EEE100AA2220097212340F220
:1058E0007B21FDF7D6FA41F668135A99E6501EEE71
:1058F000100A18F0A1FA1EEE100A29464FF40862A9
:1059000018F07EFD4FF417521EEE100A294618F0CB
:1059100082FD1EEE100A1421251DFEF757F81EEE1B
:10592000100A022118F082FD4499284616F078FCEE
:105930004599284616F074FC4699284616F070FCE6
:105940001A99284616F06CFC4799284616F068FC10
:105950001B99284616F064FC1C99284616F060FC3A
:105960001D99284616F05CFC1E99284616F058FC36
:105970001F99284616F054FC2099284616F050FC32
:1059800018EE101A284616F04BFC1CEE101A28468A
:1059900016F046FC1CEE901A284616F041FC1DEE4F
:1059A000101A284616F03CFC28461EEE101A16F077
:1059B00037FC204665B0BDEC108BBDE8F08F00BF12
:1059C0007047704710B547F2D85104462BF051FA92
:1059D000204610BD012908B505D11AF0A7FEBDE883
:1059E0000840FCF777BC08BD2DE9F04F2DED108B7A
:1059F0000446ADF29C4D1CF001FA22464FF0000A1D
:105A0000E24BC4F83CA042F8403B1046CDF82024BD
:105A1000FDF752FA04F16C031846CDF82434FDF773
:105A20004BFA04F198031846E393FDF759FA04F191
:105A3000D4031846E493FDF753FA04F58873184627
:105A40000AEE103AFDF79CFF04F59E731846CDF858
:105A50002834FDF7A1FF04F5B873184604F5CE7895
:105A6000A99304F5E47BFDF78BFF4046FDF788FF23
:105A70005846FDF785FF04F5FA731846CDF82C3427
:105A8000FDF78AFF04F50A731846E593FDF728FA37
:105A900004F519731846AA93FDF78CFF04F52973D2
:105AA0001846E693FDF71CFA04F53873184621935F
:105AB000FDF766FF04F543731846CDF83034FDF763
:105AC0006BFF04F550731846E793FDF709FA04F5E8
:105AD0005F731846AB93FDF76DFF04F56F731846BF
